:100000000C943F21189518951895189518951895E2
:100010001895189518951895189518951895189578
:10002000189518950C94191A1895189518951895EF
:100030001895189518951895189518951895189558
:100040001895189518951895189518951895189548
:1000500018951895189518950C941A1918951895BF
:100060001895189518951895189518951895189528
:1000700018951895189518950C94A6180C949B181B
:100080000C94A01818951895189518950000000064
:100090006D046E047C057E05AE046E048005820549
:1000A000AF046E0484058605B0046E0488058A05D5
:1000B000B4046E048C058E05BD046E049005920593
:1000C000BE04BF04940596050C05BF0498059A0567
:1000D00023052B059C059E05AB05B3050000C1C09B
:1000E00081C1400101C3C003800241C201C6C006F4
:1000F000800741C70005C1C581C4400401CCC00CC4
:10010000800D41CD000FC1CF81CE400E000AC1CA83
:1001100081CB400B01C9C009800841C801D8C01873
:10012000801941D9001BC1DB81DA401A001EC1DEF3
:1001300081DF401F01DDC01D801C41DC0014C1D4E3
:1001400081D5401501D7C017801641D601D2C01203
:10015000801341D30011C1D181D0401001F0C030D3
:10016000803141F10033C1F381F240320036C1F6F3
:1001700081F7403701F5C035803441F4003CC1FCC3
:1001800081FD403D01FFC03F803E41FE01FAC03A83
:10019000803B41FB0039C1F981F840380028C1E8B3
:1001A00081E9402901EBC02B802A41EA01EEC02EF3
:1001B000802F41EF002DC1ED81EC402C01E4C024E3
:1001C000802541E50027C1E781E640260022C1E203
:1001D00081E3402301E1C021802041E001A0C06013
:1001E000806141A10063C1A381A240620066C1A6F3
:1001F00081A7406701A5C065806441A4006CC1ACC3
:1002000081AD406D01AFC06F806E41AE01AAC06A82
:10021000806B41AB0069C1A981A840680078C1B872
:1002200081B9407901BBC07B807A41BA01BEC07EF2
:10023000807F41BF007DC1BD81BC407C01B4C074E2
:10024000807541B50077C1B781B640760072C1B202
:1002500081B3407301B1C071807041B00050C19052
:10026000819140510193C053805241920196C056F2
:10027000805741970055C19581944054019CC05CC2
:10028000805D419D005FC19F819E405E005AC19A82
:10029000819B405B0199C059805841980188C048B2
:1002A00080494189004BC18B818A404A004EC18EF2
:1002B000818F404F018DC04D804C418C0044C184E2
:1002C000818540450187C047804641860182C04202
:1002D000804341830041C181818040400000000093
:1002E00000000000820883088408830800000000E2
:1002F00000000000F508830800098308DF0A170BD7
:1003000000000000303C202D101C000D313D212C40
:10031000111D010C343E242B141E040B353F252ADD
:10032000151F050A363926291619060937382728D0
:1003300017180708E70B830800000000F20B060CF3
:1003400000000000730C8308890C7A237A237A2337
:100350007A23661069100000000097105911691186
:1003600046117311C911EF12F612B210ED12890C79
:10037000571167116E117611F212F9126A0300001B
:1003800000004413C4142C13411383080000000020
:1003900016154515FE1413158308E815FB157A2369
:1003A0007A237A237A237A237A231A171D172017A0
:1003B0002317261729172C172F17321735178916C9
:1003C000FB159A169B169C16A116A2168A163817AC
:1003D0003B173E174117441747172C172F17321793
:1003E0003517A516FB15B516B616B716B816BA16F4
:1003F000A6164A174D1750175317561759172C178B
:100400002F173217351700000000BC16FB15EA162F
:10041000EB16EC16F216F316D2161A171D17201744
:100420002317261729172C172F1732173517FA16E7
:10043000FB1512171417151717171917FB161A178C
:100440001D1720172317261729172C172F173217B8
:1004500035179417C718C719000000007619001443
:1004600000000107160002101F0003803100044045
:10047000B3000518F50006800F01075191010851DE
:10048000E401095137020A088A0202013000000023
:1004900000000000000000000000000000006F0AE3
:1004A000012F0873060000171B0000000000000069
:1004B000000000000000000000BEF0000102030484
:1004C00005060708090A0B0C0D0E0F101112131464
:1004D00015161718191A1B1C1D1E1F202122232454
:1004E00025262728292A2B2C2D2E2FFFFFFFFFFF43
:1004F000FFFFFFFFFFFFFFFFFFFFFFFFFFFFFFFF0C
:10050000FFFFFFFFFFFFFFFFFFFFFFFFFFFFFFFFFB
:10051000FFFFFFFFFFFFFFFFFFFFFFFFFFFFFFFFEB
:10052000FFFFFFFFFFFFFFFFFFFFFFFFFFFFFFFFDB
:10053000FFFFFFFFFFFFFFFFFFFFFFF95A0303036A
:10054000030303030303030303030303030303037B
:100550000303030303020202020202020202020276
:10056000020202020202020202020202020202026B
:100570000202020202020202020202020239413EA9
:100580003E3E3E3C3C3C3CFFFFFFFFFFFFFFFFFFCA
:10059000FFFFFFFFFFFFFF4B6F0102040810204029
:1005A00080000000000000000000000000000000CB
:1005B000000000000000000000000000000000003B
:1005C000000000000000000000000000000000002B
:1005D000000000000000000000000000000000001B
:1005E000000000000000000000000000000000000B
:1005F00000000000000000000000000000000000FB
:1006000000000000000000000000000000000000EA
:1006100000000000000000000099E8010102100045
:1006200020000000000000000000000000000000AA
:1006300000000000000000000000000000000000BA
:1006400000000000000000000000000000000000AA
:10065000000000000000000000000000000000009A
:1006600000000000000000000000000023E2010183
:10067000050000FF00000000000000000000000076
:10068000000000000000000000000000000000006A
:10069000000000000000000000000000000000005A
:1006A000000000000000000000000000000000004A
:1006B0000000000000000000000000000000007BBF
:1006C0009C0101050100FF00000000000000000087
:1006D000000000000000000000000000000000001A
:1006E000000000000000000000000000000000000A
:1006F00000000000000000000000000000000000FA
:1007000000000000000000000000000000000000E9
:100710000000FB6C0000000000000000400B000027
:1007200000000101010101010101010000000000C0
:1007300000010100000000000001010000000000B5
:1007400000010100000000000001010101010101A0
:10075000010101011410EC0F01EF0F01F20F01F57F
:100760000F01F80F01FB0F01FE0F0705100102102A
:10077000010810010B10060E102A1B10031B10019C
:100780001B10011110FB020081121000D611D911AB
:10079000EC11FF111012151221127D122A122D12C6
:1007A00045125A1265126C1275127D1201015F1604
:1007B0001516062416011A16012216043416012BEA
:1007C00016013216044E160139160140160145165F
:1007D000014C16010E16010316010B1604511601E9
:1007E0005616065C16FB000049201000D61F492053
:1007F000EF1FFC1F17201A201D2027202D2032203C
:100800003320382039203C20412047208C06291AEB
:100810005CD000E910E007D037C021D008E910E033
:1008200002D000E030C0FD010183128308951FD083
:1008300009F0F3CF19C013D000EA10E022C017D09E
:1008400009F0F9CF11C00BD008EA10E01AC00FD0A0
:1008500009F0F9CF09C003D000EB10E012C029D095
:10086000D7CF05D009F0F7CF00E010E0089506E0FB
:1008700010E00E945422202F212B0895F0DF08EB76
:1008800010E0D1DF01E00C938D01A991B991089599
:10089000EEDF09F0F3CFE8CFE2DF00EC10E0F1CFBC
:1008A000E6DF09F0F9CFE0CF04D0F6DF08EC10E086
:1008B000E8CFBA93AA93D8010895D9DF09F0F4CF0D
:1008C000D3CF03D000ED10E0DCCFF3DF0C946C0845
:1008D00005E0CEDF09F0F5CFC7CF43C065D081D0AA
:1008E00049F00A9579F00A95E1F00A9521F10A9507
:1008F00031F129C087D039F15ED009F076D065D0CA
:1009000002E020C023D021F0E2D011E060D00DC081
:100910000091C10C0023B9F0DAD011E058D003E007
:1009200011C00091C20C002311F004E00BC06AD08A
:1009300021F405E007C066D021F038D004C006D00D
:1009400011F049D00C93E5E00C942F225BD011F00C
:1009500020E037D00091C20C0023089505C004C0E8
:1009600003C072D00C94312201D0FCCF66D019F0B4
:100970005AD0B3DF5CD0E3E00895F6CFF5CF14D0C2
:1009800030D019F0055049F00EC03CD061F013D0C2
:1009900009F02BD01AD006E005C034D011F006D0F3
:1009A00002C019D00C93CFCF0C941E2220E01496D5
:1009B0008D010C94801E21E004D00091C50C033001
:1009C00008958D010C5F1F4FF4CF19D0102FFD013A
:1009D00003810C943C1F0E94281F10E0F8DF01E007
:1009E0000895D8010C910A95089569D072D08017A6
:1009F00028F405D00093C50C0E94171F089559D004
:100A0000349668C074D005810E94F91E402E8D0175
:100A1000FC0160D04026089510D019F004D0AEDF5C
:100A200006D0E3E09FCF20E030E0082F0895A0FB40
:100A30001EF48C010E94592108950E942022C801B1
:100A4000A22F012B08958DCFF8DF21F0ECDF0E945B
:100A50008208EDDF90CFA8DFC4DF29F00A95C9F046
:100A60000A95F1F025C03AD019F10091C50C063075
:100A700051F025D02ED0801730F41BD02AD000930F
:100A8000C50C0E941C1FFD0103810E948E1F02E005
:100A90000EC00091C10C002359F019D003E007C02B
:100AA0001DD031F40E94281F0E94A51F01E00C9365
:100AB0004ACF8D011196ED91FC9112970895809186
:100AC000C50C8D01FD012181F281E22F08950C9466
:100AD000251F34962591F491E22F099408D00481C2
:100AE0000E94041F402E8D01FC01F4DF93CFFD0115
:100AF000818192810696089500E0089500E00895AE
:100B000000E0089500E0089502E0089500E00895EF
:100B100002E0089501E0089503E0089500E00895DB
:100B200003E0089501E0089501E0089500E00895CC
:100B300001E0089501E0089506E0089500E00895B9
:100B400028ED30E0F8012483358320E020832183E1
:100B5000228323830895402F412B21F020FB16F49C
:100B60000E9459210895402F412B21F020FB16F4BB
:100B70000E94592108951B98139A1C98149A08955D
:100B800008EF12E002C00AE81CE00E94EA191B9A72
:100B90001C9A08951B981C980C94101A6FEF7FEF05
:100BA00040E00FC0F80151918F015627E2E05E9FAF
:100BB000F001E452FF4F059014907025672F712DBE
:100BC000439550E04217530768F38B0108950DD009
:100BD000FCCF0BD03081631729F40181701711F419
:100BE00001E001C000E010E0089560E070E050E036
:100BF000F80141918F01640F751F21503040C1F7FA
:100C0000089540E0F80151918F01450F2150304087
:100C1000C9F70081401711F401E001C000E0E3CF03
:100C20009A938A930E94900690E081E02AC00091F6
:100C30000D08043099F409C000910D08033019F42F
:100C4000939581E00BC0043049F483E007C001E0D4
:100C500089919991089500E0FBCF84E00E94FB0602
:100C60000AE010E00E94B719A895082F0A9539F0FC
:100C70000A9511F30A9579F30A9549F3EFCF9B3062
:100C800060F7292F0EE01BE00E9465089801032BF6
:100C9000E1F2492F43950EE01BE00E94FA07002382
:100CA00031F282E0DBCF0C94280800E00093C30C03
:100CB0000E944E07002371F00E940C08002351F09F
:100CC0000E943308002311F001E0089504E000932E
:100CD000C30C04C004E00093C30CA2DF00E008953D
:100CE00023950C94B1060B3050F403950C3038F476
:100CF00018E0019FF001E257F84F068101C000E0C3
:100D000010E00895B801022FEEDF2395422F9801DD
:100D10008B010E94FA07F4CF0EE018E00C949D209E
:100D2000EAE0F8E00EE01BE09CD100E0028344E63C
:100D300050E020E030E00EE817E00E944B22EEE8A1
:100D4000F7E000E110E00483158304E606831783CF
:100D500009E90087118709EA02831383108311834D
:100D600008950E941C22DA952801622E2C30E8F5A5
:100D700008E0609E39D104811581012BB1F1808595
:100D80009185082F092B89F1AC012481312F8E0127
:100D90000E94D218AC019E018E010E94540AC80123
:100DA00003301040F8F00297FD010681178180178B
:100DB0009107C1F4FE01E80FF91FA081B1819C01E8
:100DC00081D1A017B10771F402E0609EF001EE50EE
:100DD000F84FA083B183AC019E0182010E943B22A7
:100DE0008C0105C004E00093C30C00E010E0D39533
:100DF000E7E00C942D2200910C080A9559F00A9511
:100E000061F00A9579F00A95C1F00A9509F10A9501
:100E100021F1089538D002E00FC0E19909C039D01E
:100E200003E00AC000915D08002311F004E004C053
:100E300024D0F9F004E0ECD01DC040E024E630E01E
:100E40000EE817E082D0012BA9F31DD005E0F4CF06
:100E5000E199EECF1ED006E0EFCF00915D080023B0
:100E600011F003E0E8CF09D021F004E0D1D00093E5
:100E70000C08089500930C0808950EE018E00E94F5
:100E8000AC200023089528EC30E00EE018E00C942C
:100E90009E2020E137E2F9DF0C9467080E941D22B2
:100EA0003FDF20E00EE817E05CDF012B21F1552445
:100EB00050921208AAE0B8E03AC006E018C0452DEA
:100EC0009C010D911C91119795D0002311F003E026
:100ED0000EC000910D08043099F408C000910D086F
:100EE000033011F404E003C0043051F405E0402E57
:100EF00007C001E071C000E0FDCF53944424439447
:100F00007ADF0AE010E00E94B719A895042D0A952F
:100F100059F00A95A1F20A9509F30A9571F30A9519
:100F200051F30A9531F3ECCF0CE0501630F6252D35
:100F30000D911C91119715DFC801012BB9F2009199
:100F40001208002379F202E0D2CF0E941D22DA9526
:100F5000D801C901442E4C3018F000E010E03BC02D
:100F6000A90198018E010E943B229C018D010E94E3
:100F7000CE05FE01E80FF91F74D028E0429E34D060
:100F800002871387AC014E5F5F4F9E01EAE0F8E0F5
:100F9000008111810E94010A2801FD01008511854F
:100FA000012B71F41CD0FD010483158318D0040DAE
:100FB000151D02831383FD01868397834086518626
:100FC000A201EAE0F8E020813181FD010481158170
:100FD0000E94E0188201D395E6E00C942E22EEE800
:100FE000F7E0028113810895AEE8B7E0A00DB11DCE
:100FF000FD01089550910C08552349F4A6DF012BFB
:1010000021F001E000930D0835CF04E001C002E0BB
:1010100000930D0800E00895392F082E81E090E03C
:101020002AE08C01000F111FF801EE50F84F60818B
:1010300071813AD0028513856017710711F000E0C5
:1010400004C001962A9569F701E0802D932F089539
:1010500017D01DD0F1F730D004D0669689919991C0
:10106000089500837CCE0CD012D0F1F725D02081DA
:1010700031812017310711F401E001C000E0EDCF0C
:101080009A938A93669780E090E02BE008950CD0C5
:1010900002891389FE01AC01440F551FE40FF51FAF
:1010A000E0DF01962A95089543E08C010E946B21B0
:1010B000F801E257F84F089526E130E003D0EEE85A
:1010C000F7E008958E010C94CE050C94421900E0CF
:1010D00000935D08E39A089524EE32E0F80121833D
:1010E000328320E020830895AD01D801F5DF08EEBA
:1010F00012E0FD010183128300E0038304838D016C
:10110000DA01089501C00895402F412B21F020FB02
:1011100016F40E94592108953AD00B7F3DD037D064
:101120000F7E3AD037D000916100046006D0006194
:1011300004D0026000936100089500936100009163
:101140006100089540E050E00FC03F7E30936200A0
:101150003091620034603093620000003091620090
:101160003B7F309362004395421750F4F801E40F3F
:10117000F51F308133233091620039F33061E6CFBF
:1011800009D000C000C0000002D00D7F05C0009152
:1011900062000895FCDF0260009362000895BA9334
:1011A000AA93D8010E94740804EF12E019D0A99103
:1011B000B99108950E941F22D801C90109D0FD01EB
:1011C0008187928700E00C938D01E4E00C9430223B
:1011D000E6DF08EF12E004D00B5F1F4F0C949D2058
:1011E000FD01018312838D01089518D031F020E0B4
:1011F00030E0082F0E9484080BD0E3E00C943122E9
:101200000DD029F020E030E0082FEFDF01D0F5CF3E
:10121000A0FB1EF48C010E94592108950E942022F7
:10122000C801A22F012B08950E941F22D801922FDE
:10123000832F0C91002329F00A9541F00A95E9F0DB
:1012400035C0FD0100E0038701E015C0222321F035
:10125000FD01038501600387332321F0FD01038530
:1012600002600387FD01218532850A2F0B5F1F4F26
:101270000E949E2002E00C9319C00A2F0B5F1F4FA3
:101280000E94AC20002319F000E00C9310C0FD0177
:101290000385992309F00160882309F00260038720
:1012A000033000E021F40C9301E001C000E08DCF99
:1012B000302F50E0E0E0F0E028E0032F10E04E2F68
:1012C0000E9475210170502731962A95B1F7552358
:1012D00009F401C002C001E0089500E00895B801DA
:1012E00030E0E0E0F0E02CE04E2F8B010E94702116
:1012F0000170302731962A95B9F7332309F4EBCFE3
:10130000ECCF8A93802F007F29D0302E082F0E78C3
:1013100025D0202E082F0D7621D0102F00E1809FA0
:10132000712D08E0809F00E70022602D082F0170DA
:1013300024E0029F602900E8309E6029712908E0BE
:10134000209E6029712902E0109F602971298B7508
:10135000082F04D0062B172F89910895A9CF0801D3
:1013600000E01F7020D007FA10E010F9011711F00B
:1013700058E001C050E080010077187014D003FAE3
:1013800013D0000F502B8001047616700CD001FA98
:101390000BD0502B80010475157005D0102D1170E5
:1013A00008D0052B08959BCF10E010F902D0000F54
:1013B0000895011709F08FCF90CFB801222351F083
:1013C000209312082A9501E010E0422F0E946B2121
:1013D000062717270895202F44E00E947021007FE0
:1013E000122F1695169516951E70012B22FB10E0F4
:1013F00010F9012B08951801B2DF202F8101DDDFE4
:10140000EACF0E941522239749835A833801490164
:1014100080E090E0442455248883098100FF03C0C4
:101420001A810150A4D0AA24BB241AC038D0680164
:1014300001E0400E00E0501E32D020E030E04CE0F1
:101440000E94A7211D2941E0440E40E0501ECC928D
:1014500021D010831FD02083019602E0A00EB41E7D
:10146000D301A80FB91F7CD0A016B106F8F20881ED
:10147000002359F0840C951CF40114D00C930196B0
:10148000680E791EF301108301968C012396EEE01D
:101490000C9426220196F301E80FF91F0895F40138
:1014A000E40DF51D00812DCF0E941322239749835F
:1014B0005A836801590188249924662477248882F4
:1014C00043E050E04DD00E947821413000E05805C3
:1014D00011F410E041C04230504019F441D00250A4
:1014E00046D0EE24FF2425C0808190E0A0E0B0E04B
:1014F00001E0600E791E37D01081912F600E7A1EA8
:1015000032D0A081600E7B1E082F37D04CE08C01BA
:101510009D010E94AE216FDF102F01E0800E9B1E07
:10152000F601E80DF91D1083800E9B1E03E0E00E0E
:10153000FB1E2601480C591C16D012D0E016F106ED
:1015400098F20881002339F00081118116D001E062
:10155000800E00E0901E84012396E0E10C9424228A
:1015600009811A810895F501E60DF71D08951040CF
:1015700009831A8301E0088308951F703CDFF2019C
:1015800000830895A991B99108950E941F22D8015E
:10159000C9010BD0FD018583968300E00087078396
:1015A0000C938D01E4E00C9430220E9474080CEF3F
:1015B00012E0FD010183128395D00C949D200E94BE
:1015C0002022C801A22F012B51F020E030E0082F8B
:1015D0000E948408A0FB1EF48C010E945921E3E0C4
:1015E0000C9431220AD01596ED91FC9109950023B7
:1015F00011F001E001C000E0C5CFBA93AA93D80171
:1016000008950E941F22D801822FF8012181F281C2
:10161000E22F32962591F491E22F0995FD01078181
:10162000081700E019F40783008701E0BBCFE5DF6E
:101630000C91002369F00A9581F00A95A9F00A95AA
:10164000F1F00A9539F10A95A1F10250F1F141C08A
:10165000FD010085078301E03BC03CD0D1F124E6C9
:1016600030E047D002E034C035D0F9F037D089F10E
:101670002CED35E03BD002E0008703E029C02AD002
:10168000A1F02CD031F128EB3BE030D003E0008713
:1016900004E01EC01FD049F021D0D9F028E833E182
:1016A00025D004E0008705E013C0FD010085078315
:1016B0000EC010D061F012D061F022E330E016D0FD
:1016C00005E00087078307E003C004D011F400E0C1
:1016D0000C9358CF0A2F86DF0023089503D00E9471
:1016E000AC20FACF8D01075F1F4F089502D0FD0196
:1016F0000895F8DF0C949E20E3E5F8E00083118361
:10170000009162000E7F00936200009162000F7DE5
:10171000009362001E981F98009161000160009381
:10172000610000916100006200936100169A179AAF
:101730000C948C08BA93AA9320E030E3E22FF0E0F7
:10174000EC5FFC4F049110E0E3E1F8E0E00FF11FE3
:10175000022F46E050E00E946121A801A3E5B8E015
:101760000D911C91040F151FD8010C91002311F04D
:1017700001E001C000E0008323953A95F9F620E4EA
:1017800003E118E00E94A208A991B99108951BD025
:101790000E94740804E313E0FD01018312838D01AC
:1017A0000B5F1F4F0E949D208D01A991B991089553
:1017B0000AD0EDDF0CE313E0FD01018312837CD03E
:1017C00001E00C93F1CFBA93AA93D801089518D0F1
:1017D00031F020E030E0082F0E9484080BD0E3E0D5
:1017E0000C9431220DD029F020E030E0082FEFDFFB
:1017F00001D0F5CFA0FB1EF48C010E945921089561
:101800000E942022C801A22F012B0895DCDF0C9139
:101810000A9539F00A9581F00A95B9F00A9571F1A7
:101820004AC00E94A31C002329F00E94B11C00237F
:1018300081F53FC000E03EC0FD0104810130D9F5D3
:101840003BD001E00E94B61C24C0FD0104810130A0
:1018500049F432D00E94AA1C980115968D010E946D
:101860009E2029C00A2F0B5F1F4F0E94AC2000232F
:1018700011F105E00093C30C04E01CC0FD010481DC
:101880000A9519F00A9579F016C016D00CE000936D
:10189000BA0C0E94AA1C98018D010B5F1F4F0E9479
:1018A0009E2003E007C008D00E94B61C0CE0009305
:1018B000BA0C02E00C9379CF00E00483089500E0B5
:1018C0000093BA0C0E94CE1FFDCFBA93AA93D80101
:1018D0000E94740804E413E0FD01018312838D016A
:1018E000A991B99108950E942022C801A22F012B2D
:1018F00051F020E030E0082F0E948408A0FB1EF485
:101900008C010E945921E3E00C943122F8012583D7
:101910000895F8010081002309F401C002C001E02C
:10192000089500E008950E941F22D801C901F8011E
:101930006181F281E62F369610D3A8019C018D01BA
:101940001196ED91FC913C9608D3E4E00C94302282
:101950000E941F22F801842FDB01AB0130683CD2CA
:10196000A00FB11F8C9335D2F0CFF9D119010A0124
:1019700050E0662420E030E04A845B848C859D85BD
:1019800002C06394E7D0F201EFD120153105C0F415
:10199000410101E0200E00E0301EDB01A80DB91D61
:1019A0000C91002329F001E010E0462D50D3502B7C
:1019B00007E0601631F75083019650E06624E2CFCD
:1019C000662011F0508301968C01EEE0C6C1B5D0BF
:1019D0003DD021F0813D07E0900710F01AD106C0FC
:1019E000FD01028D138D28D018F410D145D104C00B
:1019F00039D06289738926D005D002C08C01E8E015
:101A00000C942C2298018901E8E0089596D01ED00C
:101A100021F0813D07E0900710F0FBD006C0FD01EA
:101A2000048D158D09D018F4F1D026D104C01AD038
:101A30006489758907D0E0CF572D480F591F0417C7
:101A400015070895AC0193018D018FCFD801C9010D
:101A50002A01A4D071804281642E93810481802F59
:101A6000092B0895A2018BD011D043E08C010E9474
:101A70007021402F082F077009F0439540836AD0EA
:101A80003A932A935A924A92FD010895F201E00F87
:101A9000F11F089552D076D011F046D018F0B3015E
:101AA00043E007C0FD01068D178D43D020F4B3013C
:101AB00042E053D00CC058D007C0BC01660F771F5E
:101AC00008D02CD006D03BD044155505B0F39BDF91
:101AD00097CFFD0106891789060F171FF801089592
:101AE0002CD050D011F020D018F0B30143E007C043
:101AF000FD0100A111A11DD020F4B30142E02DD0C1
:101B00000CC032D007C0BC01660F771F29D006D0A9
:101B100027D015D044155505B0F3D9CF0181F30175
:101B2000E20FF31F008308950EE7401600E0500611
:101B30000895592F440D551D82CF0C941B2200810E
:101B400009D0F301E20FF31F04D001964F5F5F4FFE
:101B5000089500832F5F3F4F08958ED09801089518
:101B6000FD01008D118DB8CFA30109D0042D000F08
:101B7000F301E20FF11FEDDF40E050E008958D0129
:101B8000EBD1ECCFD801C9013A0108D09181428153
:101B9000842F53800481402E05290895C1D1080F58
:101BA000191FF8012291F80130810895C6DFD8018C
:101BB00039012A01CB015ED025D05291F801008075
:101BC00031812281FD01628D738D2617370710F058
:101BD0001DD014C0F8017381648160300FEF70076D
:101BE00011F401E003C0672B41F400E00E949A1C4D
:101BF000AC01930182013CD004C00BD0302D252FC5
:101C000069D0FCCE8301020F131F68CFB20142E0FE
:101C10000895B20143E0089590DFD8012901CA0177
:101C20003B0128D08201EFDF31812281FD01468D09
:101C3000578D2417350758F0BC0142E0F801308178
:101C400001501040F801208117D038010FC0F80171
:101C500053814481FD0106891789220F331FD3DF89
:101C600040835183A30192018C0102D08301C7CE2E
:101C70000C943B2255D172CF8D016ACE5EDF77D0B6
:101C80009801C0DF9291F801808171816281338176
:101C90004481242F432B21F0213B47E0340710F0EF
:101CA000B8DF0AC0FD01428D538D0B01020E131ED9
:101CB0004015510528F4AADF382F292F0BD009C071
:101CC000AB010A5F1F4F0E94721CA201382F292FFF
:101CD00052D094CED1DFC801089541D048D0C80178
:101CE000A301400F511FFA010290FA0130811181C6
:101CF000028153814481242F252B21F04C3720E091
:101D0000520710F086DF0AC0FD01668D778D18013D
:101D1000240E351E6215730520F478DF202DDADFDE
:101D20001AC060E070E011C01ED096808780FD016F
:101D300026883788F801EE0FFF1FE20DF31D808221
:101D4000918247D002966F5F7F4F6417750760F3EB
:101D5000A201202D10D08C01EAE00C942A220C94D0
:101D6000192200830196F301E80FF91F0895D801A5
:101D700039012A01D5C0EED0C80144E050E0600E20
:101D8000711E9301040D151D73DF0496089502D191
:101D9000C8012901DA01C4D0400E511EAD01F20183
:101DA00030810FEF400E501EF20120818C01FC01AA
:101DB00013D017D023E012D020E210D027E02083E8
:101DC00008D0A00FB11F22E32C9303D0E6E00C94BF
:101DD0002E220F5F1F4F0895C4D0BFC020830F5F16
:101DE0001F4FFD0154CE0E941322D80129013A0150
:101DF000CB0196D04801400E511EF201B290F20183
:101E0000A080028110E006970817190709F04EC05C
:101E10009ED0C8017301E00EF11EF2010381002380
:101E200041F00A95C1F00A95E9F10A9509F463C0F9
:101E30006DC0F70100E095DF04E00083F20103814B
:101E400091DF8FDF02E08DDF00E0008375D002E0DC
:101E50000083019661C0C4800CE0C01638F5D30140
:101E6000A80DB91DCC2099F420E08D010B5F1F4F08
:101E70000E9470062091960CFD0125832091950CFF
:101E8000268320E327834FD020E0208307C02C2D1A
:101E900015968D010E94700646D0C0829ADF800F91
:101EA000911F3AC0C4800CE0C01618F0B30142E0A4
:101EB0002FC00C2D0E947306F201E281F0E03297F0
:101EC000E017F10719F0B30143E022C02C2D05E023
:101ED000400E00E0501E82010E948206012B41F05C
:101EE0000E9453060DE00093BA0CB30145E010C008
:101EF000B30147E00DC000910D08033011F427D065
:101F00000AC00130B30119F446E002C0B30141E058
:101F10003A2D2B2DB1DEC8018C01E0E10C94242276
:101F200098D03E96CBC0F70120E02083202F2E5F73
:101F300008D0F201238105D00196680E791EF301C5
:101F400008950196F301E80FF91F20830895A30176
:101F50003A2D2B2D8D01FD0104D06591F491E62FD2
:101F600009946181F281E62F3A96089513D0AAD0A0
:101F7000040D151D16DE00910D08033019F4AC0197
:101F8000E9DF07C00130BC0111F446E001C041E0C7
:101F900073DE1CCF0C941D220E9417223801D90138
:101FA000CA012B0167DE8D012EDEA290F801808030
:101FB000BA2CBB0CBB08F301058110E0A016B106DA
:101FC00021F0AA2011F000E03AC0082DE2E5F0E08F
:101FD000FBBFF7E00C94D62135D0F9DC2BC032D012
:101FE00015DD28C02FD056DD25C02CD079DD22C0CC
:101FF00029D0DCDD1FC026D00FDE1CC044244A944B
:10200000542C19C01FD03ADE15C01CD0AFDF12C04F
:1020100019D063DE0FC016D0BADE0CC0442455249C
:102020000AC010D0E0DE06C0BC0141E0382D2A2DE8
:1020300083018EDC2801F301448655868201ECE0A1
:102040000C942822B201AC019D01830108950C94E7
:102050006B21F8012181F281E22F089580DE32D0D8
:10206000400E511EF2016080FD012681F201329185
:10207000231721F4FD0127812615E9F048018D0180
:10208000FD012181F281E22F709618D0800E911E01
:1020900002E0800E00E0901E8815990561F467FA51
:1020A00056F4F20101810C3024F4102F110F110BA2
:1020B00004C00EE001C001E010E04ECE2591F49185
:1020C000E22F0994D8012901CA012ACF01E010E0CA
:1020D000089502E010E008950E941D22C801D90170
:1020E0002B2B31F0F80143845484A587B6870EC0AA
:1020F0000CE7402E03E0502EDC011F96FC01A58763
:10210000B687082F015F1F4F0E94650C0AE513E098
:10211000FC0103871487F20105911491FD010183ED
:1021200012838C01E6E00C942E2210E008950E94A8
:102130002022C801A22F092B69F0232B31F00FD0E8
:10214000082F015F1F4F0E94730CA0FB1EF48C012F
:102150000E945921E3E00C943122440F551F20E0E6
:1021600030E00895BDD0E3CF0E941B22C801F801E2
:10217000208331834283538364837583088500877A
:10218000098506830A850783A585B6856B847C84CB
:10219000FD01668677864D845E84408A518A0F856C
:1021A0001889028B138B09891A89048B158B0B896B
:1021B0001C89068B178B0D891E89008F118F0F8943
:1021C000188D028F138F098D1A8D048F158F0B8D2B
:1021D0001C8D068F178F0D8D1E8D00A311A3FC0182
:1021E0003FD000E412E42FE030E00E94B12145E04E
:1021F0000E94A72148EE53E060E070E00E94B12108
:102200000F5F1F4FE82F01871287FD01428D538D0D
:10221000A6DF0289138929D0448D558DA0DF04895A
:10222000158923D0468D578D98DF068917891DD0D3
:1022300040A151A192DF008D118D0E944B225A9234
:102240004A927A926A92FC0107810A93368120852C
:1022500007D0008111810E949517EFE10C942C2288
:10226000428153816481758108950E944B22FC0153
:102270000585F685E02F08950C94B6170C94D917B0
:10228000F8010081118108950C94FC1762D0D901E6
:10229000CA019A018D017BD0FD01E80FF91F00836F
:1022A0000196A80FB91F1C9301968C014FC018D03E
:1022B000EDCF0D01E881F98120833183528343837F
:1022C0007483658306E010E0D0012296089508D05B
:1022D000F0CFFA012083318302E027CF01D0F9CF7C
:1022E0000F5010400895CCDF0C942318F9DFFBCF7A
:1022F000C7DF0C942A1810F001E001C000E0DB01F8
:10230000089510F001E001C000E0DA010895BD0178
:10231000EEE5F8E04081518105D0401B510B42179A
:102320005307E9CF09D00D911C910895AD0103D059
:102330002D933C93EACF05D0F801A585B6851A9672
:102340000895EEE5F8E0208131810895E4E00C94F1
:1023500030220C941F220E941D22C901443000E04B
:10236000500790F0F901E40FF51F3297B181A08179
:10237000425050402A019A0109D0920107D00A1711
:102380001B0711F401E001C000E0CCCE8C010C94DD
:10239000CE05DFDFD801F80185859685FC01008137
:1023A000E6E8F0E0FBBFF7E00C94D621F2D003E0C2
:1023B000A7C0C3D059F0FDD024F0DFD0B9D004E0DD
:1023C00004C0019619F4B4D002E0008328E93AE38E
:1023D000CAD009F496C03BC0B0D049F0EAD014F09E
:1023E000CCD005C0019619F4A3D002E00083BED082
:1023F00009F487C0ABD0D9D059F105E081C0FC0108
:102400006485758540895189E5D08C010E94CC0F87
:10241000012B00916200C9F075D0C7D006E070C0F2
:102420009BD092D0C2D007E06BC09BD009F469C0AA
:10243000FD0105851685F80169D082D0B6D008E087
:102440005FC06FD009F45DC066D000645CD0ADD0D1
:1024500002E056C09ED00BE053C06FD081F0A9D0EF
:102460004CF088D024853585280F391F248735877F
:102470000CE004C0019619F45BD001E1008328EE62
:1024800033E071D0F1F191D013C057D051F091D019
:102490001CF070D075D005C0019619F449D001E147
:1024A000008364D071F152D080D011F00DE028C0CB
:1024B00001E126C0FC018CD08C010E942E10012B62
:1024C00074D001E10C93E9F41CC046D00091620085
:1024D00019D06BD00FE014C044D099F029D016D099
:1024E0008F012ED062D000E10BC01BD051F013D071
:1024F000006409D05AD00AE003C026D056D000E0CC
:102500000C9324CF0F7B009362000895448555857A
:102510002089318908958F010E9418180091620066
:10252000089502D003A516C0ED91FC91119708956E
:102530001D96ED91FC911E970895F6DF02A50AC045
:102540000E94930C0CD0A0CE0AD098CEF1DF40D0E0
:102550008D0101DF002308951AD001D08DCEE3DE76
:10256000E5CF25E030E08D01D2DEF4CFFD012185FD
:102570003285F9CF0CD0FD017BCEFDDF01D007C045
:1025800004851585080F191F0487158708958D0187
:10259000CDCEFDDFC8DE1C960E94B617CADF00E074
:1025A00004870587DCDF0E94C917FD01A585B68574
:1025B0000895FC010485158540E051E0401B510B56
:1025C00009D0200F311F8D0193DEC801013089CE63
:1025D0004485558526853785089582DEDACE01E06B
:1025E00010E008950F5010400C94EF1202E010E03C
:1025F00008950F5010400C94F6120E941F22D8012B
:10260000822F15D08C9300E003878D01E4E00C94B9
:1026100030228A93802F19D019F0282FEEDF02C0C4
:1026200000E010E089910895A991B9910895055F9E
:102630001F4F0E94740802E813E0FD010187128712
:1026400008E813E00487158708950EE110E00E9462
:102650005422202F212B08950E942022C801A22F4E
:10266000092B61F020E030E0082F055F1F4F0E942A
:102670008408A0FB1EF48C010E945921E3E00C9415
:1026800031220B501040E8CF1D01D801F901008123
:10269000FD01008BF90101811281FD01018B128B7B
:1026A000F90103811481FD01038B148BF90105816C
:1026B0001681FD0105831683F90107811085FD014F
:1026C000058B168BF90100891189FD01038F148F89
:1026D000F90102851385FD01078B108FF90105852E
:1026E0001685478552E0459F000D111DFD01018FA4
:1026F000128FF9010785085F078760897189028950
:1027000010E048E150E00E946121600F711FFD015F
:10271000638F748FF9010289085F028B0389148922
:102720000F5F1F4FFD0107831087558FD10108955B
:102730003BD1ECD040E028E050E05B96EDD05C97D8
:10274000E40FF51F3081F801E40FF51F3083439546
:102750002A9599F728E030E00E94E7059801FD01ED
:1027600003891489065F1F4FF80121933083539624
:10277000D3D0549701E8FBD04DE0EFD0CCD001810D
:10278000013829F404850E3711F401E001C000E09E
:102790004BCF0E941F22D80150E080E028E0F801D2
:1027A000638D748D90E0FB01E80FF91F40854F3F6A
:1027B00021F0CAD011F0BAD0502B83952A9599F701
:1027C00030E080E028E0FB01E80FF91F40894F3F2F
:1027D00021F0BAD011F0AAD0302B83952A9599F721
:1027E00020E0FD010381002311F0938321E00481A7
:1027F000002311F0948322600181002311F0918362
:1028000024600281002311F0928328600389F489F7
:10281000E02F02E40083FD0183899489029660E041
:10282000222478E088D00181002309F078D0239415
:102830007A95C1F7FC016193CF0160E0222478E032
:102840007AD00081002309F06AD023947A95C1F7E9
:10285000FC016193519331932193CF0125E030E046
:10286000FD0154D00E94E705FC01019311930EE78E
:102870007ED04AE072D0FD0101891289F8012181E0
:10288000245281F12E5179F525E030E00E5F1F4F83
:102890000E94E9050130104034F13DD05297018586
:1028A0000E3709F5FD0100E0058F179635D0199612
:1028B000008332D05297628180E028E090E0FD01F1
:1028C0000788108C080E191E31D0162F1023F00126
:1028D00019F001E0008301C0908383952A9579F770
:1028E00001E013C011C0FD01058D0A3018F40395F5
:1028F000058F0AC0159610D0169702E00083FD01DF
:10290000A781B08501E00C9300E080CE0389148993
:102910000E5F1F4F08955196ED91FC91089501E0CF
:1029200010E0422D0E946B21602B089501E010E021
:10293000482F0C946B21FD01018D128D42E0249EE5
:10294000000D111DF8010895FD0105891689040F78
:10295000191FF80100810023089550E0FD0123892B
:102960003489018912890E949B190C94621B00838F
:10297000FD0100890E944B1B0AE613E00150104044
:10298000E9F700C0000008950FD01385112319F056
:102990001A9539F008C01B2FCBDEFD0111E013871B
:1029A00002C01B2FF6DE40CEBA93AA93D801CACF3D
:1029B0000E941F22D801822F055F1F4F0E947408BA
:1029C00000E913E0FD010187128706E913E004879F
:1029D00015878C938D01E4E00C9430228A93802F2C
:1029E00008E110E00E945422202F212B19F0282FFB
:1029F000DFDF02C000E010E0899108950E942022EC
:102A0000C801A22F092B61F020E030E0082F055FFC
:102A10001F4F0E948408A0FB1EF48C010E945921C4
:102A2000E3E00C9431220B501040E8CFBD01D801F7
:102A3000F9010081FD01008BF90101811281FD0185
:102A4000018B128BF90103811481FD01038B148B1F
:102A5000F90105811681FD0105831683F90147817E
:102A60005085018510E0400F511FFD01458B568BAD
:102A7000F9010185085E018703891489FD01078337
:102A8000108700E0078BDB0108950E941F22D80108
:102A90005396ED91FC91549702E40083FD01008967
:102AA0000E944B1B0AE613E001501040E9F700C0FA
:102AB000000049E050E0FD01238934890189128931
:102AC0000E949B190E94621BFD0101891289F80175
:102AD00021812234C9F527E030E00F5F1F4F0E94AB
:102AE00001060130104084F1FD0100E0078B1796CC
:102AF000ED91FC9118970083FD012589368980E0CE
:102B000076E0FD010189128990E0080F191FF80194
:102B1000028060E058E002C060FB76F001E010E067
:102B2000462F0E946B21102D1023F90119F001E0AE
:102B3000019301C091939F0163955A9569F783951D
:102B40007A95F9F601E012C0FD0107890A3018F400
:102B50000395078B0AC01596ED91FC91169701E03D
:102B60000083FD01A781B0850C9300E034CF28D00D
:102B70000E9474080AE913E012D0A8D00E949D2098
:102B800005E20C93FD0115C019D00EEB13E003C054
:102B900015D002EE13E003D005E20C930AC0FD014C
:102BA0000183128308950AD00AE014E0F8DF08E1F7
:102BB000F4CF03838D01A991B991089501D0D7CFA6
:102BC000BA93AA93D8010895F9DF0EE214E0E3CF97
:102BD0000E942022C801A22F012B51F020E030E0FA
:102BE000082F0E948408A0FB1EF48C010E9459212A
:102BF000E3E00C943122E4DF0C91ECEAF0E0FBBF5F
:102C0000F7E00C94D6216DD009F459C07CD07296AF
:102C10006DD00AE153C065D009F451C074D07096EC
:102C20004FD0349665D009E149C06DD0369660D05A
:102C300002E044C056D009F442C065D0769656D022
:102C400009E03CC04ED0D9F15ED0749639D03896A8
:102C50004FD008E033C045D091F155D07A9646D098
:102C60000FE02CC03ED059F14ED0789637D00EE010
:102C700025C037D021F147D07E9638D005E11EC05F
:102C800030D0E9F029D006E119C02BD0C1F03BD0FB
:102C9000B0962CD007E112C024D089F01DD004E1F9
:102CA0000DC031D0B2961AD00FE108C01AD039F059
:102CB00011D0FD01038102C00DD000E00C937BCF49
:102CC00017D0980103D00E949E201DC08D010A5F7D
:102CD0001F4F089518D00BC016D07C960DD03A9691
:102CE00007C0F4DF0E94AC200023089505D03C9675
:102CF0002591F491E22F0994FBDF98018D010A5F81
:102D00001F4F0E949E208D011196ED91FC9112970C
:102D1000089532C05AD039F02A9539F02A9539F001
:102D20002A9529F0089505E203C001E001C007E0FB
:102D300000830895089502C002E001C001E00C94F0
:102D4000621F089502E00C946F1F16C03ED049F038
:102D50002A9529F02A9529F02A9529F0089501E06D
:102D600001C005E2E5CF0DE0FDCF0895E7CF08955E
:102D700003E0E5CF03E0E7CF02D00C9430220E94BD
:102D80001F22D801822F012B59F005E20C9320E07D
:102D900030E00A2F1DDF80FB1EF48D010E945921B7
:102DA000E4E0089512D049F02A9539F02A9539F0D7
:102DB0002A9539F0235039F0089508E1B9CF07E09A
:102DC000FDCF0DE0FBCF03E1F9CFF8013081338374
:102DD0002223089501C00895009162000F770093A7
:102DE00062000895F9CF00916200006800936200CC
:102DF0000C949A0BC1CFE9DF59F02A9549F02A9536
:102E000049F02A9549F0235049F02A9549F0089550
:102E100005E28ECF07E0FDCF0DE0FBCF03E1F9CF58
:102E20000EE1F7CF0C94CA05FDCF0C94C0050C94AD
:102E3000C305F8CF00ED17E0089500ED17E0089501
:102E400000E213E008950CE211E008950CE211E0B5
:102E500008950CE211E0089506E910E0089506E9EE
:102E600010E0089502EC11E0089502E310E00895E7
:102E700000ED17E0089500ED17E0089500E213E07B
:102E800008950CE211E008950CE211E008950CE2BF
:102E900011E0089500ED17E0089500ED17E00895A2
:102EA00000E213E008950CE211E008950CE211E055
:102EB00008950CE211E008951B2E2A2EF80102E578
:102EC00014E005A716A720833183428353836483CC
:102ED000758308811981068317830A811B81008706
:102EE00011870C811D81028713870E811F81048742
:102EF00015870885068709851A850787108B0B8536
:102F0000018BA485B5850A2F0B2B31F0468563D044
:102F10001C91102B1C9367D08F01A22DB12D2C96E4
:102F2000089500E010E00895E1C1BA93AA93D80192
:102F30008A019B0144E00E94A721A801B90167D240
:102F40001296ED91FC9113970083FD010081F181B0
:102F5000E02F10830091790908730660FD01A085B8
:102F6000B1850C93A991B99125960895F80120E0B7
:102F7000208F218F22A723A724A708950C93A42F85
:102F8000B32F08953B2F4A2FF801A681B7812C91CA
:102F9000089509D0206802D00069F0CF2C93A68153
:102FA000B7810C9108953B2F4A2FF801A481B58178
:102FB000EECF9D01F80139D00C910F760C93D90119
:102FC00008959D01F801418906D0A785B0891C911B
:102FD000102B1C93F4CF01E010E00C946B219D01A9
:102FE000F80101D0ECCF4189F6DF0095A785B089C3
:102FF0001C9110231C9308955B2F6A2FD801F801B0
:1030000004851585012B11F08D01DBDF1496ED9100
:10301000FC911597008100660083FD0106D00C919C
:1030200008620C93A62FB52F0895A681B781089545
:103030005B2F6A2FA9DF27792C9324853585232BD5
:1030400009F0CDDFEFCFF801228B338B448B558B0A
:1030500001E068CF6ED0F80100E002A704A50023CC
:1030600029F4008D118D0417150718F00FEF1FEFCD
:103070001BC0012BC1F0F89480E090E00AC0DF0192
:10308000A80FB91F5A960C91D901A80FB91F0C931C
:103090000196008D118D8017910788F310E0108F35
:1030A000118F789401C03DDFE4E00C943022AD0133
:1030B000F80124893589232B61F4B7DF2C912F7D0A
:1030C0002C93A481B5812C91206468DF00640C935B
:1030D0000EC0A289B3892D91A28BB38BA285B38533
:1030E0002C930489158901501040048B158BDA014B
:1030F000089548DF2F7B2C9301E003A740CF19D020
:10310000F801208D318D203140E0340720F021E09E
:1031100024A722A70DC0C9010196808F918FA28597
:10312000B3854C91E20FF31F428FF80101E002A733
:10313000BBCF0C941F2288D01DD0B9DF7ED018954C
:1031400089D015D0D6DF09D07CD0189583D00A92CB
:103150000ED0D5DF02D00990F7CF6BBF5FBF0991CA
:10316000199129913991499159916991089507D0FF
:103170005FB76BB7009161081091620808956A9378
:103180005A934A933A932A931A930A930895AEC096
:10319000A895E199FDCFF8941FBB0EBBE09A7894F7
:1031A0000DB30895F80107C08901F2DF2F5F3F4F8B
:1031B000019341505040042F052BB1F701E00895D1
:1031C000E5E5F8E002831383208331834683578348
:1031D00000E0048305830895AD01E5E5F8E024816E
:1031E00035810681178120173107E8F402811381A8
:1031F0001FBB0EBB028113810F5F1F4F028313831E
:10320000E09AA081B181A20FB31F0C911DB31017DA
:1032100019F00DBBE29AE19A048115810F5F1F4FEF
:103220000483158306C0E39800E00FBB0EBB01E0EA
:1032300000875DCF09D0D0DF81CF7BBF6FBF8FDF2D
:103240007991E991F991089505D07A9398DF6FB754
:103250007BB70895FA93EA930895792F282E022ECA
:1032600080E090E008C0FA017FD06BBF2691F801A2
:103270007BD02083019680159307A8F301E0822D6F
:10328000972F08950E941D22C80104E0209FAEE5FB
:10329000B4E0A00DB11D25D02E5F3F4F4AE854E0A9
:1032A00060E0FD01329605911491400F511F8C0191
:1032B000D4DF17D0FC01E20FF31F408051808C0156
:1032C0000E94CE054016510621F4FD01319604916D
:1032D00004C004E00093C30C00E010E0E6E00C94AE
:1032E0002E22FD013196249130E00895402F412B8C
:1032F00021F020FB16F40E945921089503E10DB935
:1033000007B3066007BB08B3066008BB08956E9A52
:1033100008956E9808950FB908EC01C00A95779941
:1033200004C0A8950023D1F704C009EE0A95F1F76F
:1033300000000FB10895792F082E602F413400E06E
:10334000500780F480E090E009C0F9010DD00081C1
:10335000E2DFE62FF12F08D000830196841795074E
:10336000A0F301E0802D8CCFE80FF91F089507C06E
:1033700025ED36E021503040E9F700C0000002D0D2
:10338000B9F70895980101501040232B0895AECF4E
:1033900002E703BD0BE005BD07B7006807BF08954E
:1033A000F7DF009161000068009361000091610007
:1033B0000064009361000091620000640093620069
:1033C000A298A198A098009164000E7F00936400D9
:1033D00078940895A80160E070E0440F551F661FBF
:1033E00016D09801220F331F309381002093800064
:1033F000109387000093860010938500009384004B
:1034000002EE00938B0009E100938A00089500E02A
:1034100010E820E730E00E94B121015010400895EB
:1034200000918B000D7100938B0000918A00067E45
:10343000EBCF10DFA8DE2FB7EEE5F8E000811181B9
:103440000F5F1F4F008311832FBF0991199129919D
:103450007BCE07E00A9305E310E0F4D007E00A937F
:1034600004E3F0D00CE9EED00DE9ECD00AE9EAD0A3
:103470006BE970E049E950E028E930E00EE41DE036
:103480000E945C1700E417E060D080D10FE71DE0D8
:103490000E946C1006E417E058D023E830E209ECF3
:1034A0001CE055D00CE417E050D029E830E206EDDE
:1034B0001CE04DD002E517E048D02FE830E203EEE3
:1034C0001CE045D008E517E040D025E930E200EFE8
:1034D0001CE03DD00EE517E038D024EF31E00DEFD1
:1034E0001CE00E94DA0804E617E02FD024E630E062
:1034F000F7D50E949C200DE01DE00E94C4150AE64D
:1035000017E023D007E11DE00E94C81500E717E08F
:103510001CD001E21DE00E94D31506E717E015D08C
:103520000BE21DE00E94E4150CE717E00ED007E95E
:103530001CE00E94D80B02E817E007D060EA75E0B3
:103540002BD00E94162308E817E00C94FD200C9461
:10355000C50A11D00C9494170ED00C9497100BD070
:103560000C94DF0A08D00C94000905D00C9489163D
:1035700002D00C94A51622E030E00895FCDF0C94F4
:10358000BC16F9DF0C94FA16F6DF0C94F20B63ED1F
:103590007AE102D00C945F2346E050E020E330E073
:1035A00006E81EE00895E7DF0C94AB05BA93AA93F2
:1035B0000EE41DE0E1E6F8E00083118308E010E08E
:1035C00041D000E83FD008E740D006E819E03AD003
:1035D00003E618E037D006E919E037D00EE01AE02C
:1035E00034D001E00A9308E00A930EE40A93409174
:1035F000780950E04F5F5F4F652F660F660B762F9F
:1036000000E010E820E730E00E94B12144E00E9491
:10361000AE21A801B9012EE43DE00FE71DE00E94B4
:10362000B41020917709EFE7FDE0058516850E942B
:10363000860CACE8BDE0ED91FC9102E00083A9911D
:10364000B99108951A930A9308951A930A93FACF99
:10365000E3E6F9E001E0048B0FE2058B08E0068B5E
:10366000A5CF06E81EE00E947C0B8ED300E007ABDE
:1036700000AF05AB42E089D007EC1CE00C944B2274
:103680008F9A8E9A8D9A8C9A899A979A969A959AE9
:10369000949A9198089500FB16F4979801C0979A10
:1036A00001FB16F4969801C0969A02FB16F49598C1
:1036B00001C0959A03FB16F4949801C0949A919ACC
:1036C0000C9487190E9489199198979896989598C3
:1036D000949808950E941E2204EF11E00E94B719E9
:1036E000A89549E052D00EE81CE0C8DF80E090E1E8
:1036F000AEE8BCE005E0402EA89505E010E00E9491
:10370000B71901E900934E0C082F97D044E09ED0E2
:1037100000910F0C0139F1F42EDF0FE01CE00E9444
:103720000106012BB9F00091100C10918E0C22E0D3
:10373000129FFD01E00DF11D018300918E0C029F8F
:10374000FD01E00DF11D82830C9103950C93033074
:1037500018F018C04A9481F683959A9559F600910D
:10376000660900FF0FC0009163091091960C0117C4
:1037700031F4009164091091950C011719F003E0E0
:103780000093C30CE5E00C942F2250E020E0F4CE2F
:103790002EE03CE0F801218332832EE43CE02383D9
:1037A000348323EC3CE02583368320E0218726EA1E
:1037B00039E02783308720E0248726E03AE022871B
:1037C000338720E027872AEA3CE02587368720E0F8
:1037D000228B25E33DE0208B318B20E0258B27ECED
:1037E0003CE0238B348B089568D266978E01D0DF3E
:1037F00080E007C00E940913B6D2078103950783B2
:10380000839500918E0C8017B0F4A89502E0809FFC
:10381000D2D0FD010181102F1A9529F0125051F3D9
:103820001A9541F3EDCF01E00E94EE149CD2008581
:1038300003950087E5CF66962EC22DDF0AE613E0DA
:1038400001501040E9F700C00000089550E02EE458
:103850003CE00EE01CE00E949B1934CF2ED2B80150
:103860001A01A0E0B0E049D210C000E0FB01E80F6F
:10387000F91F0083119648E050E08D010E948B21D2
:1038800043E06FD2A01BB10B01968215930568F43B
:1038900048E050E08C010E948B21F9013AD350811D
:1038A0004A2F7AD211F301E0E1CFF5C17ED003C0F7
:1038B0000DD0149613D07BD0D8F375C076D003C04A
:1038C00005D013960BD073D0D8F36DC012E0019FD2
:1038D000F001E257F34FA289B389089511E01C93D8
:1038E00003950895BA01472B41F4F80100810023A4
:1038F00001F1AFD001AB03ABE1CF613040E0540741
:1039000041F4F80100810023A1F0A3D002AB04AB85
:10391000CDCFE62FF52FE054F040F09750F4A901F9
:10392000980106E919E0060F171F98DF01E00093E0
:103930009B0C089521970883A90121E030E08E01B6
:10394000D1DF2196089500916809002309F082C013
:1039500000E008950091680910E048EE53E00C94EF
:10396000612100917E0900FD75C0F2CFE3E6F9E028
:1039700000FB038D00F9038F2AE00EE719E00E9497
:1039800082060C94530611D009C012E0019F13D097
:103990005296ED91FC9111E01183039508D0A8F3A4
:1039A00002E000939B0CD90108959D01D1CF1091A5
:1039B0008E0C01170895AEE8BCE0A00DB11D08956E
:1039C000F4DF03C083DF129689DFF1DFD8F3EBCF9A
:1039D0008A9322E048D0002319F03BD005A73CD0C1
:1039E00022E006ED1CE041D0002321F032D006A7F2
:1039F0002ED034D022E034D0002311F024D02ED0A9
:103A000022E035D019F025D007A726D023E02FD00B
:103A100021F01FD000AB1BD021D024E028D011F022
:103A200012D01CD025E01CD0802F25E01CD0202FE8
:103A3000382F0DEF1CE00E941409002311F008DE5E
:103A40000DD08991089506E00093BA0C089504AB57
:103A5000B7CF9AD101E0089503AB95DF27E02AC3E1
:103A600003EE1CE002C009EC1CE00C94010B00EF1B
:103A70001CE0FBDF0023089587D100E005A707A71E
:103A800001AB06A700AB02AB0895BA93AA938FDFF0
:103A900060F412E0019F1CD1A289B3898D011996AF
:103AA000ED91FC91A1D100E001C001E0C8CD05D1AC
:103AB000AEE0BBE040E669DE0EE01AE0DFDD20E0CC
:103AC000F4D044E150E09D0103E619E0E7D021E0A5
:103AD000ECD047E050E09D0107E719E0DFD025E09A
:103AE000E4D048E150E09D0105E31DE0D7D022E09D
:103AF000DCD020E06D9150E038E010E0EEE0FAE03C
:103B0000E20FF11F062F452F0E947521017011F061
:103B100000E801C000E00083239553953A9569F7CA
:103B2000203340F3BDD020E000E6E22FF0E0E25F7A
:103B3000F44F10811F77E22FF0E0E25FF54F308104
:103B4000312B308323950A9581F724E0AAD020E019
:103B500010E630E0EEE0FAE0E20FF31F3081032FD1
:103B60000F770033307830F4B0E0025FA02FB44F0D
:103B70000C91302B308323951A9559F780E090E60D
:103B800002E0809FA6ECBDE0A00DB11D10E0EEE0CC
:103B9000FAE0E80FF11F0081037011F10A9529F096
:103BA0000A9561F00A9599F01BC0008107FF03C0D8
:103BB0000E945D0417C00E94500414C0008107FFDA
:103BC00003C00E9427040EC00E941F040BC0008186
:103BD00007FF03C00E94480405C00E94310402C0D0
:103BE0000E9417040D931C9383959A9549F658D01B
:103BF00040E020E664D011815AD03033F80110F44F
:103C0000338302C000E0038343952A9599F726E0A9
:103C100048D040E020E64BD052D0F181E02F3483F1
:103C200043952A95C1F710E000E322E0129F4CD0A3
:103C3000A081B18115961C9313950A95B9F710E0F0
:103C400000E332E0212F205D139FF001EA5DF14F88
:103C5000A081B18115962C9313950A9599F72AE0C6
:103C600020D048E050E02EE03BE00EE719E016D00F
:103C700090E082E00E94680422E0929F29D0008FA9
:103C8000118FD80113969C93008DF18DE02F9483B2
:103C900093958A9579F7E4E00C9430220C943B22BA
:103CA00023E00EE01BE00C9470068D01FCCFF0E0E9
:103CB000E42FE25FF44F308108950C941F2202E05C
:103CC000409F02D000810895F001EA53F24F089519
:103CD0005BD0E00DF11D0895AC010FD008E010E0BD
:103CE0009C01220F331F50D0E20FF31F148F158F4A
:103CF00001960A95A9F7CA01089580E090E0089519
:103D0000DCDFB8012223A0E0B0E031E089F4F5DF88
:103D100028E03DD031F01DD0F801E257F34F01E02B
:103D2000058F01962A95A9F711963A9589F0EFCF5C
:103D3000E4DF28E02CD031F00CD026D0EAD001E02E
:103D4000048F058F01962A95A9F711963A9581F768
:103D5000A2CF43E08D0105D0080F191F000F111FDE
:103D600008950C946B21402FFD01028B138B02816F
:103D700008839E01042FE42FF12F4185F285E42F63
:103D80004591F491E42F0995EEE8FCE00895FB01DC
:103D9000EA0FFB1F5081482F01E010E0E2DF5023C3
:103DA00008959A938A9390E080E602E0909F8CDFDA
:103DB0002081318110D0C9F78991999108959A9302
:103DC0008A9390E082E002E0909F82DF208D318D27
:103DD00002D0C9F7F1CF8901F9012181F281E22FE7
:103DE00003D093958A95089532962591F491E22F08
:103DF000099410E0E6E9F9E08CD0003310F4008972
:103E00000895E05CFF4F5ECF02D001AD0895F0E071
:103E1000E02FE257F34F08958A93802F202F52D13D
:103E2000282F4CD1282FB1D0282F44D10ACE09D029
:103E300011F000AF0CD0089504D011F000AF33D1D1
:103E40000895A2DF07A910ADB4CD01E003D0E4CFFF
:103E500000E0FCCF0093C50C0093C60C08950DE064
:103E60001DE008D007E11DE005D001E21DE002D011
:103E70000BE21DE00C94FB15212F10E046E04CD026
:103E8000F801EA57F14F2283089525D03DD00281F1
:103E900003830081018356D0C9F708950091C50CB2
:103EA000D6DF19D031D00381028301814AD0D1F706
:103EB000089512DF76DF83DF00E00093C10C0093EA
:103EC000C20C089507D014D011F401E000833AD059
:103ED000D1F718C0602F20E030E346E00895FADF04
:103EE00007D011F0002309F450832CD0C9F70AC081
:103EF0000BD0028106170895EDDF06D0628301E042
:103F000020D0D9F70C949A0B022F10E005D0E6E8E8
:103F1000FEE0E00FF11F089550E021CDDBDFE22F3E
:103F2000F0E0EE5DF84F0491002321F0EDDF01E0B9
:103F30000283008307D099F7603310F4062F0BD06B
:103F4000E1CF008323953A950895C5DF022F03D072
:103F5000F9DFE1F7D7CFD9DF528350830895C3D07B
:103F60001CD0A8950895B2D033DD0EDF05A500233F
:103F700031F407A5002319F401A9002321F020E062
:103F800004D020E097D06BDFEBCF01E21DE00C9472
:103F9000D216B2D002D07ED0E4CF6ECD0091BA0C52
:103FA000E6EEF0E0FBBFF7E00C94D621A89501B552
:103FB000086101BD01B5076001BD0E94D01951DB48
:103FC0000E94BB050E945506002369F170DDEEDA00
:103FD0000E947E1955DB7EDB07DC40DD2CC083D0E0
:103FE00079D009F456C07CD00E94A820A89500E0A2
:103FF0000093C40C03E018C07FD04CD00091C40CD7
:1040000044DD002319F004E01FDD04C0BDDE06A975
:10401000039506AB0091C30C035029F00A9519F0E3
:104020000A9519F0089508E00FCD0AE0FDCF41DFB1
:1040300005E0FACFB2DF02E0F7CF27DF02E007DFCB
:1040400002E05ADF28E833E154D007E009C044D049
:1040500019F04BD002E0F8DC82CFFADA1DD009E08B
:10406000F3DC7FCF80CF11DF17D0A8950BE0DCCF3A
:1040700090CF3BD0A895DFCF28EE33E03AD00EE0CA
:10408000EFCF24D027D069F30FE0DEDCEACF1ED0DB
:1040900001D008950C94FB060091C30C0A953EDFF5
:1040A00000E00093C30C21E00DD021E007D026E012
:1040B0006CDF26E00BE21DE00C94FB1607E11DE02F
:1040C0000C94A6160DE01DE00C948A160FE71DE077
:1040D0000C94C9110E94FB0603D00E94AC20CACCEC
:1040E00009E01DE00895F2DF0CC02FDFD7DE24E6E3
:1040F00030E0F6DF0C949E20E9DF07E91CE00E9427
:10410000060C66DCACCE00E09A9901E011E00127D4
:10411000089500E0999901E011E00127089500E079
:10412000989901E011E00127089510916300117042
:10413000012F11E00127089501C00895EEE5F8E090
:1041400040815181F8014283538320833183089554
:1041500011D02283338308950DD042815381241BD3
:10416000350B008111812017310710F001E008950F
:1041700000E00895EEE5F8E020813181F80108952E
:10418000802F912F0E941A21082F192F0C947C2325
:1041900001E010E00C947C230E9418224801A22E1A
:1041A000DA01962F82E0782E24016A2C11C002E0F9
:1041B000400E511E611E823031F4F2016BBE079138
:1041C000F691E02F099502E0400E00E0501E601EBF
:1041D0004A165B06690659F0F2016BBE479156918B
:1041E00010E04030504019F3823039F7ECCF8A9517
:1041F0007A94D1F6EBE00C942922BA93AA93D801D1
:10420000ED91FC91119700811181012B21F432D0A5
:10421000A017B10711F40E94C8202CD0ED91FC9199
:10422000119700831183E8EAFFE0A083B183A9918D
:10423000B9910895BA93AA9301C009951BD0012B97
:10424000C1F00081E091A80FF12FA081B1812D91E3
:104250003C91E8EAFFE020833183D8011496ED9188
:10426000FC91D80112960D911C91202F212B29F73A
:10427000E4CFDDCFE8EAFFE00081118108950FE38C
:104280000DBF07E00EBFC0E0D3E00E94392200233B
:1042900011F00E9480220CE018E020E040E158E09C
:1042A00060E00E94CC200E945F0C0E945F210C9471
:1042B000C020202F212B11F00E947D2308950C9403
:1042C000C020149F102D059F100D049F002D110D6F
:1042D0000895000F111F4A95E2F708951695079566
:1042E0004A95E2F70895159507954A95E2F70895DE
:1042F00000241124E0E1001F111FEA9542F0001C88
:10430000111C04161506B8F3041A150AF4CFA001FF
:10431000009510950895FF27552312F4F1600FD0F2
:10432000112312F4F09507D00E947821F0FD03D0FC
:10433000F1FD05C00895119501951040089551951E
:10434000419550400895000F111F221F331F4A95B9
:10435000D2F7089536952795179507954A95D2F780
:104360000895002411241001E0E2001F111F221FF4
:10437000331FEA9572F0001C111C221C331C04161A
:1043800015062606370688F3041A150A260A370A80
:10439000ECCFA001B10100951095209530950895BE
:1043A0004791179011FA279037900895F9DF041B71
:1043B00010E000C020E030E000C0B8F010FC17C0F2
:1043C00047910790E00FF11F0417100540E0240704
:1043D000340758F436F406910024F101E01BF0098B
:1043E0000994E00FF11F27903790F101099411F41F
:1043F000D6F7F1CF31960EF0319650E060E070E0E4
:1044000047914B3F48F089F34F3F29F04E3F11F061
:104410007791679157914791041B150B260B370B2A
:1044200039F318F3E7CFFA92EA92DA92CA92BA9283
:10443000AA929A928A927A926A925A924A92BA93DB
:10444000AA939A938A930895FF84EE84DD84CC84A2
:10445000BB84AA84998488847F806E805D804C8030
:10446000BB81AA8199818881F0E0EC0FFD1FEF01EB
:10447000089501E008957B2F0A2ED80106C0F901A6
:1044800061919F016D9341505040642F652BB9F7A6
:10449000A02DB72F0895F80103C02193415050403B
:1044A000342F352BD1F708959A938A93C80102C00F
:1044B0000E946E228C010E943924202F212B59F456
:1044C000EAEAFFE02081318100E02030300781F30B
:1044D000F9010995EFCF8991999108950C94C8201D
:1044E00020E02D9301501040E1F708953BBF269145
:1044F0002D93EF5FFF4F3F4F01501040B9F70895E4
:1045000044E159E460E0FA01362F3BBF0791169170
:10451000FA01EE5FFF4F3F4F3BBFA791B691FA0103
:10452000362FEC5FFF4F3F4F3BBF07901790269011
:10453000202D2129222921F0F001322DD7DF01C0C1
:10454000CFDF495F5F4F6F4F19E420E042325107E0
:104550006207C8F2089504501040672B11F02C5FD9
:104560003F4FFA0109949A938A93F801890134978D
:1045700080819181428153814095509554D080171C
:10458000910711F00E94C8208C018991999108959A
:104590000E941522D80169015A01CB010B2B21F091
:1045A000088D198D012BE1F089013DD028010A2FDA
:1045B0000B2B69F4042D0C5F1F4FEA89FB890995C9
:1045C000D801012B09F014960A2F0B2B29F1FD01BC
:1045D000349740825182860100951095028313839F
:1045E0008E849F8400E080169006B1F04424552408
:1045F0003D010AC09C0114D08A0D9B1D01E0400EB4
:1046000000E0501E6A0C7B1C4C145D0428F4082F3B
:10461000092B81F705D0F2CF8D01EAE10C94262217
:104620008301F40109940C946121B2CFE0E008D039
:1046300007D001D0FACF7A936A9360E070E00895D2
:1046400041D0EA9308950E9415225801C9013A0108
:104650006B0144245524012B81F12F3F3F4F41F43E
:104660009A010A2D80DF2801A3010E947821C80148
:1046700000E0C016D006B1F0A0E0B0E08C0101501F
:104680001040A301D0DF450108C08401F60109955F
:1046900011968301119501951040800E911EA81767
:1046A000B90798F34E855F8500E04030500729F048
:1046B00068897989920185014EDFE2E1AFCF01D0AF
:1046C000C2CFE0E000D0EA93BCCFECEAFFE000818B
:1046D0001181012B19F000E010E0089500E013E0D3
:1046E0000083118300E014E0E0E0F3E00083118335
:1046F0008F0108950C94C820FFCF1D01202F212B7E
:1047000009F464C002501040F801408151814430E6
:1047100020E0520708F45AC02EEA3FE0D901129671
:10472000ED91FC916E2F6F2B19F00E171F0738F4C7
:10473000D8011296ED93FC93F90124C0FB0148D0F7
:1047400019F060177107D0F300801180BF01600D70
:10475000711D06171707D0F16017710739F4800132
:10476000040F151F008311838F010EC031D031F06B
:104770000801040E151E6015710540F1D80112964E
:104780006D937C9302831383F801A281B3814A2F36
:104790004B2BE1F040815181B801640F751F6A17FE
:1047A0007B07A1F4F90120E020832183FD01208112
:1047B0003181F80140815181420F531F4083518361
:1047C000FD0122813381F80122833383D1010895D1
:1047D00062817381062E072A08950E941F22C80154
:1047E00004C00E5F1F4F0E947D23EEEAFFE0A08110
:1047F000B1810A2F0B2B69F4A0EBBFE032D011F18D
:104800002BD0F0F4DF011296F9CF26D0C8F4DF01E7
:10481000129627D0D1F7EEEAFFE00081F181E02F78
:1048200000811181A0EBBFE002C0DF0112961DD014
:10483000E017F10739F02081318128173907A8F3F3
:104840008D0107C00E946523202F212B51F600E027
:1048500010E0E4E00C943022008111810817190760
:10486000089503D00E2F0F2B0895ED91FC91119711
:1048700008950E941F22C80102960817190758F4CC
:10488000843000E0900710F484E090E08C01A5DF14
:10489000D801012B19F400E010E03BC00D911C91F0
:1048A0001197F80140815181FA013497E817F9070F
:1048B00038F4F801228133812D933C93119714C071
:1048C0009801280F391FFD0120833183F80162818F
:1048D0007381F90162837383481B590BC6DF4083E0
:1048E0005183F801808391832D913C91422F432B7A
:1048F00041F0F90142815381452B19F02E5F3F4F62
:1049000002C020E030E0EEEAFFE0208331830E5F5A
:104910001F4F9FCF24088E070000004E0040072243
:1049200049007D0D4E0DA91AB00D7F0DAC1AB20DC8
:10493000C90CAF1AB40DD60CAF1AB60DE30CAF1AF2
:10494000B80DF00CAF1ABA0DFD0CB21ABC0D0D0D5E
:10495000B51ABE0D170DB81AC00D210DBE1AC20D25
:104960002B0DC11AC40D970CC41AA60F0000C71A4C
:00427E013F
:00000001FF
