:100000000C94503A189518951895189518951895B8
:100010001895189518951895189518951895189578
:10002000189518950C940C2D1895189518951895E9
:100030001895189518951895189518951895189558
:100040001895189518951895189518951895189548
:1000500018951895189518950C94C22B1895189505
:100060001895189518951895189518951895189528
:1000700018951895189518950C94232B0C94E92A2B
:100080000C94072B189518951895189500000000EA
:100090000000000000000000000000000000000060
:1000A0000000000000000000000000000000000050
:1000B000E905FD05320935094207FD0541094409F5
:1000C0005507FD0547094A096807FD054D0950090F
:1000D0007B07FD05530956098E07FD0559095C0983
:1000E000A107B4075F0962095108B40765096809E7
:1000F000640878086B096E0995090000000000008B
:1001000000000000000000000000000000000000EF
:1001100000000000000000000000000000000000DF
:1001200000000000000000000000000000000000CF
:1001300000000000000000000000A3090000C1C092
:1001400081C1400101C3C003800241C201C6C00693
:10015000800741C70005C1C581C4400401CCC00C63
:10016000800D41CD000FC1CF81CE400E000AC1CA23
:1001700081CB400B01C9C009800841C801D8C01813
:10018000801941D9001BC1DB81DA401A001EC1DE93
:1001900081DF401F01DDC01D801C41DC0014C1D483
:1001A00081D5401501D7C017801641D601D2C012A3
:1001B000801341D30011C1D181D0401001F0C03073
:1001C000803141F10033C1F381F240320036C1F693
:1001D00081F7403701F5C035803441F4003CC1FC63
:1001E00081FD403D01FFC03F803E41FE01FAC03A23
:1001F000803B41FB0039C1F981F840380028C1E853
:1002000081E9402901EBC02B802A41EA01EEC02E92
:10021000802F41EF002DC1ED81EC402C01E4C02482
:10022000802541E50027C1E781E640260022C1E2A2
:1002300081E3402301E1C021802041E001A0C060B2
:10024000806141A10063C1A381A240620066C1A692
:1002500081A7406701A5C065806441A4006CC1AC62
:1002600081AD406D01AFC06F806E41AE01AAC06A22
:10027000806B41AB0069C1A981A840680078C1B812
:1002800081B9407901BBC07B807A41BA01BEC07E92
:10029000807F41BF007DC1BD81BC407C01B4C07482
:1002A000807541B50077C1B781B640760072C1B2A2
:1002B00081B3407301B1C071807041B00050C190F2
:1002C000819140510193C053805241920196C05692
:1002D000805741970055C19581944054019CC05C62
:1002E000805D419D005FC19F819E405E005AC19A22
:1002F000819B405B0199C059805841980188C04852
:1003000080494189004BC18B818A404A004EC18E91
:10031000818F404F018DC04D804C418C0044C18481
:10032000818540450187C047804641860182C042A1
:10033000804341830041C181818040400000000032
:1003400000000000000000000000000000000000AD
:10035000000000000000000000000000000000009D
:10036000000000000000000000000000000000008D
:10037000000000000000000000000000000000007D
:1003800000000000540E620E630E620E00000000BA
:10039000000000000000000000000000000000005D
:1003A000000000000000000000000000000000004D
:1003B000000000000000000000000000000000003D
:1003C000000000000000000000000000000000002D
:1003D00000000000080F620E1C0F620E9E11E1115A
:1003E000000000000000000000000000000000000D
:1003F00000000000000000000000000000000000FD
:1004000000000000303C202D101C000D313D212C3F
:10041000111D010C343E242B141E040B353F252ADC
:10042000151F050A363926291619060937382728CF
:10043000171807086613620E000000000000000095
:1004400000000000000000000000000000000000AC
:100450000000000000000000000000007A138D136F
:10046000000000000000000000000000000000008C
:10047000000000000000000000000000000000007C
:10048000000000000000000000000000000000006C
:10049000000000000000000000000000000000005C
:1004A000000000005314620E6A14AB3CAB3CAB3C42
:1004B000AB3CFA1BFE1B0000000000000000000027
:1004C000000000000000000000000000000000002C
:1004D00000000000000000000000331C7B1D951D83
:1004E0005C1DA01D2B1E96209E204C1C93206A1480
:1004F000781D921D9D1DAF1D9A20A220EA040000C8
:1005000000000000000000000000000000000000EB
:1005100000000000000000000000000000000000DB
:100520000000F4201323DB20F120620E0000000005
:1005300000000000000000000000000000000000BB
:1005400000000000000000000000000000000000AB
:100550006923A42350236623620E9B24AF24AB3C63
:10056000AB3CAB3CAB3CAB3CAB3CBF28C328C72847
:10057000CB28CF28D328D7282C27AF246B276C274C
:1005800075277E277F274327DB28DF28E328E728F6
:10059000EB28EF28D7288827AF24C727C827D127DB
:1005A000D227DB279F27F328F728FB28FF280329DA
:1005B0000729D7280000000000000000000000000C
:1005C000000000000000000000000000000000002B
:1005D0000000000000000000E427AF242828302895
:1005E000312839284128FB27BF28C328C728CB2812
:1005F000CF28D328D7284B28AF2494289C28A42878
:10060000AC28B4286228BF28C328C728CB28CF2805
:10061000D328D72873290000000000000000000044
:1006200000000000000000000000000000000000CA
:10063000000000000000412BA22C00000000422C12
:100640000201300000000000000000000000000077
:10065000000000006F0A012F0873060000171B003E
:10066000000000000000000000000000000000BECC
:10067000F0000102030405060708090A0B0C0D0E21
:100680000F101112131415161718191A1B1C1D1E02
:100690001F202122232425262728292A2B2C2D2EF2
:1006A0002FFFFFFFFFFFFFFFFFFFFFFFFFFFFFFF2A
:1006B000FFFFFFFFFFFFFFFFFFFFFFFFFFFFFFFF4A
:1006C000FFFFFFFFFFFFFFFFFFFFFFFFFFFFFFFF3A
:1006D000FFFFFFFFFFFFFFFFFFFFFFFFFFFFFFFF2A
:1006E000FFFFFFFFFFFFFFFFFFFFFFFFFFFFFFFF1A
:1006F000FFF95A0303030303030303030303030381
:1007000003030303030303030303030202020202BE
:1007100002020202020202020202020202020202B9
:1007200002020202020202020202020202020202A9
:1007300002020239413E3E3E3E3C3C3C3CFFFFFF54
:10074000FFFFFFFFFFFFFFFFFFFFFFFFFF4B6F01FB
:10075000020408102040800000000000000000009B
:100760000000000000000000000000000000000089
:100770000000000000000000000000000000000079
:100780000000000000000000000000000000000069
:100790000000000000000000000000000000000059
:1007A0000000000000000000000000000000000049
:1007B0000000000000000000000000000000000039
:1007C0000000000000000000000000000000009990
:1007D000E8010102100020000000000000000000FD
:1007E0000000000000000000000000000000000009
:1007F00000000000000000000000000000000000F9
:1008000000000000000000000000000000000000E8
:1008100000000000000000000000000000000000D8
:10082000000023E20101050000FF000000000000BD
:1008300000000000000000000000000000000000B8
:1008400000000000000000000000000000000000A8
:100850000000000000000000000000000000000098
:100860000000000000000000000000000000000088
:1008700000000000007B9C0101050100FF0000005A
:100880000000000000000000000000000000000068
:100890000000000000000000000000000000000058
:1008A0000000000000000000000000000000000048
:1008B0000000000000000000000000000000000038
:1008C0000000000000000000FB6C000000000000C1
:1008D0000000400B001400000107160002101F006A
:1008E000038031000440B3000518F50006800F01B5
:1008F000075191010851E401095137020A088A029F
:1009000000000000000000000000000000000000E7
:1009100000000000000000000000000000000000D7
:1009200000000000010101010101010101000000BE
:1009300000000001010000000000000101000000B3
:1009400000000001010000000000000101010101A0
:100950000101010100000000000000000000000093
:100960000000000000000000000000000000000087
:10097000000000000101871B2C1B01331B013A1BE7
:1009800001411B01481B014F1B01561B07641B0142
:100990005D1B016B1B01721B06791B2A8E1B038ECC
:1009A0001B018E1B01801BFB000090201200902079
:1009B0009020391E4E1E9B1EFA1E251F321F521FED
:1009C000611F6A1F7F1FCC1F2B204C2059207920CC
:1009D0008820000129272927012C25063C25015DB7
:1009E0002501852504AD2501CE2501F625041E2609
:1009F000013F26016726018F2601B72601BB24018E
:100A0000DC2401042504DF26010027061A27FB0049
:100A100000006827080055275A275F2764276827A2
:100A20006827682768270000C4270800B127B62771
:100A3000BB27C027C427C427C427C42700002528F4
:100A400008000D28122817281C28252825282128C9
:100A50002528000091280800742879287E288328FA
:100A60009128912888288D280000E8381000D73771
:100A7000E838FB371638403845384A385C386F3824
:100A800091389338B438B638C438D038E238030BCC
:100A9000AA2DBA93AA93D8018D010E94390E00EBBA
:100AA00010E0FD01018312838D01A991B991089590
:100AB000BA93AA93D8018D01ECDF08EB10E0FD0199
:100AC0000183128320E08D010E942C098D01A991E0
:100AD000B9910895BA93AA93D8018D01DADF00EC99
:100AE00010E0FD010183128321E08D010E942C0999
:100AF0008D01A991B9910895BA93AA93D8018D0156
:100B0000C8DF08EC10E0FD010183128321E08D01B4
:100B10000E942C098D01A991B9910895BA93AA93C5
:100B2000D8018D01B6DF00ED10E0FD0101831283D5
:100B300021E08D010E942C098D01A991B9910895A0
:100B4000BA93AA93D8018D01A4DF08ED10E0FD014E
:100B50000183128321E08D010E942C098D01A9914E
:100B6000B9910895BA93AA93D8018D0192DF00EE4E
:100B700010E0FD010183128321E08D010E942C0908
:100B80008D01A991B9910895BA93AA93D8018D01C5
:100B9000E9DF08EE10E0FD010183128321E08D0101
:100BA0000E942C098D01A991B9910895BA93AA9335
:100BB000D8018D010E94390E00EF10E0FD01018384
:100BC000128320E08D010E942C098D01A991B99119
:100BD00008950E94503BC801D901082F092B51F0FC
:100BE00020E030E08C010E94540EA0FB1EF48C012A
:100BF0000E946A3AE4E00C94613B0E944F3BD801AA
:100C00008D010E942F09005079F00A9571F00A9524
:100C100009F46AC00A9509F4A8C00A9509F4D3C07A
:100C20000A9509F4FDC02BC12AC1FD018181928181
:100C300006968D010E9438090E94B035402E8D0124
:100C4000FC01259134913197F90109954026442002
:100C500011F001E001C000E0002309F410C18D0192
:100C60000E943E0921E00E94FD340E948009033069
:100C700021F1FD018181928104960E948009402E1C
:100C80008D01FC01259134913197F90109954016A8
:100C900010F001E001C000E0002379F48D0111960D
:100CA000ED91FC9112973496259134913597F90185
:100CB00009950E947D090E94DC358D011196ED9108
:100CC000FC9112973496259134913597F901099545
:100CD000802F8D010E943B09182F0E940D3622E0C3
:100CE0008D010E942C09CBC0FD0181819281069665
:100CF0008D010E9438090E94B035402E8D01FC0103
:100D0000259134913197F90109954026442011F03D
:100D100001E001C000E0002331F08D010E943E0996
:100D200020E00E94FD340E947A09002369F00E94AD
:100D3000EA358D010E943B0911E00E940D3624E046
:100D40008D010E942C099BC00E947709002361F04D
:100D50000E94EA358D010E943B0911E00E940D3688
:100D600023E08D010E942C098AC00E947A09002389
:100D700029F024E08D010E942C0981C0FD018181B0
:100D8000928106968D010E9438090E94B035402E4E
:100D90008D01FC01259134913197F9010995402687
:100DA000442011F401E001C000E0002329F025E017
:100DB0008D010E942C0963C08D010E943E0920E034
:100DC0000E94FD345CC0FD018181928106968D01F7
:100DD0000E9438090E94B035402E8D01FC012591FA
:100DE00034913197F90109954026442011F401E02E
:100DF00001C000E0002369F00E94F3358D010E94DC
:100E00003B0910E00E940D3621E08D010E942C0963
:100E100036C08D010E943E0920E00E94FD342FC0A3
:100E2000FD018181928106968D010E9438090E9400
:100E3000B035402E8D01FC01259134913197F90197
:100E400009954026442011F001E001C000E0002394
:100E500031F08D010E943E0920E00E94FD340E9485
:100E60007A09002361F00E94F3358D010E943B094D
:100E700010E00E940D3621E08D010E942C09E5E072
:100E80000C94603B0E94503BC801D901082F092BEC
:100E900049F020E030E08C019CDEA0FB1EF48C01C8
:100EA0000E946A3AE4E00C94613B0E94503BC80106
:100EB000D901082F092B49F020E030E08C0189DEB0
:100EC000A0FB1EF48C010E946A3AE4E00C94613BA2
:100ED0000E94503BC801D901082F092B49F020E09E
:100EE00030E08C0176DEA0FB1EF48C010E946A3A91
:100EF000E4E00C94613B0E94503BC801D901082FEB
:100F0000092B49F020E030E08C0163DEA0FB1EF4E9
:100F10008C010E946A3AE4E00C94613B0E94503BD1
:100F2000C801D901082F092B49F020E030E08C01DD
:100F300050DEA0FB1EF48C010E946A3AE4E00C949F
:100F4000613B0E94503BC801D901082F092B49F091
:100F500020E030E08C013DDEA0FB1EF48C010E94FD
:100F60006A3AE4E00C94613B0E944F3BD8018D014A
:100F70000E942F09005031F00A9529F0055009F41C
:100F800061C08CC08BC0FD018181928106968D016C
:100F90000E9438090E94B035402E8D01FC01259138
:100FA00034913197F90109954026442011F001E070
:100FB00001C000E0002309F471C08D010E943E09C8
:100FC00021E00E94FD340E948009033021F1FD01DF
:100FD0008181928104960E948009402E8D01FC013E
:100FE000259134913197F9010995401610F001E0EF
:100FF00001C000E0002379F48D011196ED91FC9180
:1010000012973496259134913597F90109950E94EC
:101010007D090E94DC358D011196ED91FC911297AE
:101020003496259134913597F9010995802F8D01DA
:101030000E943B09182F0E940D3626E08D010E9468
:101040002C092CC0FD018181928106968D010E94A0
:1010500038090E94B035402E8D01FC012591349154
:101060003197F90109954026442011F401E001C0AF
:1010700000E0002369F00E94F3358D010E943B09D6
:1010800010E00E940D3621E08D010E942C0906C05F
:101090008D010E943E0920E00E94FD34E5E00C94A1
:1010A000603B0E94503BC801D901082F092B49F031
:1010B00020E030E08C0145DFA0FB1EF48C010E9493
:1010C0006A3AE4E00C94613B0E94503BC801D901AC
:1010D000082F092B51F020E030E08C010E94540EC3
:1010E000A0FB1EF48C010E946A3AE4E00C94613B80
:1010F0000E944F3BD8018D010E942F09005049F0FA
:101100000A9541F00A9509F45DC00A9509F484C076
:10111000A0C09FC0FD018181928106968D010E9431
:1011200071090E94BE35402E8D01FC01259134913C
:101130003197F90109954026442011F001E001C0E2
:1011400000E00023F1F10E948009063021F1FD0149
:101150008181928104960E948009402E8D01FC01BC
:10116000259134913197F9010995401610F001E06D
:1011700001C000E0002379F48D011196ED91FC91FE
:1011800012973496259134913597F90109950E946B
:101190007D090E94DC358D011196ED91FC9112972D
:1011A0003496259134913597F9010995802F8D0159
:1011B0000E947409182F0E940D3622E08D010E94B2
:1011C0002C0947C0FD018181928106968D010E9404
:1011D00071090E94BE35402E8D01FC01259134918C
:1011E0003197F90109954026442011F001E001C032
:1011F00000E0002371F50E947709002351F10E945D
:10120000EA358D010E94740911E00E940D3623E039
:101210008D010E942C091DC0FD01818192810696DD
:101220008D010E9471090E94BE35402E8D01FC0186
:10123000259134913197F90109954026442011F404
:1012400001E001C000E0002321F021E08D010E94B7
:101250002C09E5E00C94603BF80120830895F80127
:1012600000810895980100E00895980100E0089534
:10127000F80105810895F801038108950C5F1F4F5F
:101280000895980100E00895980100E008959801FC
:1012900002E00895980100E00895980102E00895A1
:1012A000980101E00895980103E00895980100E095
:1012B0000895980103E00895980101E008959801C8
:1012C00001E00895980100E00895980101E0089573
:1012D000980101E00895980106E00895980100E062
:1012E0000895F80104810895F8010381089500919B
:1012F000A90B08950091AA0B08950093FA0B089585
:101300000091FA0B089528EF30E0F801248335832B
:10131000F80120E02083F80120E02183F80120E09B
:101320002283F80120E0238308959A938A93C801C9
:10133000082F092B29F020FB1EF48C010E946A3A29
:101340008991999108959A938A93C801082F092B3E
:1013500029F020FB1EF48C010E946A3A8991999130
:1013600008950E94D7090E94D3090E94DD090E94B6
:10137000D909089508EF12E00E94D62C0E94D509E1
:101380000E94DB0908950AE81CE00E94D62C0E9406
:10139000D5090E94DB0908950E94D7090E94DD0942
:1013A0000E94012D0895139A08951B9A08951B9881
:1013B0000895149A08951C9A08951C9808957B2FF7
:1013C0002A2ED8010FEF1FEF40E050E042175307DD
:1013D00098F46C91502F65271196012F10E0E62F9D
:1013E000F0E0EE0FFF1FE45CFE4F05901490319784
:1013F000002511254395E9CFA22DB72F0895F801B7
:1014000000E010E0408150E0040F151F319621509C
:101410003040422F432BB1F708950E94503BF80112
:10142000C90120E030E0008110E0200F311F31962B
:101430000197082F092BB9F7DF01FD013196022F23
:101440001C91011749F48901012F10E01081011747
:1014500019F401E010E002C000E010E0E4E00C94B8
:10146000613BF80140E00081400F3196215030404F
:10147000022F032BC1F70081401719F401E010E09F
:10148000089500E010E00895A8950895202F2C30CD
:1014900060F4022F10E048E050E00E94723AF80138
:1014A000E25FF84F06811781089500E008950091EA
:1014B000910708950BE008950093AB0B08950E94E7
:1014C000503B0E94080BB0E0A1E00A2F015039F018
:1014D0000A9539F10A95A1F10A9581F133C00E946C
:1014E0005A0AB017E0F42B2F0BE719E00E94080E00
:1014F000C801082F092B89F04B2F43959C010BE75E
:1015000019E00E94620D002311F0A2E01BC00E94AE
:10151000570A0430B9F4A3E015C0A3E013C0A4E057
:1015200011C00E94570A033019F4B395A1E00AC014
:101530000E94570A043031F4A3E004C001E00BC05C
:1015400000E009C00E94380B0AE010E00E94932CD2
:101550000E94440ABACFE4E00C94613B0E94850DDE
:1015600008950E94AA0D08950E94D60D089500E0E6
:101570000E945C0A0E94720C002399F0EFDF0023A6
:1015800051F0F2DF002311F001E0089504E00E9421
:101590005C0A00E0089504E00E945C0A90DF00E02D
:1015A000089504E00E945C0A8ADF00E008950E942A
:1015B000513BC801A22F2A2F23958C010E94D60BE4
:1015C000E3E00C94623B8A93802F0E945A0A8017B2
:1015D00030F4082F03950E94460A10E002C000E094
:1015E00010E0899108950E94513BC801A22F0A2F53
:1015F000EADF98014A2F43958C010E94620D10E0AA
:10160000E3E00C94623B0CE817E00E9490390895E7
:101610000BE719E0EAE8F7E00083118300E00E949D
:101620002A0E44E650E020E030E00EE017E00E9491
:101630007C3BEEE0F7E000E110E004831583EEE090
:10164000F7E004E610E006831783EEE0F7E009E92F
:1016500010E000871187EEE0F7E009EA10E002836E
:101660001383EEE0F7E000E0008300E001830895DB
:101670000E942D0E005079F00A9571F00A95B1F094
:101680000A9589F10A9509F443C00A9509F459C0ED
:101690000A9509F473C008950E94270E28EC30E0E3
:1016A0000E94A13902E00E942A0E08950E94150EA0
:1016B000002361F00E94270E20E137E20E94A13949
:1016C0000E94210E03E00E942A0E08950E94270E18
:1016D0000E94BB39002331F004E00E94300E00E08C
:1016E0000E942A0E08950E941E0E002321F004E09D
:1016F0000E942A0E08950E94270E0E94BB390023E3
:1017000031F004E00E94300E00E00E942A0E08959D
:1017100040E024E630E00EE017E049D1012B51F023
:101720000E94270E28EC30E00E94A13905E00E94BB
:101730002A0E089504E00E94300E00E00E942A0E56
:1017400008950E94150E002361F00E94270E20E1EB
:1017500037E20E94A1390E94210E06E00E942A0E63
:1017600008950E94270E0E94BB390023F1F004E087
:101770000E94300E00E00E942A0E08950E941E0E64
:10178000002339F003E00E94300E00E00E942A0E90
:1017900008950E94270E0E94BB39002331F004E017
:1017A0000E94300E00E00E942A0E08950E94463BDF
:1017B000D1503801822E0CE0801618F000E010E0C5
:1017C0008DC0082D10E048E050E00E94723AF80108
:1017D000E25FF84F04811581012BB1F1082D10E073
:1017E00048E050E00E94723AF801E25FF84F00854D
:1017F0001185012B49F1082D10E048E050E00E94CE
:10180000723AF801E25FF84F048115816801082DF2
:1018100010E048E050E00E94723AF801E25FF84FB1
:10182000008511855801A50196018E010E945C2B4F
:10183000A5019E018E010E94DC10280103E04016E4
:1018400000E0500650F403C000E010E047C004E0A0
:101850000E945C0A00E010E041C00EEF400E0FEF66
:10186000501E082D10E048E050E00E94723AF80146
:10187000E25FF84F068117814016510631F004E00F
:101880000E945C0A00E010E029C0FE01E40DF51D95
:10189000808190E0FE01E40DF51D118100E0802BB8
:1018A000912B92018E010E94DF09D8018A179B07B4
:1018B00081F4082D10E0000F111FF801EE58F84FC9
:1018C00080839183A2019E0183010E946C3B82016F
:1018D00005C004E00E945C0A00E010E0DF5FEEE07B
:1018E0000C94573B0E94503B93DE20E00EE017E043
:1018F0005DDF012B11F400E057C0B0E0A1E000E093
:101900000E94330E0A2F015059F00A9509F10A95E9
:1019100081F10A95D1F10A95E9F10A95C9F13CC026
:10192000BC30A0F42B2FEAE8F7E0008111813EDF04
:10193000C801082F092B41F00E94360E002311F038
:10194000A2E02AC0A4E028C0A5E026C0A6E024C0EA
:101950004B2F9C01EAE8F7E000811181B3D000230E
:1019600011F0A3E019C00E94570A0430A9F4A5E0C1
:1019700013C00E94570A033011F4A4E00DC00E9466
:10198000570A043049F4A5E007C0B395A1E004C0AC
:1019900001E00AC000E008C06BDE0AE010E00E942F
:1019A000932C0E94440AAECFE4E00C94613B0E9469
:1019B0004A3BD1502801C901642E0CE0601618F092
:1019C00000E010E07BC0AC0192018E010E946C3BF4
:1019D0009C0182010E94DF09D8010A2FFE01E80F55
:1019E000F91F00838D01012F10E0FE01E80FF91FA0
:1019F0000183062D10E048E050E00E94723AF801A1
:101A0000E25FF84FA287B387AC014E5F5F4F9E0144
:101A1000EAE8F7E0008111810E9459104801062D83
:101A200010E048E050E00E94723AF801E25FF84F9F
:101A300000851185012B69F5EEE0F7E02281338105
:101A4000062D10E048E050E00E94723AF801E25F93
:101A5000F84F24833583EEE0F7E002811381080D0F
:101A6000191D02831383062D10E048E050E00E9408
:101A7000723AF801E25FF84F86839783062D10E0F3
:101A800048E050E00E94723AF801E25FF84F808629
:101A90009186A401EAE8F7E020813181BA01062DA0
:101AA00010E048E050E00E94723AF801E25FF84F1F
:101AB00004811581AB010E946F2B8401DF5FEAE096
:101AC0000C945B3B0E944F3BD801C901442E0E94FD
:101AD0002D0E002399F4442D9C018D0168DF012B0C
:101AE00041F001E00E94300E01E00E942A0E01E068
:101AF00009C004E00E94300E00E004C002E00E9431
:101B0000300E00E0E5E00C94603BBD01E1E0F0E068
:101B1000EB3000E0F007D8F48F01000F111FD8015F
:101B2000AE58B84F2D913C9111978F0148E050E08D
:101B30000E94723AD801A85EB84F0D911C9111977E
:101B40002017310711F000E003C03196E1CF01E02A
:101B5000DB010895BA93AA936697E0E0F0E0EB30DA
:101B600000E0F007B0F48F0148E050E00E94723AC4
:101B7000D801A05EB84F2D913C911197DE018F01E5
:101B8000000F111FA00FB11F2D933C931197319699
:101B9000E6CF26E130E08E010E94DF09EEE0F7E0BB
:101BA000008311836696A991B9910895BA93AA9377
:101BB0006697E0E0F0E0EB3000E0F007B0F48F0172
:101BC00048E050E00E94723AD801A05EB84F2D91D3
:101BD0003C911197DE018F01000F111FA00FB11F63
:101BE0002D933C9311973196E6CF26E130E08E019C
:101BF0000E94DF09EEE0F7E02081318120173107F4
:101C000011F401E001C000E06696A991B991089530
:101C10000E94513BC801A22F2A2F8C010E94012C47
:101C2000E3E00C94623BE39A0895E19B02C000E07C
:101C3000089501E008950093DD0708950091DD0700
:101C4000089500E00E941B0E0E94130E08950CE8F8
:101C500017E0089500939007089500919007089564
:101C600000939107089500939207089500919207B9
:101C7000089524E833E0F80121833283F80120E05D
:101C800020830895AD01D8018D01F3DF08E813E04A
:101C9000FD0101831283FD0100E00383FD0100E0EB
:101CA00004838D01DA0108959A938A93C801082F5D
:101CB000092B29F020FB1EF48C010E946A3A8991BD
:101CC0009991089508959A938A93C801082F092B32
:101CD00029F020FB1EF48C010E946A3A89919991A7
:101CE00008950091610004600093610008950091DF
:101CF00062000460009362000895009162000B7F0F
:101D000000936200089500916100006100936100FA
:101D100008950091620000610093620008950091AF
:101D200062000F7E009362000895009161000260DE
:101D3000009361000895009162000D7F009362009E
:101D4000089500916200026000936200089500000F
:101D5000089500C000C0000008950E947D0E0E94FA
:101D60008F0E0E94A10E0E94710E0E94830E0E948F
:101D7000950E08950E944F3BC801422EA0E0A41585
:101D8000A0F4B0E0FC01EA0FFB1F0081002319F072
:101D90000E94890E02C00E948F0E0E94770E0E9440
:101DA000A70E0E947D0EA395EACF0E94A10E0E946D
:101DB000A90E0E949B0EE5E00C94603BBA93AA9397
:101DC000D8018D010E94420E04ED13E0FD01018354
:101DD00012838D01A991B99108950E94503BD801B9
:101DE000C9018D01EBDF08ED13E0FD0101831283D2
:101DF0008D010B5F1F4F0E949039FD0181879287F3
:101E000020E08D010E942C098D01E4E00C94613BDF
:101E10000E94503BC801D901082F092B51F020E046
:101E200030E08C010E94630EA0FB1EF48C010E9426
:101E30006A3AE4E00C94613B0E94503BC801D9012E
:101E4000082F092B49F020E030E08C01E1DFA0FBF6
:101E50001EF48C010E946A3AE4E00C94613B0E94FB
:101E6000503BD801922F832F8D010E942F090050E3
:101E700029F00A9561F00A9521F148C0FD0100E0C2
:101E8000038721E08D010E942C0900E040C09923C6
:101E900021F0FD01038501600387882321F0FD0106
:101EA000038502600387FD01218532858D010B5F6B
:101EB0001F4F0E94A13922E08D010E942C0900E0F1
:101EC00026C08D010B5F1F4F0E94BB39002331F0EC
:101ED00020E08D010E942C0900E019C0992321F017
:101EE000FD01038501600387882321F0FD0103853F
:101EF00002600387FD010385033031F420E08D018A
:101F00000E942C0901E003C000E001C000E0E4E011
:101F10000C94613B202F30E0E0E0F0E0E83000E09E
:101F2000F0074CF4022F10E04E2F0E94863A017009
:101F300030273196F3CF332311F401E0089500E008
:101F40000895980150E0E0E0F0E0EC3000E0F007A8
:101F500044F44E2F89010E94813A01705027319636
:101F6000F4CF552311F401E0089500E00895502FB7
:101F700060E070E000E1509F00E000220FE01022DE
:101F8000B00108E0509F00E7002200E01022602925
:101F90007129052F017014E0019F60297129052F17
:101FA000007FB8DF10E8019F60297129052F0E78A6
:101FB000B1DF18E0019F60297129052F0D76AADF96
:101FC00012E0019F60297129052F0B75A3DF10E036
:101FD000602B712B8B010895080160E08001007077
:101FE0001F70AFDF102D17FB10E010F9011711F073
:101FF00061E001C060E0660F660F660F8001007748
:1020000018709FDF102D13FB10E010F9011711F06D
:1020100001E001C000E0000F000F602B800104769A
:1020200016708FDF102D11FB10E010F9011711F061
:1020300001E001C000E0000F602B80010475157005
:1020400080DF102D1170011711F001E001C000E0D8
:10205000602B062F0895B801222311F48B010895F7
:10206000209392072A9501E010E0422F0E947C3ACB
:10207000602771278B010895B80120E044E08B01AF
:102080000E94813A007F202F062F0695069506951F
:102090000E70202B062F02FB00E000F9202B022FF0
:1020A00008951801810198DF202F8101D4DFE4DF3A
:1020B00008950E94453B380159016A0122243324C6
:1020C00044245524EE24C0FA36F40FEFC00E0FEF6F
:1020D000D01EEE24E394882499248C149D0408F0E7
:1020E0004BC0F501E40DF51D008141DF20E030E03B
:1020F000C801D90101E0400E00E0501EF501E40DD9
:10210000F51D008134DFA80160E070E0ECE08A0199
:102110009B014E2F0E94D83A802B912BA22BB32BE0
:1021200001E0400E00E0501E8C01F301E20DF31DB2
:10213000008301E0200E00E0301E892F9A2FAB2F84
:10214000B0E08C01F301E20DF31D008301E0200EED
:1021500000E0301E892F9A2FAB2FB0E08C01F301E5
:10216000E20DF31D008301E0200E00E0301E02E0CE
:10217000800E00E0901EB1CFEE20D1F0F501E40D0D
:10218000F51D0081F4DEC801082FF301E20DF31DF7
:10219000008301E0200E00E0301E892F90E0082F20
:1021A000F301E20DF31D008301E0200E00E0301E7C
:1021B0008101EFE00C94563B0E94443B219758016B
:1021C00049017A01662477244424552400E00883D9
:1021D00043E050E087010E94893A4130504019F4B1
:1021E00000E010E085C043E050E087010E94893A9A
:1021F0004230504031F40EEFE00E0FEFF01E01E0E0
:102200000883CC24DD24CE14DF0408F050C0F40190
:10221000E40DF51D008110E020E030E0C801D90197
:1022200001E0400E00E0501EF401E40DF51D0081B8
:1022300010E020E030E0322F212F102F00E0802B23
:10224000912BA22BB32B01E0400E00E0501EF401B5
:10225000E40DF51D208130E000E010E0802B912B93
:10226000A22BB32B01E0400E00E0501E8C010F7F2B
:102270001F7017DFF501E60DF71D008301E0600E0A
:1022800000E0701E4CE08C019D010E94DF3A0F7F40
:102290001F7007DFF501E60DF71D008301E0600EFA
:1022A00000E0701E03E0C00E00E0D01EACCF08813D
:1022B0000023E9F0F401E40DF51D008110E0C801F0
:1022C00001E0400E00E0501EF401E40DF51D108108
:1022D00000E0802B912B8C010F7F1F70E2DEF50157
:1022E000E60DF71D008301E0600E00E0701E830123
:1022F0002196E0E10C94553B0E94503BD801C90166
:102300008D010E94420E0CED13E0FD01018312834A
:102310008D01075F1F4F0E949039FD0185839683D1
:10232000FD0100E00087FD0100E0078320E08D0152
:102330000E942C098D01E4E00C94613B0E94503B0B
:10234000C801D901082F092B51F020E030E08C01A1
:102350000E94630EA0FB1EF48C010E946A3AE4E026
:102360000C94613BBA93AA93D8011596ED91FC9118
:1023700016970995002311F001E001C000E0A99132
:10238000B99108950E94503BD801822F8D01FD0123
:1023900021813281F9013296259134913397F901E7
:1023A0000995FD010781081741F4FD0100E007834D
:1023B000FD0100E0008701E001C000E0E4E00C94D2
:1023C000613BBA93AA93D8018D010E942F09005056
:1023D00089F00A95C1F00A9541F10A9509F44AC0BD
:1023E0000A9509F46CC00A9509F48EC0025009F4EC
:1023F000B0C0B7C0FD010085FD01078321E08D015C
:102400000E942C09AEC08D01ADDF002369F08D0163
:102410000E94B41298018D01075F1F4F0E94A139DD
:1024200022E08D010E942C099CC08D019BDF0023BE
:10243000C1F08D01075F1F4F0E94BB390023C9F017
:102440008D010E94B81298018D01075F1F4F0E94F5
:10245000A139FD0102E0008723E08D010E942C09D3
:1024600080C0FD010085FD01078320E08D010E94F1
:102470002C0977C08D0176DF0023C1F08D01075F45
:102480001F4F0E94BB390023C9F08D010E94BC126E
:1024900098018D01075F1F4F0E94A139FD0103E0E4
:1024A000008724E08D010E942C095BC0FD0100859E
:1024B000FD01078320E08D010E942C0952C08D018F
:1024C00051DF0023C1F08D01075F1F4F0E94BB3910
:1024D0000023C9F08D010E94C01298018D01075F91
:1024E0001F4F0E94A139FD0104E0008725E08D0106
:1024F0000E942C0936C0FD010085FD01078320E004
:102500008D010E942C092DC08D012CDF0023E1F0EC
:102510008D01075F1F4F0E94BB39002311F18D0110
:102520000E94C41298018D01075F1F4F0E94A139BC
:10253000FD0105E00087FD010085FD01078327E01F
:102540008D010E942C090DC020E08D010E942C09F4
:1025500008C08D0107DF002321F420E08D010E94D7
:102560002C09A991B9910895980104E610E0089505
:1025700098010CED15E00895980108EB1BE0089513
:10258000980108E813E10895980102E310E0089526
:10259000F8010081089500916100016000936100DD
:1025A0000895009162000E7F0093620008950091EB
:1025B00061000062009361000895009162000F7D48
:1025C000009362000895169A08951E980895179A28
:1025D00008951F9808959A938A93C801E3EDF7E050
:1025E000808391830E94D1120E94DD120E94E51225
:1025F0000E94E9120E94CB120E94D7120E94E3129D
:102600000E94E7120E94AD0E8991999108958A93D4
:1026100080E0803350F5082F10E046E050E00E9443
:10262000723A9801E3EDF7E000811181020F131F68
:102630000E94C812002361F0E82FF0E0EC5FFB4F2E
:10264000049110E0F801ED56F84F01E000830BC053
:10265000E82FF0E0EC5FFB4F049110E0F801ED563D
:10266000F84F00E000838395D4CF20E403E917E01E
:102670000E94BA0E89910895BA93AA93D8018D0148
:102680000E94420E04E314E0FD01018312838D01D8
:102690000B5F1F4F0E9490398D01A991B991089548
:1026A000BA93AA93D8018D01E7DF0CE514E0FD0190
:1026B0000183128320E08D010E942A1421E08D0104
:1026C0000E942C098D01A991B99108950E94503B57
:1026D000C801D901082F092B51F020E030E08C010E
:1026E0000E94630EA0FB1EF48C010E946A3AE4E093
:1026F0000C94613B0E94503BC801D901082F092B63
:1027000049F020E030E08C01E1DFA0FB1EF48C01F9
:102710000E946A3AE4E00C94613B0E94503BC8017D
:102720008C010E942F09005051F00A9549F00A953A
:1027300039F10A95F9F10A9509F45EC088C087C09D
:102740000E9488310023B9F00E949831002371F073
:102750000E949031D8018C010E9430149D010E948A
:10276000A13923E08C010E942C0971C022E08C0168
:102770000E942C096CC020E08C010E942C0967C0CB
:102780008C010E942D140130A1F420E08C010E94E4
:102790002A1401E00E94A1310E949031D8018C01DD
:1027A0000E9430149D010E94A13923E08C010E94F7
:1027B0002C094DC08C010E942D14013071F420E0D1
:1027C0008C010E942A140E949031D8018C010E9431
:1027D00030149D010E94A1393AC08C010E9430142E
:1027E0000E94BB39002399F105E00E945C0A24E0B5
:1027F0008C010E942C092BC08C010E942D140150C9
:1028000019F00A95B1F023C020E08C010E942A142F
:102810000CE00E9433140E949031D8018C010E9478
:1028200030149D010E94A13923E08C010E942C09E3
:102830000EC020E08C010E942A1400E00E94A13109
:102840000CE00E94331422E08C010E942C09E4E089
:102850000C94613BF80124830895F80104810895E4
:102860000B5F1F4F08950093FB0A08958A9380E041
:1028700086E086E086E085E084E689E900E00E9463
:1028800033140E94CF37FDCFBA93AA93D8018D019C
:102890000E94420E04EA14E0FD01018312838D01BF
:1028A000A991B99108950E94503BC801D901082F00
:1028B000092B51F020E030E08C010E94630EA0FB58
:1028C0001EF48C010E946A3AE4E00C94613BF8012A
:1028D000258308959A938A93C8018C010E942F0939
:1028E000002311F401E001C000E08991999108955D
:1028F0000E944E3B2801C901DA01AD019C01820111
:10290000F20161817281FB0136966591749137976E
:10291000FB010995D801AD019C018201F2016181A1
:102920007281FB013C96659174913D97FB0109957D
:10293000E6E00C945F3B0E944B3BD801722E632E65
:10294000842ECB01AC01362D3068272D8D01FD0181
:1029500061817281FB013A96659174913B97FB010D
:1029600009952801FC01E40DF51D808201E0400E6F
:1029700000E0501E8201E9E00C945C3B0E944A3B5F
:1029800028010A012A843B848C859D8550E06624B9
:10299000A0E0B0E0A015B105F0F4490194012F5F6B
:1029A0003F4FFB01E80DF91D0081002331F001E0EC
:1029B00010E0462D0E947C3A502B07E0601641F44F
:1029C000F101E80FF91F5083019650E0662401C021
:1029D00063941196DFCF662029F0F101E80FF91F0B
:1029E000508301968C01EEE00C945B3B0E94443BCB
:1029F000280159014A01CB018201F2012181328172
:102A0000F9013E96259134913F97F90109953801D6
:102A1000F501E60DF71D3197F080F501E60DF71D84
:102A2000E080F501E60DF71DD180CC24F501E60D1F
:102A3000F71D028110E0C02AD12AF501E60DF71D2D
:102A4000B381A0E0F501E60DF71D048110E0A02B95
:102A5000B12B0A2F0B2B21F0A13D07E0B00740F06E
:102A6000B40143E03E2D2F2D820165DFC80144C033
:102A7000F201028D138D96012A0F3B1F02171307D7
:102A800040F4B40142E03E2D2F2D820154DFC801F5
:102A900033C0A4013E2D2F2D8201F201618172818C
:102AA000FB013A96659174913B97FB010995C8012A
:102AB0000A2F0770002359F043E08D010E94813AEC
:102AC0000395F401E80FF91F0083019609C043E064
:102AD0008D010E94813AF401E80FF91F00830196ED
:102AE0009A938A939A928A92F20162897389AD01CC
:102AF0009601820143DFC8018C01E0E10C94553B53
:102B00000E94443B280159014A01CB018201F20194
:102B100021813281F9013E96259134913F97F90147
:102B200009953801F501E60DF71D3197F080F501A3
:102B3000E60DF71DE080F501E60DF71DD180CC24F0
:102B4000F501E60DF71D028110E0C02AD12AF5013A
:102B5000E60DF71DB381A0E0F501E60DF71D048138
:102B600010E0A02BB12B0A2F0B2B21F0A13D07E089
:102B7000B00740F0B40143E03E2D2F2D8201DBDE93
:102B8000C80144C0F201048D158D96012A0F3B1F28
:102B90000217130740F4B40142E03E2D2F2D8201AD
:102BA000CADEC80133C0A4013E2D2F2D8201F201DF
:102BB00061817281FB013A96659174913B97FB01AB
:102BC0000995C8010A2F0770002359F043E08D01D1
:102BD0000E94813A0395F401E80FF91F00830196E2
:102BE00009C043E08D010E94813AF401E80FF91F0A
:102BF000008301969A938A939A928A92F201648949
:102C00007589AD0196018201B9DEC8018C01E0E150
:102C10000C94553B0E94443B280169014A01CB01B9
:102C20008201F20121813281F9013E962591349190
:102C30003F97F90109955801F601EA0DFB1D3197FF
:102C4000F080F601EA0DFB1DE080F601EA0DFB1DA8
:102C5000B181A0E0F601EA0DFB1D028110E0A02B7E
:102C6000B12BF601EA0DFB1D73806624F601EA0D17
:102C7000FB1D048110E0602A712A062D072929F026
:102C80000EE7601600E0700640F0B40143E03E2D10
:102C90002F2D820150DEC80152C0F201068D178D22
:102CA0009D01260D371D0217130740F4B40142E0C1
:102CB0003E2D2F2D82013FDEC80141C0A4013E2DD3
:102CC0002F2D8201F20161817281FB013A9665919B
:102CD00074913B97FB010995C801062D000FF40183
:102CE000E80FF91F0083019600E010E006151705B4
:102CF00030F5F201468957899D01220F331F420F9B
:102D0000531FFA0120813181232F30E0F401E80FB5
:102D1000F91F20830196F201468957899D01220FF0
:102D2000331F420F531FFA0120813181F401E80F54
:102D3000F91F2083019611960F5F1F4FD7CF8C018B
:102D4000E0E10C94553B0E94443B280169014A0193
:102D5000CB018201F20121813281F9013E96259158
:102D600034913F97F90109955801F601EA0DFB1DD1
:102D70003197F080F601EA0DFB1DE080F601EA0DC7
:102D8000FB1DB181A0E0F601EA0DFB1D028110E000
:102D9000A02BB12BF601EA0DFB1D73806624F60112
:102DA000EA0DFB1D048110E0602A712A062D072917
:102DB00029F00EE7601600E0700640F0B40143E031
:102DC0003E2D2F2D8201B7DDC80152C0F20100A1B6
:102DD00011A19D01260D371D0217130740F4B40100
:102DE00042E03E2D2F2D8201A6DDC80141C0A40185
:102DF0003E2D2F2D8201F20161817281FB013A96F5
:102E0000659174913B97FB010995C801062D000F50
:102E1000F401E80FF91F0083019600E010E00615A9
:102E2000170530F5F201408D518D9D01220F331FA2
:102E3000420F531FFA0120813181232F30E0F4012A
:102E4000E80FF91F20830196F201408D518D9D01FD
:102E5000220F331F420F531FFA0120813181F401E9
:102E6000E80FF91F2083019611960F5F1F4FD7CFF0
:102E70008C01E0E10C94553B0E94443B5801290130
:102E80006A01CB018501F50121813281F9013E966C
:102E9000259134913F97F90109953801F201E60D2A
:102EA000F71D3197F080F201E60DF71DE080F20189
:102EB000E60DF71D91808824F201E60DF71D0281D1
:102EC00010E0802A912AF501028D138D801691065B
:102ED00040F0B60142E03E2D2F2D85012CDDC801CA
:102EE0002EC0F201E60DF71DB381A0E0F201E60D60
:102EF000F71D048110E0A02BB12BA0300FEFB0071D
:102F000051F4940101E00E947A31AC0192018601F2
:102F10000E946C3B14C00A2F0B2B51F4940100E06B
:102F20000E947A31AC01920186010E946C3B07C07D
:102F3000B60143E03E2D2F2D8501FDDCC8018C013B
:102F4000E0E10C94553B0E94463B2801C9015A011F
:102F50004B018201F20121813281F9013E962591D6
:102F600034913F97F9010995D801FC01EA0FFB1F45
:102F70003197D080FC01EA0FFB1FC080FC01EA0FF3
:102F8000FB1F71806624FC01EA0FFB1F028110E029
:102F9000602A712AF201068D178D6016710640F0C5
:102FA000B50142E03C2D2D2D8201C5DC48011CC03D
:102FB000FC01EA0FFB1F538140E0FC01EA0FFB1FFD
:102FC000048110E0402B512BF201268937898301BF
:102FD000000F111F200F311FF90140835183A401FD
:102FE0009C0185010E946C3B8401EEE00C94573BF0
:102FF0000E94443B280139016A01CB018201F201A0
:1030000021813281F9013E96259134913F97F90152
:1030100009954801F301E80DF91D3197F080F3019E
:10302000E80DF91DE080F301E80DF91DB180AA2437
:10303000F301E80DF91D028110E0A02AB12AF30185
:10304000E80DF91DB381A0E0F301E80DF91D04813D
:1030500010E0A02BB12B0A2F0B2B21F0A13B07E096
:10306000B00740F0B60143E03E2D2F2D820163DC16
:10307000C80134C0F201028D138D95012A0F3B1F48
:103080000217130740F4B60142E03E2D2F2D8201B6
:1030900052DCC80123C0A5019D018301080D191D43
:1030A0000A5F1F4F0E944131A6013E2D2F2D820144
:1030B000F20161817281FB013A96659174913B97AF
:1030C000FB010995C80144E050E09301280F391F26
:1030D0008601080F191F0E946C3B04968C01E0E1E9
:1030E0000C94553B0E94443B480129016A013B0175
:1030F0008401F40121813281F9013E9625913491B8
:103100003F97F9010995C801F201E80FF91F3197BE
:10311000F080F201E80FF91FE080F201E80FF91FDB
:10312000B181A0E0F201E80FF91F028110E0A02BAD
:10313000B12BF201E80FF91FB380AA24F201E80FC6
:10314000F91F048110E0A02AB12A0A2D0B2929F0C9
:103150000CE7A01600E0B00640F0B60143E03E2DBB
:103160002F2D8401E8DB38014FC0F401068D178D47
:103170009D012A0D3B1D0217130740F4B60142E0E2
:103180003E2D2F2D8401D7DB38013EC020E030E0FA
:103190002A153B05E0F4F201E80FF91F568140E0E3
:1031A000F201E80FF91F078110E0402B512BF401C9
:1031B000668977898D01000F111F600F711FFB0158
:1031C00040835183119602962F5F3F4FE1CFA601B6
:1031D0003E2D2F2D8401F40161817281FB013A960D
:1031E000659174913B97FB010995380144E050E0EB
:1031F0009201260D371D8601060D171D0E946C3B9E
:1032000004E0600E00E0701E8301E0E10C94553B89
:1032100008010FEF1FEF0895080100E010E0089586
:103220000E94483B28014901DA01CB018201F201E9
:1032300021813281F9013E96259134913F97F90120
:1032400009953801F401E60DF71D3197B080F401BE
:10325000E60DF71DA080AD013A2D2B2D8201F20164
:1032600061817281FB013A96659174913B97FB01F4
:103270000995C801FD01E80FF91F03E000830196DD
:10328000FD01E80FF91F00E200830196FD01E80F40
:10329000F91F07E000830196FD01E80FF91F02E323
:1032A000008301968C01ECE00C94593B0E94443B56
:1032B00038014901DA01CB018301F3012181328117
:1032C000F9013E96259134913F97F901099528011E
:1032D000F401E40DF51D3197B080F401E40DF51D06
:1032E000A080F401E40DF51DE280FF248C0106505E
:1032F0001040E016F10641F0BD0142E03A2D2B2DC1
:10330000830119DBC8012AC1AD013A2D2B2D8301A0
:10331000F30161817281FB013A96659174913B974B
:10332000FB010995C801F401E40DF51D038100506E
:1033300049F00A9579F10A9509F49BC00A9509F4B8
:10334000DEC005C1FD01E80FF91F00E00083019612
:10335000FD01E80FF91F04E000830196F401E40D7C
:10336000F51D0381FD01E80FF91F00830196FD01A2
:10337000E80FF91F02E000830196FD01E80FF91F35
:1033800000E000830196FD01E80FF91F02E00083D1
:103390000196E4C0F401E40DF51D0481C02E0E94E5
:1033A0005A0A0C1540F4BD0142E03A2D2B2D830141
:1033B000C2DAC801D3C0CC20B1F52C2D8D01040D8B
:1033C000151D0B5F1F4F0E94D70A2091040CFD01B1
:1033D000E40DF51D25832091030CFD01E40DF51D81
:1033E0002683FD01E40DF51D20E32783FD01E80F91
:1033F000F91F20E020830196202FFD01E80FF91F1F
:1034000020830196F401E40DF51D2381FD01E80FF1
:10341000F91F20830196FD01E80FF91FC082019674
:10342000800F911F9BC02C2D8D01040D151D0B5F6E
:103430001F4F0E94D70A9801FD01E80FF91F00E015
:1034400000830196022FFD01E80FF91F008301960A
:10345000F401E40DF51D0381FD01E80FF91F008360
:103460000196FD01E80FF91FC0820196820F931F9C
:1034700075C0F401E40DF51D0481C02E0E945A0AA6
:103480000C1540F4BD0142E03A2D2B2D830153DA97
:10349000C80164C00C2D0E94E30A9801F401E40DF8
:1034A000F51D028110E0025010400217130741F091
:1034B000BD0143E03A2D2B2D83013DDAC8014EC0FA
:1034C0002C2D8401040D151D0B5F1F4F0E94F30A64
:1034D000012B69F00E94B10A0DE00E943314BD0176
:1034E00045E03A2D2B2D830126DAC80137C0BD01F6
:1034F00047E03A2D2B2D83011EDAC8012FC00E9410
:10350000570A033081F4AD013A2D2B2D8301F301CD
:1035100061817281FB013A96659174913B97FB0141
:103520000995C8011BC00E94570A013041F4BD0132
:1035300046E03A2D2B2D8301FED9C8010FC0BD01F5
:1035400041E03A2D2B2D8301F6D9C80107C0BD01FA
:1035500041E03A2D2B2D8301EED9C8018C01E0E129
:103560000C94553B0E94483BD80149012A01CB01EC
:103570008D01FD0121813281F9013E962591349121
:103580003F97F90109953801F401E60DF71D3197D0
:10359000B080F401E60DF71DA0800E94570A0330A9
:1035A00081F4A2013A2D2B2D8D01FD0161817281E3
:1035B000FB013A96659174913B97FB010995C8010F
:1035C00013C00E94570A013041F4B20146E03A2D7F
:1035D0002B2D8D01B0D9C80107C0B20141E03A2DB1
:1035E0002B2D8D01A8D9C8018C01ECE00C94593B1E
:1035F0000E94453BD80129013A015B018D01FD0183
:1036000021813281F9013E96259134913F97F9014C
:1036100009954801F201E80DF91D3197C080F201CA
:10362000E80DF91DE080C501DC2CDD0CDD08FD0195
:10363000058110E0C016D10629F0CC2019F000E079
:1036400010E070C00E2D102F110F110BE4E7F0E009
:10365000FBBFF9E00C94073BBC01A30192018D0173
:10366000C5D9C8015BC0BC01A30192018D0148DA34
:10367000C80154C0BC01A30192018D01CBDAC8017D
:103680004DC0BC01A30192018D015DDBC80146C0A4
:10369000BC01A30192018D01EFDBC8013FC0BC0159
:1036A000A30192018D014FDCC80138C0BC01A30108
:1036B00092018D01ADDDC80131C0BC01A3019201B1
:1036C0008D0196DCC8012AC0BC01A30192018D01C5
:1036D00049DFC80123C0BC01A30192018D0102DDB5
:1036E000C8011CC0BC01A30192018D0199DDC80174
:1036F00015C0BC01A30192018D018EDDC8010EC071
:10370000BC01A30192018D01D1DDC80107C0B30145
:1037100041E03E2D2C2D8D010ED9C801FD0184877D
:1037200095878C01EFE00C94563BB80101E010E066
:1037300008950E94483BD80129013A018D01FD01FD
:1037400021813281F9013E96259134913F97F9010B
:103750000995C801F201E80FF91F31979080F20135
:10376000E80FF91F80805301FD010681091591F4CE
:10377000FD010781081571F402E0801641F4A501EE
:103780009201280F391F2E5F3F4F8D01CEDF01E0E0
:1037900010E02DC08D01FD0121813281F90170966B
:1037A000259134917197F901099598018C01020FC7
:1037B000131F0E5F1F4FA016B10631F487FA16F4DF
:1037C00001E003C000E001C000E0002371F0F2015D
:1037D000E80FF91F21812C302CF4022F102F110F2C
:1037E000110B05C00EE010E002C001E010E0ECE0BB
:1037F0000C94593B980101E010E00895980102E013
:1038000010E008950E944E3BC801D9010A2F0B2BEE
:1038100011F401E001C000E0002379F00CEF402E2C
:1038200004E0502EDC011F96FC01A587B6878C01B1
:10383000015F1F4F0E94441406C0FC01438454845E
:10384000FC01A587B6870AED14E0FC010387148705
:10385000F201059114913197FD01018312838C01CE
:10386000E6E00C945F3B0E94503BC801D901082F51
:10387000092B79F00A2F0B2B39F020E030E08C0176
:10388000015F1F4F0E945314A0FB1EF48C010E9485
:103890006A3AE4E00C94613B0F501040E4CF0E9480
:1038A000443B229728833983D8012A013B018D8824
:1038B0009E888F89988DED8CFE8CCF8CD8A0A9A086
:1038C000BAA0088119810D931C931197FD014282C2
:1038D0005382648275820A89FD0100870B89FD018C
:1038E00006830C89FD010783FD0105851685F80116
:1038F00086869786FD0105851685F801808B918B5C
:10390000298D3A8DFD0105851685F801228B338BB3
:103910002B8D3C8DFD0105851685F801248B358B9B
:10392000FD0105851685F801E68AF78AFD01058502
:103930001685F801C08ED18EFD0105851685F8012A
:10394000A28EB38E2BA13CA1FD0105851685F80141
:10395000248F358F2DA13EA1FD0105851685F80127
:10396000268F378F2FA138A5FD0105851685F80113
:1039700020A331A3FD01428153816481758100E45C
:1039800012E42FE030E00E94E23A40E250E060E0D2
:1039900070E00E94B43A0801190148EE53E060E07B
:1039A00070E0800191010E94E23A0F5F1F4FFD011C
:1039B00001871287FD0105851685F801428D538D1B
:1039C00020E030E0FD0105851685F80102891389A4
:1039D0000E947C3BFD0105851685F801448D558DBF
:1039E00020E030E0FD0105851685F8010489158980
:1039F0000E947C3BFD0105851685F80140A151A17F
:103A0000440F551F20E030E0FD0105851685F801C3
:103A1000008D118D0E947C3B9A938A939A928A9290
:103A2000FD0107810A93FD013681FD012085FD011D
:103A300042815381648175810D911C9111970E947F
:103A400081292296E7E20C94553BBA93AA93D801B8
:103A50000D911C9111970E94B629A991B9910895D1
:103A6000BA93AA93D8010D911C9111970E94C52970
:103A7000A991B9910895BA93AA93D8010D911C9177
:103A800011970E94D629A991B9910895BA93AA9342
:103A9000D8010D911C9111970E94042AA991B99106
:103AA0000895BA93AA93D8010D911C9111970E9481
:103AB0001F2AA991B99108950E944E3B2801D9016E
:103AC000CA019C018D010E94DF099801022FFD01AE
:103AD000E80FF91F008301968901012F10E0FD0115
:103AE000E80FF91F008301968C01E6E00C945F3B20
:103AF0000F501040E1CF1D010801E881F9812083BA
:103B000031838A01012F10E00283042F03838B018C
:103B1000012F10E00483062F058306E010E0D10199
:103B2000229608950F501040E6CFB801FA01208385
:103B3000FA01318302E010E008950F501040F5CFF4
:103B40000E944E3BD8012901CA01AC0192010D919E
:103B50001C9111970E94332AE6E00C945F3B0F50B2
:103B60001040EECFBA93AA93D8010D911C911197F2
:103B70000E94A920A991B9910895BA93AA93D80156
:103B80000D911C9111970E94A620A991B9910895B9
:103B90000E944E3BD8012901CA01AC0192010D914E
:103BA0001C9111970E943B2AE6E00C945F3B0E9417
:103BB000503BD801C9010E94AC20FD012585368506
:103BC000F90122853385021B130B0817190710F022
:103BD00001E001C000E0E4E00C94613BBA93AA93D9
:103BE000D8010E94AC20FD0125853685F9010287A8
:103BF0001387A991B99108950E944A3B4801D901C0
:103C0000CA01843000E0900710F400E021C0FD01FB
:103C1000E80FF91F319750804424FD01E80FF91F88
:103C20003297008110E0402A512A9C0122503040F6
:103C30008D010E94DF0938019C01225030408D0126
:103C40000E94DF090415150511F401E001C000E030
:103C5000EAE00C945B3B0E94503BD801FD010585D6
:103C600016850E942F09E8EAF0E0FBBFF9E00C940A
:103C7000073B8D01B3DF8D01E8DEFD01058516856B
:103C8000F80100E0048700E005878D01E9DE23E00C
:103C9000FD01058516850E942C0942C28D016DDF4C
:103CA0000023E1F140E051E0FD0105851685F801B2
:103CB00004851585401B510BFD0105851685F8010E
:103CC00026853785FD0105851685F801048515854E
:103CD000200F311F8D015CDFC801813000E09007AB
:103CE0009CF0FD0105851685F80104851585080FF2
:103CF000191F048715878D0171DF24E0FD010585FB
:103D000016850E942C090AC08F3F0FEF900731F4EF
:103D100022E0FD01058516850E942C0928E93AE379
:103D20008D0145DF002331F022E0FD010585168578
:103D30000E942C09F5C18D0120DF0023B1F140E084
:103D400051E0FD0105851685F80104851585401BA8
:103D5000510BFD0105851685F80126853785FD0186
:103D600005851685F80104851585200F311F8D0105
:103D70000FDFC801813000E090076CF0FD01058580
:103D80001685F80104851585080F191F0487158706
:103D90008D0124DF0AC08F3F0FEF900731F422E03E
:103DA000FD01058516850E942C09FD0121853285BE
:103DB0008D01FDDE0023E9F0FD0105851685F80182
:103DC00044855585FD0105851685F80126853785CD
:103DD0008D0112DF002339F025E0FD0105851685F0
:103DE0000E942C099DC122E0FD01058516850E94D7
:103DF0002C0996C1FD0105851685F8016485758538
:103E0000FD0105851685F80140895189FD0105856B
:103E10001685F80126853785FD01058516850E94E2
:103E2000F81A012B49F00E94B12026E0FD0105851A
:103E300016850E942C0974C10E94B72022E0FD0162
:103E4000058516850E942C096BC18D01C7DE8D0189
:103E5000FCDD8D0110DE27E0FD01058516850E9441
:103E60002C095EC125E030E08D01A1DE0023C9F000
:103E7000FD0105851685F80144855585FD010585FB
:103E80001685F80120893189FD01058516850E9476
:103E900078148D01FBDD28E0FD01058516850E9463
:103EA0002C093EC18D015EDE002351F08D01F9DD4C
:103EB0000E94B72022E0FD01058516850E942C098D
:103EC0002FC18D01D8DD20E0FD01058516850E94FA
:103ED0002C0926C18D0182DE8D01B7DDFD0105852E
:103EE0001685F80100E0048700E005878D01B8DD44
:103EF0002BE0FD01058516850E942C0911C18D015D
:103F00003CDE0023E1F140E051E0FD01058516852E
:103F1000F80104851585401B510BFD0105851685AB
:103F2000F80126853785FD0105851685F80104858C
:103F30001585200F311F8D012BDEC801813000E077
:103F400090079CF08D014ADEFD0105851685F8017C
:103F500004851585080F191F048715872CE0FD01BE
:103F6000058516850E942C090AC08F3F0FEF900728
:103F700031F421E1FD01058516850E942C0928EE0A
:103F800033E08D0114DE002331F021E1FD010585D0
:103F900016850E942C09C4C08D01EFDD0023B1F10C
:103FA00040E051E0FD0105851685F8010485158581
:103FB000401B510BFD0105851685F80126853785C7
:103FC000FD0105851685F80104851585200F311F33
:103FD0008D01DEDDC801813000E090076CF08D01BD
:103FE000FDDDFD0105851685F80104851585080FA1
:103FF000191F048715870AC08F3F0FEF900731F410
:1040000021E1FD01058516850E942C09FD01218510
:1040100032858D01CCDD0023E9F0FD010585168593
:10402000F80144855585FD0105851685F80126852D
:1040300037858D01E1DD002339F02DE0FD01058597
:1040400016850E942C096CC021E1FD0105851685AD
:104050000E942C0965C0FD0105851685F80144857F
:104060005585FD0105851685F80126853785FD01F5
:10407000058516850E94991B012B39F021E1FD0170
:10408000058516850E942C094BC021E1FD0105859F
:1040900016850E942C0944C08D01A0DD8D01D5DC60
:1040A0000E94B1202FE0FD01058516850E942C0994
:1040B00037C025E030E08D017ADD002389F1FD0174
:1040C00005851685F80144855585FD01058516850C
:1040D000F80120893189FD01058516850E94781433
:1040E0008D01D4DC20E1FD01058516850E942C0997
:1040F00017C08D0137DD002399F08D01D2DC0E94BD
:10410000B7202AE0FD01058516850E942C0908C00C
:104110008D01B1DC20E0FD01058516850E942C098A
:10412000E4E00C94613B0F50104095CD980101E004
:1041300010E008950F5010400C949620980102E072
:1041400010E008950F5010400C949E20F80102A535
:104150000895F80103A50895EEEDF7E000811181BF
:104160000895009162000F7B009362000895009112
:10417000620000640093620008950E94503BD801E1
:10418000822F8D01055F1F4F0E94420E02E215E053
:10419000FD010187128708E215E0FD0104871587FC
:1041A0008C9320E08D01055F1F4F0E942C098D012B
:1041B000E4E00C94613B0E94503BC801D901082FF8
:1041C000092B61F020E030E08C01055F1F4F0E9459
:1041D000630EA0FB1EF48C010E946A3AE4E00C948A
:1041E000613B0B501040E7CF1D01D801F901008160
:1041F000FD01008BF90101811281FD01018B128B00
:10420000F90103811481FD01038B148BF9010581F0
:104210001681FD0105831683F90107811085FD01D3
:10422000058B168BF90100891189FD01038F148F0D
:10423000F90102851385FD01078B108FF901458572
:104240005685F901078510E0000F111F400F511F1F
:10425000FD01418F528FF9010785085F0787F9013A
:1042600060897189F901028910E048E150E00E94FB
:10427000723A600F711FFD01638F748FF90102891B
:10428000085F028BF90143895489F901058910E01F
:10429000400F511FFD0147835087F90105890395A0
:1042A000058BFD0100E0058FD10108950E944E3B72
:1042B000D801FD01038914890E5F1F4FC80100E07A
:1042C000083078F4FD01238D348D10E0200F311F6C
:1042D000F901208110E0FC01E00FF11F208303951C
:1042E000EFCF28E030E08C010E94FF092801FD019A
:1042F00003891489065F1F4FC801042DFC01008348
:1043000001968201012F10E0FC010083FD01038969
:104310001489F80101E80083FD0100890E94582FEB
:104320000AE613E001501040E9F700C000004DE03C
:1043300050E0FD0123893489FD01018912890E9421
:10434000742C0E947D2FFD0101891289F8010181E1
:10435000013849F4FD0101891289F80104850E37FD
:1043600011F401E001C000E0E6E00C945F3B0E9424
:104370004A3BD801992420E0283020F5FD01038D27
:10438000148D30E0020F131FF80100850F3FC1F0BC
:10439000FD0105891689FD01438D548D30E0420FE2
:1043A000531FFA01408550E0040F151FF8010081EA
:1043B000002331F001E010E0422F0E947C3A902A65
:1043C0002395DACF882420E0283020F5FD01038DE5
:1043D000148D30E0020F131FF80100890F3FC1F068
:1043E000FD0105891689FD01438D548D30E0420F92
:1043F000531FFA01408950E0040F151FF801008196
:10440000002331F001E010E0422F0E947C3A802A24
:104410002395DACF5524FD010381002329F0FD0106
:1044200000E00383689450F8FD010481002329F023
:10443000FD0100E00483689451F8FD01018100232F
:1044400029F0FD0100E00183689452F8FD0102812A
:10445000002329F0FD0100E00283689453F8FD0178
:1044600003891489F80102E40083FD01038914899A
:104470000E5F1F4FC801442420E02830A8F4FD013E
:10448000018D128D422F50E0440F551F040F151F50
:10449000F8010181002331F001E010E0422F0E9479
:1044A0007C3A402A2395E9CFFC01408201964424BE
:1044B00020E02830A8F4FD01018D128D422F50E03C
:1044C000440F551F040F151FF8010081002331F020
:1044D00001E010E0422F0E947C3A402A2395E9CF68
:1044E000FC0140820196FC0190820196FC018082D1
:1044F0000196FC015082019625E030E0FD01038920
:1045000014890E5F1F4F0E94FF093801062DFC0120
:10451000008301968301012F10E0FC0100830196C6
:10452000FC010EE700830196FD0100890E94582FCF
:104530000AE613E001501040E9F700C000004AE02D
:1045400050E0FD0123893489FD01018912890E940F
:10455000742C0E947D2FFD0101891289F8010181CF
:10456000045209F446C00E5109F045C025E030E080
:10457000FD01018912890E5F1F4F0E940D0A013053
:104580001040CCF1FD0101891289F80101850E3737
:1045900091F5FD0100E0058F20E08D010E9431239F
:1045A000FD0101891289F8010281402E20E02830A6
:1045B000F0F401E010E0422F0E947C3A142D102309
:1045C000112351F0FD010789108D30E0020F131FF8
:1045D000F80101E0008309C0FD010789108D30E07A
:1045E000020F131FF80100E000832395E0CF01E0E4
:1045F00017C000E015C0FD01058D0A3030F4FD0143
:10460000058D0395058F00E00BC0FD010581168126
:10461000F80102E0008321E08D010E94312300E0D7
:10462000EAE00C945B3B0E94513BC8018C01055FA2
:104630001F4F0E942F09005019F00A9559F00DC024
:104640008C0134DEA02F21E08C01055F1F4F0E94FA
:104650002C0903C08C018BDEA02F0A2FE3E00C9401
:10466000623BAD01F801A781B0852C93DA01089572
:104670000E94503BD801822F8D01055F1F4F0E9481
:10468000420E00E515E0FD010187128706E515E001
:10469000FD01048715878C938D01E4E00C94613B48
:1046A0000E94503BC801D901082F092B61F020E07E
:1046B00030E08C01055F1F4F0E94630EA0FB1EF4CB
:1046C0008C010E946A3AE4E00C94613B0B5010406C
:1046D000E7CFBD01D801F9010081FD01008BF9018F
:1046E00001811281FD01018B128BF901038114817B
:1046F000FD01038B148BF90105811681FD010583F2
:104700001683F90147815085F901018510E0400FBA
:10471000511FFD01458B568BF9010185085E01870C
:10472000F90143895489F901058910E0400F511FAF
:10473000FD0147835087F90105890395058BFD012C
:1047400000E0078BDB0108950E94503BD80153968F
:10475000ED91FC91549702E40083FD0100890E94D1
:10476000582F0AE613E001501040E9F700C000009E
:1047700049E050E0FD0123893489FD010189128956
:104780000E94742C0E947D2F5196ED91FC915297BE
:104790000181045209F440C00E51F1F527E030E0E8
:1047A000FD01018912890F5F1F4F0E94310A0130FC
:1047B000104094F1FD0100E0078B20E08D010E9484
:1047C0003123FD018589968960E0663018F5FD0189
:1047D0000189128970E0060F171FF801328120E06D
:1047E0002830B0F420FB96F001E010E0422F0E9448
:1047F0007C3A132F1023112329F0FC0101E00083E0
:10480000019604C0FC0100E0008301962395E8CFE7
:104810006395DBCF01E015C0FD0107890A3030F454
:10482000FD0107890395078B00E00BC01596ED91FC
:10483000FC91169701E0008321E08D010E94312355
:1048400000E0E4E00C94613BF80123830895BA93FF
:10485000AA93D8018D010E94420E0AE515E0FD01E0
:10486000018312838D010A5F1F4F0E94903925E258
:104870008D010E942C0925E28D010E9424248D01C6
:10488000A991B9910895BA93AA93D8018D01DFDF58
:1048900008E715E0FD010183128325E28D010E94E6
:1048A0002C0925E28D010E9424248D01A991B99142
:1048B0000895BA93AA93D8018D01C9DF06E915E0DE
:1048C000FD010183128325E28D010E942C0925E25E
:1048D0008D010E9424248D01A991B9910895BA9364
:1048E000AA93D8018D01B3DF08ED15E0FD01018326
:1048F000128328E18D010E942C0928E18D010E947C
:1049000024248D01A991B9910895BA93AA93D8014D
:104910008D019DDF06EF15E0FD010183128325E285
:104920008D010E942C0925E28D010E9424248D0115
:10493000A991B99108950E94503BC801D901082F4F
:10494000092B51F020E030E08C010E94630EA0FBA7
:104950001EF48C010E946A3AE4E00C94613BBA9325
:10496000AA93D8018D010E942F09E2EDF0E0FBBF70
:10497000F9E00C94073B8D011196ED91FC91129793
:104980007096259134917197F901099598018D01DF
:104990000A5F1F4F0E94A1398D011196ED91FC9184
:1049A00012973496259134913597F901099529E1AB
:1049B0008D010E942C094DC28D010A5F1F4F0E947C
:1049C000BB39002301F18D011196ED91FC911297F5
:1049D0007296259134917397F901099598018D018B
:1049E0000A5F1F4F0E94A1398D011196ED91FC9134
:1049F00012973C96259134913D97F90109952AE14A
:104A00008D010E942C0925C28D010A5F1F4F0E9453
:104A1000BB39002301F18D011196ED91FC911297A4
:104A20007096259134917197F901099598018D013E
:104A30000A5F1F4F0E94A1398D011196ED91FC91E3
:104A400012973496259134913597F901099529E10A
:104A50008D010E942C09FDC18D011196ED91FC91F3
:104A600012973696259134913797F901099522E0EE
:104A70008D010E942C09EDC18D011196ED91FC91E3
:104A800012977496259134917597F90109959801BB
:104A90008D010A5F1F4F0E94A1398D011196ED9182
:104AA000FC9112973896259134913997F90109951F
:104AB00028E08D010E942C09CCC18D010A5F1F4F97
:104AC0000E94BB39002301F18D011196ED91FC91FB
:104AD00012977696259134917797F9010995980167
:104AE0008D010A5F1F4F0E94A1398D011196ED9132
:104AF000FC9112973C96259134913D97F9010995C7
:104B000029E08D010E942C09A4C18D010A5F1F4F6D
:104B10000E94BB39002301F18D011196ED91FC91AA
:104B200012977496259134917597F901099598011A
:104B30008D010A5F1F4F0E94A1398D011196ED91E1
:104B4000FC9112973896259134913997F90109957E
:104B500028E08D010E942C097CC18D011196ED91F8
:104B6000FC9112977896259134917997F9010995DE
:104B700098018D010A5F1F4F0E94A1398D01119686
:104B8000ED91FC9112973A96259134913B97F9015A
:104B900009952EE08D010E942C095BC18D010A5FF1
:104BA0001F4F0E94BB39002301F18D011196ED9139
:104BB000FC9112977A96259134917B97F90109958A
:104BC00098018D010A5F1F4F0E94A1398D01119636
:104BD000ED91FC9112973C96259134913D97F90106
:104BE00009952FE08D010E942C0933C18D010A5FC8
:104BF0001F4F0E94BB39002301F18D011196ED91E9
:104C0000FC9112977896259134917997F90109953D
:104C100098018D010A5F1F4F0E94A1398D011196E5
:104C2000ED91FC9112973A96259134913B97F901B9
:104C300009952EE08D010E942C090BC18D01119662
:104C4000ED91FC9112977896259134917997F9011D
:104C5000099598018D010A5F1F4F0E94A1398D01AE
:104C60001196ED91FC9112973A96259134913B97CC
:104C7000F901099524E18D010E942C09EAC08D01FA
:104C80000A5F1F4F0E94BB39002301F18D0111966D
:104C9000ED91FC9112977A96259134917B97F901C9
:104CA000099598018D010A5F1F4F0E94A1398D015E
:104CB0001196ED91FC9112973C96259134913D9778
:104CC000F901099525E18D010E942C09C2C08D01D1
:104CD0000A5F1F4F0E94BB39002301F18D0111961D
:104CE000ED91FC9112977896259134917997F9017D
:104CF000099598018D010A5F1F4F0E94A1398D010E
:104D00001196ED91FC9112973A96259134913B972B
:104D1000F901099526E18D010E942C099AC08D01A7
:104D20000A5F1F4F0E94BB39002301F18D011196CC
:104D3000ED91FC9112977696259134917797F90130
:104D4000099598018D010A5F1F4F0E94A1398D01BD
:104D50001196ED91FC9112973C96259134913D97D7
:104D6000F901099527E18D010E942C0972C08D017E
:104D70000A5F1F4F0E94BB39002301F18D0111967C
:104D8000ED91FC9112977896259134917997F901DC
:104D9000099598018D010A5F1F4F0E94A1398D016D
:104DA0001196ED91FC9112973A96259134913B978B
:104DB000F901099524E18D010E942C094AC08D0159
:104DC0001196ED91FC9112977C96259134917D97E7
:104DD000F901099598018D010A5F1F4F0E94A139C1
:104DE0008D011196ED91FC9112973A96259134918F
:104DF0003B97F90109952FE18D010E942C0929C0EB
:104E00008D010A5F1F4F0E94BB39002311F18D01F4
:104E10001196ED91FC9112973C96259134913D9716
:104E2000F90109958D010E94BC28202F8D010E9457
:104E30002C090FC08D011196ED91FC9112973C96B3
:104E4000259134913D97F901099520E08D010E944B
:104E50002C09A991B99108950E94503BC801D9012C
:104E6000082F092B69F025E28C010E942C0920E013
:104E700030E08C0160DDA0FB1EF48C010E946A3AD8
:104E8000E4E00C94613B0E94513BC801A22F8C01CD
:104E90000E942F09202F8C010E9424240A2FE0E178
:104EA000F0E0FBBFFAE00C94073B25E28C010E9486
:104EB0002C090EC021E08C010E942C0909C027E0BA
:104EC0008C010E942C0904C027E08C010E942C094F
:104ED000E3E00C94623B08959A938A93C80101E041
:104EE0000E94A3368991999108959A938A93C80153
:104EF00002E00E94A33689919991089508959A93AA
:104F00008A93C80102E00E94CD3689919991089553
:104F10000E94503BC801D901082F092B69F025E2F6
:104F20008C010E942C0920E030E08C0104DDA0FB04
:104F30001EF48C010E946A3AE4E00C94613B0E94EA
:104F4000513BC801A22F8C010E942F09202F8C01F8
:104F50000E9424240A2FE6E2F0E0FBBFFAE00C9462
:104F6000073B25E28C010E942C090EC021E08C0138
:104F70000E942C0909C025E28C010E942C0904C062
:104F80002DE08C010E942C09E3E00C94623B089513
:104F90009A938A93C80101E00E94A336899199915E
:104FA000089508959A938A93C80103E00E94A33656
:104FB0008991999108959A938A93C80103E00E9478
:104FC000CD368991999108950E94503BC801D9012D
:104FD000082F092B69F025E28C010E942C0920E0A2
:104FE00030E08C01A8DCA0FB1EF48C010E946A3A20
:104FF000E4E00C94613B0E94513BC801A22F8C015C
:105000000E942F09202F8C010E9424240A2FECE3F8
:10501000F0E0FBBFFAE00C94073B28E18C010E9412
:105020002C0913C028E18C010E942C090EC027E036
:105030008C010E942C0909C02DE08C010E942C09D2
:1050400004C023E18C010E942C09E3E00C94623B34
:105050009A938A93C8010E940B2989919991089586
:1050600008959A938A93C8010E940B298991999176
:1050700008959A938A93C8010E940B298991999166
:1050800008959A938A93C8010E9411290E940713D8
:105090008991999108950E94503BC801D901082F28
:1050A000092B69F025E28C010E942C0920E030E0F8
:1050B0008C0141DCA0FB1EF48C010E946A3AE4E002
:1050C0000C94613B0E94513BC801A22F8C010E94AD
:1050D0002F09202F8C010E9424240A2FE2E5F0E002
:1050E000FBBFFAE00C94073B25E28C010E942C09DF
:1050F00018C025E28C010E942C0913C027E08C0106
:105100000E942C090EC02DE08C010E942C0909C0C0
:1051100023E18C010E942C0904C02EE18C010E9425
:105120002C09E3E00C94623B9A938A93C8010E9495
:10513000CC098991999108959A938A93C8010E9404
:10514000CC098991999108959A938A93C8010E94F4
:10515000BA098991999108959A938A93C8010E94F6
:10516000C3098991999108959A938A93C8010E94DD
:10517000CC09899199910895F801038108959801C6
:1051800000ED17E00895980100ED17E008959801EB
:1051900008EE13E00895980108EE13E008959801D1
:1051A00004EF11E00895980104EF11E008959801CB
:1051B00002E310E00895980100ED17E008959801CA
:1051C00000ED17E00895980108EE13E008959801A6
:1051D00008EE13E00895980104EF11E00895980196
:1051E00004EF11E00895980100ED17E0089598018B
:1051F00000ED17E00895980108EE13E00895980176
:1052000008EE13E00895980104EF11E00895980165
:1052100004EF11E00895009162000F77009362009F
:1052200008950091620000680093620008950E9452
:105230004A3BD80149013A012B018A859B852C8480
:105240003D840E841F84688979892B893C8904E117
:1052500016E0FD0105A716A7FD0180829182FD01E0
:1052600062827382FD0144825582FD0186839783A9
:10527000FD0120863186FD0102861386FD016487CB
:1052800075870A89FD010687FD012787308B0D8907
:10529000FD01018BFD0104851585012B01F1FD0147
:1052A000568501E010E0452F0E947C3A402FFD0119
:1052B00004851585F8010081042B0083FD01018917
:1052C000502F01E010E0452F0E947C3A402F40957E
:1052D000FD0107851089F8010081042300838D01F9
:1052E000E6E10C945B3B9A938A93C801082F092B43
:1052F00029F020FB1EF48C010E946A3A8991999151
:1053000008950E944C3B2801CA01DB01722E632ED6
:105310008C019D0140E150E060E070E00E94B43AF1
:10532000A801B90100E010E820E730E00E94E23A6D
:10533000980121503040422FF20102811381F8017F
:1053400040838901012F10E0402FF201008111817B
:10535000F80140834091230C48734660F2010085B8
:105360001185F8014083EDE00C945D3BF80120E0ED
:10537000208F20E0218FF80120E022A7F80120E013
:1053800023A7F80120E024A708953B2F4A2FF80116
:10539000A481B5812C9120682C93F801A681B78156
:1053A0002C9120692C93A42FB32F08953B2F4A2FC3
:1053B000F801A681B7812C912F762C93A42FB32FBF
:1053C00008953B2F6A2FF801218901E010E0422F58
:1053D0000E947C3AA785B0891C91102B1C93A62FA4
:1053E000B32F08953B2F6A2FF801218901E010E0C7
:1053F000422F0E947C3A0095A785B0891C9110230A
:105400001C93A62FB32F08955B2F0A2ED801FD0100
:1054100004851585012B11F08D01D3DF1496ED91D4
:10542000FC9115970081006600831696ED91FC9122
:105430001797008108620083A02DB52F08955B2F78
:105440000A2ED8011696ED91FC91179700810779E5
:105450000083FD0104851585012B11F08D01C2DF4C
:10546000A02DB52F0895F801228B338B448B558BDB
:1054700001E010E008950E944C3BD801C9012A01C7
:10548000FD0100E002A7FD0104A5002319F00FEFC4
:105490001FEF3AC0FD01008D118D0415150518F0A0
:1054A0000FEF1FEF31C0FD01008D118D012B11F1A8
:1054B0000E94872D00E010E0FD01208D318D021744
:1054C000130758F4FD01E00FF11F228DFC01E00FDE
:1054D000F11F20830F5F1F4FEFCFFD01608C718C98
:1054E000FD0100E0008F00E0018F0E94852D062D58
:1054F00010E00AC0FD01008D118D012B19F400E0B0
:1055000010E002C000E010E0E8E00C945D3BAD016B
:10551000F80124893589232B99F4F801A681B781F4
:105520002C912F7D2C93F801A481B5812C912064BE
:105530002C93F801A681B7812C9120642C9315C07F
:10554000F801A289B3899D012F5F3F4FF801228B9B
:10555000338B2C91F801A285B3852C93F801248913
:10556000358921503040248B358BDA0108953B2F4B
:105570004A2FF801A681B7812C912F7B2C93F8013B
:1055800021E023A7A42FB32F08950E94503BF801D8
:10559000808D918D409738F0F80121E024A7F80123
:1055A00021E022A713C0F801208D318DC901019699
:1055B000F801808F918FF801A285B3854C91F80195
:1055C000E20FF31F428FF80121E022A7E4E00C94E0
:1055D000613BFA93EA937A936A935A934A933A9384
:1055E0002A931A930A936FB77BB70091E107109142
:1055F000E2078DDF7BBF6FBF099119912991399126
:105600004991599169917991E991F9911895FA9394
:10561000EA936A935A934A933A932A931A930A9372
:105620005FB76BB70091E1071091E207A0DF6BBF96
:105630005FBF0991199129913991499159916991C6
:10564000E991F9911895FA93EA930A926A935A9319
:105650004A933A932A931A930A935FB76BB70091D0
:10566000E1071091E20791DF6BBF5FBF09911991CC
:10567000299139914991599169910990E991F9914B
:1056800018959A938A93C801082F092B29F020FBBB
:105690001EF48C010E946A3A8991999108959801AB
:1056A000A895E19B02C0A895FCCFF8943FBB2EBB08
:1056B000E09A78940DB30895792F082EF801C90166
:1056C000042F052B41F08C01EADF0196008331960F
:1056D00041505040F5CF01E0802D972F08950E9452
:1056E0004E3BC8012901DA018C010E943F2D820145
:1056F0000E943A2D8D010E94532D00E010E00E947F
:10570000492DE6E00C945F3B0E94503B0E944E2DD9
:10571000C8010E94582D8017910740F50E94442D22
:105720001FBB0EBB0E94442D0F5F1F4F0E943F2DD9
:10573000E09A8DB30E94352DD8010E944E2DA00F06
:10574000B11F0C91801759F00E94352DD8010E948D
:105750004E2DA00FB11F0C910DBBE29AE19A0E9451
:105760004E2D0F5F1F4F0E94492D09C00E94332DFF
:1057700000E010E01FBB0EBB01E00E941B0EE4E046
:105780000C94613B9A938A93FA93EA933A922A9201
:105790001A920A927A936A935A934A933A932A9363
:1057A0001A930A938FB79BB7AFDF9BBF8FBF099147
:1057B000199129913991499159916991799109905A
:1057C000199029903990E991F991899199911895B9
:1057D0009A938A930801190180E090E0821593055D
:1057E00060F4FA01362FE80FF91F3BBF0691F00174
:1057F000E80FF91F00830196F1CF01E0899199919B
:1058000008950E944D3BD801622E062D0E945D2D09
:10581000C801062D0E94742DA801622F02969C01DA
:105820008D01D6DF062D0E945D2DFD01E00FF11FD9
:10583000808190E0062D0E945D2DFD01E00FF11F9B
:10584000118100E0802B912B062D0E945D2D980187
:105850008D010E94DF092801062D0E945D2D98010F
:105860008D010E94DF098017910721F4062D0E9407
:105870005D2D05C004E00E945C0A00E010E0E7E056
:105880000C945E3B9A938A93C801082F092B29F048
:1058900020FB1EF48C010E946A3A89919991089527
:1058A00003E10DB907B3066007BB08B3066008BB88
:1058B00008956E9A08956E9808959A938A93902FFA
:1058C0009FB980E0779908C00E94440A843610F49A
:1058D0008395F8CF0FB105C004E70A95F1F700C032
:1058E0000FB18991999108950E944C3B380129018B
:1058F000DA01A13400E0B00710F000E011C080E050
:1059000090E08A179B0758F4F201E80FF91F008115
:10591000D4DFF301E80FF91F00830196F2CF01E015
:10592000E8E00C945D3B9801890101501040232B65
:1059300041F025ED36E021503040E9F700C000008D
:10594000F2CF08959A938A93C801082F092B29F062
:1059500020FB1EF48C010E946A3A89919991089566
:105960000CEC1CE120E030E046E00E94DF3A015000
:10597000104020403040B80163BD5BE055BD47B7E3
:10598000542F506857BF0895EBDF0E94922D0E945C
:10599000982D0E94B7200E949E2D0E94A02D0E944B
:1059A000A22D0E94A42D0E94852D08950E94503B97
:1059B000C801AC0160E070E0440F551F661F771FFF
:1059C00000E010E820E730E00E94E23A0150104089
:1059D000D8018D01000F111F1093810000938000EA
:1059E000B0938700A0938600B0938500A0938400B5
:1059F00002EE00938B0009E100938A00E4E00C942E
:105A0000613B00918B000D7100938B0000918A0027
:105A1000067E00938A0008959A938A93FA93EA93F4
:105A20003A922A921A920A927A936A935A934A93D2
:105A30003A932A931A930A938FB79BB70E94892DA2
:105A40009BBF8FBF09911991299139914991599122
:105A5000699179910990199029903990E991F9917A
:105A6000899199911895E3980895E5EDF7E0008103
:105A700011810895E5EDF7E0008311830895E7EDC6
:105A8000F7E0008311830895E7EDF7E000811181CD
:105A90000895E9EDF7E0008311830895E9EDF7E05B
:105AA000008111810895EBEDF7E0008311830895E3
:105AB000EBEDF7E0008111810895E02FF0E0EE0FAB
:105AC000FF1FEE0FFF1FEB52F74F049110E00895F8
:105AD000E02FF0E0EE0FFF1FEE0FFF1FEA52F74F2F
