:100000000C94AF2218951895189518951895189571
:100010001895189518951895189518951895189578
:10002000189518950C947F1B189518951895189588
:100030001895189518951895189518951895189558
:100040001895189518951895189518951895189548
:1000500018951895189518950C94D11A1895189507
:100060001895189518951895189518951895189528
:1000700018951895189518950C946B1A0C94601A8D
:100080000C94651A1895189518951895000000009D
:100090000000000000000000000000000000000060
:1000A0000000000000000000000000000000000050
:1000B0007E05850543064506C505850547064906AF
:1000C000C60585054B064D06C70585054F06510635
:1000D000CB05850553065506D805850557065906EF
:1000E000D905DA055B065D063106DA055F066106AD
:1000F0006D0600000000000000000000000000008D
:1001000000000000000000000000000000000000EF
:1001100000000000000000000000000000000000DF
:1001200000000000000000000000000000000000CF
:10013000000075060000C1C081C1400101C3C003B9
:10014000800241C201C6C006800741C70005C1C583
:1001500081C4400401CCC00C800D41CD000FC1CF43
:1001600081CE400E000AC1CA81CB400B01C9C00933
:10017000800841C801D8C018801941D9001BC1DBD3
:1001800081DA401A001EC1DE81DF401F01DDC01D83
:10019000801C41DC0014C1D481D5401501D7C017A3
:1001A000801641D601D2C012801341D30011C1D1B3
:1001B00081D0401001F0C030803141F10033C1F3F3
:1001C00081F240320036C1F681F7403701F5C03583
:1001D000803441F4003CC1FC81FD403D01FFC03F43
:1001E000803E41FE01FAC03A803B41FB0039C1F933
:1001F00081F840380028C1E881E9402901EBC02B93
:10020000802A41EA01EEC02E802F41EF002DC1ED82
:1002100081EC402C01E4C024802541E50027C1E7A2
:1002200081E640260022C1E281E3402301E1C021B2
:10023000802041E001A0C060806141A10063C1A3B2
:1002400081A240620066C1A681A7406701A5C06582
:10025000806441A4006CC1AC81AD406D01AFC06F42
:10026000806E41AE01AAC06A806B41AB0069C1A932
:1002700081A840680078C1B881B9407901BBC07BD2
:10028000807A41BA01BEC07E807F41BF007DC1BD82
:1002900081BC407C01B4C074807541B50077C1B7A2
:1002A00081B640760072C1B281B3407301B1C071B2
:1002B000807041B00050C190819140510193C05372
:1002C000805241920196C056805741970055C19582
:1002D00081944054019CC05C805D419D005FC19F42
:1002E000819E405E005AC19A819B405B0199C05932
:1002F000805841980188C04880494189004BC18B92
:10030000818A404A004EC18E818F404F018DC04D81
:10031000804C418C0044C184818540450187C047A1
:10032000804641860182C042804341830041C181B1
:10033000818040400000000000000000000000003C
:1003400000000000000000000000000000000000AD
:1003500000000000D4060000000002013000000090
:1003600000000000000000000000000000006BCF53
:10037000012F0873060000171B000000000000009A
:10038000000000000000000000400B000102030418
:1003900005060708090A0B0C0D0E0F101112131495
:1003A00015161718191A1B1C1D1E1F202122232485
:1003B00025262728292A2B2C2D2E2FFFFFFFFFFF74
:1003C000FFFFFFFFFFFFFFFFFFFFFFFFFFFFFFFF3D
:1003D000FFFFFFFFFFFFFFFFFFFFFFFFFFFFFFFF2D
:1003E000FFFFFFFFFFFFFFFFFFFFFFFFFFFFFFFF1D
:1003F000FFFFFFFFFFFFFFFFFFFFFFFFFFFFFFFF0D
:10040000FFFFFFFFFFFFFFFFFFFFFFC29E0303038E
:1004100003030303030303030303030303030303AC
:1004200003030303030202020202020202020202A7
:10043000020202020202020202020202020202029C
:100440000202020202020202020202020246F73E17
:100450003E3E3E3C3C3C3CFFFFFFFFFFFFFFFFFFFB
:10046000FFFFFFFFFFFFFF4B6F010204081020405A
:1004700080000000000000000000000000000000FC
:10048000000000000000000000000000000000006C
:10049000000000000000000000000000000000005C
:1004A000000000000000000000000000000000004C
:1004B000000000000000000000000000000000003C
:1004C000000000000000000000000000000000002C
:1004D000000000000000000000000000000000001C
:1004E000000000000000000000C6690101021000C9
:1004F00020000000000000000000000000000000DC
:1005000000000000000000000000000000000000EB
:1005100000000000000000000000000000000000DB
:1005200000000000000000000000000000000000CB
:1005300000000000000000000000000000000101B9
:10054000050000FF000000000000000000000000A7
:10055000000000000000000000000000000000009B
:10056000000000000000000000000000000000008B
:10057000000000000000000000000000000000007B
:10058000000000000000000000000000000000006B
:10059000000101050100FF00000000000000000054
:1005A000000000000000000000000000000000004B
:1005B000000000000000000000000000000000003B
:1005C000000000000000000000000000000000002B
:1005D000000000000000000000000000000000001B
:1005E00000000000000000000000000000000014F7
:1005F00000000107160002101F00038031000440B4
:10060000B3000518F50006800F010751910108514C
:10061000E401095137020A088A02000000000000C4
:1006200000000000000000000000000000000000CA
:1006300000000000000000000000A10741080000C9
:100640000000CC09CD09CE09CD0900000000000052
:10065000000000000000000000000000000000009A
:10066000000000000000000000000000000000008A
:10067000000000000000000000000000000000007A
:10068000000000000000000000000000000000006A
:100690000000F5094D0ACD09600ACD09BE0A5C0CBF
:1006A000940C590D5C0D5F0D620DCB0CDD0C590DDA
:1006B0005C0D650D620D00000000000000000000F0
:1006C000000000000000000000000000000000002A
:1006D00000000000000000000000730D303C202DE1
:1006E000101C000D313D212C111D010C343E242B1A
:1006F000141E040B353F252A151F050A36392629F5
:10070000161906093738272817180708F70DCD09D5
:1007100000000000000000000000000000000000D9
:1007200000000000000000000000000000000000C9
:10073000000000001A0E2C0E000000000000000057
:1007400000000000000000000000000000000000A9
:100750000000000000000000000000000000000099
:100760000000000000000000000000000000000089
:10077000000000000000000000000000970ECD09FE
:10078000AD0EEA24EA24EA24EA2487128A12000041
:100790000000000000000000000000000000000059
:1007A0000000000000000000000000000000000049
:1007B0000000B8127413841361138E13E4130A1526
:1007C0001115D1120815AD0E7213821389139113EE
:1007D0000D151415C2070000000000000000000005
:1007E0000000000000000000000000000000000009
:1007F000000000000000000000005F15CD16471546
:100800005C15CD09000000000000000000000000A1
:1008100000000000000000000000000000000000D8
:10082000000000000000000000172717F816BA1794
:10083000D517EA24EA24EA24EA24EA24EA24EE1872
:10084000F118F418F718FA18FD1800195718D517E9
:10085000681869186A186F1870185818031906195B
:1008600009190C190F19121900197318D5178318C3
:1008700084188518861888187418151918191B19E2
:100880001E192119241900190000000000000000A1
:100890000000000000000000000000000000000058
:1008A0000000000000000000000000008A18D517BA
:1008B000BC18BD18BE18C418C518A418EE18F11835
:1008C000F418F718FA18FD180019CE18D517E618FD
:1008D000E818E918EB18ED18CF18EE18F118F4180D
:1008E000F718FA18FD1800195F1900000000000041
:1008F00000000000000000000000000000000000F8
:10090000000000000000000000008C1A2D1B0000F9
:100910000000E41A000000000000000000000000D9
:1009200000000000000000000000000000000000C7
:1009300000000000000000000101010101010101AF
:1009400001000000000000010100000000000001A3
:100950000100000000000001010000000000000193
:10096000010101010101010100000000000000007F
:100970000000000000000000000000000000000077
:1009800000000000000000000622010135120D12D7
:10099000011012011312011612011912011C120189
:1009A0001F12072612012312012912012C12062FF1
:1009B000122A3B12033B12013B12013212FB0200CE
:1009C0009C141000F113F41307141A142B14301490
:1009D0003C1498144514481460147514801487143A
:1009E0009014981401013218EF1706FB1701F41741
:1009F00001F917040A18010218010818041F180148
:100A00000D18011318011818011D1801E81701DD50
:100A10001701E517042218012918062F18FB0000FA
:100A2000BE2110004C21BE21662174218D21902110
:100A300093219D21A321A821A921AE21AF21B2217B
:100A4000B721BD218F1B2AD00E94B60900EB10E010
:100A500007D03BC021D008EB10E002D000E034C04A
:100A6000FD0101831283089523D009F0F3CF1DC047
:100A700013D000EC10E026C01BD009F0F9CF15C050
:100A80000BD008EC10E01EC013D009F0F9CF0DC058
:100A900003D000ED10E016C001D0D5CFBA93AA93D1
:100AA000D801089505D009F0F3CF00E010E00895D3
:100AB00006E010E00E94C423202F212B0895ECDFD4
:100AC00008ED10E0CDDF01E00C938D01A991B99103
:100AD0000895EEDF09F0F3CFE8CFDEDF00EE10E09F
:100AE000F1CFE6DF09F0F9CFE0CFD8DFF6DF08EE8F
:100AF00010E0E8CFDDDF09F0F8CFD7CFBED021F08E
:100B000053D00E94CC09B3D043C00E948E23D80199
:100B10000C910A9549F00A9561F00A95A9F00A9599
:100B2000E9F00A95F9F022C065D001F170D002E039
:100B30001CC023D011F01DD00BC00091BA090023B6
:100B4000A9F017D003E011C00091BB09002311F0F8
:100B500004E00BC04FD021F405E007C04BD021F0DA
:100B60003ED004C00AD011F03FD00C93E5E00C94C5
:100B70009F230E947F2011E066C03CD011F020E04E
:100B80005ED00091BB090023089505C004C003C0D6
:100B9000E3E00C94A12301D0FCCF6FD019F004D076
:100BA000ADDF65D0E3E0089520E030E0082F089540
:100BB000F2CFF1CF0E948E23D8010C910A9519F043
:100BC000055031F00BC016D049F021D006E005C029
:100BD00011D011F004D002C007D00C93C7CF20E091
:100BE00014968D010C940A200E94822010E02BD0D4
:100BF00001E00895FD0181819281069605810E94A0
:100C00006120402E8D01FC0128D04026089521E06E
:100C100016D00091BE09033079F08091BE098D0194
:100C2000FD012181F281E22F17D0801728F40FD027
:100C30000093BE090E9477200AD0102F04C08D01B6
:100C40000C5F1F4FCFCFFD0103810C9496208D01C7
:100C50001196ED91FC91129734962591F491E22F23
:100C600009940BD019F0A0DFA4DF01D091CFA0FB35
:100C70001EF48C010E94C92208950E949023C8018D
:100C8000A22F012B089500E0089500E0089500E0F0
:100C9000089500E0089502E0089500E0089502E05C
:100CA000089501E0089503E0089500E0089503E049
:100CB000089501E0089501E0089500E0089501E03D
:100CC000089501E0089520EF30E0F8012483358392
:100CD00020E02083228323830895402F412B21F09D
:100CE00020FB16F40E94C9220895402F412B21F0C9
:100CF00020FB16F40E94C92208951B98139A1C9891
:100D0000149A089508EF12E002C00AE81CE00E945D
:100D1000501B1B9A1C9A08951B981C980C94761BC8
:100D20006FEF7FEF40E00FC0F80151918F01562720
:100D3000E2E05E9FF001EC5CFE4F059014907025A0
:100D4000672F712D439550E04217530768F38B01CD
:100D500008950DD0FCCF0BD03081631729F40181A9
:100D6000701711F401E001C000E010E0089560E0A8
:100D700070E050E0F80141918F01640F751F215020
:100D80003040C1F7089540E0F80151918F01450FBF
:100D900021503040C9F70081401711F401E001C033
:100DA00000E0E3CF10E00895402F412B21F020FB1D
:100DB00016F40E94C92208950CD032963BBF0791C9
:100DC0001691A22FB52F089504D031963BBF0691FE
:100DD000F8CF5B2F2A2FA4E2B6E0ED91FD913C9174
:100DE00014E0019FE00DF11D08950E948E2382D032
:100DF0000E94C307442481E045C050E0FD01E40F98
:100E0000F51F9BBF0691FA01EB5FF74F00834395F7
:100E100044D0401790F341D0442D202F30E005E01E
:100E200018E070D0012B11F082E017C00091A90AE0
:100E3000043099F409C00091A90A033019F44394CD
:100E400081E00BC0043049F483E007C001E0E5E035
:100E50000C949F2300E0FBCF84E04CD00E9441081B
:100E60000AE010E00E941D1BA895082F0A9539F092
:100E70000A9509F30A9571F30A9541F3EECF0BE059
:100E8000401650F7042D98DFE1E2F6E0A081B18131
:100E90009281A00FB11F40E0BBCF042D95CFE1E2BE
:100EA000F6E00AE513E020E00083118322830EEED2
:100EB00015E00383148325832093BC091BD00E9473
:100EC0009008002381F016D00E945E09002359F09B
:100ED00011D00E948409002311F001E0089504E07C
:100EE0000093BC0904C004E00093BC097EDF00E06D
:100EF0000895980105EA1AE008952395422FF9DF35
:100F00000C94E1074395642FA901F3DF0E9448097F
:100F100049CF53D00E94BE0930D08D010D571F4FCD
:100F20000E94FA2105E018E0FD01EF57FF4F008312
:100F3000118300E00C93FD0103838D01A991B99108
:100F40000895E2D0D801822F0B2B91F016D022E029
:100F500030E08D010D571F4F0E94062220E030E047
:100F60008D010E94CE0980FB1EF48D010E94C922D2
:100F700001C06696E4E00C94A0230AE316E0FD01AC
:100F800001831283089519D044E650E020E030E058
:100F90000B5F1F4F0E94BB23FD0100E110E00187A2
:100FA000128704E60387148709E90587168709EA8B
:100FB0000783108715831683C1CFBA93AA93D801EC
:100FC00008950E948623DA9528015901C42E4C30D9
:100FD00008F051C008E0C09E642C600C111D712EF9
:100FE000E62DF12FA185B2850A2F0B2B41F08584C8
:100FF0009684082D0929F9F180E090E00AC03BC0F1
:101000008D010E948D1AFE01E80FF91F00831196D1
:10101000019688159905A0F3A4019E018E010E94F6
:10102000C20BC8010330104018F10297F301038589
:10103000148580179107E1F4FE01E80FF91FA081E4
:10104000B1819C018BD1A017B10791F402E0C09E41
:10105000400C511C09E6400E00E0501EF201A08336
:10106000B183AC019E0185010E94AB238C0105C0B8
:1010700004E00093BC0900E010E0D395EDE00C948F
:10108000972342D0D801C8018D579F4F0C910A95E4
:1010900059F00A9561F00A9579F00A9599F00A9548
:1010A000E1F00A95F9F02FC036D002E02BC0E199AB
:1010B00020C02CD003E026C0009130060023C9F0E8
:1010C00004E020C060E044E650E09D012B5F3F4F0C
:1010D000F1D0A1F020D005E015C0E1990AC016D0EA
:1010E00006E010C000913006002319F0FD0103E076
:1010F00007C08C010E941C22002329F0FD0104E09E
:10110000048300E00C9336CF0C948F2320E137E268
:1011100004D00C94B10928EC30E08C010C940E2220
:101120000E948B23D80105EA1AE02DDF40E09D01E3
:101130002B5F3F4F57D0012B49F166246092270661
:101140002D0101E8400E561C3FC006E019C0662D77
:10115000AC01F201208131818D019AD0002311F080
:1011600003E00EC00091A90A0430A9F408C0009160
:10117000A90A033011F404E003C0043061F405E06F
:10118000702E09C001E0E8E00C949C2300E0FBCF46
:1011900063947724739405EA1AE073DF0AE010E0A1
:1011A0000E941D1BA895072D0A9559F00A9579F202
:1011B0000A95E9F20A9561F30A9541F30A9511F34C
:1011C000EACF0CE0601608F6462DF201208131814D
:1011D00009D0C801012B99F200912706002359F28A
:1011E00002E0CECF8D01EDCE0E948923DA95380141
:1011F000C9012A01A62F6C3018F000E010E044C0AD
:101200008E010E94AB2392018C010E949006FE0188
:10121000E40DF51D0083118328E0A29FD301A00DEA
:10122000B11DFD010787108B430101E8800E00E02E
:10123000901EA2014E5F5F4F9E01F401008111815B
:101240000E946F0BC801FD0105851685012B91F4E5
:10125000F30107811085FD0101871287F3010781E2
:101260001085080F191F07831087FD0143865486D8
:1012700085879687AC01F40120813181FD010185CC
:1012800012850E94971A8C01D395EAE00C949A2358
:1012900094DE0C91002349F40DD0FD0121F001E012
:1012A00004830C9306C004E002C0FD0102E0048345
:1012B00000E044CE0A2F98DF012B0895392F282E05
:1012C000B80181E090E02AE08C01000F111FFB01C2
:1012D000E00FF11FE759FF4F008011803BD0FB0169
:1012E000E00FF11F078510890016110611F000E0CC
:1012F00004C001962A9541F701E0822D932F0895AD
:101300000DD00583168335CE09D02581368120176F
:10131000310711F401E001C000E02BCEF5DE669745
:10132000D80180E090E02BE015D0FD01E00FF11F27
:101330000789108DFE01AC01440F551FE40FF51F06
:101340000083118301962A9579F726E130E006D0D3
:10135000FD01089543E08C010C94DB228E010C9476
:10136000900600E000933006E39A089522E436E008
:10137000F8012183328320E020830895AD01D80154
:10138000F5DF06E416E0FD010183128300E003832C
:1013900004838D01DA01089501C00895402F412B87
:1013A00021F020FB16F40E94C92208954BD00B7F38
:1013B0004ED048D00F7E4BD048D0009161000460E1
:1013C00006D0006104D0026000936100089500938C
:1013D0006100009161000895F80102E916E00083C0
:1013E00011838F01E3DF8F010895402F412B21F0FE
:1013F00020FB16F40E94C922089500E00FC01F7E52
:10140000109362001091620014601093620000005B
:10141000109162001B7F109362000395041758F42B
:1014200010E0F901E00FF11F10811123109162000B
:1014300031F31061E5CF09D000C000C0000002D038
:101440000D7F05C0009162000895FCDF02600093EB
:1014500062000895BA93AA93D8010E94BE0904E9D4
:1014600016E0FD01018312838D01A991B9910895C0
:1014700041D0C90109D0FD018387948700E00C9316
:101480008D01E4E00C94A023E5DF2ED002D00C9473
:10149000FA218D010B5F1F4F08950E949023C80110
:1014A000A22F012B51F020E030E0082F0E94CE093E
:1014B000A0FB1EF48C010E94C922E3E00C94A1233E
:1014C00019D0822F0B2B79F00FD022E030E0E1DF32
:1014D0000E94062220E030E08D01DFDF80FB1EF459
:1014E0008D010E94C922CDCF08E916E0FD010183DC
:1014F000128308950E948F23D8010895FBDF922F55
:10150000832F0C91002329F00A9541F00A95E1F010
:1015100033C0FD0100E0058701E014C0222321F063
:10152000FD01058501600587332321F0FD01058557
:1015300002600587FD01238534850A2FABDF0E94F9
:101540000E2202E00C9318C00A2FA4DF0E941C2276
:10155000002319F000E00C9310C0FD0105859923CC
:1015600009F00160882309F002600587033000E07C
:1015700021F40C9301E001C000E083CF402F412B08
:1015800021F020FB16F40E94C9220895302F50E06C
:10159000E0E0F0E028E0032F10E04E2F0E94E5226B
:1015A0000170502731962A95B1F7552309F401C0EF
:1015B00002C001E0089500E00895B80130E0E0E0E5
:1015C000F0E02CE04E2F8B010E94E02201703027CA
:1015D00031962A95B9F7332309F4EBCFECCF8A93F0
:1015E000802F007F29D0302E082F0E7825D0202E76
:1015F000082F0D7621D0102F00E1809F712D08E07B
:10160000809F00E70022602D082F017024E0029FD8
:10161000602900E8309E6029712908E0209E602939
:10162000712902E0109F602971298B75082F04D061
:10163000062B172F89910895A9CF080100E01F708C
:1016400020D007FA10E010F9011711F058E001C09E
:1016500050E080010077187014D003FA13D0000F07
:10166000502B8001047616700CD001FA0BD0502B51
:1016700080010475157005D0102D117008D0052B50
:1016800008959BCF10E010F902D0000F08950117C4
:1016900009F08FCF90CFB801222351F02093270675
:1016A0002A9501E010E0422F0E94DB22062717272F
:1016B0000895202F44E00E94E022007F122F16950B
:1016C000169516951E70012B22FB10E010F9012BC8
:1016D00008951801B2DF202F8101DDDFEACF0E94DB
:1016E0008523239749835A833801490180E090E09C
:1016F000442455248883098100FF03C01A810150C6
:10170000A4D0AA24BB241AC038D0680101E0400E3E
:1017100000E0501E32D020E030E04CE00E94172361
:101720001D2941E0440E40E0501ECC9221D0108390
:101730001FD02083019602E0A00EB41ED301A80F93
:10174000B91F80D0A016B106F8F20881002359F025
:10175000840C951CF40114D00C930196680E791E2C
:10176000F301108301968C012396EEE00C949623EE
:101770000196F301E80FF91F0895F401E40DF51D3A
:1017800000812DCF0E948323239749835A836801C8
:1017900059018824992466247724888243E050E004
:1017A00051D00E94E822413000E0580511F410E0C9
:1017B00041C04230504019F445D0025046D0EE248A
:1017C000FF2425C0808190E0A0E0B0E001E0600E41
:1017D000791E34D01081912F600E7A1E2FD0A081F7
:1017E000600E7B1E082F37D04CE08C019D010E94BB
:1017F0001E236FDF102F01E0800E9B1EF601E80D07
:10180000F91D1083800E9B1E03E0E00EFB1E2601D7
:10181000480C591C13D016D0E016F10698F2088136
:10182000002339F00081118116D001E0800E00E024
:10183000901E84012396E0E10C949423F501E60DBB
:10184000F71D089509811A810895104009831A83AC
:1018500001E0088308951F703CDFF20100830895C2
:1018600012D002D009D00BC00E94BE090EE916E0CA
:10187000FD0101831283089505D10C94FA218D0195
:10188000A991B9910895BA93AA93D80108950FD058
:101890000AD08583968300E0008723C007830C93DA
:1018A0008D01E4E00895DCDF0AEA16E0E1CF0E9452
:1018B0008F23D801C901089532D00B2B81F0D6DFD8
:1018C00022E030E0DFD00E94062220E030E08D01EF
:1018D0000E94CE0980FB1EF48D010E94C922E4E023
:1018E00001C0DCDF0C94A023CEDF1596ED91FC91B6
:1018F0000995002311F001E001C000E0C1CF0FD035
:10190000F8012181F281E22F3296AAD0FD010781F0
:10191000081700E019F40783008701E0E0CF0E9478
:101920008F23D801822F0895A3D049F00A9549F05A
:101930000A9571F00A95B9F00350F1F027C001E063
:1019400024C092D019F1ABD0349687D096D01DC068
:101950008BD0D1F0AAD0D1F0A2D036967ED09DD037
:10196000078303E012C080D079F09FD079F00FD0C8
:1019700003E0078306E009C077D031F096D031F05C
:1019800006D006E0078302C000E00C9379CF87D031
:101990003A9663D07BC00E949023C801A22F012BEE
:1019A00049F020E030E0082F87DFA0FB1EF48C0117
:1019B0000E94C922E3E00C94A1235AD069F00A9551
:1019C00081F00A95A1F00A95E1F00A9531F10A95A6
:1019D00099F10250E9F140C0FD010085078301E063
:1019E0003AC042D0C9F124E630E047D034C03CD000
:1019F000F9F05BD089F12CED35E04FD0008703E0A2
:101A00002AC032D0A9F051D039F149D0389625D02A
:101A10003DD003E0008704E01EC026D049F045D049
:101A2000D9F028E833E132D004E0008705E013C0A4
:101A3000FD01008507830EC017D061F036D061F03C
:101A400022E330E023D005E00087078307E003C0EE
:101A50000BD011F400E00C9313CF02D0980108953D
:101A60002591F491E22F09940A2F3EDF0023089577
:101A7000BA93AA93D8010C91F9CF04D00E940E22F8
:101A800002E008958D01075F1F4F08958D01075FE4
:101A90001F4F0E940E22FD010895F8DFF1CF8D0146
:101AA0001196ED91FC9112970895ECDF0E941C2293
:101AB000DDCF04E610E008950CED15E0089508EB85
:101AC0001BE0089502E310E0089508EB1BE0089581
:101AD0009A938A93C8011BD08C010E94EC098C0157
:101AE0008991999108950E949023C801A22F092BF2
:101AF00059F00DD022E030E08C010E94F509A0FBE6
:101B00001EF48C010E94C922E3E00C94A1230AED8B
:101B100016E0FC01EC5BFF4F008311830895F80190
:101B2000EE5BFF4F20833183209162002E7F209354
:101B30006200209162002F7D209362001E981F9802
:101B4000209161002160209361002091610020625A
:101B500020936100169A179A0C94D6090E948F233D
:101B6000B80180E090E346E0E82FF0E0E452F94F5E
:101B7000049110E09B01200F311FDB01AE5BBF4FD2
:101B8000ED91FC91082F50E00E94D122E00FF11F4F
:101B900000810023F90119F001E0028301C05283A2
:101BA00083959A9509F740E49B012E5F3F4F8B0187
:101BB0000E94FD09E4E00C94A02315D00E94BE0908
:101BC00033D02ED00E94FA218D01A991B9910895A8
:101BD0000AD0F3DF04E317E0FD010183128390D004
:101BE00001E00C93F1CFBA93AA93D80108950E9413
:101BF0008F23D801822F0B2B81F016D022E030E00A
:101C00000FD00E94062220E030E08D010E94CE0914
:101C100080FB1EF48D010E94C922E4E00C94A023F5
:101C20008D010B5F1F4F08950CE017E0FD0101834C
:101C3000128308950E949023C801A22F012B49F01E
:101C400020E030E0082FD3DFA0FB1EF48C010E94BF
:101C5000C922E3E00C94A123C6DF0C910A9539F068
:101C60000A9581F00A95B9F00A9571F148C00E9471
:101C7000261E002329F00E94341E002381F53DC05A
:101C800000E03CC0FD0104810130C9F539D001E01C
:101C90000E94391E24C0FD010481013049F430D076
:101CA0000E942D1E980115968D010E940E2227C0BC
:101CB0000A2F0B5F1F4F0E941C22002301F105E039
:101CC0000093BC0904E01AC0FD0104810A9519F0D3
:101CD0000A9569F014C014D00CE00093B3090E9477
:101CE0002D1E98019DDF0E940E2203E007C008D040
:101CF0000E94391E0CE00093B30902E00C9365CFFB
:101D000000E00483089500E00093B3090E94442199
:101D1000FDCFBA93AA93D8010E94BE090CE717E041
:101D2000FD01018312838D01A991B99108950E944B
:101D30009023C801A22F012B51F020E030E0082FA2
:101D40000E94CE09A0FB1EF48C010E94C922E3E090
:101D50000C94A123F80125830895F8010081002344
:101D600009F401C002C001E0089500E008950E9456
:101D70008F23D801C901F8016181F281E62F3696DF
:101D8000FFD2A8019C018D011196ED91FC913C962A
:101D9000F7D2E4E00C94A0230E948F23F801842F53
:101DA000DB01AB013068E8D2A00FB11F8C9331D2B8
:101DB000F0CFFAD119010A0150E0662420E030E0AA
:101DC0004A845B848C859D8502C06394E7D0F201D0
:101DD000D0D220153105C0F4410101E0200E00E011
:101DE000301EDB01A80DB91D0C91002329F001E084
:101DF00010E0462D4ED3502B07E0601631F750838C
:101E0000019650E06624E2CF662011F050830196DF
:101E10008C01EEE0C7C1B5D03DD021F0813D07E097
:101E2000900710F01AD106C0FD01028D138D28D045
:101E300018F410D145D104C039D06289738926D0F5
:101E400005D002C08C01E8E00C949C239801890124
:101E5000E8E0089596D01ED021F0813D07E090077C
:101E600010F0FBD006C0FD01048D158D09D018F4CB
:101E7000F1D026D104C01AD06489758907D0E0CF8B
:101E8000572D480F591F041715070895AC019301EA
:101E90008D018FCFD801C9012A01A4D07180428160
:101EA000642E93810481802F092B0895A2018BD089
:101EB00011D043E08C010E94E022402F082F0770D0
:101EC00009F0439540836AD03A932A935A924A92F2
:101ED000FD010895F201E00FF11F089552D076D070
:101EE00011F040D018F0B30143E007C0FD01068DAA
:101EF000178D43D020F4B30142E053D00CC058D02A
:101F000007C0BC01660F771F08D031D006D03BD088
:101F100044155505B0F39BDF97CFFD01068917895E
:101F2000060F171FF80108952CD050D011F01AD0C9
:101F300018F0B30143E007C0FD0100A111A11DD0BD
:101F400020F4B30142E02DD00CC032D007C0BC0158
:101F5000660F771F29D00BD027D015D04415550513
:101F6000B0F3D9CF0EE7401600E050060895018186
:101F7000F301E20FF31F00830895592F440D551DFF
:101F800082CF0C948B23008109D0F301E20FF31F61
:101F900004D001964F5F5F4F089500832F5F3F4F3E
:101FA00008958ED098010895FD01008D118DB8CF50
:101FB000A30109D0042D000FF301E20FF11FEDDFA3
:101FC00040E050E008958D01D7D1ECCFD801C90190
:101FD0003A0108D091814281842F53800481402EA0
:101FE00005290895D1D1080F191FF8012291F80190
:101FF00030810895C6DFD80139012A01CB015ED0B6
:1020000025D05291F801008031812281FD01628D3D
:10201000738D2617370710F01DD014C0F801738197
:10202000648160300FEF700711F401E003C0672B8B
:1020300041F400E00E941D1EAC01930182013CD0DE
:1020400004C00BD0302D252F69D0FCCE8301020FA8
:10205000131F68CFB20142E00895B20143E0089532
:1020600090DFD8012901CA013B0128D08201EFDFAE
:1020700031812281FD01468D578D2417350758F097
:10208000BC0142E0F801308101501040F80120818C
:1020900017D038010FC0F80153814481FD01068932
:1020A0001789220F331FD3DF40835183A30192018D
:1020B0008C0102D08301C7CE0C94AB2365D172CFC3
:1020C0008D016ACE5EDF72D09801C0DF9291F80177
:1020D00080817181628133814481242F432B21F0DF
:1020E000213B47E0340710F0B8DF0AC0FD01428D04
:1020F000538D0B01020E131E4015510528F4AADF63
:10210000382F292F0BD009C0AB010A5F1F4F0E9447
:10211000F51DA201382F292F4DD094CED1DFC80153
:10212000089542D043D0C801A301400F511FFA01C6
:102130000290FA0130811181028153814481242F60
:10214000252B21F04C3720E0520710F086DF0AC023
:10215000FD01668D778D1801240E351E62157305FD
:1021600020F478DF202DDADF1BC060E070E012C0C1
:10217000F301FFD096808780FD0126883788F8011B
:10218000EE0FFF1FE20DF31D8082918242D0029676
:102190006F5F7F4F6417750758F3A201202D0AD097
:1021A0008C01EAE00C949A230C948923D80139011C
:1021B0002A01EAC08D01FD01DFD0C80144E050E0F2
:1021C000600E711E9301040D151D76DF04960895AF
:1021D00002D1C8012901DA01D7D0C5D0AD01F20181
:1021E00030810FEF400E501EF20120818C01FC0166
:1021F000C3D015D023E010D020E20ED027E02083FA
:1022000008D0A00FB11F22E32C9303D0E6E00C947A
:102210009E230F5F1F4F089520830F5F1F4FFD0107
:102220005ACE0E948423380129014A01CB01ACD047
:10223000D80199D05201F201E290F201D0800281DE
:1022400010E006970817190709F052C0A4013D2DA8
:102250002E2D8301F30190D0C801240184D0F50113
:102260000381002341F00A95C1F00A95E9F10A952E
:1022700009F465C06BC0F20100E078D004E000838F
:10228000F501038174D072D002E070D000E00083C9
:1022900087D002E0008301965FC0C4800CE0C016C6
:1022A00038F584010A0F1B1FD801CC2091F420E0DF
:1022B0000B5F1F4F0E947D0720918D09FD01258333
:1022C00020918C09268320E3278361D020E020839E
:1022D00007C02C2D15968D010E947D0758D0C08215
:1022E00098DF800F911F38C0C4800CE0C01618F032
:1022F000B40142E02DC034D0F501E281F0E0329724
:10230000E017F04019F0B40143E022C029D04C2D71
:10231000202F30E005E00A0DB31E1B2D0E9482071E
:10232000012B51F005EA1AE00E9480090DE00093AC
:10233000B309B40145E00CC0B40147E009C0009105
:102340002006002349F4B40146E002C0B40141E094
:102350003D2D2E2D97D0C8018C01EFE00C949523D4
:102360000C2D0C94E406400E511E08950083019636
:10237000F401E80FF91F08956181F281E62F3A9682
:102380006591F491E62F099486D03E96B8C0F2018B
:1023900020E02083ECDF0083F5012381E8DF208348
:1023A0000196880E991EF401089515D0ACD0040D45
:1023B000151D1BDE0091A90A033029F4AC018D0123
:1023C000FD01DADF07C00130BC0111F446E001C0B5
:1023D00041E076DE1BCF0C948D230E9487233801C9
:1023E000D901CA012B016ADE8D0131DEA290F8010C
:1023F0008080BA2CBB0CBB08F301058110E0A0164D
:10240000B10621F0AA2011F000E039C0082DEAE859
:10241000F0E0FBBFF9E00C94462336D0FCDC2AC088
:1024200033D018DD27C030D059DD24C02DD07CDD5D
:1024300021C02AD0DFDD1EC027D012DE1BC04424FD
:102440004A94542C18C020D03DDE14C01DD0ADDFFE
:1024500011C01AD066DE0EC017D0BADE0BC04424FD
:10246000552409C011D0DDDE05C0BC0141E0382D86
:102470002A2D08D02801F301448655868201ECE01C
:102480000C94982383011DCEB201AC019D01830100
:1024900008950C94DB22F8012181F281E22F089546
:1024A00083DE31D060DFF2016080FD012681F20120
:1024B0003291231721F4FD0127812615E9F0480107
:1024C0008D01FD012181F281E22F709618D0800EDE
:1024D000911E02E0800E00E0901E8815990561F4BF
:1024E00067FA56F4F20101810C3024F4102F110F19
:1024F000110B04C00EE001C001E010E052CE2591A6
:10250000F491E22F0994D8012901CA013DCF01E0DD
:1025100010E0089502E010E008950E948D23C801A4
:10252000D9012B2B31F0F80143845484A587B68759
:102530000EC004ED402E07E0502EDC011F96FC017A
:10254000A587B687082F015F1F4F0E94890E02EBF7
:1025500017E0FC0103871487F20105911491FD0136
:10256000018312838C01E6E00C949E2310E0089511
:102570000E949023C801A22F092B69F0232B31F070
:102580000DD0082F015F1F4F0E94970EA0FB1EF475
:102590008C010E94C922E3E00C94A12320E030E0EA
:1025A0000895B9D0E5CF0E948B23C801F80120839C
:1025B000318342835383648375830885008709854B
:1025C00006830A850783A585B6856B847C84FD0117
:1025D000668677864D845E84408A518A0F85188985
:1025E000028B138B09891A89048B158B0B891C8923
:1025F000068B178B0D891E89008F118F0F89188DFF
:10260000028F138F098D1A8D048F158F0B8D1C8DE2
:10261000068F178F0D8D1E8D00A311A3FC013BD0DB
:1026200000E412E42FE030E00E94212345E00E9404
:10263000172348EE53E060E070E00E9421230F5F13
:102640001F4FE82F01871287FD01428D538DA6DFB2
:102650000289138925D0448D558DA0DF0489158901
:102660001FD040A151A1440F551F98DF008D118D3F
:102670000E94BB235A924A927A926A92FC01078185
:102680000A933681208507D0008111810E9460194C
:10269000EFE10C949C2342815381648175810895FC
:1026A0000E94BB23FC010585F685E02F08950C945C
:1026B00081190C94A419F8010081118108950C94DA
:1026C000C61962D0D901CA019A018D017BD0FD01E2
:1026D000E80FF91F00830196A80FB91F1C930196FC
:1026E0008C014FC018D0EDCF0D01E881F981208316
:1026F0003183528343837483658306E010E0D00105
:102700002296089508D0F0CFFA012083318302E0A9
:102710002DCF01D0F9CF0F5010400895CCDF0C948D
:10272000E919F9DFFBCFC7DF0C94F01910F001E0D5
:1027300001C000E0DB01089510F001E001C000E0FD
:10274000DA010895BD01E1E3F6E04081518105D051
:10275000401B510B42175307E9CF09D00D911C9133
:102760000895AD0103D02D933C93EACF05D0F80135
:10277000A585B6851A960895E1E3F6E020813181BA
:102780000895E4E00C94A0230C948F230E948D23E1
:10279000C901443000E0500790F0F901E40FF51F43
:1027A0003297B181A081425050402A019A0109D04C
:1027B000920107D00A171B0711F401E001C000E0E5
:1027C000D2CE8C010C949006DFDFD801F80185850C
:1027D0009685FC010081EEEBF0E0FBBFF9E00C9484
:1027E0004623F2D003E0A7C0C3D059F0FDD024F0B7
:1027F000DFD0B9D004E004C0019619F4B4D002E0EF
:10280000008328E93AE3CAD009F496C03BC0B0D0AF
:1028100049F0EAD014F0CCD005C0019619F4A3D049
:1028200002E00083BED009F487C0ABD0D9D059F103
:1028300005E081C0FC016485758540895189E5D03A
:102840008C010E94ED11012B00916200C9F075D03E
:10285000C7D006E070C09BD092D0C2D007E06BC05A
:102860009BD009F469C0FD0105851685F8016FD07C
:1028700082D0B6D008E05FC06FD009F45DC061D0EF
:1028800000645CD0ADD002E056C09ED00BE053C0D7
:102890006FD081F0A9D04CF088D024853585280FE1
:1028A000391F248735870CE004C0019619F45BD0EA
:1028B00001E1008328EE33E071D0F1F191D013C033
:1028C00057D051F091D01CF070D075D005C0019652
:1028D00019F449D001E1008364D071F152D080D065
:1028E00011F00DE028C001E126C0FC018CD08C0164
:1028F0000E945012012B74D001E10C93E9F41CC02A
:1029000046D00091620019D06BD00FE014C044D0C3
:1029100099F029D01CD08F012ED062D000E10BC0DD
:102920001BD051F00ED0006409D05AD00AE003C089
:1029300026D056D000E00C9324CF0F7B009362008A
:1029400008958F010E94DE19009162000895448568
:10295000558520893189089502D003A516C0ED91CF
:10296000FC91119708951D96ED91FC911E97089585
:10297000F6DF02A50AC00E94B70E0CD0A0CE0AD086
:1029800098CEF1DF40D08D0101DF002308951AD0E9
:1029900001D08DCEE3DEE5CF25E030E08D01D2DE43
:1029A000F4CFFD0121853285F9CF0CD0FD017BCE1E
:1029B000FDDF01D007C004851585080F191F0487A6
:1029C000158708958D01CDCEFDDFC8DE1C960E94CF
:1029D0008119CADF00E004870587DCDF0E949919AE
:1029E000FD01A585B6850895FC010485158540E0A7
:1029F00051E0401B510B09D0200F311F8D0193DE98
:102A0000C801013089CE44855585268537850895CE
:102A100082DEDACE01E010E008950F5010400C94F1
:102A20000A1502E010E008950F5010400C941115A3
:102A30000E948F23D801822F15D08C9300E001874C
:102A40008D01E4E00C94A0238A93802F19D019F013
:102A5000282FEEDF02C000E010E089910895A991CF
:102A6000B9910895075F1F4F0E94BE090AEF17E052
:102A7000FD010783108700E018E00287138708959F
:102A80000CE110E00E94C423202F212B08950E9406
:102A90009023C801A22F092B61F020E030E0082F1D
:102AA000075F1F4F0E94CE09A0FB1EF48C010E94FD
:102AB000C922E3E00C94A12309501040E8CF1D0186
:102AC000D801F9010081FD010687F9010181128118
:102AD000FD010787108BF90103811481FD01018B32
:102AE000128BF90105811681FD0105831683F90119
:102AF00007811085FD01038B148BF9010089118971
:102B0000FD01018F128FF90102851385FD01058BEF
:102B1000168BF90105851685478552E0459F000D06
:102B2000111DFD01078B108FF9010785085F0787CD
:102B300060897189028910E048E150E00E94D12249
:102B4000600F711FFD01618F728FF9010289085FAB
:102B5000028BFD01538FD10108952FD1E0D040E0C9
:102B600028E050E05996ED91FC915A97E40FF51F3B
:102B70003081F801E40FF51F308343952A9591F7D2
:102B800028E030E00E94A9069801FD010189128920
:102B9000065F1F4FF801219330835196ED91FC9110
:102BA000529701E8EDD04DE0E1D01F96ED91FC91F8
:102BB0000181013829F404850E3711F401E001C0C8
:102BC00000E04DCF0E948F23D80150E080E028E044
:102BD000F801618D728D90E0FB01E80FF91F4085CF
:102BE0004F3F21F0BAD011F0ABD0502B83952A95EE
:102BF00099F730E080E028E0FB01E80FF91F4089F9
:102C00004F3F21F0AAD011F09BD0302B83952A950D
:102C100099F720E0FD010381002311F0938321E067
:102C20000481002311F0948322600181002311F0BC
:102C3000918324600281002311F09283286001892E
:102C4000F289E02F02E40083FD01818992890296D6
:102C500060E0222478E079D00181002309F069D076
:102C600023947A95C1F7FC016193CF0160E022249F
:102C700078E06BD00081002309F05BD023947A9533
:102C8000C1F7FC016193519331932193CF0125E06A
:102C900030E0FD0144D00E94A906FC01019311938C
:102CA0000EE76ED04AE062D03FD021812452A9F1D4
:102CB0002E5141F525E030E00E5F1F4F0E94AB061C
:102CC00001301040FCF030D021852E37D9F4FD01C1
:102CD00020E0238FF801628180E028E090E0FD0190
:102CE00005881688080E191E2BD0162F1023F00108
:102CF00019F001E0008301C0908383952A9579F74C
:102D000001E00CC0FD01038D0A3028F0A581B681D9
:102D100002E00C9302C00395038F00E092CE01897C
:102D200012890E5F1F4F0895FD0107851089F80174
:102D3000089501E010E0422D0E94DB22602B0895EF
:102D400001E010E0482F0C94DB22FD010789108D73
:102D500042E0249E000D111DEACFFD010389148974
:102D6000040F191FF80100810023089550E0FD01B0
:102D700021893289078510890E94041B0C94DA1C72
:102D80000083FD0106850E94C31C0AE613E0015082
:102D90001040E9F700C0000008950FD011851123FD
:102DA00019F01A9539F008C01B2FD7DEFD0111E08C
:102DB000118702C01B2F06DF52CEBA93AA93D80107
:102DC000B6CF48E258E0F801478350872083089542
:102DD0008A93802F01E110E00E94C423202F212B31
:102DE00019F0282FEEDF02C000E010E0899108956D
:102DF000402F412B21F020FB16F40E94C922089598
:102E0000F9014081F8014187F90141815281F801BE
:102E100042875387F90143815481F80144875587DC
:102E2000F90145815681F80145835683F90167818F
:102E30007085418550E0640F751FF80166877787BC
:102E4000F9012185285E2187F801508B08950E94A1
:102E50008F23D8011C96ED91FC911D9702E400830D
:102E6000FD0101850E94C31C0AE613E001501040D9
:102E7000E9F700C0000049E050E0FD0124853585F8
:102E8000028513850E94041B0E94DA1CFD01028545
:102E90001385F8012181223499F526E030E00E5F98
:102EA0001F4F0E94C3060130104054F1FD0100E0A5
:102EB000008B2685378580E076E0FD01028513854D
:102EC00090E0080F191FF801028060E058E002C08E
:102ED00060FB76F001E010E0462F0E94DB22102D0F
:102EE0001023F90119F001E0019301C091939F01B2
:102EF00063955A9569F783957A95F9F601E00CC0C8
:102F0000FD0100890A3028F0A581B68101E00C930B
:102F100002C00395008B00E0E4E00C94A02322D0D3
:102F20000E94BE093CD037D00E94FA2105E20C93E2
:102F3000FD0111C015D00CE418E003C011D00AE661
:102F400018E02FD005E20C9306C00AD00CEA18E076
:102F500028D008E1F8CF03838D01A991B991089594
:102F600001D0DDCFBA93AA93D8010895F9DF0AEC16
:102F700018E0E7CFDED00B2B61F011D022E030E07B
:102F80000AD00E94062220E030E08D010E94CE0986
:102F9000D5D0E4E0C0C08D010A5F1F4F08950EE256
:102FA00018E0FD01018312830895DCDF0C91E4EE4B
:102FB000F0E0FBBFF9E00C94462367D009F452C05F
:102FC0005ED072966ED00AE14CC05FD009F44AC060
:102FD00056D070964DD0349666D009E142C04FD09D
:102FE000369661D002E03DC050D0E1F158D009E002
:102FF00038C04BD0B9F143D074963AD0389653D0FC
:1030000008E02FC042D071F12ED04BD00FE029C084
:103010003CD041F13FD00EE024C037D019F123D08D
:1030200040D005E11EC031D0E9F034D006E119C02E
:103030002CD0C1F034D007E114C027D099F02AD0A9
:1030400004E10FC01CD07C9613D03A962CD00FE12F
:1030500008C01BD039F00AD0FD01038102C006D0A0
:1030600000E00C937ACF0BD07A96089508D01AC05E
:103070001AD098018D010A5F1F4F0E940E228D0108
:103080001196ED91FC911297089585DF0E941C2204
:1030900000230895F4DF7896EBDF3A9604C0EFDF63
:1030A0007696E6DF3C962591F491E22F099432C0A2
:1030B0005ED039F02A9539F02A9539F02A9529F011
:1030C000089505E203C001E001C007E00083089510
:1030D000089502C002E001C001E00C94B8200895F8
:1030E00002E00C94C52016C042D049F02A9529F080
:1030F0002A9529F02A9529F0089501E001C005E2FA
:10310000E5CF0DE0FDCF0895E7CF089503E0E5CFCB
:1031100003E0E7CF02D00C94A0230BD0012B39F0B1
:1031200005E20C9320E030E00A2F24DF07D0E4E032
:1031300008950E948F23D801822F089580FB1EF4EA
:103140008D010E94C922089512D049F02A9539F0C4
:103150002A9539F02A9539F0235039F0089508E17D
:10316000B5CF07E0FDCF0DE0FBCF03E1F9CFF801CC
:10317000308133832223089501C0089500916200B5
:103180000F77009362000895F9CF00916200006804
:103190000093620006E41BE00C94AE0DBBCFE7DFAA
:1031A00059F02A9549F02A9549F02A9549F023507B
:1031B00049F02A9549F0089505E288CF07E0FDCF50
:1031C0000DE0FBCF03E1F9CF0EE1F7CF0C948C06B5
:1031D000FDCF0C9482060C948506F8CF00ED17E025
:1031E000089500ED17E0089508EE13E0089508EE45
:1031F00013E0089504EF11E0089504EF11E008953D
:1032000002E310E0089500ED17E0089500ED17E0E7
:10321000089508EE13E0089508EE13E0089504EF12
:1032200011E0089504EF11E0089500ED17E008950E
:1032300000ED17E0089508EE13E0089508EE13E09E
:10324000089504EF11E0089504EF11E008951B2E96
:103250002A2EF80108EE18E005A716A7208331836F
:10326000428353836483758308811981068317839E
:103270000A811B81008711870C811D8102871387BA
:103280000E811F81048715870885068709851A85A1
:103290000787108B0B85018BA485B5850A2F0B2B17
:1032A00031F0468562D01C91102B1C9366D08F01A3
:1032B000A22DB12D2C96089500E010E0089584C150
:1032C000BA93AA93D8018A019B0144E00E94172374
:1032D000A801B90102D21296ED91FC9113970083D7
:1032E000FD010081F181E02F108300913806087301
:1032F0000660FD01A085B1850C93A991B991259631
:103300000895F80120E0208F218F22A723A724A76A
:1033100008950C93A42FB32F08952C93A681B78101
:103320000C9108953B2F4A2FF801A681B7812C916B
:10333000089504D02068F1DF0069EBCF3B2F4A2FBE
:10334000F801A481B581F3CF9D01F801E7DF0F7685
:103350000C93D90108959D01F801418906D0A785F4
:10336000B0891C91102B1C93F4CF01E010E00C9459
:10337000DB229D01F80101D0ECCF4189F6DF0095F9
:10338000A785B0891C9110231C9308955B2F6A2F89
:10339000D801F80104851585012B11F08D01DBDFC3
:1033A0001496ED91FC911597008100660083FD0154
:1033B000B5DF08620C93A62FB52F08955B2F6A2FF7
:1033C000B3DF27792C9324853585232B09F0D1DFB2
:1033D000F2CFF801228B338B448B558B01E06DCFFC
:1033E0006DD0F80100E002A704A5002329F4008DA8
:1033F000118D0417150718F00FEF1FEF1BC0012BDD
:10340000C1F0F89480E090E00AC0DF01A80FB91F76
:103410005A960C91D901A80FB91F0C930196008DF3
:10342000118D8017910788F310E0108F118F789419
:1034300001C042DFE4E00C94A023AD01F80124892F
:103440003589232B59F471DF2F7D2C93A481B5810D
:103450002C91206462DF00640C930EC0A289B389B2
:103460002D91A28BB38BA285B3852C9304891589EA
:1034700001501040048B158BDA01089553DF2F7B28
:103480002C9301E003A746CF19D0F801208D318D90
:10349000203140E0340720F021E024A722A70DC00E
:1034A000C9010196808F918FA285B3854C91E20F5F
:1034B000F31F428FF80101E002A7BCCF0C948F23C9
:1034C0007AD01DD0BADF70D018957BD015D0D6DF5A
:1034D00009D06ED0189575D00A920ED0D5DF02D0E3
:1034E0000990F7CF6BBF5FBF09911991299139916D
:1034F000499159916991089507D05FB76BB70091D1
:1035000034061091350608956A935A934A933A9374
:103510002A931A930A93089557C0A895E199FDCF6D
:10352000F8941FBB0EBBE09A78940DB30895E8E2BF
:10353000F6E002831383208331834683578300E0C0
:10354000048305830895AD01E8E2F6E02481358126
:103550000681178120173107E8F4028113811FBB10
:103560000EBB028113810F5F1F4F02831383E09A0A
:10357000A081B181A20FB31F0C911DB3101719F0D8
:103580000DBBE29AE19A048115810F5F1F4F0483FE
:10359000158306C0E39800E00FBB0EBB01E0008777
:1035A0006BCF09D0D0DF8FCF7BBF6FBF9DDF79910D
:1035B000E991F991089505D07A93A6DF6FB77BB7AB
:1035C0000895FA93EA930895402F412B21F020FBB0
:1035D00016F40E94C922089503E10DB907B30660ED
:1035E00007BB6E9A0895FDCF6E98089516E41A955C
:1035F000F1F70FB904E601C00A95779903C0A895C1
:103600000023D1F70FB108950C01B801413400E057
:10361000500788F480E090E00AC0F901E80FF91F34
:103620000081E4DFFB01E80FF91F00830196841796
:10363000950798F301E0C001089507C025ED36E035
:1036400021503040E9F700C0000002D0B9F70895DA
:10365000980101501040232B0895B6CF02E703BD17
:103660000BE005BD07B7006807BF0895F7DF0091BD
:1036700061000068009361000091610000640093A4
:10368000610000916200006400936200A298A1981A
:10369000A098009164000E7F0093640078940895D0
:1036A000A80160E070E0440F551F661F16D0980116
:1036B000220F331F309381002093800010938700E6
:1036C00000938600109385000093840002EE00931F
:1036D0008B0009E100938A00089500E010E820E7DC
:1036E00030E00E94212301501040089500918B008A
:1036F0000D7100938B0000918A00067EEBCF61DF95
:1037000007DF2FB7E1E3F6E0008111810F5F1F4F64
:10371000008311832FBF099119912991DACE07E017
:103720000A9305E310E00BD107E00A9304E307D105
:103730000CE905D10DE903D10AE901D16BE970E08B
:1037400049E950E028E930E001E41AE00E94271935
:1037500000EC15E070D0FFD102E71AE00E948D1254
:1037600006EC15E068D005EA1AE00E9489070CEC27
:1037700015E061D021EE31E200EC19E05ED002EDFF
:1037800015E059D027EE31E20FEC19E056D008EDE4
:1037900015E051D02DEE31E20EED19E04ED00EEDD8
:1037A00015E049D023EF31E20DEE19E046D004EEEA
:1037B00015E041D024EF31E00CEF19E00E94380A07
:1037C0000AEE15E038D024E630E0DDD50E94002274
:1037D00000EF15E030D000E11AE00E949A1706EFE2
:1037E00015E029D00CE11AE00E949E170CEF15E0BD
:1037F00022D008E21AE00E94A51702E016E01BD0D2
:1038000004E31AE00E94B61708E016E014D002EABA
:1038100019E00E94E80D0EE016E00DD0C3D40E941E
:10382000680D04E116E007D063E676E034D00E942C
:1038300086240AE116E00C946D220C94470C17D0F4
:103840000C945F1914D00C94B81211D00C94A107E9
:103850000ED00C94CB0C0BD00C94600A08D00C94B6
:10386000062205D00C94571802D00C94731822E04D
:1038700030E00895FCDF0C948A18F9DF0C94CE1820
:10388000F6DF0C941A0EF3DF0C94730D62E57CE105
:1038900002D00C94CF2446E050E020E330E00EE468
:1038A0001CE00895E4DF0C946D06BA93AA9301E43A
:1038B0001AE0E4E3F6E00083118308E010E042D070
:1038C00008E740D005E616E03AD00DE316E037D021
:1038D0000DE816E037D005E017E034D001E00A9398
:1038E00008E00A930EE40A934091370650E04F5FD8
:1038F0005F4F652F660F660B762F00E010E820E71C
:1039000030E00E94212344E00E941E23A801B90157
:1039100021E43AE002E71AE00E94D3122091360631
:10392000E2E7FAE0058516850E94AA0EAFE7BAE045
:10393000ED91FC9102E00083A991B99108951A9349
:103940000A9308951A930A93FACF61D301E0008392
:103950000FE2018308E00283A8CF2EE43CE022D4EA
:103960000E948F0D34D200E001AF02AF07AB089583
:103970008F9A8E9A8D9A8C9A899A979A969A959AF6
:10398000949A9198089500FB16F4979801C0979A1D
:1039900001FB16F4969801C0969A02FB16F49598CE
:1039A00001C0959A03FB16F4949801C0949A919AD9
:1039B0000C94F31A0E94F41A9198979896989598F7
:1039C000949808950E94902304EF11E00E941D1B1B
:1039D000A89549E0BFD005E819E0A9D090E080E1C2
:1039E000A5E001E900934509092FA3D044E0AAD03E
:1039F000009106090139D9F43ADF06E019E00E9486
:103A0000C306012BA1F0009107091091850922E05E
:103A1000129FE3D0018300918509029FDED092833B
:103A2000D6D1008103950083033020F006C0A8950D
:103A3000AA95B9F693958A9599F6E3E00C94A1239B
:103A400025E039E0F8012183328325E439E023833E
:103A500034832CEB39E02583368320E021872DE960
:103A600036E02783308720E024872DEF36E0228759
:103A7000338720E027872DE436E02587368720E04E
:103A8000228B25E736E0208B318B08950E948E2310
:103A900063978E01D5DF442485E899E007C00E9432
:103AA000241532D00781039507834394009185093B
:103AB0004016C0F4A89502E0409EDC01A00DB11DA7
:103AC000FD010181102F1A9529F0125041F31A952A
:103AD00031F3EBCF01E00E94E81616D00085039584
:103AE0000087E3CFFC01048500FF0AC00185108533
:103AF000011721F402851781011711F003E007ABCC
:103B00006396E5E00C949F23402FFD0100A711A7C9
:103B1000028108839E01042FE42FF12F4781F08555
:103B2000E42F4591F491E42F0995FC0108950C943C
:103B3000BB2329DF0AE613E001501040E9F700C07B
:103B40000000089550E025E439E005E019E00E9406
:103B5000041B30CF50E020E08BCE32D2B8011A01E6
:103B6000A0E0B0E051D210C000E0FB01E80FF91F67
:103B70000083119648E050E08D010E94FB2243E053
:103B80007AD2A01BB10B01968215930568F448E028
:103B900050E08C010E94FB22F90115D350814A2F7D
:103BA00071D211F301E0E1CFE4E00C94A02389D0BD
:103BB00003C00DD0149615D086D0D8F380C081D024
:103BC00003C005D013960DD07ED0D8F378C012E094
:103BD000019F03D0A0A5B1A50895F001EB57F64FC2
:103BE000089511E01C9303950895BA01472B41F401
:103BF000F8010081002301F1BDD003AB05ABDFCF9D
:103C0000613040E0540741F4F80100810023A1F045
:103C1000B1D004AB06ABCBCFE62FF52FE054F0408C
:103C2000F09750F4A90198010DE816E0060F171F50
:103C300094DF01E00093A609089521970883A90164
:103C400021E030E08E01D1DF2196089500919309A3
:103C5000002309F091C000E008950091930910E05D
:103C600048EE53E00C94D12200915D0600FD84C023
:103C7000F2CFCDD100FB07A100F907A30AE00E9413
:103C8000E4064AE0202F30E00DE516E00E948207AE
:103C900005EA1AE00C94800914D00CC012E0019FD0
:103CA000A5E8B9E0A00DB11D9896ED91FC9111E049
:103CB0001183039508D090F302E00093A609D9017F
:103CC00008959D01C8CF1091850901170895F9DF66
:103CD00003C07DDF129685DFF6DFD8F3F0CF8A933D
:103CE00022E04FD0002321F045D007A73CD0BBD223
:103CF00022E00FEC19E047D0002321F03BD000ABCD
:103D00002ED0B1D222E03AD0002319F02FD027E0F4
:103D1000AAD222E03AD021F02DD001AB24D0A3D2F8
:103D200023E033D021F026D002AB19D09CD224E07E
:103D30002CD019F01BD027E096D225E01FD0802F81
:103D400025E01FD0202F382F0CEF19E00E947E0AAB
:103D5000002319F0FADD27E086D28991089506AB99
:103D6000B6DF27E0089505AB97DFFBCF06E00093B1
:103D7000B3090895E5E8F9E001E008950EED19E0D2
:103D800002C000EC19E00C947F0C0DEE19E0FBDF93
:103D9000002308951CD000E007A701AB03AB00ABE4
:103DA00002AB04AB0895BA93AA938DDF70F412E0CE
:103DB000019F0DD0E00DF11DA0A5B1A58D011796B5
:103DC000ED91FC9179D100E001C001E0B5CDE5E8CD
:103DD000F9E00895F5D0A5E0B8E040E6BBDE05E0E7
:103DE00017E0A5DE20E0F4D044E150E09D010EE8AC
:103DF00019E0DFD021E0ECD047E050E09D0106E380
:103E000016E0D7D025E0E4D048E150E09D0105E779
:103E100016E0CFD022E0DCD020E06D9150E038E019
:103E200010E0E5E0F7E0E20FF11F062F452F0E94BA
:103E3000E522017011F000E801C000E00083239545
:103E400053953A9569F7203340F3B5D020E000E66A
:103E5000E22FF0E0EB5FF74F10811F77E22FF0E0E9
:103E6000EB5FF84F3081312B308323950A9581F732
:103E700024E09CD000E650E0FA01EB5FF74F208190
:103E80002F7712E0419FF001EA5CF94F47832087CA
:103E9000E5E0F7E0E40FF51F1081212F2F772033A5
:103EA000107830F4B0E02B5FA22FB74F2C91122B7B
:103EB000108343950A9501F780E090E602E0809F29
:103EC000AEE8BBE0A00DB11D10E0E5E0F7E0E80FC3
:103ED000F11F0081037011F10A9529F00A9561F034
:103EE0000A9599F01BC0008107FF03C00E947A0564
:103EF00017C00E94710514C0008107FF03C00E9413
:103F000044050EC00E943C050BC0008107FF03C0A2
:103F10000E94690505C00E94520502C00E94340536
:103F20000D931C9383959A9549F645D040E020E681
:103F300051D0118147D03033F80110F4338302C0DF
:103F400000E0038343952A9599F726E02FD020E6D9
:103F500039D040D0F181E02F348343952A95C1F7C1
:103F600010E000E322E0129F3AD0A081B1811596C3
:103F70001C9313950A95B9F710E000E332E0212F66
:103F8000205D139FF001E251F44FA081B18115969D
:103F90002C9313950A9599F72AE00ED048E050E04B
:103FA00025E038E00DE516E004D0FECD05D040E078
:103FB00008950C94AB2323E005E018E00C947D07F2
:103FC0000C948F23F0E0E42FEB5FF74F30810895DE
:103FD0008D01F4CF02E0409F02D000810895F001EE
:103FE000E257F44F0895AC010FD008E010E09C01B7
:103FF000220F331F0CD0E20FF31F178B108F019687
:104000000A95A9F7CA01089580E090E00895E6E3D3
:10401000F6E00895D5DFB8012223A0E0B0E031E05A
:1040200089F4F2DF28E029D031F01DD0F801EA5CF4
:10403000F94F01E0008F01962A95A9F711963A955C
:1040400089F0EFCFE1DF28E018D031F00CD0DFDFCE
:10405000BAD001E0078B008F01962A95A9F7119637
:104060003A9581F7A1CD43E08D0105D0080F191FC6
:10407000000F111F08950C94DB22FB01EA0FFB1FB8
:104080005081482F01E010E0F6DF502308959A9305
:104090008A9390E080E602E0909FA1DF2081318149
:1040A0008901F9012181F281E22F06D093958A9549
:1040B00091F789919991089532962591F491E22F83
:1040C000099410E0EDE8F6E07ED0003310F40089AA
:1040D0000895E05CFF4F81CF8A93802F202FCBD0B3
:1040E000282FC5D0282FAED0282FBDD036CE6FDEDA
:1040F00001AD12AD011711F002AF03D0089501E038
:1041000003D0EACF00E0FCCF0093BE090093BF09C3
:10411000089500E11AE008D00CE11AE005D008E2A9
:104120001AE002D004E31AE00C94D517212F10E016
:1041300046E065D02283089524D040D002810383D5
:104140000081018359D0C9F708950091BE09D9DFD4
:1041500018D034D00381028301814DD0D1F7089566
:1041600042DF95DF00E00093BA090093BB09089590
:1041700007D014D011F401E000833ED0D1F71BC06A
:10418000602F20E030E346E00895FADF07D011F019
:10419000002309F4508330D0C9F70DC00FD002813D
:1041A0000617089506E41BE00895EADF07D062834E
:1041B00001E021D0D9F7F6DF0C94AE0D022F10E00C
:1041C00023D0EEE4FCE0E00FF11F0895D9DFE22FE9
:1041D000F0E0E85CF64F7491022F10E010D070838D
:1041E0000BD0A9F7062F10E00E94D122F801E85B5E
:1041F000F34F5083E0CF008323953A95089504D080
:10420000F801E25BF34F089550E02CCDBADFD6DF22
:1042100052835083F1DFD9F7CECFC4D034D0A895E4
:104220000895C2D0D4DD07A5002331F401A90023ED
:1042300019F403A9002321F020E004D020E013D0DA
:10424000BBD0ECCF08E21AE00C94A4180091BC0992
:10425000BDDF00E00093BC0921E00DD021E007D0D4
:1042600026E0F0DF26E004E31AE00C94CF180CE11E
:104270001AE00C94741800E11AE00C94581896D0C7
:1042800002D08CD0CCCF86CD0091B309EEE1F0E026
:10429000FBBFFAE00C944623A89501B5086101BD67
:1042A00001B5076001BD0E94361B57DB0E947D06E9
:1042B0000E944F07002369F18DDDF7DA0E94EC1AA6
:1042C00057DB80DBE3DB27E0CEDF2BC06BD066D093
:1042D00056D009F453C057D00E941822A89500E088
:1042E0000093BD0903E016C061D058D00091BD090C
:1042F0005ADD002319F004E03ADD04C068DD00ADAA
:10430000039500AF0091BC090A95045010F019F014
:10431000089508E02CCD0AE0FDCF22DF05E0FACFBA
:10432000B2DF02E0F7CF08DF02E0EBDE02E03DDFC4
:1043300028E833E12FD007E009C021D019F026D0BA
:1043400002E015DD6ACF01DB81DF09E010DD67CF18
:1043500068CFF2DE7BDFA8950BE0DCCF90CF16D0E4
:10436000A895DFCF28EE33E015D00EE0EFCF15D0C3
:1043700006D069F30FE0FBDCEACF0FD0089503D03D
:104380000E941C2205CD0AE01AE008953FDFDDDE21
:1043900024E630E0F8DF0C940E220FD005EA1AE094
:1043A0000C94410801D008C008D099CC06D002EA8C
:1043B00019E00E942C0E93DCACCE02E71AE00C94BC
:1043C000E41300E09A9901E011E00127089500E06C
:1043D000999901E011E00127089500E0989901E022
:1043E00011E001270895109163001170012F11E071
:1043F0000127089528E839E0F801248335830895DA
:1044000048E859E0F8014483558308C0402F412B08
:1044100021F020FB16F40E94C9220895E1E3F6E0A2
:1044200040815181F8014283538320833183089571
:1044300011D02283338308950DD042815381241BF0
:10444000350B008111812017310710F001E008952C
:1044500000E00895E1E3F6E020813181F80108955C
:10446000802F912F0E948A22082F192F0C94EC2460
:1044700001E010E00C94EC240E9488234801A22E55
:10448000DA01962F82E0782E24016A2C11C002E016
:10449000400E511E611E823031F4F2016BBE079155
:1044A000F691E02F099502E0400E00E0501E601EDC
:1044B0004A165B06690659F0F2016BBE47915691A8
:1044C00010E04030504019F3823039F7ECCF8A9534
:1044D0007A94D1F6EBE00C949923BA93AA93D8017D
:1044E000ED91FC91119700811181012B21F432D0C3
:1044F000A017B10711F40E9438222CD0ED91FC9145
:10450000119700831183E0E7FDE0A083B183A991B7
:10451000B9910895BA93AA9301C009951BD0012BB4
:10452000C1F00081E091700DF12FA081B1812D913A
:104530003C91E0E7FDE020833183D8011496ED91B2
:10454000FC91D80112960D911C91202F212B29F757
:10455000E4CFDDCFE0E7FDE00081118108950FEBAE
:104560000DBF05E00EBFC0E8D2E00E94A9230023E2
:1045700011F00E94F02304E41AE020E046E45AE03F
:1045800060E00E943C220E94830E0E94CF220C9485
:104590003022202F212B11F00E94ED2408950C943D
:1045A0003022149F102D059F100D049F002D110D1A
:1045B0000895000F111F4A95E2F708951695079583
:1045C0004A95E2F70895159507954A95E2F70895FB
:1045D00000241124E0E1001F111FEA9542F0001CA5
:1045E000111C04161506B8F3041A150AF4CFA0011D
:1045F000009510950895FF27552312F4F1600FD010
:10460000112312F4F09507D00E94E822F0FD03D0A8
:10461000F1FD05C00895119501951040089551953B
:10462000419550400895000F111F221F331F4A95D6
:10463000D2F7089536952795179507954A95D2F79D
:104640000895002411241001E0E2001F111F221F11
:10465000331FEA9572F0001C111C221C331C041637
:1046600015062606370688F3041A150A260A370A9D
:10467000ECCFA001B10100951095209530950895DB
:104680004791179011FA279037900895F9DF041B8E
:1046900010E000C020E030E000C0B8F010FC17C00F
:1046A00047910790E00FF11F0417100540E0240721
:1046B000340758F436F406910024F101E01BF009A8
:1046C0000994E00FF11F27903790F101099411F43C
:1046D000D6F7F1CF31960EF0319650E060E070E001
:1046E00047914B3F48F089F34F3F29F04E3F11F07F
:1046F0007791679157914791041B150B260B370B48
:1047000039F318F3E7CFFA92EA92DA92CA92BA92A0
:10471000AA929A928A927A926A925A924A92BA93F8
:10472000AA939A938A930895FF84EE84DD84CC84BF
:10473000BB84AA84998488847F806E805D804C804D
:10474000BB81AA8199818881F0E0EC0FFD1FEF0108
:10475000089501E008957B2F0A2ED80106C0F901C3
:1047600061919F016D9341505040642F652BB9F7C3
:10477000A02DB72F0895F80103C021934150504058
:10478000342F352BD1F708959A938A93C80102C02C
:104790000E94DE238C010E94A925202F212B59F491
:1047A000E2E7FDE02081318100E02030300781F335
:1047B000F9010995EFCF8991999108950C943822C8
:1047C00020E02D9301501040E1F708953BBF269162
:1047D0002D93EF5FFF4F3F4F01501040B9F7089501
:1047E00044EF5BE460E0FA01362F3BBF079116917E
:1047F000FA01EE5FFF4F3F4F3BBFA791B691FA0121
:10480000362FEC5FFF4F3F4F3BBF0790179026902E
:10481000202D2129222921F0F001322DD7DF01C0DE
:10482000CFDF495F5F4F6F4F1CE420E042305107FC
:104830006207C8F2089504501040672B11F02C5FF6
:104840003F4FFA0109949A938A93F80189013497AA
:1048500080819181428153814095509554D0801739
:10486000910711F00E9438228C0189919991089545
:104870000E948523D80169015A01CB010B2B21F03D
:10488000088D198D012BE1F089013DD028010A2FF7
:104890000B2B69F4042D0C5F1F4FEA89FB890995E6
:1048A000D801012B09F014960A2F0B2B29F1FD01D9
:1048B00034974082518286010095109502831383BC
:1048C0008E849F8400E080169006B1F04424552425
:1048D0003D010AC09C0114D08A0D9B1D01E0400ED1
:1048E00000E0501E6A0C7B1C4C145D0428F4082F59
:1048F000092B81F705D0F2CF8D01EAE10C949623C4
:104900008301F40109940C94D122B2CFE0E008D0E5
:1049100007D001D0FACF7A936A9360E070E00895EF
:1049200041D0EA9308950E9485235801C9013A01B4
:104930006B0144245524012B81F12F3F3F4F41F45B
:104940009A010A2D80DF2801A3010E94E822C801F4
:1049500000E0C016D006B1F0A0E0B0E08C0101503C
:104960001040A301D0DF450108C08401F60109957C
:1049700011968301119501951040800E911EA81784
:10498000B90798F34E855F8500E04030500729F065
:1049900068897989920185014EDFE2E1AFCF01D0CC
:1049A000C2CFE0E000D0EA93BCCFE4E7FDE00081B5
:1049B0001181012B19F000E010E0089500E812E0E9
:1049C0000083118300E013E0E0E8F2E0008311834C
:1049D0008F0108950C943822FFCF1D01202F212B29
:1049E00009F464C002501040F80140815181443004
:1049F00020E0520708F45AC026E73DE0D90112969C
:104A0000ED91FC916E2F6F2B19F00E171F0738F4E4
:104A1000D8011296ED93FC93F90124C0FB0148D014
:104A200019F060177107D0F300801180BF01600D8D
:104A3000711D06171707D0F16017710739F480014F
:104A4000040F151F008311838F010EC031D031F088
:104A50000801040E151E6015710540F1D80112966B
:104A60006D937C9302831383F801A281B3814A2F53
:104A70004B2BE1F040815181B801640F751F6A171B
:104A80007B07A1F4F90120E020832183FD0120812F
:104A90003181F80140815181420F531F408351837E
:104AA000FD0122813381F80122833383D1010895EE
:104AB00062817381062E072A08950E948F23C80100
:104AC00004C00E5F1F4F0E94ED24E6E7FDE0A081C9
:104AD000B1810A2F0B2B69F4A8E7BDE032D011F1A8
:104AE0002BD0F0F4DF011296F9CF26D0C8F4DF0105
:104AF000129627D0D1F7E6E7FDE00081F181E02FA3
:104B000000811181A8E7BDE002C0DF0112961DD02F
:104B1000E017F10739F02081318128173907A8F310
:104B20008D0107C00E94D524202F212B51F600E0D3
:104B300010E0E4E00C94A02300811181081719070C
:104B4000089503D00E2F0F2B0895ED91FC9111972E
:104B500008950E948F23C80102960817190758F478
:104B6000843000E0900710F484E090E08C01A5DF31
:104B7000D801012B19F400E010E03BC00D911C910D
:104B80001197F80140815181FA013497E817F9072C
:104B900038F4F801228133812D933C93119714C08E
:104BA0009801280F391FFD0120833183F8016281AC
:104BB0007381F90162837383481B590BC6DF4083FD
:104BC0005183F801808391832D913C91422F432B97
:104BD00041F0F90142815381452B19F02E5F3F4F7F
:104BE00002C020E030E0E6E7FDE0208331830E5F85
:104BF0001F4F9FCF5A0720060000006000C005022B
:104C00004C00700A410A1F1CA30A720A221C2E0BB8
:104C1000A50A251C300BC009281C320BCF09281C03
:104C2000340BDE09281C360BED09281C380BFC0957
:104C30002B1C3A0B0A0A2E1C3C0B100A311C3E0B93
:104C40001C0A341C400B280A3A1C420B340A3D1C37
:104C5000440BA209401C8C0B460B431C6E0D00003C
:024C6000461CF0
:00455E015C
:00000001FF
