:100000000C948F2118951895189518951895189592
:100010001895189518951895189518951895189578
:10002000189518950C94471A1895189518951895C1
:100030001895189518951895189518951895189558
:100040001895189518951895189518951895189548
:1000500018951895189518950C9448191895189591
:100060001895189518951895189518951895189528
:1000700018951895189518950C94D4180C94C918BF
:100080000C94CE1818951895189518950000000036
:100090006E046F0486058805BE046F048A058C050E
:1000A000BF046F048E059005C0046F04920594058B
:1000B000C4046F0496059805CD046F049A059C0549
:1000C000CE04CF049E05A0051505CF04A205A40506
:1000D0002C053405A605A805B505BD050000C1C061
:1000E00081C1400101C3C003800241C201C6C006F4
:1000F000800741C70005C1C581C4400401CCC00CC4
:10010000800D41CD000FC1CF81CE400E000AC1CA83
:1001100081CB400B01C9C009800841C801D8C01873
:10012000801941D9001BC1DB81DA401A001EC1DEF3
:1001300081DF401F01DDC01D801C41DC0014C1D4E3
:1001400081D5401501D7C017801641D601D2C01203
:10015000801341D30011C1D181D0401001F0C030D3
:10016000803141F10033C1F381F240320036C1F6F3
:1001700081F7403701F5C035803441F4003CC1FCC3
:1001800081FD403D01FFC03F803E41FE01FAC03A83
:10019000803B41FB0039C1F981F840380028C1E8B3
:1001A00081E9402901EBC02B802A41EA01EEC02EF3
:1001B000802F41EF002DC1ED81EC402C01E4C024E3
:1001C000802541E50027C1E781E640260022C1E203
:1001D00081E3402301E1C021802041E001A0C06013
:1001E000806141A10063C1A381A240620066C1A6F3
:1001F00081A7406701A5C065806441A4006CC1ACC3
:1002000081AD406D01AFC06F806E41AE01AAC06A82
:10021000806B41AB0069C1A981A840680078C1B872
:1002200081B9407901BBC07B807A41BA01BEC07EF2
:10023000807F41BF007DC1BD81BC407C01B4C074E2
:10024000807541B50077C1B781B640760072C1B202
:1002500081B3407301B1C071807041B00050C19052
:10026000819140510193C053805241920196C056F2
:10027000805741970055C19581944054019CC05CC2
:10028000805D419D005FC19F819E405E005AC19A82
:10029000819B405B0199C059805841980188C048B2
:1002A00080494189004BC18B818A404A004EC18EF2
:1002B000818F404F018DC04D804C418C0044C184E2
:1002C000818540450187C047804641860182C04202
:1002D000804341830041C181818040400000000093
:1002E000000000009D089E089F089E080000000076
:1002F000000000000D099E0820099E08F70A370B30
:1003000000000000303C202D101C000D313D212C40
:10031000111D010C343E242B141E040B353F252ADD
:10032000151F050A363926291619060937382728D0
:1003300017180708FA0B9E08000000001D0C2F0C70
:10034000000000009A0C9E08B00CCA23CA23CA23DE
:10035000CA238D10901000000000BE108011901173
:100360006D119A11F01116131D13D9101413B00C3E
:100370007E118E1195119D11191320136A0300002F
:1003800000006B13F014531368139E080000000064
:10039000421571152A153F159E080E162916CA23F7
:1003A000CA23CA23CA23CA23CA2348174B174E1786
:1003B0005117541757175A175D1760176317AF1661
:1003C0002916C016C116C216C716C816B01666176B
:1003D00069176C176F17721775175A175D17601723
:1003E0006317CA162916DA16DB16DC16DD16DF16B9
:1003F000CB1678177B177E178117841787175A1724
:100400005D176017631700000000E1162916131727
:10041000141715171B171C17FB1648174B174E17E9
:100420005117541757175A175D1760176317261778
:1004300029163E1740174117431745172717481726
:100440004B174E175117541757175A175D17601748
:100450006317C217F518F51900000000A41900145D
:1004600000000107160002101F0003803100044045
:10047000B3000518F50006800F01075191010851DE
:10048000E401095137020A088A0202013000000023
:1004900000000000000000000000000000006F0AE3
:1004A000012F0873060000171B0000000000000069
:1004B000000000000000000000BEF0000102030484
:1004C00005060708090A0B0C0D0E0F101112131464
:1004D00015161718191A1B1C1D1E1F202122232454
:1004E00025262728292A2B2C2D2E2FFFFFFFFFFF43
:1004F000FFFFFFFFFFFFFFFFFFFFFFFFFFFFFFFF0C
:10050000FFFFFFFFFFFFFFFFFFFFFFFFFFFFFFFFFB
:10051000FFFFFFFFFFFFFFFFFFFFFFFFFFFFFFFFEB
:10052000FFFFFFFFFFFFFFFFFFFFFFFFFFFFFFFFDB
:10053000FFFFFFFFFFFFFFFFFFFFFFF95A0303036A
:10054000030303030303030303030303030303037B
:100550000303030303020202020202020202020276
:10056000020202020202020202020202020202026B
:100570000202020202020202020202020239413EA9
:100580003E3E3E3C3C3C3CFFFFFFFFFFFFFFFFFFCA
:10059000FFFFFFFFFFFFFF4B6F0102040810204029
:1005A00080000000000000000000000000000000CB
:1005B000000000000000000000000000000000003B
:1005C000000000000000000000000000000000002B
:1005D000000000000000000000000000000000001B
:1005E000000000000000000000000000000000000B
:1005F00000000000000000000000000000000000FB
:1006000000000000000000000000000000000000EA
:1006100000000000000000000099E8010102100045
:1006200020000000000000000000000000000000AA
:1006300000000000000000000000000000000000BA
:1006400000000000000000000000000000000000AA
:10065000000000000000000000000000000000009A
:1006600000000000000000000000000023E2010183
:10067000050000FF00000000000000000000000076
:10068000000000000000000000000000000000006A
:10069000000000000000000000000000000000005A
:1006A000000000000000000000000000000000004A
:1006B0000000000000000000000000000000007BBF
:1006C0009C0101050100FF00000000000000000087
:1006D000000000000000000000000000000000001A
:1006E000000000000000000000000000000000000A
:1006F00000000000000000000000000000000000FA
:1007000000000000000000000000000000000000E9
:100710000000FB6C0000000000000000400B000027
:1007200000000101010101010101010000000000C0
:1007300000010100000000000001010000000000B5
:1007400000010100000000000001010101010101A0
:100750000101E62001013B101310011610011910D0
:10076000011C10011F10012210012510072C10017F
:100770002910012F100132100635102A42100342B1
:1007800010014210013810FB0200A8121000FD11E8
:1007900000121312261237123C124812A4125112E0
:1007A00054126C1281128C1293129C12A412010129
:1007B0008C164316065116014716014F1604611692
:1007C000015816015F16047B16016616016D1601AD
:1007D0007216017916013C16013116013916047E94
:1007E00016018316068916FB0000872010001420CE
:1007F00087202D203A20552058205B2065206B2033
:1008000070207120762077207A207F208520940622
:10081000571A5CD000E910E007D037C021D008E9B2
:1008200010E002D000E030C0FD0101831283089582
:100830001FD009F0F3CF19C013D000EA10E022C096
:1008400017D009F0F9CF11C00BD008EA10E01AC098
:100850000FD009F0F9CF09C003D000EB10E012C0AF
:1008600029D0D7CF05D009F0F7CF00E010E00895E8
:1008700006E010E00E94A422202F212B0895F0DF33
:1008800008EB10E0D1DF01E00C938D01A991B99143
:100890000895EEDF09F0F3CFE8CFE2DF00EC10E0DF
:1008A000F1CFE6DF09F0F9CFE0CF04D0F6DF08ECB6
:1008B00010E0E8CFBA93AA93D8010895D9DF09F0E0
:1008C000F4CFD3CF03D000ED10E0DCCFF3DF0C94F6
:1008D000870805E0CEDF09F0F5CFC7CF52C07CD046
:1008E0008AD049F00A95B9F00A9501F10A9541F1CB
:1008F0000A9551F131C08FD079F175D00091E50B97
:10090000033029F0E6D018F4D9D00E94591F70D0D6
:1009100029D002E020C02AD011F021D00BC00091D4
:10092000E10B0023C9F01BD003E015C00091E20BDE
:10093000002311F004E00FC06ED021F405E00BC0DD
:100940006AD021F04BD008C011D031F00E946A1F4C
:1009500010E008D001E00C93E5E00C947F220E94A7
:10096000671F11E0FD0103810C947E1F54D011F02C
:1009700020E03AD00091E20B0023089505C004C0A6
:1009800003C06BD00C94812201D0FCCF5FD019F052
:1009900053D0A4DF55D0E3E00895F6CFF5CF1CD0B7
:1009A0002AD019F0055061F016C035D0A1F01BD047
:1009B0001FD025D001E000830E94A41F06E00AC0DA
:1009C0002AD011F00BD007C010E019D050830E943C
:1009D000A41F01E00C93C0CF0C946E2220E014966B
:1009E0008D010C94D71E21E08D010C5F1F4FF9CFB4
:1009F00069D0102F0895D8010C910A950895B2DF9F
:100A0000FD01038110E046E050E00E94B121F801B1
:100A1000E454F24F089571D005810E94401F402E8A
:100A20008D01FC016FD04026089510D019F004D03C
:100A3000B5DF06D0E3E0A6CF20E030E0082F089530
:100A4000A0FB1EF48C010E94A92108950E9470222F
:100A5000C801A22F012B089594CFF8DF21F0ECDF1D
:100A60000E949D08EDDF97CFB7DFC5DF29F00A951B
:100A7000A1F00A95D1F021C037D0F9F00091E50B33
:100A8000063029F026D018F419D00E945E1FFD010F
:100A900003810E94D61F02E00FC00091E10B0023EA
:100AA00061F00E94671F03E007C01ED031F40E946E
:100AB0006A1F0E94621B01E00C934ECF03D000938B
:100AC000E50B08958D011196ED91FC9112973496E6
:100AD00019C08091E50B8D01FD012181F281E22F8A
:100AE000349610D08017089508D004810E94461FC4
:100AF000402E8D01FC0106D096CFFD0181819281AF
:100B0000069608952591F491E22F099400E0089546
:100B100000E0089500E0089500E0089502E00895DF
:100B200000E0089502E0089501E0089503E00895CB
:100B300000E0089503E0089501E0089501E00895BC
:100B400000E0089501E0089501E0089506E00895A9
:100B500000E0089528ED30E0F8012483358320E09B
:100B600020832183228323830895402F412B21F06A
:100B700020FB16F40E94A9210895402F412B21F05B
:100B800020FB16F40E94A92108951B98139A1C9823
:100B9000149A089508EF12E002C00AE81CE00E94CF
:100BA000181A1B9A1C9A08951B981C980C943E1AAC
:100BB0006FEF7FEF40E00FC0F80151918F01562792
:100BC000E2E05E9FF001E452FF4F05901490702523
:100BD000672F712D439550E04217530768F38B013F
:100BE00008950DD0FCCF0BD03081631729F401811B
:100BF000701711F401E001C000E010E0089560E01A
:100C000070E050E0F80141918F01640F751F215091
:100C10003040C1F7089540E0F80151918F01450F30
:100C200021503040C9F70081401711F401E001C0A4
:100C300000E0E3CF9A938A930E94A00690E081E0BF
:100C40002AC000911908043099F409C000911908CC
:100C5000033019F4939581E00BC0043049F483E02C
:100C600007C001E089919991089500E0FBCF84E0ED
:100C70000E94D9070AE010E00E94E519A895082F04
:100C80000A9539F00A9511F30A9579F30A9549F313
:100C9000EFCF9B3060F7292F0CE21AE00E9480080A
:100CA0009801032BE1F2492F43950CE21AE00E94D0
:100CB0006907002331F282E0DBCF0C949B0700E050
:100CC0000093E30B0E942908002371F00E947F0724
:100CD000002351F00E94A707002311F001E00895BE
:100CE00004E00093E30B04C004E00093E30BA2DFF5
:100CF00000E0089523950C94D0060B3040F4039542
:100D000018E0019FF001E656F84F068101C000E0AF
:100D100010E00895B801022FF0DF2395422F9801CB
:100D20008B010E946907F4CF0AE118E00E94DA20E3
:100D300000E417E00C944D2122E030E00C94E62012
:100D4000BA93AA93E6E1F8E00CE21AE0FDD000E0E5
:100D5000028344E650E020E030E00AE917E00E9418
:100D60009B22AAE9B7E0FD0100E110E004831583AE
:100D700004E60683178306E60E94270AFD01008722
:100D8000118706E610E00E94270A005F1F4FFD0151
:100D90000283138300E00D930C93A991B9910895F8
:100DA0000E946C22DA952801622E2C30C8F508E0EA
:100DB000609EEAE9F7E0E00DF11D06811781012B45
:100DC00079F100851185012B59F1A681B7818085C4
:100DD000912F482F512F248135818E010E940019B7
:100DE000AC019E018E010E94900AFE01EA0FFB1FDA
:100DF000808191819D01DAD08017910771F402E022
:100E0000609EF001E250F84F80839183AD019E0116
:100E100082010E948B228D0105C004E00093E30B48
:100E200000E010E0D395E7E00C947D220E946D2253
:100E3000DA95D801C901442E4C3018F000E010E0DA
:100E40003FC0A90198018E010E948B229C018D0157
:100E50000E94D805FE01E80FF91F76D028E0429ED7
:100E6000AAE9B7E0A00DB11DFD0102871387AC010F
:100E70004E5F5F4F9E01E6E1F8E0008111810E9424
:100E8000310A2801FD0100851185012B71F41CD068
:100E9000FD010483158318D0040D151D02831383EF
:100EA000FD018683978340865186A201E6E1F8E042
:100EB00020813181FD01048115810E940E1982017A
:100EC000D395E6E00C947E22EAE9F7E002811381F3
:100ED000089550911808552349F4A8DF012B21F0FB
:100EE00001E00093190804C004E001C002E003C05F
:100EF0000093180808950093190800E00895392F09
:100F0000082E81E090E02AE08C01000F111FF8010B
:100F1000E250F84F608171813BD0028513856017E4
:100F2000710711F000E004C001962A9569F701E00D
:100F3000802D932F089518D01ED0F1F731D004D012
:100F400066968991999108950083118308950CD034
:100F500012D0F1F725D0208131812017310711F40B
:100F600001E001C000E0ECCF9A938A93669780E09D
:100F700090E02BE008950CD002891389FE01AC01AA
:100F8000440F551FE40FF51FDFDF01962A950895E2
:100F900043E08C010E94BB21F801E656F84F08950A
:100FA00026E130E003D0EAE9F7E008958E010C94E1
:100FB000D805009118080A9559F00A9561F00A952C
:100FC00079F00A95C1F00A9509F10A9521F1089581
:100FD00035D002E00FC0E19909C036D003E00AC065
:100FE00000916B08002311F004E004C021D0F9F057
:100FF00004E081DF7DCF40E024E630E00AE917E03D
:1010000015DF012BA9F31AD005E0F4CFE199EECF5B
:101010001BD006E0EFCF00916B08002311F003E036
:10102000E8CF06D021F004E066DF009318080895A9
:101030000AE118E00E94FC200023089528EC30E02B
:101040000AE118E00C94EE2020E137E2F9DF0C947D
:1010500082080E946D2274DE20E00AE917E0A0DE1B
:10106000012B21F1552450922208A6E1B8E03AC0A4
:1010700006E018C0452D9C010D911C91119729DFA8
:10108000002311F003E00EC000911908043099F418
:1010900008C000911908033011F404E003C00430C3
:1010A00051F405E0402E07C001E00BCF00E0FDCF7A
:1010B0005394442443947DDF0AE010E00E94E51934
:1010C000A895042D0A9559F00A95A1F20A9509F3FD
:1010D0000A9571F30A9551F30A9531F3ECCF0CE0C0
:1010E000501630F6252D0D911C91119759DEC8012F
:1010F000012BB9F200912208002379F202E0D2CF4D
:101100000C94701900E000936B08E39A089524EEA4
:1011100032E0F8012183328320E020830895AD017D
:10112000D801F5DF08EE12E0FD010183128300E033
:10113000038304838D01DA01089501C00895402FCF
:10114000412B21F020FB16F40E94A92108953AD0EA
:101150000B7F3DD037D00F7E3AD037D00091610061
:10116000046006D0006104D002600093610008951D
:101170000093610000916100089540E050E00FC0CD
:101180003F7E3093620030916200346030936200A1
:101190000000309162003B7F30936200439542171C
:1011A00050F4F801E40FF51F3081332330916200D1
:1011B00039F33061E6CF09D000C000C0000002D092
:1011C0000D7F05C0009162000895FCDF026000936E
:1011D00062000895BA93AA93D8010E948F0804EF81
:1011E00012E0FD01018312838D01A991B991089547
:1011F00041D0C90109D0FD018387948700E00C9399
:101200008D01E4E00C948022E5DF2ED002D00C9416
:10121000DA208D010B5F1F4F08950E947022C801D4
:10122000A22F012B51F020E030E0082F0E949F08F0
:10123000A0FB1EF48C010E94A921E3E00C94812202
:1012400019D0822F0B2B79F00FD022E030E0E1DFB4
:101250000E94E62020E030E08D01DFDF80FB1EF4FD
:101260008D010E94A921CDCF08EF12E0FD0101837D
:10127000128308950E946F22D8010895FBDF922FF8
:10128000832F0C91002329F00A9541F00A95E1F093
:1012900033C0FD0100E0058701E014C0222321F0E6
:1012A000FD01058501600587332321F0FD010585DA
:1012B00002600587FD01238534850A2FABDF0E947C
:1012C000EE2002E00C9318C00A2FA4DF0E94FC203D
:1012D000002319F000E00C9310C0FD01058599234F
:1012E00009F00160882309F002600587033000E0FF
:1012F00021F40C9301E001C000E083CF302F50E0D7
:10130000E0E0F0E028E0032F10E04E2F0E94C5211E
:101310000170502731962A95B1F7552309F401C081
:1013200002C001E0089500E00895B80130E0E0E077
:10133000F0E02CE04E2F8B010E94C021017030277D
:1013400031962A95B9F7332309F4EBCFECCF8A9382
:10135000802F007F29D0302E082F0E7825D0202E08
:10136000082F0D7621D0102F00E1809F712D08E00D
:10137000809F00E70022602D082F017024E0029F6B
:10138000602900E8309E6029712908E0209E6029CC
:10139000712902E0109F602971298B75082F04D0F4
:1013A000062B172F89910895A9CF080100E01F701F
:1013B00020D007FA10E010F9011711F058E001C031
:1013C00050E080010077187014D003FA13D0000F9A
:1013D000502B8001047616700CD001FA0BD0502BE4
:1013E00080010475157005D0102D117008D0052BE3
:1013F00008959BCF10E010F902D0000F0895011757
:1014000009F08FCF90CFB801222351F0209322080A
:101410002A9501E010E0422F0E94BB2106271727E2
:101420000895202F44E00E94C021007F122F1695BE
:10143000169516951E70012B22FB10E010F9012B5A
:1014400008951801B2DF202F8101DDDFEACF00FB14
:1014500016F40F5F1F4F980136952795020F131F43
:1014600008950E9465222397380149015A0180E0BE
:1014700090E04424552488834B2939F0A0FA2EF4B7
:101480000FEFA00EB01E01E0088389838A831AC083
:1014900091D039D0680101E0400E00E0501E8AD0A2
:1014A000008138D01D2941E0440E501ECC922DD031
:1014B00010832BD02083019609811A810E5F1F4F64
:1014C00009831A83D301A80FB91F09811A810A154C
:1014D0001B05F0F20881002389F0840C951CF401AF
:1014E00012D0480100E016D0912A8C920ED0908242
:1014F0000196680E791EF301208301968C012396D4
:10150000EEE00C947622008122CF0196F301E80FE1
:10151000F91F08951CDF20E030E04CE00C94F72127
:101520000E946322580149017A01662477244424E9
:1015300055244F2951F043E050E087010E94C82113
:10154000412919F000E010E032C0CC24DD242BC08A
:1015500031D0808190E0A0E0B0E001E0400E591E63
:1015600029D01081912F400E5A1E24D0A081400E08
:101570005B1E082F1F7065DFF501E60DF71D008368
:101580004CE08C019D010E94FE215BDF102F01E0E9
:10159000600E7B1EF501E60DF71D1083600E7B1EAD
:1015A00003E0C00EDB1ECE14DF0490F28301E0E105
:1015B0000C947422F401E40DF51D0895A991B991DC
:1015C00008950E946F22D801C9010BD0FD018583C7
:1015D000968300E0008707830C938D01E4E00C9470
:1015E00080220E948F0816D097D00C94DA203AD02F
:1015F0000B2B79F00FD022E08ED00E94E62020E065
:1016000030E08D010E949F0880FB1EF48D010E9436
:10161000A921E4CF0CEF12E0FD01018312830895AC
:101620000AD01596ED91FC910995002311F001E087
:1016300001C000E0C3CFBA93AA93D801089512D095
:10164000F8012181F281E22F32962591F491E22F67
:101650000995FD010781081700E019F40783008749
:1016600001E0BCCF0E946F22D801822F0895E3DFF2
:101670000C91002369F00A9581F00A95B1F00A9562
:10168000F9F00A9541F10A95A9F10250F9F142C029
:10169000FD010085078301E03CC042D0D9F124E67A
:1016A0003AD00E94EE2002E034C03AD0F9F03CD0AB
:1016B00089F12CED35E03CD002E0008703E029C041
:1016C0002FD0A1F031D031F128EB3BE031D003E055
:1016D000008704E01EC024D049F026D0D9F028E8C5
:1016E00033E126D004E0008705E013C0FD0100854A
:1016F00007830EC015D061F017D061F022E330E00F
:1017000017D005E00087078307E003C009D011F474
:1017100000E00C9353CF30E08D01075F1F4F089519
:101720000A2F7EDF00230895F7DF0E94FC20FACF06
:10173000F3DF0E94EE20FD010895009162000E7F0C
:1017400000936200009162000F7D009362001E987A
:101750001F98009161000160009361000091610099
:10176000006200936100169A179A0C94A708BA9326
:10177000AA93B80120E030E346E0E22FF0E0EC5F0E
:10178000FC4F049110E0E3E2F8E0E00FF11F022FBC
:1017900050E00E94B121DB01A00FB11F0C9100238A
:1017A00019F001E0008301C0508323953A9529F791
:1017B00020E403E218E00E94BD08A991B9910895C0
:1017C00015D00E948F0833D02ED00E94DA208D01D0
:1017D000A991B99108950AD0F3DF0CE313E0FD015C
:1017E0000183128390D001E00C93F1CFBA93AA93B6
:1017F000D80108950E946F22D801822F0B2B81F00F
:1018000016D022E030E00FD00E94E62020E030E049
:101810008D010E949F0880FB1EF48D010E94A9216A
:10182000E4E00C9480228D010B5F1F4F089504E3C8
:1018300013E0FD010183128308950E947022C80104
:10184000A22F012B49F020E030E0082FD3DFA0FBCE
:101850001EF48C010E94A921E3E00C948122C6DFD2
:101860000C910A9539F00A9581F00A95B9F00A951C
:1018700071F148C00E94FD1C002329F00E940B1D3D
:10188000002381F53DC000E03CC0FD010481013032
:10189000C9F539D001E00E94101D24C0FD0104816A
:1018A000013049F430D00E94041D980115968D0135
:1018B0000E94EE2027C00A2F0B5F1F4F0E94FC20C2
:1018C000002301F105E00093E30B04E01AC0FD01E1
:1018D00004810A9519F00A9569F014C014D00CE03F
:1018E0000093DA0B0E94041D98019DDF0E94EE20F8
:1018F00003E007C008D00E94101D0CE00093DA0B33
:1019000002E00C9365CF00E00483089500E00093AB
:10191000DA0B0E940C20FDCFBA93AA93D8010E9443
:101920008F0804E413E0FD01018312838D01A99166
:10193000B99108950E947022C801A22F012B51F085
:1019400020E030E0082F0E949F08A0FB1EF48C01CD
:101950000E94A921E3E00C948122F80125830895D7
:10196000F8010081002309F401C002C001E00895DC
:1019700000E008950E946F22D801C901F801618139
:10198000F281E62F369610D3A8019C018D011196A5
:10199000ED91FC913C9608D3E4E00C9480220E94E7
:1019A0006F22F801842FDB01AB0130683CD2A00F1D
:1019B000B11F8C9335D2F0CFF9D119010A0150E053
:1019C000662420E030E04A845B848C859D8502C0DB
:1019D0006394E7D0F201EFD120153105C0F4410145
:1019E00001E0200E00E0301EDB01A80DB91D0C91B6
:1019F000002329F001E010E0462D50D3502B07E0E2
:101A0000601631F75083019650E06624E2CF6620DD
:101A100011F0508301968C01EEE0C6C1B5D03DD0E7
:101A200021F0813D07E0900710F01AD106C0FD01BA
:101A3000028D138D28D018F410D145D104C039D0AF
:101A40006289738926D005D002C08C01E8E00C942D
:101A50007C2298018901E8E0089596D01ED021F0FB
:101A6000813D07E0900710F0FBD006C0FD01048D1A
:101A7000158D09D018F4F1D026D104C01AD064898C
:101A8000758907D0E0CF572D480F591F0417150748
:101A90000895AC0193018D018FCFD801C9012A01AE
:101AA000A4D071804281642E93810481802F092B00
:101AB0000895A2018BD011D043E08C010E94C02177
:101AC000402F082F077009F0439540836AD03A935E
:101AD0002A935A924A92FD010895F201E00FF11FF4
:101AE000089552D076D011F046D018F0B30143E0FB
:101AF00007C0FD01068D178D43D020F4B30142E0ED
:101B000053D00CC058D007C0BC01660F771F08D057
:101B10002CD006D03BD044155505B0F39BDF97CFB2
:101B2000FD0106891789060F171FF80108952CD0AB
:101B300050D011F020D018F0B30143E007C0FD01F0
:101B400000A111A11DD020F4B30142E02DD00CC0A2
:101B500032D007C0BC01660F771F29D006D027D02E
:101B600015D044155505B0F3D9CF0181F301E20F2B
:101B7000F31F008308950EE7401600E05006089515
:101B8000592F440D551D82CF0C946B22008109D032
:101B9000F301E20FF31F04D001964F5F5F4F0895EA
:101BA00000832F5F3F4F08958ED098010895FD0167
:101BB000008D118DB8CFA30109D0042D000FF301C2
:101BC000E20FF11FEDDF40E050E008958D01EBD111
:101BD000ECCFD801C9013A0108D091814281842F0C
:101BE00053800481402E05290895C1D1080F191F83
:101BF000F8012291F80130810895C6DFD80139013A
:101C00002A01CB015ED025D05291F80100803181AC
:101C10002281FD01628D738D2617370710F01DD0CC
:101C200014C0F8017381648160300FEF700711F404
:101C300001E003C0672B41F400E00E94F41CAC01FA
:101C4000930182013CD004C00BD0302D252F69D0E8
:101C5000FCCE8301020F131F68CFB20142E008954A
:101C6000B20143E0089590DFD8012901CA013B0188
:101C700028D08201EFDF31812281FD01468D578D11
:101C80002417350758F0BC0142E0F80130810150BB
:101C90001040F801208117D038010FC0F80153819E
:101CA0004481FD0106891789220F331FD3DF40834A
:101CB0005183A30192018C0102D08301C7CE0C9401
:101CC0008B2255D172CF8D016ACE5EDF77D098011D
:101CD000C0DF9291F80180817181628133814481FA
:101CE000242F432B21F0213B47E0340710F0B8DFCD
:101CF0000AC0FD01428D538D0B01020E131E4015CB
:101D0000510528F4AADF382F292F0BD009C0AB01C9
:101D10000A5F1F4F0E94CC1CA201382F292F52D0DE
:101D200094CED1DFC801089541D048D0C801A301A5
:101D3000400F511FFA010290FA0130811181028196
:101D400053814481242F252B21F04C3720E052076A
:101D500010F086DF0AC0FD01668D778D1801240E14
:101D6000351E6215730520F478DF202DDADF1AC0E6
:101D700060E070E011C01ED096808780FD0126884B
:101D80003788F801EE0FFF1FE20DF31D808291826C
:101D900047D002966F5F7F4F6417750760F3A2010B
:101DA000202D10D08C01EAE00C947A220C94692248
:101DB00000830196F301E80FF91F0895D801390156
:101DC0002A01D5C0EED0C80144E050E0600E711E7B
:101DD0009301040D151D73DF0496089502D1C80107
:101DE0002901DA01C4D0400E511EAD01F20130814B
:101DF0000FEF400E501EF20120818C01FC0113D028
:101E000017D023E012D020E210D027E0208308D0A2
:101E1000A00FB11F22E32C9303D0E6E00C947E22A6
:101E20000F5F1F4F0895C4D0BFC020830F5F1F4FA7
:101E3000FD0154CE0E946322D80129013A01CB0151
:101E400096D04801400E511EF201B290F201A080DE
:101E5000028110E006970817190709F04EC09ED0BE
:101E6000C8017301E00EF11EF2010381002341F06D
:101E70000A95C1F00A95E9F10A9509F463C06DC0AD
:101E8000F70100E095DF04E00083F201038191DFB8
:101E90008FDF02E08DDF00E0008375D002E0008379
:101EA000019661C0C4800CE0C01638F5D301A80DBE
:101EB000B91DCC2099F420E08D010B5F1F4F0E94CB
:101EC0007A062091B40BFD0125832091B30B268364
:101ED00020E327834FD020E0208307C02C2D1596C8
:101EE0008D010E947A0646D0C0829ADF800F911F32
:101EF0003AC0C4800CE0C01618F0B30142E02FC015
:101F00000C2D0E947D06F201E281F0E03297E0178D
:101F1000F10719F0B30143E022C02C2D05E0400E7B
:101F200000E0501E82010E948A06012B41F00E94AF
:101F30005D060DE00093DA0BB30145E010C0B3017C
:101F400047E00DC000911908033011F427D00AC0F2
:101F50000130B30119F446E002C0B30141E03A2D6B
:101F60002B2DB1DEC8018C01E0E10C94742298D0D5
:101F70003E96CBC0F70120E02083202F2E5F08D0B3
:101F8000F201238105D00196680E791EF3010895B0
:101F90000196F301E80FF91F20830895A3013A2D5C
:101FA0002B2D8D01FD0104D06591F491E62F09944C
:101FB0006181F281E62F3A96089513D0AAD0040DDC
:101FC000151D16DE00911908033019F4AC01E9DF84
:101FD00007C00130BC0111F446E001C041E073DEEE
:101FE0001CCF0C946D220E9467223801D901CA01CE
:101FF0002B0167DE8D012EDEA290F8018080BA2CC5
:10200000BB0CBB08F301058110E0A016B10621F05E
:10201000AA2011F000E03AC0082DE4E5F0E0FBBF93
:10202000F7E00C94262235D0F9DC2BC032D015DD38
:1020300028C02FD056DD25C02CD079DD22C029D074
:10204000DCDD1FC026D00FDE1CC044244A94542C73
:1020500019C01FD03ADE15C01CD0AFDF12C019D096
:1020600063DE0FC016D0BADE0CC0442455240AC06B
:1020700010D0E0DE06C0BC0141E0382D2A2D8301DE
:102080008EDC2801F301448655868201ECE00C9435
:102090007822B201AC019D01830108950C94BB210B
:1020A000F8012181F281E22F089580DE32D0400EC6
:1020B000511EF2016080FD012681F2013291231749
:1020C00021F4FD0127812615E9F048018D01FD016C
:1020D0002181F281E22F709618D0800E911E02E0CD
:1020E000800E00E0901E8815990561F467FA56F499
:1020F000F20101810C3024F4102F110F110B04C0D8
:102100000EE001C001E010E04ECE2591F491E22FE7
:102110000994D8012901CA012ACF01E010E00895ED
:1021200002E010E008950E946D22C801D9012B2B16
:1021300031F0F80143845484A587B6870EC00CE7BC
:10214000402E03E0502EDC011F96FC01A587B687C8
:10215000082F015F1F4F0E948C0C0AE513E0FC0161
:1021600003871487F20105911491FD010183128305
:102170008C01E6E00C947E2210E008950E9470220B
:10218000C801A22F092B69F0232B31F00FD0082FA3
:10219000015F1F4F0E949A0CA0FB1EF48C010E944D
:1021A000A921E3E00C948122440F551F20E030E088
:1021B0000895BDD0E3CF0E946B22C801F8012083AF
:1021C000318342835383648375830885008709853F
:1021D00006830A850783A585B6856B847C84FD010B
:1021E000668677864D845E84408A518A0F85188979
:1021F000028B138B09891A89048B158B0B891C8917
:10220000068B178B0D891E89008F118F0F89188DF2
:10221000028F138F098D1A8D048F158F0B8D1C8DD6
:10222000068F178F0D8D1E8D00A311A3FC013FD0CB
:1022300000E412E42FE030E00E94012245E00E9419
:10224000F72148EE53E060E070E00E9401220F5F4A
:102250001F4FE82F01871287FD01428D538DA6DFA6
:102260000289138929D0448D558DA0DF04891589F1
:1022700023D0468D578D98DF068917891DD040A140
:1022800051A192DF008D118D0E949B225A924A9299
:102290007A926A92FC0107810A933681208507D0E1
:1022A000008111810E94C317EFE10C947C224281CE
:1022B00053816481758108950E949B22FC010585EC
:1022C000F685E02F08950C94E4170C940718F80194
:1022D0000081118108950C942A1862D0D901CA0195
:1022E0009A018D017BD0FD01E80FF91F0083019653
:1022F000A80FB91F1C9301968C014FC018D0EDCFC9
:102300000D01E881F98120833183528343837483F3
:10231000658306E010E0D0012296089508D0F0CF42
:10232000FA012083318302E027CF01D0F9CF0F508B
:1023300010400895CCDF0C945118F9DFFBCFC7DFB4
:102340000C94581810F001E001C000E0DB01089582
:1023500010F001E001C000E0DA010895BD01ECE6F3
:10236000F8E04081518105D0401B510B42175307C3
:10237000E9CF09D00D911C910895AD0103D02D93A3
:102380003C93EACF05D0F801A585B6851A96089545
:10239000ECE6F8E0208131810895E4E00C9480229D
:1023A0000C946F220E946D22C901443000E0500756
:1023B00090F0F901E40FF51F3297B181A0814250EE
:1023C00050402A019A0109D0920107D00A171B0731
:1023D00011F401E001C000E0CCCE8C010C94D805D2
:1023E000DFDFD801F80185859685FC010081E8E8EA
:1023F000F0E0FBBFF7E00C942622F2D003E0A7C088
:10240000C3D059F0FDD024F0DFD0B9D004E004C02F
:10241000019619F4B4D002E0008328E93AE3CAD067
:1024200009F496C03BC0B0D049F0EAD014F0CCD04B
:1024300005C0019619F4A3D002E00083BED009F4D0
:1024400087C0ABD0D9D059F105E081C0FC016485CB
:10245000758540895189E5D08C010E94F30F012BCD
:1024600000916200C9F075D0C7D006E070C09BD063
:1024700092D0C2D007E06BC09BD009F469C0FD01C7
:1024800005851685F80169D082D0B6D008E05FC016
:102490006FD009F45DC066D000645CD0ADD002E0BE
:1024A00056C09ED00BE053C06FD081F0A9D04CF045
:1024B00088D024853585280F391F248735870CE07F
:1024C00004C0019619F45BD001E1008328EE33E0EB
:1024D00071D0F1F191D013C057D051F091D01CF0D0
:1024E00070D075D005C0019619F449D001E1008380
:1024F00064D071F152D080D011F00DE028C001E11C
:1025000026C0FC018CD08C010E945510012B74D088
:1025100001E10C93E9F41CC046D00091620019D08F
:102520006BD00FE014C044D099F029D016D08F01A1
:102530002ED062D000E10BC01BD051F013D000644C
:1025400009D05AD00AE003C026D056D000E00C9340
:1025500024CF0F7B00936200089544855585208920
:10256000318908958F010E944618009162000895F4
:1025700002D003A516C0ED91FC91119708951D9608
:10258000ED91FC911E970895F6DF02A50AC00E9406
:10259000BA0C0CD0A0CE0AD098CEF1DF40D08D017D
:1025A00001DF002308951AD001D08DCEE3DEE5CF00
:1025B00025E030E08D01D2DEF4CFFD0121853285AA
:1025C000F9CF0CD0FD017BCEFDDF01D007C0048523
:1025D0001585080F191F0487158708958D01CDCE25
:1025E000FDDFC8DE1C960E94E417CADF00E0048706
:1025F0000587DCDF0E94F717FD01A585B6850895E4
:10260000FC010485158540E051E0401B510B09D0C9
:10261000200F311F8D0193DEC801013089CE448522
:10262000558526853785089582DEDACE01E010E0F3
:1026300008950F5010400C94161302E010E0089516
:102640000F5010400C941D130E946F22D801822F4E
:1026500015D08C9300E003878D01E4E00C94802278
:102660008A93802F19D019F0282FEEDF02C000E0E6
:1026700010E089910895A991B9910895055F1F4FC0
:102680000E948F0802E813E0FD010187128708E825
:1026900013E00487158708950EE110E00E94A4223C
:1026A000202F212B08950E947022C801A22F092BF0
:1026B00061F020E030E0082F055F1F4F0E949F0867
:1026C000A0FB1EF48C010E94A921E3E00C9481225E
:1026D0000B501040E8CF1D01D801F9010081FD0128
:1026E000008BF90101811281FD01018B128BF9012F
:1026F00003811481FD01038B148BF901058116817F
:10270000FD0105831683F90107811085FD01058B05
:10271000168BF90100891189FD01038F148FF901CE
:1027200002851385FD01078B108FF901058516853C
:10273000478552E0459F000D111DFD01018F128F4D
:10274000F9010785085F078760897189028910E0B0
:1027500048E150E00E94B121600F711FFD01638FBD
:10276000748FF9010289085F028B038914890F5F56
:102770001F4FFD0107831087558FD101089540D168
:10278000F1D040E028E050E05B96F2D05C97E40F97
:10279000F51F3081F801E40FF51F308343952A952A
:1027A00099F728E030E00E94F1059801FD010389C6
:1027B0001489065F1F4FF801219330835396D8D0B8
:1027C000549701E800D14DE0F4D0D1D00181013817
:1027D00029F404850E3711F401E001C000E04BCF6D
:1027E0000E946F22D80150E080E028E0F801638D5C
:1027F000748D90E0FB01E80FF91F40854F3F21F0F9
:10280000CFD011F0BFD0502B83952A9599F730E0A7
:1028100080E028E0FB01E80FF91F40894F3F21F0DD
:10282000BFD011F0AFD0302B83952A9599F720E0D7
:10283000FD010381002311F0938321E00481002333
:1028400011F0948322600181002311F091832460B0
:102850000281002311F0928328600389F489E02F1C
:1028600002E40083FD0183899489029660E02224BA
:1028700078E08DD00181002309F07DD023947A95F2
:10288000C1F7FC016193CF0160E0222478E07FD0A2
:102890000081002309F06FD023947A95C1F7FC01E1
:1028A0006193519331932193CF0125E030E0FD01F5
:1028B00059D00E94F105FC01019311930EE783D0DA
:1028C0004AE077D0FD0101891289F8012181245263
:1028D00081F12E51A1F525E030E00E5F1F4F0E94DF
:1028E000F305013010405CF142D0529701850E375C
:1028F00031F5FD0100E0058F17963AD01996008357
:1029000037D05297628180E028E090E0FD0107888F
:10291000108C080E191E36D0162F1023F00119F056
:1029200001E0008301C0908383952A9579F701E047
:1029300018C0FD01058D0A3010F400E00387FD0189
:10294000058D0A3018F40395058F0AC0159610D02E
:10295000169702E00083FD01A781B08501E00C938A
:1029600000E07BCE038914890E5F1F4F08955196B6
:10297000ED91FC91089501E010E0422D0E94BB21F1
:10298000602B089501E010E0482F0C94BB21FD015D
:10299000018D128D42E0249E000D111DF801089555
:1029A000FD0105891689040F191FF8010081002314
:1029B000089550E0FD0123893489018912890E941C
:1029C000C9190C94981B0083FD0100890E94811B8A
:1029D0000AE613E001501040E9F700C00000089536
:1029E0000FD01385112319F01A9539F008C01B2F49
:1029F000C6DEFD0111E0138702C01B2FF1DE3BCEC6
:102A0000BA93AA93D801CACF0E946F22D801822F0D
:102A1000055F1F4F0E948F0800E913E0FD01018749
:102A2000128706E913E0048715878C938D01E4E093
:102A30000C9480228A93802F08E110E00E94A42247
:102A4000202F212B19F0282FDFDF02C000E010E03B
:102A5000899108950E947022C801A22F092B61F06C
:102A600020E030E0082F055F1F4F0E949F08A0FB69
:102A70001EF48C010E94A921E3E00C9481220B50EA
:102A80001040E8CFBD01D801F9010081FD01008BA4
:102A9000F90101811281FD01018B128BF901038182
:102AA0001481FD01038B148BF90105811681FD0151
:102AB00005831683F90147815085018510E0400F99
:102AC000511FFD01458B568BF9010185085E018779
:102AD00003891489FD010783108700E0078BDB0160
:102AE00008950E946F22D8015396ED91FC9154975E
:102AF00002E40083FD0100890E94811B0AE613E0C5
:102B000001501040E9F700C0000049E050E0FD012D
:102B100023893489018912890E94C9190E94981B4E
:102B2000FD0101891289F80121812234C9F527E0CC
:102B300030E00F5F1F4F0E940B060130104084F100
:102B4000FD0100E0078B1796ED91FC91189700832B
:102B5000FD012589368980E076E0FD010189128931
:102B600090E0080F191FF801028060E058E002C0F1
:102B700060FB76F001E010E0462F0E94BB21102D93
:102B80001023F90119F001E0019301C091939F0115
:102B900063955A9569F783957A95F9F601E012C025
:102BA000FD0107890A3018F40395078B0AC01596B2
:102BB000ED91FC91169701E00083FD01A781B0859E
:102BC0000C9300E034CF22D00E948F083CD037D045
:102BD0000E94DA2005E20C93FD0111C015D00EEB26
:102BE00013E003C011D002EE13E02FD005E20C93E6
:102BF00006C00AD00AE014E028D008E1F8CF038329
:102C00008D01A991B991089501D0DDCFBA93AA930E
:102C1000D8010895F9DF0EE214E0E7CFE1D00B2BE5
:102C200061F011D022E030E00AD00E94E62020E0DE
:102C300030E08D010E949F08D8D0E4E0C3C08D0130
:102C40000A5F1F4F08950AE913E0FD010183128313
:102C50000895DCDF0C91EEEAF0E0FBBFF7E00C94A6
:102C6000262271D009F458C059D0729671D00AE169
:102C700052C069D009F450C051D070964ED03496ED
:102C80006AD009E148C04DD0369665D045C05BD0CA
:102C900009F442C043D076965BD009E03CC053D0E3
:102CA000D9F13CD0749639D0389655D008E033C06D
:102CB0004AD091F133D07A964BD00FE02CC043D05C
:102CC00059F12CD0789634D00EE025C03CD021F1BB
:102CD00025D07E963DD005E11EC035D0E9F026D046
:102CE00006E119C030D0C1F019D0B09631D007E15B
:102CF00012C029D089F01AD004E10DC00FD0B296CD
:102D000017D00FE108C01FD039F023D0FD01038197
:102D100002C01FD000E00C9374CF0ED002D01297E7
:102D200008958D011196ED91FC910895F7DF7C9641
:102D300003D0F4DF3A960FC00ED098018D010A5FE0
:102D40001F4F0C94EE207BDF0E94FC20002308958F
:102D5000F3DFE4DF3C962591F491E22F099431C032
:102D60005DD039F02A9539F02A9539F02A9529F065
:102D7000089505E203C001E001C007E00083089563
:102D8000089502C002E001C001E00C94A51F08955F
:102D900002E058C016C042D049F02A9529F02A9581
:102DA00029F02A9529F0089501E001C005E2E6CF57
:102DB0000DE0FDCF0895E8CF089503E0E6CF03E0EE
:102DC00041C002D00C9480220BD0012B39F005E2D7
:102DD0000C9320E030E00A2F21DF07D0E4E00895D3
:102DE0000E946F22D801822F089580FB1EF48D016E
:102DF0000E94A921089512D049F02A9539F02A9508
:102E000039F02A9539F0235039F0089508E1B6CF0A
:102E100007E0FDCF0DE0FBCF03E1F9CFF8013081F2
:102E200033832223089501C00895009162000F7733
:102E3000009362000895F9CF00916200006800934A
:102E4000620002C00E94B21F0C94A41FBACFE6DF3A
:102E500059F02A9549F02A9549F02A9549F02350CE
:102E600049F02A9549F0089505E288CF07E0FDCFA3
:102E70000DE0FBCF03E1F9CF0EE1F7CF0C94D405C1
:102E8000FDCF0C94CA050C94CD050E94D405DCCF6F
:102E900000ED17E0089500ED17E0089500E213E05B
:102EA00008950CE211E008950CE211E008950CE29F
:102EB00011E0089506E910E0089506E910E008958C
:102EC00002EC11E0089502E310E0089500ED17E030
:102ED000089500ED17E0089500E213E008950CE274
:102EE00011E008950CE211E008950CE211E008955C
:102EF00000ED17E0089500ED17E0089500E213E0FB
:102F000008950CE211E008950CE211E008950CE23E
:102F100011E008951B2E2A2EF80102E514E005A702
:102F200016A720833183428353836483758308818A
:102F30001981068317830A811B81008711870C8101
:102F40001D81028713870E811F81048715870885DD
:102F5000068709851A850787108B0B85018BA48549
:102F6000B5850A2F0B2B31F0468563D01C91102BB1
:102F70001C9367D08F01A22DB12D2C96089500E0EF
:102F800010E00895E1C1BA93AA93D8018A019B0188
:102F900044E00E94F721A801B90167D21296ED9191
:102FA000FC9113970083FD010081F181E02F1083D4
:102FB0000091870808730660FD01A085B1850C9318
:102FC000A991B99125960895F80120E0208F218FCD
:102FD00022A723A724A708950C93A42FB32F089505
:102FE0003B2F4A2FF801A681B7812C91089509D073
:102FF000206802D00069F0CF2C93A681B7810C9194
:1030000008953B2F4A2FF801A481B581EECF9D0191
:10301000F80139D00C910F760C93D90108959D01D8
:10302000F801418906D0A785B0891C91102B1C930B
:10303000F4CF01E010E00C94BB219D01F80101D018
:10304000ECCF4189F6DF0095A785B0891C9110234C
:103050001C9308955B2F6A2FD801F801048515850C
:10306000012B11F08D01DBDF1496ED91FC9115978A
:10307000008100660083FD0106D00C9108620C936C
:10308000A62FB52F0895A681B78108955B2F6A2FCB
:10309000A9DF27792C9324853585232B09F0CDDFF3
:1030A000EFCFF801228B338B448B558B01E068CF37
:1030B0006ED0F80100E002A704A5002329F4008DDA
:1030C000118D0417150718F00FEF1FEF1BC0012B10
:1030D000C1F0F89480E090E00AC0DF01A80FB91FAA
:1030E0005A960C91D901A80FB91F0C930196008D27
:1030F000118D8017910788F310E0108F118F78944D
:1031000001C03DDFE4E00C948022AD01F801248988
:103110003589232B61F4B7DF2C912F7D2C93A4816B
:10312000B5812C91206468DF00640C930EC0A289E5
:10313000B3892D91A28BB38BA285B3852C9304897F
:10314000158901501040048B158BDA01089548DF72
:103150002F7B2C9301E003A740CF19D0F801208DDD
:10316000318D203140E0340720F021E024A722A750
:103170000DC0C9010196808F918FA285B3854C91B6
:10318000E20FF31F428FF80101E002A7BBCF0C94BE
:103190006F2288D01DD0B9DF7ED0189589D015D088
:1031A000D6DF09D07CD0189583D00A920ED0D5DF17
:1031B00002D00990F7CF6BBF5FBF09911991299198
:1031C0003991499159916991089507D05FB76BB7CB
:1031D00000916F081091700808956A935A934A936A
:1031E0003A932A931A930A930895AEC0A895E19949
:1031F000FDCFF8941FBB0EBBE09A78940DB30895F1
:10320000F80107C08901F2DF2F5F3F4F0193415062
:103210005040042F052BB1F701E00895E3E6F8E0F4
:1032200002831383208331834683578300E0048322
:1032300005830895AD01E3E6F8E024813581068138
:10324000178120173107E8F4028113811FBB0EBBE1
:10325000028113810F5F1F4F02831383E09AA081C5
:10326000B181A20FB31F0C911DB3101719F00DBB44
:10327000E29AE19A048115810F5F1F4F0483158341
:1032800006C0E39800E00FBB0EBB01E000875DCFF6
:1032900009D0D0DF81CF7BBF6FBF8FDF7991E991FC
:1032A000F991089505D07A9398DF6FB77BB70895A9
:1032B000FA93EA930895792F282E022E80E090E069
:1032C00008C0FA017FD06BBF2691F8017BD0208324
:1032D000019680159307A8F301E0822D972F08959A
:1032E0000E946D22C80104E0209FAEE5B4E0A00D6D
:1032F000B11D25D02E5F3F4F4AE854E060E0FD014C
:10330000329605911491400F511F8C01D4DF17D0D4
:10331000FC01E20FF31F408051808C010E94D80510
:103320004016510621F4FD013196049104C004E0D9
:103330000093E30B00E010E0E6E00C947E22FD0138
:103340003196249130E00895402F412B21F020FB4D
:1033500016F40E94A921089503E10DB907B3066090
:1033600007BB08B3066008BB08956E9A08956E986F
:1033700008950FB908EC01C00A95779904C0A89583
:103380000023D1F704C009EE0A95F1F700000FB150
:103390000895792F082E602F413400E0500780F403
:1033A00080E090E009C0F9010DD00081E2DFE62F56
:1033B000F12F08D00083019684179507A0F301E050
:1033C000802D8CCFE80FF91F089507C025ED36E05A
:1033D00021503040E9F700C0000002D0B9F708954D
:1033E000980101501040232B0895AECF02E703BD92
:1033F0000BE005BD07B7006807BF0895F7DF009130
:103400006100006800936100009161000064009316
:10341000610000916200006400936200A298A1988C
:10342000A098009164000E7F009364007894089542
:10343000A80160E070E0440F551F661F16D0980188
:10344000220F331F30938100209380001093870058
:1034500000938600109385000093840002EE009391
:103460008B0009E100938A00089500E010E820E74E
:1034700030E00E94012201501040089500918B001D
:103480000D7100938B0000918A00067EEBCF10DF58
:10349000A8DE2FB7ECE6F8E0008111810F5F1F4F27
:1034A000008311832FBF0991199129917BCE07E0E9
:1034B0000A9305E310E0F7D007E00A9304E3F3D0A2
:1034C0000CE9F1D00DE9EFD00AE9EDD06BE970E03D
:1034D00049E950E028E930E002E81CE00E948A1740
:1034E00006E417E063D088D103EB1CE00E94931040
:1034F0000CE417E05BD021EC30E209EE1BE058D081
:1035000002E517E053D027EC30E208EF1BE050D083
:1035100008E517E04BD02DEC30E207E01CE048D086
:103520000EE517E043D023ED30E206E11CE040D089
:1035300004E617E03BD024EF31E005E21CE00E94F6
:10354000F8080AE617E032D024E630E007D60E94F9
:10355000E02000E717E02AD009E31CE00E94EE1506
:1035600006E717E023D005E41CE00E94F2150CE703
:1035700017E01CD001E51CE00E94F91502E817E0F5
:1035800015D00DE51CE00E940A1608E817E00ED0E1
:1035900005EB1BE00E94EB0B0EE817E007D06AEA90
:1035A00075E02ED00E94662304E917E00C944D21AB
:1035B0000C94E10A14D00C94C21711D00C94BE10D4
:1035C0000ED00C94F70A0BD00C94200908D00C9460
:1035D000E62005D00C94AF1602D00C94CA1622E057
:1035E00030E00895FCDF0C94E116F9DF0C94261707
:1035F000F6DF0C941D0C67E07BE102D00C94AF2346
:1036000046E050E020E330E00CEB1DE00895E7DFFA
:103610000C94B505BA93AA9302E81CE0EFE6F8E033
:103620000083118308E010E041D008E73FD004EAAE
:1036300018E039D004E918E036D004EB18E036D0B1
:103640000CE219E033D001E00A9308E00A930EE49B
:103650000A934091860850E04F5F5F4F652F660FD9
:10366000660B762F00E010E820E730E00E94012290
:1036700044E00E94FE21A801B90122E83CE003EBEE
:103680001CE00E94DB1020918508E3EBFCE005853F
:1036900016850E94AD0CA0ECBCE076D102E0008360
:1036A000A991B99108951A930A9308951A930A93C8
:1036B000FACFE1E7F8E001E0048B0FE2058B08E0C8
:1036C000068BA8CF4BD4022F84D458D4E1F752C430
:1036D0009BDF0E949D0B9FD300E001AF02AF07ABC1
:1036E00042E089D007EE1BE002D1ECCF8F9A8E9A90
:1036F0008D9A8C9A899A979A969A959A949A919873
:10370000089500FB16F4979801C0979A01FB16F4F0
:10371000969801C0969A02FB16F4959801C0959A66
:1037200003FB16F4949801C0949A919A0C94B519DD
:103730000E94B7199198979896989598949808959B
:103740000E946E2204EF11E00E94E519A89549E05D
:1037500052D00CEA1BE0CBD080E090E1ACEABBE0B9
:1037600005E0402EA89505E010E00E94E51901E96A
:1037700000936C0B082FB2D044E0BBD000912D0B0E
:103780000139F1F42CDF0DE21BE00E940B06012B46
:10379000B9F000912E0B1091AC0B22E0129FFD01AD
:1037A000E00DF11D01830091AC0B029FFD01E00DC6
:1037B000F11D82830C9103950C93033018F018C00F
:1037C0004A9481F683959A9559F60091740800FF02
:1037D0000FC0009171081091B40B011731F40091E2
:1037E00072081091B30B011719F003E00093E30B7B
:1037F000E5E00C947F2250E020E0F2CE2CE23BE0AA
:10380000F801218332832CE63BE02383348323EECB
:103810003BE02583368320E0218724EC38E02783B2
:10382000308720E0248724E239E02287338720E0B4
:1038300027872AEC3BE02587368720E0228B29E684
:103840003CE0208B318B20E0258B27EE3BE0238B67
:10385000348B08950E946E2266978E01CFDF442438
:103860000BC01091B30B112331F40E94301324D0FC
:1038700007810395078343940091AC0B4016D0F465
:10388000A89502E0409E83D0FD010181102F1A957A
:1038900029F0125031F31A9521F3EDCF0091B40BBA
:1038A000023048F701E00E941A1506D00085039502
:1038B0000087E1CF66969CCF402FFD01048B158BCE
:1038C000028108839E01042FE42FF12F4185F285A8
:1038D000E42F4591F491E42F09959DC212DF0AE689
:1038E00013E001501040E9F700C0000008950C9467
:1038F0009B2250E02CE63BE00CE21BE00E94C91941
:1039000017CF2CD2B8011A01A0E0B0E04DD210C000
:1039100000E0FB01E80FF91F0083119648E050E03A
:103920008D010E94DB2143E074D2A01BB10B0196F4
:103930008215930570F448E050E08C010E94DB2171
:10394000F901E00FF11F50814A2F6DD209F301E018
:10395000E0CFE4E00C94802279D005C08BD014969F
:1039600011E01C93039574D0C8F3D90108956ED06B
:1039700004C006D011E0138303956AD0D0F36CC065
:1039800012E0019F04D05496ED91FC910895ACEAA9
:10399000BBE0A00DB11D0895BA01472B41F4F80119
:1039A0000081002301F1AFD003AB05ABE0CF613064
:1039B00040E0540741F4F80100810023A1F0A3D0B6
:1039C00004AB06ABC9CFE62FF52FE054F040F097DB
:1039D00050F4A901980104EB18E0060F171F91DFBE
:1039E00001E00093B90B089521970883A90121E014
:1039F00030E08E01D1DF21960895009176080023F2
:103A000009F082C000E008950091760810E048EEC9
:103A100053E00C94B12100918C0800FD75C0F2CFE9
:103A2000E1E7F8E000FB038D00F9038F2AE00CE8E2
:103A300018E00E948A060C945D0608D004C0A0DF3E
:103A400011E01183039504D0D0F306C09D01DACFB5
:103A50001091AC0B0117089502E00093B90B85CFCC
:103A6000F5DF05C007D0129611E01C930395F0DF37
:103A7000C8F37BCF12E0019FF001E455F44FA48915
:103A8000B58908958A9322E048D0002319F03BD0ED
:103A900007A73CD022E008EF1BE041D0002321F033
:103AA00032D000AB2ED034D022E034D0002311F03D
:103AB00024D02ED022E035D019F025D001AB26D06D
:103AC00023E02FD021F01FD002AB1BD021D024E067
:103AD00028D011F012D01CD025E01CD0802F25E07A
:103AE0001CD0202F382F05E21CE00E943E09002345
:103AF00011F0DFDD0DD08991089506E00093DA0B17
:103B0000089506ABADCF87D101E0089505AB95DFF1
:103B100027E00EC307E01CE002C009EE1BE00C9496
:103B20001F0B06E11CE0FBDF0023089574D100E0C9
:103B300007A701AB03AB00AB02AB04AB0895BA938C
:103B4000AA9386DF58F412E0019F10D1A489B589A9
:103B50008D01199619DF8FD100E001C001E0A0CDE1
:103B6000FDD0ACE2BAE040E646DE0CE219E0BFDE92
:103B700020E0F2D044E150E09D0101E718E0E5D0FB
:103B800021E0EAD047E050E09D0105E818E0DDD0F3
:103B900025E0E2D048E150E09D0109E61CE0D5D0E7
:103BA00022E0DAD020E06D9150E038E010E0ECE265
:103BB000F9E0E20FF11F062F452F0E94C521017089
:103BC00011F000E801C000E00083239553953A9579
:103BD00069F7203340F3BBD020E000E6E22FF0E0AD
:103BE000E45DF54F10811F77E22FF0E0E45DF64FC2
:103BF0003081312B308323950A9581F724E0A8D0BA
:103C000020E010E630E0ECE2F9E0E20FF31F308153
:103C1000032F0F770033307830F4B0E0045DA02F2D
:103C2000B54F0C91302B308323951A9559F780E0CE
:103C300090E602E0809FACEFBCE0A00DB11D10E06B
:103C4000ECE2F9E0E80FF11F0081037011F10A9531
:103C500029F00A9561F00A9599F01BC0008107FFD1
:103C600003C00E945E0417C00E94510414C000816A
:103C700007FF03C00E9428040EC00E9420040BC04E
:103C8000008107FF03C00E94490405C00E9432045E
:103C900002C00E9418040D931C9383959A9549F6CF
:103CA00056D040E020E666D011815AD03033F8017A
:103CB00010F4338302C000E0038343952A9599F7FB
:103CC00026E046D040E020E64BD054D0F181E02FF2
:103CD000348343952A95C1F710E000E322E0129F58
:103CE0004ED0A081B18115961C9313950A95B9F712
:103CF00010E000E332E0212F205D139FF001E45A31
:103D0000F24FA081B18115962C9313950A9599F7DE
:103D10002AE01ED048E050E02CE23AE00CE818E03F
:103D200014D090E082E00E94690422E0929F1ED0AD
:103D3000028F138FD80113969C93028DF38DE02F81
:103D4000948393958A9579F704CE0C948B2223E083
:103D50000CE21AE00C947A068D01FCCF0C946F22D1
:103D6000F0E0E42FE45DF54F3081089554D0E00D8C
:103D7000F11D089502E0409F02D000810895F001F6
:103D8000E450F34F0895AC010FD008E010E09C011F
:103D9000220F331F40D0E20FF31F168F178F0196AB
:103DA0000A95A9F7CA01089580E090E00895D6DF4A
:103DB000B8012223A0E0B0E031E089F4F5DF28E08B
:103DC0002DD031F01ED0F801E455F44F01E0078FFB
:103DD00001962A95A9F711963A9591F0EFCFE4DF75
:103DE00028E01CD039F00DD016D0E00FF11F01E013
:103DF000068F078F01962A95A1F711963A9579F7C4
:103E0000A8CD43E08D0105D0080F191F000F111F29
:103E100008950C94BB21ECEAFBE00895FB01EA0F46
:103E2000FB1F5081482F01E010E0F3DF502308957D
:103E30009A938A9390E080E602E0909FA0DF208131
:103E4000318110D0C9F78991999108959A938A93F5
:103E500090E082E002E0909F89DF228D338D02D0D6
:103E6000C9F7F1CF8901F9012181F281E22F03D055
:103E700093958A95089532962591F491E22F0994AD
:103E8000F0E0E02FEC54F74F0089089502D003AD25
:103E90000895F0E0E02FE455F44F08958A93802FC1
:103EA000202F4ED1282F48D1282FADD0282F40D1F8
:103EB00022CE09D011F002AF0CD0089504D011F039
:103EC00002AF2FD10895A7DF01AD12ADC3CD01E040
:103ED00003D0E4CF00E0FCCF0093E50B0093E60BAA
:103EE000089509E31CE008D005E41CE005D001E5D5
:103EF0001CE002D00DE51CE00C942916212F10E0E7
:103F000046E052D0F801E454F24F2283089526D0BF
:103F100043D0028103830081018330D0C9F7089523
:103F20000091E50BD6DF1AD037D0038102830181DF
:103F300024D0D1F7089527DF7BDF88DF00E00093EE
:103F4000E10B0093E20B089515C007D01AD011F4CD
:103F500001E0008313D0D1F70DC0602F20E030E3E3
:103F600046E00895FADF0DD011F0002309F45083E4
:103F700005D0C9F749DB0C94B70B008323953A951C
:103F800008950AD0028106170895E7DF05D06283FD
:103F900001E0F3DFD9F7EECF022F10E005D0ECEB14
:103FA000FDE0E00FF11F089550E033CDD6DFE22FA2
:103FB000F0E0EE5DF84F0491002321F0EDDF01E029
:103FC00002830083DBDF99F7603310F4062F01D002
:103FD000D1CFE3DF528350830895C3D01CD0A8957E
:103FE0000895B2D04FDD17DF07A5002331F401A9F2
:103FF000002319F403A9002321F020E004D020E0DD
:1040000097D06FDFEBCF01E51CE00C94FB16B2D02C
:1040100002D07ED0E4CF8ACD0091DA0BE8EEF0E05A
:10402000FBBFF7E00C942622A89501B5086101BDFD
:1040300001B5076001BD0E94FE194ADB0E94C5055B
:104040000E945F06002369F18BDDE4DA0E94AC195F
:104050004DDB76DBFFDB5CDD2CC083D079D009F44F
:1040600056C07CD00E94F820A89500E00093E40B95
:1040700003E018C07FD04CD00091E40B60DD00233A
:1040800019F004E03BDD04C0C6DE00AD039500AFCF
:104090000091E30B035029F00A9519F00A9519F0E5
:1040A000089508E02BCD0AE0FDCF45DF05E0FACF0B
:1040B000B2DF02E0F7CF2BDF02E00BDF02E065DFCB
:1040C00028E833E154D007E009C044D019F04BD0C0
:1040D00002E014DD82CFEDDA1DD009E00FDD7FCFE5
:1040E00080CF15DF17D0A8950BE0DCCF90CF3BD069
:1040F000A895DFCF28EE33E03AD00EE0EFCF24D002
:1041000027D069F30FE0FADCEACF1ED001D0089582
:104110000C94D9070091E30B0A9548DF00E0009367
:10412000E30B21E00DD021E007D026E06CDF26E094
:104130000DE51CE00C94271705E41CE00C94CB164D
:1041400009E31CE00C94B01603EB1CE00C94F01196
:104150000E94D90703D00E94FC20E6CC03E31CE0B8
:104160000895F2DF0CC0AEDADBDE24E630E0F6DFE5
:104170000C94EE20E9DF05EB1BE00E942F0C82DCA3
:10418000B0CE00E09A9901E011E00127089500E027
:10419000999901E011E00127089500E0989901E064
:1041A00011E001270895109163001170012F11E0B3
:1041B0000127089522E537E0F80124833583089527
:1041C00042E557E0F8014483558308C0402F412B56
:1041D00021F020FB16F40E94A9210895ECE6F8E0F6
:1041E00040815181F80142835383208331830895B4
:1041F00011D02283338308950DD042815381241B33
:10420000350B008111812017310710F001E008956E
:1042100000E00895ECE6F8E020813181F80108958E
:10422000802F912F0E946A21082F192F0C94CC23E4
:1042300001E010E00C94CC230E9468224801A22ED9
:10424000DA01962F82E0782E24016A2C11C002E058
:10425000400E511E611E823031F4F2016BBE079197
:10426000F691E02F099502E0400E00E0501E601E1E
:104270004A165B06690659F0F2016BBE47915691EA
:1042800010E04030504019F3823039F7ECCF8A9576
:104290007A94D1F6EBE00C947922BA93AA93D801E0
:1042A000ED91FC91119700811181012B21F432D005
:1042B000A017B10711F40E9418212CD0ED91FC91A8
:1042C000119700831183EEEDFEE0A083B183A991E5
:1042D000B9910895BA93AA9301C009951BD0012BF7
:1042E000C1F00081E091DE0EF12FA081B1812D910E
:1042F0003C91EEEDFEE020833183D8011496ED91E0
:10430000FC91D80112960D911C91202F212B29F799
:10431000E4CFDDCFEEEDFEE00081118108950FE3E3
:104320000DBF07E00EBFC0E0D3E00E94892200234A
:1043300011F00E94D0220EE018E020E042E158E0A7
:1043400060E00E941C210E94860C0E94AF210C9408
:104350001021202F212B11F00E94CD2308950C94C1
:104360001021149F102D059F100D049F002D110D7D
:104370000895000F111F4A95E2F7089516950795C5
:104380004A95E2F70895159507954A95E2F708953D
:1043900000241124E0E1001F111FEA9542F0001CE7
:1043A000111C04161506B8F3041A150AF4CFA0015F
:1043B000009510950895FF27552312F4F1600FD052
:1043C000112312F4F09507D00E94C821F0FD03D00C
:1043D000F1FD05C00895119501951040089551957E
:1043E000419550400895000F111F221F331F4A9519
:1043F000D2F7089536952795179507954A95D2F7E0
:104400000895002411241001E0E2001F111F221F53
:10441000331FEA9572F0001C111C221C331C041679
:1044200015062606370688F3041A150A260A370ADF
:10443000ECCFA001B101009510952095309508951D
:104440004791179011FA279037900895F9DF041BD0
:1044500010E000C020E030E000C0B8F010FC17C051
:1044600047910790E00FF11F0417100540E0240763
:10447000340758F436F406910024F101E01BF009EA
:104480000994E00FF11F27903790F101099411F47E
:10449000D6F7F1CF31960EF0319650E060E070E043
:1044A00047914B3F48F089F34F3F29F04E3F11F0C1
:1044B0007791679157914791041B150B260B370B8A
:1044C00039F318F3E7CFFA92EA92DA92CA92BA92E3
:1044D000AA929A928A927A926A925A924A92BA933B
:1044E000AA939A938A930895FF84EE84DD84CC8402
:1044F000BB84AA84998488847F806E805D804C8090
:10450000BB81AA8199818881F0E0EC0FFD1FEF014A
:10451000089501E008957B2F0A2ED80106C0F90105
:1045200061919F016D9341505040642F652BB9F705
:10453000A02DB72F0895F80103C02193415050409A
:10454000342F352BD1F708959A938A93C80102C06E
:104550000E94BE228C010E948924202F212B59F415
:10456000E0EEFEE02081318100E02030300781F371
:10457000F9010995EFCF8991999108950C9418212B
:1045800020E02D9301501040E1F708953BBF2691A4
:104590002D93EF5FFF4F3F4F01501040B9F7089543
:1045A00044EB59E460E0FA01362F3BBF07911691C6
:1045B000FA01EE5FFF4F3F4F3BBFA791B691FA0163
:1045C000362FEC5FFF4F3F4F3BBF07901790269071
:1045D000202D2129222921F0F001322DD7DF01C021
:1045E000CFDF495F5F4F6F4F19E420E0423C510736
:1045F0006207C8F2089504501040672B11F02C5F39
:104600003F4FFA0109949A938A93F80189013497EC
:1046100080819181428153814095509554D080177B
:10462000910711F00E9418218C01899199910895A8
:104630000E946522D80169015A01CB010B2B21F0A0
:10464000088D198D012BE1F089013DD028010A2F39
:104650000B2B69F4042D0C5F1F4FEA89FB89099528
:10466000D801012B09F014960A2F0B2B29F1FD011B
:1046700034974082518286010095109502831383FE
:104680008E849F8400E080169006B1F04424552467
:104690003D010AC09C0114D08A0D9B1D01E0400E13
:1046A00000E0501E6A0C7B1C4C145D0428F4082F9B
:1046B000092B81F705D0F2CF8D01EAE10C94762227
:1046C0008301F40109940C94B121B2CFE0E008D049
:1046D00007D001D0FACF7A936A9360E070E0089532
:1046E00041D0EA9308950E9465225801C9013A0118
:1046F0006B0144245524012B81F12F3F3F4F41F49E
:104700009A010A2D80DF2801A3010E94C821C80157
:1047100000E0C016D006B1F0A0E0B0E08C0101507E
:104720001040A301D0DF450108C08401F6010995BE
:1047300011968301119501951040800E911EA817C6
:10474000B90798F34E855F8500E04030500729F0A7
:1047500068897989920185014EDFE2E1AFCF01D00E
:10476000C2CFE0E000D0EA93BCCFE2EEFEE00081F1
:104770001181012B19F000E010E0089500E013E032
:104780000083118300E014E0E0E0F3E00083118394
:104790008F0108950C941821FFCF1D01202F212B8C
:1047A00009F464C002501040F80140815181443046
:1047B00020E0520708F45AC024EE3EE0D9011296D8
:1047C000ED91FC916E2F6F2B19F00E171F0738F427
:1047D000D8011296ED93FC93F90124C0FB0148D057
:1047E00019F060177107D0F300801180BF01600DD0
:1047F000711D06171707D0F16017710739F4800192
:10480000040F151F008311838F010EC031D031F0CA
:104810000801040E151E6015710540F1D8011296AD
:104820006D937C9302831383F801A281B3814A2F95
:104830004B2BE1F040815181B801640F751F6A175D
:104840007B07A1F4F90120E020832183FD01208171
:104850003181F80140815181420F531F40835183C0
:10486000FD0122813381F80122833383D101089530
:1048700062817381062E072A08950E946F22C80163
:1048800004C00E5F1F4F0E94CD23E4EEFEE0A08126
:10489000B1810A2F0B2B69F4A6EEBEE032D011F1E4
:1048A0002BD0F0F4DF011296F9CF26D0C8F4DF0147
:1048B000129627D0D1F7E4EEFEE00081F181E02FDF
:1048C00000811181A6EEBEE002C0DF0112961DD06C
:1048D000E017F10739F02081318128173907A8F353
:1048E0008D0107C00E94B523202F212B51F600E037
:1048F00010E0E4E00C948022008111810817190770
:10490000089503D00E2F0F2B0895ED91FC91119770
:1049100008950E946F22C80102960817190758F4DB
:10492000843000E0900710F484E090E08C01A5DF73
:10493000D801012B19F400E010E03BC00D911C914F
:104940001197F80140815181FA013497E817F9076E
:1049500038F4F801228133812D933C93119714C0D0
:104960009801280F391FFD0120833183F8016281EE
:104970007381F90162837383481B590BC6DF40833F
:104980005183F801808391832D913C91422F432BD9
:1049900041F0F90142815381452B19F02E5F3F4FC1
:1049A00002C020E030E0E4EEFEE0208331830E5FC1
:1049B0001F4F9FCF4E079A070000005A004007C2C2
:1049C000490020081A089C06B10C820CDA1AE40C83
:1049D000B30CDD1AE60CE90BE01AE80CF80BE01A50
:1049E000EA0C070CE01AEC0C160CE01AEE0C250C85
:1049F000E31AF00C330CE61AF20C390CE91AF40C39
:104A0000450CEC1AF60C510CF21AF80C5D0CF51A68
:0C4A1000FA0CB50BF81ADC0E0000FB1AC3
:00431E019E
:00000001FF
