:100000000C944921189518951895189518951895D8
:100010001895189518951895189518951895189578
:10002000189518950C94181A1895189518951895F0
:100030001895189518951895189518951895189558
:100040001895189518951895189518951895189548
:1000500018951895189518950C94191918951895C0
:100060001895189518951895189518951895189528
:1000700018951895189518950C94A5180C949A181D
:100080000C949F1818951895189518950000000065
:100090006D046E047C057E05AE046E048005820549
:1000A000AF046E0484058605B0046E0488058A05D5
:1000B000B4046E048C058E05BD046E049005920593
:1000C000BE04BF04940596050C05BF0498059A0567
:1000D00023052B059C059E05AB05B3050000C1C09B
:1000E00081C1400101C3C003800241C201C6C006F4
:1000F000800741C70005C1C581C4400401CCC00CC4
:10010000800D41CD000FC1CF81CE400E000AC1CA83
:1001100081CB400B01C9C009800841C801D8C01873
:10012000801941D9001BC1DB81DA401A001EC1DEF3
:1001300081DF401F01DDC01D801C41DC0014C1D4E3
:1001400081D5401501D7C017801641D601D2C01203
:10015000801341D30011C1D181D0401001F0C030D3
:10016000803141F10033C1F381F240320036C1F6F3
:1001700081F7403701F5C035803441F4003CC1FCC3
:1001800081FD403D01FFC03F803E41FE01FAC03A83
:10019000803B41FB0039C1F981F840380028C1E8B3
:1001A00081E9402901EBC02B802A41EA01EEC02EF3
:1001B000802F41EF002DC1ED81EC402C01E4C024E3
:1001C000802541E50027C1E781E640260022C1E203
:1001D00081E3402301E1C021802041E001A0C06013
:1001E000806141A10063C1A381A240620066C1A6F3
:1001F00081A7406701A5C065806441A4006CC1ACC3
:1002000081AD406D01AFC06F806E41AE01AAC06A82
:10021000806B41AB0069C1A981A840680078C1B872
:1002200081B9407901BBC07B807A41BA01BEC07EF2
:10023000807F41BF007DC1BD81BC407C01B4C074E2
:10024000807541B50077C1B781B640760072C1B202
:1002500081B3407301B1C071807041B00050C19052
:10026000819140510193C053805241920196C056F2
:10027000805741970055C19581944054019CC05CC2
:10028000805D419D005FC19F819E405E005AC19A82
:10029000819B405B0199C059805841980188C048B2
:1002A00080494189004BC18B818A404A004EC18EF2
:1002B000818F404F018DC04D804C418C0044C184E2
:1002C000818540450187C047804641860182C04202
:1002D000804341830041C181818040400000000093
:1002E000000000008B088C088D088C0800000000BE
:1002F00000000000FE088C0809098C08DE0A160BB5
:1003000000000000303C202D101C000D313D212C40
:10031000111D010C343E242B141E040B353F252ADD
:10032000151F050A363926291619060937382728D0
:1003300017180708E60B8C0800000000F10B050CED
:1003400000000000720C8C08880C84238423842312
:100350008423651068100000000096105811681181
:1003600045117211C811EE12F512B110EC12880C81
:10037000561166116D117511F112F8126A03000021
:1003800000004313C3142B1340138C08000000001B
:1003900015154415FD1412158C08E715FA1584235C
:1003A0008423842384238423842319171C171F1771
:1003B0002217251728172B172E17311734178816D1
:1003C000FA1599169A169B16A016A11689163717B4
:1003D0003A173D174017431746172B172E1731179B
:1003E0003417A416FA15B416B516B616B716B916FC
:1003F000A51649174C174F175217551758172B1793
:100400002E173117341700000000BB16FA15E91635
:10041000EA16EB16F116F216D11619171C171F174C
:100420002217251728172B172E1731173417F916EF
:10043000FA1511171317141716171817FA16191794
:100440001C171F172217251728172B172E173117C0
:1004500034179317C618C619000000007519001448
:1004600000000107160002101F0003803100044045
:10047000B3000518F50006800F01075191010851DE
:10048000E401095137020A088A0202013000000023
:1004900000000000000000000000000000006F0AE3
:1004A000012F0873060000171B0000000000000069
:1004B000000000000000000000BEF0000102030484
:1004C00005060708090A0B0C0D0E0F101112131464
:1004D00015161718191A1B1C1D1E1F202122232454
:1004E00025262728292A2B2C2D2E2FFFFFFFFFFF43
:1004F000FFFFFFFFFFFFFFFFFFFFFFFFFFFFFFFF0C
:10050000FFFFFFFFFFFFFFFFFFFFFFFFFFFFFFFFFB
:10051000FFFFFFFFFFFFFFFFFFFFFFFFFFFFFFFFEB
:10052000FFFFFFFFFFFFFFFFFFFFFFFFFFFFFFFFDB
:10053000FFFFFFFFFFFFFFFFFFFFFFF95A0303036A
:10054000030303030303030303030303030303037B
:100550000303030303020202020202020202020276
:10056000020202020202020202020202020202026B
:100570000202020202020202020202020239413EA9
:100580003E3E3E3C3C3C3CFFFFFFFFFFFFFFFFFFCA
:10059000FFFFFFFFFFFFFF4B6F0102040810204029
:1005A00080000000000000000000000000000000CB
:1005B000000000000000000000000000000000003B
:1005C000000000000000000000000000000000002B
:1005D000000000000000000000000000000000001B
:1005E000000000000000000000000000000000000B
:1005F00000000000000000000000000000000000FB
:1006000000000000000000000000000000000000EA
:1006100000000000000000000099E8010102100045
:1006200020000000000000000000000000000000AA
:1006300000000000000000000000000000000000BA
:1006400000000000000000000000000000000000AA
:10065000000000000000000000000000000000009A
:1006600000000000000000000000000023E2010183
:10067000050000FF00000000000000000000000076
:10068000000000000000000000000000000000006A
:10069000000000000000000000000000000000005A
:1006A000000000000000000000000000000000004A
:1006B0000000000000000000000000000000007BBF
:1006C0009C0101050100FF00000000000000000087
:1006D000000000000000000000000000000000001A
:1006E000000000000000000000000000000000000A
:1006F00000000000000000000000000000000000FA
:1007000000000000000000000000000000000000E9
:100710000000FB6C0000000000000000400B000027
:1007200000000101010101010101010000000000C0
:1007300000010100000000000001010000000000B5
:1007400000010100000000000001010101010101A0
:10075000010101011310EB0F01EE0F01F10F01F484
:100760000F01F70F01FA0F01FD0F0704100101102F
:10077000010710010A10060D102A1A10031A1001A1
:100780001A10011010FB020080121000D511D811B0
:10079000EB11FE110F12141220127C1229122C12CE
:1007A0004412591264126B1274127C1201015E160B
:1007B0001416062316011916012116043316012AF0
:1007C00016013116044D16013816013F1601441664
:1007D000014B16010D16010216010A1604501601EE
:1007E0005516065B16FB000053201000E01F532037
:1007F000F91F0620212024202720312037203C20EB
:100800003D204220432046204B2051208A06281AB2
:100810005CD000E910E007D037C021D008E910E033
:1008200002D000E030C0FD010183128308951FD083
:1008300009F0F3CF19C013D000EA10E022C017D09E
:1008400009F0F9CF11C00BD008EA10E01AC00FD0A0
:1008500009F0F9CF09C003D000EB10E012C029D095
:10086000D7CF05D009F0F7CF00E010E0089506E0FB
:1008700010E00E945E22202F212B0895F0DF08EB6C
:1008800010E0D1DF01E00C938D01A991B991089599
:10089000EEDF09F0F3CFE8CFE2DF00EC10E0F1CFBC
:1008A000E6DF09F0F9CFE0CF04D0F6DF08EC10E086
:1008B000E8CFBA93AA93D8010895D9DF09F0F4CF0D
:1008C000D3CF03D000ED10E0DCCFF3DF0C9475083C
:1008D00005E0CEDF09F0F5CFC7CF43C065D081D0AA
:1008E00049F00A9579F00A95E1F00A9521F10A9507
:1008F00031F129C087D039F15ED009F076D065D0CA
:1009000002E020C023D021F0E2D011E060D00DC081
:100910000091C10C0023B9F0DAD011E058D003E007
:1009200011C00091C20C002311F004E00BC06AD08A
:1009300021F405E007C066D021F038D004C006D00D
:1009400011F049D00C93E5E00C9439225BD011F002
:1009500020E037D00091C20C0023089505C004C0E8
:1009600003C072D00C943B2201D0FCCF66D019F0AA
:100970005AD0B3DF5CD0E3E00895F6CFF5CF14D0C2
:1009800030D019F0055049F00EC03CD061F013D0C2
:1009900009F02BD01AD006E005C034D011F006D0F3
:1009A00002C019D00C93CFCF0C94282220E01496CB
:1009B0008D010C948A1E21E004D00091C50C0330F7
:1009C00008958D010C5F1F4FF4CF19D0102FFD013A
:1009D00003810C94461F0E94321F10E0F8DF01E0F3
:1009E0000895D8010C910A95089569D072D08017A6
:1009F00028F405D00093C50C0E94211F089559D0FA
:100A0000349668C074D005810E94031F402E8D016A
:100A1000FC0160D04026089510D019F004D0AEDF5C
:100A200006D0E3E09FCF20E030E0082F0895A0FB40
:100A30001EF48C010E94632108950E942A22C8019D
:100A4000A22F012B08958DCFF8DF21F0ECDF0E945B
:100A50008B08EDDF90CFA8DFC4DF29F00A95C9F03D
:100A60000A95F1F025C03AD019F10091C50C063075
:100A700051F025D02ED0801730F41BD02AD000930F
:100A8000C50C0E94261FFD0103810E94981F02E0F1
:100A90000EC00091C10C002359F019D003E007C02B
:100AA0001DD031F40E94321F0E94AF1F01E00C9351
:100AB0004ACF8D011196ED91FC9112970895809186
:100AC000C50C8D01FD012181F281E22F08950C9466
:100AD0002F1F34962591F491E22F099408D00481B8
:100AE0000E940E1F402E8D01FC01F4DF93CFFD010B
:100AF000818192810696089500E0089500E00895AE
:100B000000E0089500E0089502E0089500E00895EF
:100B100002E0089501E0089503E0089500E00895DB
:100B200003E0089501E0089501E0089500E00895CC
:100B300001E0089501E0089506E0089500E00895B9
:100B400028ED30E0F8012483358320E020832183E1
:100B5000228323830895402F412B21F020FB16F49C
:100B60000E9463210895402F412B21F020FB16F4B1
:100B70000E94632108951B98139A1C98149A089553
:100B800008EF12E002C00AE81CE00E94E9191B9A73
:100B90001C9A08951B981C980C940F1A6FEF7FEF06
:100BA00040E00FC0F80151918F015627E2E05E9FAF
:100BB000F001E452FF4F059014907025672F712DBE
:100BC000439550E04217530768F38B0108950DD009
:100BD000FCCF0BD03081631729F40181701711F419
:100BE00001E001C000E010E0089560E070E050E036
:100BF000F80141918F01640F751F21503040C1F7FA
:100C0000089540E0F80151918F01450F2150304087
:100C1000C9F70081401711F401E001C000E0E3CF03
:100C20009A938A930E948E0690E081E02AC00091F8
:100C30000D08043099F409C000910D08033019F42F
:100C4000939581E00BC0043049F483E007C001E0D4
:100C500089919991089500E0FBCF84E00E94C70735
:100C60000AE010E00E94B619A895082F0A9539F0FD
:100C70000A9511F30A9579F30A9549F3EFCF9B3062
:100C800060F7292F0EE01BE00E946E089801032BED
:100C9000E1F2492F43950EE01BE00E945707002325
:100CA00031F282E0DBCF0C94890700E00093C30CA3
:100CB0000E941708002371F00E946D07002351F075
:100CC0000E949507002311F001E0089504E00093CD
:100CD000C30C04C004E00093C30CA2DF00E008953D
:100CE00023950C94BE060B3040F4039518E0019F49
:100CF000F001E257F84F068101C000E010E00895CE
:100D0000B801022FF0DF2395422F98018B010E943A
:100D10005707F4CF0EE018E00C94A720BA93AA93DB
:100D2000EAE0F8E00EE01BE0FDD000E0028344E6DC
:100D300050E020E030E00EE817E00E945522AEE8D7
:100D4000B7E0FD0100E110E00483158304E60683AB
:100D5000178306E60E940A0AFD010087118706E64E
:100D600010E00E940A0A005F1F4FFD0102831383F7
:100D700000E00D930C93A991B99108950E94262249
:100D8000DA952801622E2C30C8F508E0609EEEE866
:100D9000F7E0E00DF11D06811781012B79F1008547
:100DA0001185012B59F1A681B7818085912F482F9C
:100DB000512F248135818E010E94D118AC019E01F2
:100DC0008E010E94730AFE01EA0FFB1F8081918150
:100DD0009D01DAD08017910771F402E0609EF00166
:100DE000EE50F84F80839183AD019E0182010E94F5
:100DF00045228D0105C004E00093C30C00E010E023
:100E0000D395E7E00C9437220E942722DA95D80187
:100E1000C901442E4C3018F000E010E03FC0A90199
:100E200098018E010E9445229C018D010E94CE05F1
:100E3000FE01E80FF91F76D028E0429EAEE8B7E049
:100E4000A00DB11DFD0102871387AC014E5F5F4FFE
:100E50009E01EAE0F8E0008111810E94140A280155
:100E6000FD0100851185012B71F41CD0FD01048367
:100E7000158318D0040D151D02831383FD0186838D
:100E8000978340865186A201EAE0F8E02081318113
:100E9000FD01048115810E94DF188201D395E6E0EF
:100EA0000C943822EEE8F7E0028113810895509106
:100EB0000C08552349F4A8DF012B21F001E0009331
:100EC0000D0804C004E001C002E003C000930C0858
:100ED000089500930D0800E00895392F082E81E051
:100EE00090E02AE08C01000F111FF801EE50F84F3E
:100EF000608171813BD0028513856017710711F005
:100F000000E004C001962A9569F701E0802D932F37
:100F1000089518D01ED0F1F731D004D0669689918B
:100F2000999108950083118308950CD012D0F1F7A0
:100F300025D0208131812017310711F401E001C053
:100F400000E0ECCF9A938A93669780E090E02BE0E4
:100F500008950CD002891389FE01AC01440F551F7E
:100F6000E40FF51FDFDF01962A95089543E08C0119
:100F70000E947521F801E257F84F089526E130E00C
:100F800003D0EEE8F7E008958E010C94CE050091B1
:100F90000C080A9559F00A9561F00A9579F00A95BE
:100FA000C1F00A9509F10A9521F1089535D002E0C2
:100FB0000FC0E19909C036D003E00AC000915D0876
:100FC000002311F004E004C021D0F9F004E081DF37
:100FD0007DCF40E024E630E00EE817E015DF012B7E
:100FE000A9F31AD005E0F4CFE199EECF1BD006E0CB
:100FF000EFCF00915D08002311F003E0E8CF06D0A9
:1010000021F004E066DF00930C0808950EE018E07C
:101010000E94B6200023089528EC30E00EE018E08E
:101020000C94A82020E137E2F9DF0C9470080E94AC
:10103000272274DE20E00EE817E0A0DE012B21F16C
:10104000552450921208AAE0B8E03AC006E018C051
:10105000452D9C010D911C91119729DF002311F062
:1010600003E00EC000910D08043099F408C000910F
:101070000D08033011F404E003C0043051F405E01E
:10108000402E07C001E00BCF00E0FDCF5394442475
:1010900043947DDF0AE010E00E94B619A895042D64
:1010A0000A9559F00A95A1F20A9509F30A9571F388
:1010B0000A9551F30A9531F3ECCF0CE0501630F657
:1010C000252D0D911C91119759DEC801012BB9F204
:1010D00000911208002379F202E0D2CF0C9441195A
:1010E00000E000935D08E39A089524EE32E0F801F1
:1010F0002183328320E020830895AD01D801F5DFFC
:1011000008EE12E0FD010183128300E003830483F3
:101110008D01DA01089501C00895402F412B21F07F
:1011200020FB16F40E94632108953AD00B7F3DD036
:1011300037D00F7E3AD037D000916100046006D0DE
:10114000006104D002600093610008950093610083
:1011500000916100089540E050E00FC03F7E309361
:101160006200309162003460309362000000309180
:1011700062003B7F309362004395421750F4F801C0
:10118000E40FF51F308133233091620039F3306171
:10119000E6CF09D000C000C0000002D00D7F05C01E
:1011A000009162000895FCDF0260009362000895E0
:1011B000BA93AA93D8010E947D0804EF12E019D0D7
:1011C000A991B99108950E942922D801C90109D095
:1011D000FD018187928700E00C938D01E4E00C947F
:1011E0003A22E6DF08EF12E004D00B5F1F4F0C94A9
:1011F000A720FD01018312838D01089518D031F0DD
:1012000020E030E0082F0E948D080BD0E3E00C9422
:101210003B220DD029F020E030E0082FEFDF01D095
:10122000F5CFA0FB1EF48C010E94632108950E945B
:101230002A22C801A22F012B08950E942922D80139
:10124000922F832F0C91002329F00A9541F00A95E3
:10125000E9F035C0FD0100E0038701E015C022235D
:1012600021F0FD01038501600387332321F0FD0197
:10127000038502600387FD01218532850A2F0B5FFC
:101280001F4F0E94A82002E00C9319C00A2F0B5F89
:101290001F4F0E94B620002319F000E00C9310C0ED
:1012A000FD010385992309F00160882309F002609C
:1012B0000387033000E021F40C9301E001C000E05B
:1012C0008DCF302F50E0E0E0F0E028E0032F10E079
:1012D0004E2F0E947F210170502731962A95B1F739
:1012E000552309F401C002C001E0089500E008950B
:1012F000B80130E0E0E0F0E02CE04E2F8B010E94DE
:101300007A210170302731962A95B9F7332309F4F1
:10131000EBCFECCF8A93802F007F29D0302E082F7F
:101320000E7825D0202E082F0D7621D0102F00E129
:10133000809F712D08E0809F00E70022602D082F1C
:10134000017024E0029F602900E8309E6029712925
:1013500008E0209E6029712902E0109F6029712910
:101360008B75082F04D0062B172F89910895A9CFCC
:10137000080100E01F7020D007FA10E010F90117F3
:1013800011F058E001C050E080010077187014D0CF
:1013900003FA13D0000F502B8001047616700CD086
:1013A00001FA0BD0502B80010475157005D0102D5B
:1013B000117008D0052B08959BCF10E010F902D0D2
:1013C000000F0895011709F08FCF90CFB8012223A5
:1013D00051F0209312082A9501E010E0422F0E945C
:1013E0007521062717270895202F44E00E947A21AF
:1013F000007F122F1695169516951E70012B22FB55
:1014000010E010F9012B08951801B2DF202F81019F
:10141000DDDFEACF00FB16F40F5F1F4F9801369512
:101420002795020F131F08950E941F22239738014A
:1014300049015A0180E090E04424552488834B29D7
:1014400039F0A0FA2EF40FEFA00EB01E01E00883D1
:1014500089838A831AC091D039D0680101E0400E97
:1014600000E0501E8AD0008138D01D2941E0440E92
:10147000501ECC922DD010832BD020830196098151
:101480001A810E5F1F4F09831A83D301A80FB91F5A
:1014900009811A810A151B05F0F20881002389F0E1
:1014A000840C951CF40112D0480100E016D0912A5A
:1014B0008C920ED090820196680E791EF3012083E3
:1014C00001968C012396EEE00C943022008122CF0D
:1014D0000196F301E80FF91F08951CDF20E030E0CA
:1014E0004CE00C94B1210E941D22580149017A015F
:1014F00066247724442455244F2951F043E050E0DA
:1015000087010E948221412919F000E010E032C0D9
:10151000CC24DD242BC031D0808190E0A0E0B0E06D
:1015200001E0400E591E29D01081912F400E5A1E05
:1015300024D0A081400E5B1E082F1F7065DFF501CF
:10154000E60DF71D00834CE08C019D010E94B8213F
:101550005BDF102F01E0600E7B1EF501E60DF71D2D
:101560001083600E7B1E03E0C00EDB1ECE14DF0472
:1015700090F28301E0E10C942E22F401E40DF51DBC
:101580000895A991B99108950E942922D801C9010D
:101590000BD0FD018583968300E0008707830C93C1
:1015A0008D01E4E00C943A220E947D080CEF12E0D9
:1015B000FD010183128395D00C94A7200E942A225A
:1015C000C801A22F012B51F020E030E0082F0E942B
:1015D0008D08A0FB1EF48C010E946321E3E00C94B3
:1015E0003B220AD01596ED91FC910995002311F04C
:1015F00001E001C000E0C5CFBA93AA93D8010895D5
:101600000E942922D801822FF8012181F281E22F44
:1016100032962591F491E22F0995FD010781081773
:1016200000E019F40783008701E0BBCFE5DF0C91F0
:10163000002369F00A9581F00A95A9F00A95F1F066
:101640000A9539F10A95A1F10250F1F141C0FD016D
:101650000085078301E03BC03CD0D1F124E630E0B7
:1016600047D002E034C035D0F9F037D089F12CED05
:1016700035E03BD002E0008703E029C02AD0A1F08A
:101680002CD031F128EB3BE030D003E0008704E0C0
:101690001EC01FD049F021D0D9F028E833E125D071
:1016A00004E0008705E013C0FD01008507830EC03C
:1016B00010D061F012D061F022E330E016D005E0E6
:1016C0000087078307E003C004D011F400E00C9307
:1016D00058CF0A2F86DF0023089503D00E94B6203A
:1016E000FACF8D01075F1F4F089502D0FD010895C5
:1016F000F8DF0C94A820E3E5F8E000831183009163
:1017000062000E7F00936200009162000F7D0093E3
:1017100062001E981F9800916100016000936100B3
:1017200000916100006200936100169A179A0C9470
:101730009508BA93AA9320E030E3E22FF0E0EC5F43
:10174000FC4F049110E0E3E1F8E0E00FF11F022FFD
:1017500046E050E00E946B21A801A3E5B8E00D919E
:101760001C91040F151FD8010C91002311F001E00A
:1017700001C000E0008323953A95F9F620E403E1E7
:1017800018E00E94AB08A991B99108951BD00E945E
:101790007D0804E313E0FD01018312838D010B5FDB
:1017A0001F4F0E94A7208D01A991B99108950AD0D9
:1017B000EDDF0CE313E0FD01018312837CD001E037
:1017C0000C93F1CFBA93AA93D801089518D031F0B1
:1017D00020E030E0082F0E948D080BD0E3E00C944D
:1017E0003B220DD029F020E030E0082FEFDF01D0C0
:1017F000F5CFA0FB1EF48C010E94632108950E9486
:101800002A22C801A22F012B0895DCDF0C910A9532
:1018100039F00A9581F00A95B9F00A9571F14AC03C
:101820000E94B01C002329F00E94BE1C002381F5F9
:101830003FC000E03EC0FD0104810130D9F53BD03E
:1018400001E00E94C31C24C0FD010481013049F461
:1018500032D00E94B71C980115968D010E94A820D5
:1018600029C00A2F0B5F1F4F0E94B620002311F1E1
:1018700005E00093C30C04E01CC0FD0104810A953F
:1018800019F00A9579F016C016D00CE00093BA0C46
:101890000E94B71C98018D010B5F1F4F0E94A8206A
:1018A00003E007C008D00E94C31C0CE00093BA0CF0
:1018B00002E00C9379CF00E00483089500E00093E8
:1018C000BA0C0E94D81FFDCFBA93AA93D8010E94E8
:1018D0007D0804E413E0FD01018312838D01A991C9
:1018E000B99108950E942A22C801A22F012B51F01C
:1018F00020E030E0082F0E948D08A0FB1EF48C0130
:101900000E946321E3E00C943B22F80125830895B3
:10191000F8010081002309F401C002C001E008952C
:1019200000E008950E942922D801C901F8016181CF
:10193000F281E62F369610D3A8019C018D011196F5
:10194000ED91FC913C9608D3E4E00C943A220E947D
:101950002922F801842FDB01AB0130683CD2A00FB3
:10196000B11F8C9335D2F0CFF9D119010A0150E0A3
:10197000662420E030E04A845B848C859D8502C02B
:101980006394E7D0F201EFD120153105C0F4410195
:1019900001E0200E00E0301EDB01A80DB91D0C9106
:1019A000002329F001E010E0462D50D3502B07E032
:1019B000601631F75083019650E06624E2CF66202E
:1019C00011F0508301968C01EEE0C6C1B5D03DD038
:1019D00021F0813D07E0900710F01AD106C0FD010B
:1019E000028D138D28D018F410D145D104C039D000
:1019F0006289738926D005D002C08C01E8E00C947E
:101A0000362298018901E8E0089596D01ED021F091
:101A1000813D07E0900710F0FBD006C0FD01048D6A
:101A2000158D09D018F4F1D026D104C01AD06489DC
:101A3000758907D0E0CF572D480F591F0417150798
:101A40000895AC0193018D018FCFD801C9012A01FE
:101A5000A4D071804281642E93810481802F092B50
:101A60000895A2018BD011D043E08C010E947A210D
:101A7000402F082F077009F0439540836AD03A93AE
:101A80002A935A924A92FD010895F201E00FF11F44
:101A9000089552D076D011F046D018F0B30143E04B
:101AA00007C0FD01068D178D43D020F4B30142E03D
:101AB00053D00CC058D007C0BC01660F771F08D0A8
:101AC0002CD006D03BD044155505B0F39BDF97CF03
:101AD000FD0106891789060F171FF80108952CD0FC
:101AE00050D011F020D018F0B30143E007C0FD0141
:101AF00000A111A11DD020F4B30142E02DD00CC0F3
:101B000032D007C0BC01660F771F29D006D027D07E
:101B100015D044155505B0F3D9CF0181F301E20F7B
:101B2000F31F008308950EE7401600E05006089565
:101B3000592F440D551D82CF0C942522008109D0C8
:101B4000F301E20FF31F04D001964F5F5F4F08953A
:101B500000832F5F3F4F08958ED098010895FD01B7
:101B6000008D118DB8CFA30109D0042D000FF30112
:101B7000E20FF11FEDDF40E050E008958D01EBD161
:101B8000ECCFD801C9013A0108D091814281842F5C
:101B900053800481402E05290895C1D1080F191FD3
:101BA000F8012291F80130810895C6DFD80139018A
:101BB0002A01CB015ED025D05291F80100803181FD
:101BC0002281FD01628D738D2617370710F01DD01D
:101BD00014C0F8017381648160300FEF700711F455
:101BE00001E003C0672B41F400E00E94A71CAC0198
:101BF000930182013CD004C00BD0302D252F69D039
:101C0000FCCE8301020F131F68CFB20142E008959A
:101C1000B20143E0089590DFD8012901CA013B01D8
:101C200028D08201EFDF31812281FD01468D578D61
:101C30002417350758F0BC0142E0F801308101500B
:101C40001040F801208117D038010FC0F8015381EE
:101C50004481FD0106891789220F331FD3DF40839A
:101C60005183A30192018C0102D08301C7CE0C9451
:101C7000452255D172CF8D016ACE5EDF77D09801B3
:101C8000C0DF9291F801808171816281338144814A
:101C9000242F432B21F0213B47E0340710F0B8DF1D
:101CA0000AC0FD01428D538D0B01020E131E40151B
:101CB000510528F4AADF382F292F0BD009C0AB011A
:101CC0000A5F1F4F0E947F1CA201382F292F52D07C
:101CD00094CED1DFC801089541D048D0C801A301F6
:101CE000400F511FFA010290FA01308111810281E7
:101CF00053814481242F252B21F04C3720E05207BB
:101D000010F086DF0AC0FD01668D778D1801240E64
:101D1000351E6215730520F478DF202DDADF1AC036
:101D200060E070E011C01ED096808780FD0126889B
:101D30003788F801EE0FFF1FE20DF31D80829182BC
:101D400047D002966F5F7F4F6417750760F3A2015B
:101D5000202D10D08C01EAE00C9434220C94232224
:101D600000830196F301E80FF91F0895D8013901A6
:101D70002A01D5C0EED0C80144E050E0600E711ECB
:101D80009301040D151D73DF0496089502D1C80157
:101D90002901DA01C4D0400E511EAD01F20130819B
:101DA0000FEF400E501EF20120818C01FC0113D078
:101DB00017D023E012D020E210D027E0208308D0F3
:101DC000A00FB11F22E32C9303D0E6E00C9438223D
:101DD0000F5F1F4F0895C4D0BFC020830F5F1F4FF8
:101DE000FD0154CE0E941D22D80129013A01CB01E8
:101DF00096D04801400E511EF201B290F201A0802F
:101E0000028110E006970817190709F04EC09ED00E
:101E1000C8017301E00EF11EF2010381002341F0BD
:101E20000A95C1F00A95E9F10A9509F463C06DC0FD
:101E3000F70100E095DF04E00083F201038191DF08
:101E40008FDF02E08DDF00E0008375D002E00083C9
:101E5000019661C0C4800CE0C01638F5D301A80D0E
:101E6000B91DCC2099F420E08D010B5F1F4F0E941B
:101E700070062091960CFD0125832091950C2683F8
:101E800020E327834FD020E0208307C02C2D159618
:101E90008D010E94700646D0C0829ADF800F911F8C
:101EA0003AC0C4800CE0C01618F0B30142E02FC065
:101EB0000C2D0E947306F201E281F0E03297E017E8
:101EC000F10719F0B30143E022C02C2D05E0400ECC
:101ED00000E0501E82010E948006012B41F00E940A
:101EE00053060DE00093BA0CB30145E010C0B301F6
:101EF00047E00DC000910D08033011F427D00AC04F
:101F00000130B30119F446E002C0B30141E03A2DBB
:101F10002B2DB1DEC8018C01E0E10C942E2298D06B
:101F20003E96CBC0F70120E02083202F2E5F08D003
:101F3000F201238105D00196680E791EF301089500
:101F40000196F301E80FF91F20830895A3013A2DAC
:101F50002B2D8D01FD0104D06591F491E62F09949C
:101F60006181F281E62F3A96089513D0AAD0040D2C
:101F7000151D16DE00910D08033019F4AC01E9DFE0
:101F800007C00130BC0111F446E001C041E073DE3E
:101F90001CCF0C9427220E9421223801D901CA01AA
:101FA0002B0167DE8D012EDEA290F8018080BA2C15
:101FB000BB0CBB08F301058110E0A016B10621F0AF
:101FC000AA2011F000E03AC0082DE2E5F0E0FBBFE6
:101FD000F7E00C94E02135D0F9DC2BC032D015DDD0
:101FE00028C02FD056DD25C02CD079DD22C029D0C5
:101FF000DCDD1FC026D00FDE1CC044244A94542CC4
:1020000019C01FD03ADE15C01CD0AFDF12C019D0E6
:1020100063DE0FC016D0BADE0CC0442455240AC0BB
:1020200010D0E0DE06C0BC0141E0382D2A2D83012E
:102030008EDC2801F301448655868201ECE00C9485
:102040003222B201AC019D01830108950C947521E7
:10205000F8012181F281E22F089580DE32D0400E16
:10206000511EF2016080FD012681F2013291231799
:1020700021F4FD0127812615E9F048018D01FD01BC
:102080002181F281E22F709618D0800E911E02E01D
:10209000800E00E0901E8815990561F467FA56F4E9
:1020A000F20101810C3024F4102F110F110B04C028
:1020B0000EE001C001E010E04ECE2591F491E22F38
:1020C0000994D8012901CA012ACF01E010E008953E
:1020D00002E010E008950E942722C801D9012B2BAD
:1020E00031F0F80143845484A587B6870EC00CE70D
:1020F000402E03E0502EDC011F96FC01A587B68719
:10210000082F015F1F4F0E94640C0AE513E0FC01D9
:1021100003871487F20105911491FD010183128355
:102120008C01E6E00C94382210E008950E942A22E7
:10213000C801A22F092B69F0232B31F00FD0082FF3
:10214000015F1F4F0E94720CA0FB1EF48C010E94C5
:102150006321E3E00C943B22440F551F20E030E064
:102160000895BDD0E3CF0E942522C801F801208345
:10217000318342835383648375830885008709858F
:1021800006830A850783A585B6856B847C84FD015B
:10219000668677864D845E84408A518A0F851889C9
:1021A000028B138B09891A89048B158B0B891C8967
:1021B000068B178B0D891E89008F118F0F89188D43
:1021C000028F138F098D1A8D048F158F0B8D1C8D27
:1021D000068F178F0D8D1E8D00A311A3FC013FD01C
:1021E00000E412E42FE030E00E94BB2145E00E94B1
:1021F000B12148EE53E060E070E00E94BB210F5F28
:102200001F4FE82F01871287FD01428D538DA6DFF6
:102210000289138929D0448D558DA0DF0489158941
:1022200023D0468D578D98DF068917891DD040A190
:1022300051A192DF008D118D0E9455225A924A922F
:102240007A926A92FC0107810A933681208507D031
:10225000008111810E949417EFE10C943622428193
:1022600053816481758108950E945522FC01058582
:10227000F685E02F08950C94B5170C94D817F80143
:102280000081118108950C94FB1762D0D901CA0115
:102290009A018D017BD0FD01E80FF91F00830196A3
:1022A000A80FB91F1C9301968C014FC018D0EDCF19
:1022B0000D01E881F9812083318352834383748344
:1022C000658306E010E0D0012296089508D0F0CF93
:1022D000FA012083318302E027CF01D0F9CF0F50DC
:1022E00010400895CCDF0C942218F9DFFBCFC7DF34
:1022F0000C94291810F001E001C000E0DB01089502
:1023000010F001E001C000E0DA010895BD01EEE542
:10231000F8E04081518105D0401B510B4217530713
:10232000E9CF09D00D911C910895AD0103D02D93F3
:102330003C93EACF05D0F801A585B6851A96089595
:10234000EEE5F8E0208131810895E4E00C943A2232
:102350000C9429220E942722C901443000E0500732
:1023600090F0F901E40FF51F3297B181A08142503E
:1023700050402A019A0109D0920107D00A171B0781
:1023800011F401E001C000E0CCCE8C010C94CE052C
:10239000DFDFD801F80185859685FC010081E6E83C
:1023A000F0E0FBBFF7E00C94E021F2D003E0A7C01F
:1023B000C3D059F0FDD024F0DFD0B9D004E004C080
:1023C000019619F4B4D002E0008328E93AE3CAD0B8
:1023D00009F496C03BC0B0D049F0EAD014F0CCD09C
:1023E00005C0019619F4A3D002E00083BED009F421
:1023F00087C0ABD0D9D059F105E081C0FC0164851C
:10240000758540895189E5D08C010E94CB0F012B45
:1024100000916200C9F075D0C7D006E070C09BD0B3
:1024200092D0C2D007E06BC09BD009F469C0FD0117
:1024300005851685F80169D082D0B6D008E05FC066
:102440006FD009F45DC066D000645CD0ADD002E00E
:1024500056C09ED00BE053C06FD081F0A9D04CF095
:1024600088D024853585280F391F248735870CE0CF
:1024700004C0019619F45BD001E1008328EE33E03B
:1024800071D0F1F191D013C057D051F091D01CF020
:1024900070D075D005C0019619F449D001E10083D0
:1024A00064D071F152D080D011F00DE028C001E16C
:1024B00026C0FC018CD08C010E942D10012B74D001
:1024C00001E10C93E9F41CC046D00091620019D0E0
:1024D0006BD00FE014C044D099F029D016D08F01F2
:1024E0002ED062D000E10BC01BD051F013D000649D
:1024F00009D05AD00AE003C026D056D000E00C9391
:1025000024CF0F7B00936200089544855585208970
:10251000318908958F010E94171800916200089573
:1025200002D003A516C0ED91FC91119708951D9658
:10253000ED91FC911E970895F6DF02A50AC00E9456
:10254000920C0CD0A0CE0AD098CEF1DF40D08D01F5
:1025500001DF002308951AD001D08DCEE3DEE5CF50
:1025600025E030E08D01D2DEF4CFFD0121853285FA
:10257000F9CF0CD0FD017BCEFDDF01D007C0048573
:102580001585080F191F0487158708958D01CDCE75
:10259000FDDFC8DE1C960E94B517CADF00E0048785
:1025A0000587DCDF0E94C817FD01A585B685089563
:1025B000FC010485158540E051E0401B510B09D01A
:1025C000200F311F8D0193DEC801013089CE448573
:1025D000558526853785089582DEDACE01E010E044
:1025E00008950F5010400C94EE1202E010E0089590
:1025F0000F5010400C94F5120E942922D801822F0E
:1026000015D08C9300E003878D01E4E00C943A220E
:102610008A93802F19D019F0282FEEDF02C000E036
:1026200010E089910895A991B9910895055F1F4F10
:102630000E947D0802E813E0FD010187128708E887
:1026400013E00487158708950EE110E00E945E22D2
:10265000202F212B08950E942A22C801A22F092B86
:1026600061F020E030E0082F055F1F4F0E948D08C9
:10267000A0FB1EF48C010E946321E3E00C943B223A
:102680000B501040E8CF1D01D801F9010081FD0178
:10269000008BF90101811281FD01018B128BF9017F
:1026A00003811481FD01038B148BF90105811681CF
:1026B000FD0105831683F90107811085FD01058B56
:1026C000168BF90100891189FD01038F148FF9011F
:1026D00002851385FD01078B108FF901058516858D
:1026E000478552E0459F000D111DFD01018F128F9E
:1026F000F9010785085F078760897189028910E001
:1027000048E150E00E946B21600F711FFD01638F53
:10271000748FF9010289085F028B038914890F5FA6
:102720001F4FFD0107831087558FD10108953BD1BD
:10273000ECD040E028E050E05B96EDD05C97E40FF1
:10274000F51F3081F801E40FF51F308343952A957A
:1027500099F728E030E00E94E7059801FD01038920
:102760001489065F1F4FF801219330835396D3D00D
:10277000549701E8FBD04DE0EFD0CCD00181013877
:1027800029F404850E3711F401E001C000E04BCFBD
:102790000E942922D80150E080E028E0F801638DF2
:1027A000748D90E0FB01E80FF91F40854F3F21F049
:1027B000CAD011F0BAD0502B83952A9599F730E002
:1027C00080E028E0FB01E80FF91F40894F3F21F02E
:1027D000BAD011F0AAD0302B83952A9599F720E032
:1027E000FD010381002311F0938321E00481002384
:1027F00011F0948322600181002311F09183246001
:102800000281002311F0928328600389F489E02F6C
:1028100002E40083FD0183899489029660E022240A
:1028200078E088D00181002309F078D023947A954C
:10283000C1F7FC016193CF0160E0222478E07AD0F7
:102840000081002309F06AD023947A95C1F7FC0136
:102850006193519331932193CF0125E030E0FD0145
:1028600054D00E94E705FC01019311930EE77ED03E
:102870004AE072D0FD0101891289F80121812452B8
:1028800081F12E5179F525E030E00E5F1F4F0E9457
:10289000E9050130104034F13DD0529701850E37E3
:1028A00009F5FD0100E0058F179635D019960083D4
:1028B00032D05297628180E028E090E0FD010788E5
:1028C000108C080E191E31D0162F1023F00119F0AC
:1028D00001E0008301C0908383952A9579F701E098
:1028E00013C011C0FD01058D0A3018F40395058F42
:1028F0000AC0159610D0169702E00083FD01A7814B
:10290000B08501E00C9300E080CE038914890E5F4E
:102910001F4F08955196ED91FC91089501E010E04C
:10292000422D0E947521602B089501E010E0482F90
:102930000C947521FD01018D128D42E0249E000D45
:10294000111DF8010895FD0105891689040F191F4D
:10295000F80100810023089550E0FD0123893489A6
:10296000018912890E949A190C94601B0083FD0151
:1029700000890E94491B0AE613E001501040E9F764
:1029800000C0000008950FD01385112319F01A9587
:1029900039F008C01B2FCBDEFD0111E0138702C008
:1029A0001B2FF6DE40CEBA93AA93D801CACF0E945D
:1029B0002922D801822F055F1F4F0E947D0800E960
:1029C00013E0FD010187128706E913E004871587EC
:1029D0008C938D01E4E00C943A228A93802F08E1D5
:1029E00010E00E945E22202F212B19F0282FDFDF1C
:1029F00002C000E010E0899108950E942A22C801D7
:102A0000A22F092B61F020E030E0082F055F1F4F57
:102A10000E948D08A0FB1EF48C010E946321E3E05C
:102A20000C943B220B501040E8CFBD01D801F901B6
:102A30000081FD01008BF90101811281FD01018BF3
:102A4000128BF90103811481FD01038B148BF901B1
:102A500005811681FD0105831683F90147815085A3
:102A6000018510E0400F511FFD01458B568BF90188
:102A70000185085E018703891489FD01078310879A
:102A800000E0078BDB0108950E942922D8015396AC
:102A9000ED91FC91549702E40083FD0100890E94AE
:102AA000491B0AE613E001501040E9F700C000009E
:102AB00049E050E0FD0123893489018912890E948F
:102AC0009A190E94601BFD0101891289F801218178
:102AD0002234C9F527E030E00F5F1F4F0E94010646
:102AE0000130104084F1FD0100E0078B1796ED9155
:102AF000FC9118970083FD012589368980E076E0F6
:102B0000FD010189128990E0080F191FF801028068
:102B100060E058E002C060FB76F001E010E0462F74
:102B20000E947521102D1023F90119F001E0019385
:102B300001C091939F0163955A9569F783957A95A2
:102B4000F9F601E012C0FD0107890A3018F4039577
:102B5000078B0AC01596ED91FC91169701E0008352
:102B6000FD01A781B0850C9300E034CF28D00E94EE
:102B70007D080AE913E012D0A8D00E94A72005E240
:102B80000C93FD0115C019D00EEB13E003C015D056
:102B900002EE13E003D005E20C930AC0FD010183AD
:102BA000128308950AD00AE014E0F8DF08E1F4CFB8
:102BB00003838D01A991B991089501D0D7CFBA931C
:102BC000AA93D8010895F9DF0EE214E0E3CF0E9442
:102BD0002A22C801A22F012B51F020E030E0082F5B
:102BE0000E948D08A0FB1EF48C010E946321E3E08B
:102BF0000C943B22E4DF0C91ECEAF0E0FBBFF7E041
:102C00000C94E0216DD009F459C07CD072966DD03F
:102C10000AE153C065D009F451C074D070964FD00A
:102C2000349665D009E149C06DD0369660D002E097
:102C300044C056D009F442C065D0769656D009E01B
:102C40003CC04ED0D9F15ED0749639D038964FD072
:102C500008E033C045D091F155D07A9646D00FE0C8
:102C60002CC03ED059F14ED0789637D00EE025C01A
:102C700037D021F147D07E9638D005E11EC030D044
:102C8000E9F029D006E119C02BD0C1F03BD0B096B5
:102C90002CD007E112C024D089F01DD004E10DC072
:102CA00031D0B2961AD00FE108C01AD039F011D045
:102CB000FD01038102C00DD000E00C937BCF17D043
:102CC000980103D00E94A8201DC08D010A5F1F4FEC
:102CD000089518D00BC016D07C960DD03A9607C038
:102CE000F4DF0E94B6200023089505D03C9625917C
:102CF000F491E22F0994FBDF98018D010A5F1F4FC9
:102D00000E94A8208D011196ED91FC9112970895D3
:102D100032C05AD039F02A9539F02A9539F02A95DF
:102D200029F0089505E203C001E001C007E0008337
:102D30000895089502C002E001C001E00C946C1FE8
:102D4000089502E00C94791F16C03ED049F02A95F0
:102D500029F02A9529F02A9529F0089501E001C06B
:102D600005E2E5CF0DE0FDCF0895E7CF089503E03C
:102D7000E5CF03E0E7CF02D00C943A220E9429224B
:102D8000D801822F012B59F005E20C9320E030E0AE
:102D90000A2F1DDF80FB1EF48D010E946321E4E0F9
:102DA000089512D049F02A9539F02A9539F02A95DC
:102DB00039F0235039F0089508E1B9CF07E0FDCF8D
:102DC0000DE0FBCF03E1F9CFF801308133832223FB
:102DD000089501C00895009162000F77009362008A
:102DE0000895F9CF009162000068009362000C948E
:102DF000990BC1CFE9DF59F02A9549F02A9549F09E
:102E00002A9549F0235049F02A9549F0089505E2A2
:102E10008ECF07E0FDCF0DE0FBCF03E1F9CF0EE150
:102E2000F7CF0C94CA05FDCF0C94C0050C94C305D4
:102E3000F8CF00ED17E0089500ED17E0089500E2E7
:102E400013E008950CE211E008950CE211E00895FA
:102E50000CE211E0089506E910E0089506E910E09B
:102E6000089502EC11E0089502E310E0089500EDEA
:102E700017E0089500ED17E0089500E213E00895CB
:102E80000CE211E008950CE211E008950CE211E06B
:102E9000089500ED17E0089500ED17E0089500E2B1
:102EA00013E008950CE211E008950CE211E008959A
:102EB0000CE211E008951B2E2A2EF80102E514E021
:102EC00005A716A7208331834283538364837583C8
:102ED00008811981068317830A811B810087118766
:102EE0000C811D81028713870E811F81048715873E
:102EF0000885068709851A850787108B0B85018B46
:102F0000A485B5850A2F0B2B31F0468563D01C9123
:102F1000102B1C9367D08F01A22DB12D2C960895F4
:102F200000E010E00895E1C1BA93AA93D8018A01A4
:102F30009B0144E00E94B121A801B90167D2129619
:102F4000ED91FC9113970083FD010081F181E02F49
:102F500010830091790908730660FD01A085B18591
:102F60000C93A991B99125960895F80120E0208F3E
:102F7000218F22A723A724A708950C93A42FB32F52
:102F800008953B2F4A2FF801A681B7812C9108950F
:102F900009D0206802D00069F0CF2C93A681B781B8
:102FA0000C9108953B2F4A2FF801A481B581EECFF3
:102FB0009D01F80139D00C910F760C93D901089539
:102FC0009D01F801418906D0A785B0891C91102B7D
:102FD0001C93F4CF01E010E00C9475219D01F801E1
:102FE00001D0ECCF4189F6DF0095A785B0891C910F
:102FF00010231C9308955B2F6A2FD801F8010485D4
:103000001585012B11F08D01DBDF1496ED91FC91FC
:103010001597008100660083FD0106D00C910862BF
:103020000C93A62FB52F0895A681B78108955B2F25
:103030006A2FA9DF27792C9324853585232B09F066
:10304000CDDFEFCFF801228B338B448B558B01E022
:1030500068CF6ED0F80100E002A704A5002329F490
:10306000008D118D0417150718F00FEF1FEF1BC00F
:10307000012BC1F0F89480E090E00AC0DF01A80FB6
:10308000B91F5A960C91D901A80FB91F0C9301963C
:10309000008D118D8017910788F310E0108F118F2C
:1030A000789401C03DDFE4E00C943A22AD01F801D0
:1030B00024893589232B61F4B7DF2C912F7D2C9344
:1030C000A481B5812C91206468DF00640C930EC04C
:1030D000A289B3892D91A28BB38BA285B3852C9342
:1030E0000489158901501040048B158BDA0108956D
:1030F00048DF2F7B2C9301E003A740CF19D0F801C4
:10310000208D318D203140E0340720F021E024A7CC
:1031100022A70DC0C9010196808F918FA285B3852A
:103120004C91E20FF31F428FF80101E002A7BBCFE1
:103130000C94292288D01DD0B9DF7ED0189589D073
:1031400015D0D6DF09D07CD0189583D00A920ED046
:10315000D5DF02D00990F7CF6BBF5FBF09911991FE
:1031600029913991499159916991089507D05FB793
:103170006BB7009161081091620808956A935A93A1
:103180004A933A932A931A930A930895AEC0A89546
:10319000E199FDCFF8941FBB0EBBE09A78940DB374
:1031A0000895F80107C08901F2DF2F5F3F4F0193B7
:1031B00041505040042F052BB1F701E00895E5E59B
:1031C000F8E002831383208331834683578300E032
:1031D000048305830895AD01E5E5F8E02481358198
:1031E0000681178120173107E8F4028113811FBB84
:1031F0000EBB028113810F5F1F4F02831383E09A7E
:10320000A081B181A20FB31F0C911DB3101719F04B
:103210000DBBE29AE19A048115810F5F1F4F048371
:10322000158306C0E39800E00FBB0EBB01E00087EA
:103230005DCF09D0D0DF81CF7BBF6FBF8FDF7991AA
:10324000E991F991089505D07A9398DF6FB77BB72C
:103250000895FA93EA930895792F282E022E80E09C
:1032600090E008C0FA017FD06BBF2691F8017BD0B7
:103270002083019680159307A8F301E0822D972FF4
:1032800008950E942722C80104E0209FAEE5B4E023
:10329000A00DB11D25D02E5F3F4F4AE854E060E0FD
:1032A000FD01329605911491400F511F8C01D4DF1E
:1032B00017D0FC01E20FF31F408051808C010E9467
:1032C000CE054016510621F4FD013196049104C04B
:1032D00004E00093C30C00E010E0E6E00C94382218
:1032E000FD013196249130E00895402F412B21F0CB
:1032F00020FB16F40E946321089503E10DB907B382
:10330000066007BB08B3066008BB08956E9A08956F
:103310006E9808950FB908EC01C00A95779904C01A
:10332000A8950023D1F704C009EE0A95F1F7000033
:103330000FB10895792F082E602F413400E0500717
:1033400080F480E090E009C0F9010DD00081E2DF57
:10335000E62FF12F08D00083019684179507A0F37C
:1033600001E0802D8CCFE80FF91F089507C025EDEF
:1033700036E021503040E9F700C0000002D0B9F734
:103380000895980101501040232B0895AECF02E715
:1033900003BD0BE005BD07B7006807BF0895F7DF61
:1033A0000091610000680093610000916100006479
:1033B0000093610000916200006400936200A29893
:1033C000A198A098009164000E7F00936400789407
:1033D0000895A80160E070E0440F551F661F16D0E5
:1033E0009801220F331F30938100209380001093A7
:1033F000870000938600109385000093840002EEFE
:1034000000938B0009E100938A00089500E010E822
:1034100020E730E00E94BB21015010400895009148
:103420008B000D7100938B0000918A00067EEBCF1C
:1034300010DFA8DE2FB7EEE5F8E0008111810F5F05
:103440001F4F008311832FBF0991199129917BCEC2
:1034500007E00A9305E310E0F3D007E00A9304E3E2
:10346000EFD00CE9EDD00DE9EBD00AE9E9D06BE93A
:1034700070E049E950E028E930E00EE41DE00E94E8
:103480005B1700E417E060D07FD10FE71DE00E94DA
:103490006B1006E417E058D02DE830E209EC1CE090
:1034A00055D00CE417E050D023E930E206ED1CE0E3
:1034B0004DD002E517E048D029E930E203EE1CE0E8
:1034C00045D008E517E040D02FE930E200EF1CE0DE
:1034D0003DD00EE517E038D024EF31E00DEF1CE0D1
:1034E0000E94E30804E617E02FD024E630E002D67D
:1034F0000E94A6200DE01DE00E94C3150AE617E019
:1035000023D007E11DE00E94C71500E717E01CD09B
:1035100001E21DE00E94D21506E717E015D00BE28C
:103520001DE00E94E3150CE717E00ED007E91CE050
:103530000E94D70B02E817E007D060EA75E02BD0B5
:103540000E94202308E817E00C9407210C94C40A79
:1035500011D00C9493170ED00C9496100BD00C94A1
:10356000DE0A08D00C94090905D00C94881602D004
:103570000C94A41622E030E00895FCDF0C94BB16F6
:10358000F9DF0C94F916F6DF0C94F10B62ED7AE199
:1035900002D00C94692346E050E020E330E006E8D6
:1035A0001EE00895E7DF0C94AB05BA93AA930EE4EE
:1035B0001DE0E1E6F8E00083118308E010E040D070
:1035C00000E83ED008E73FD006E819E039D003E62E
:1035D00018E036D006E919E036D00EE01AE033D014
:1035E00001E00A9308E00A930EE40A9340917809F7
:1035F00050E04F5F5F4F652F660F660B762F00E040
:1036000010E820E730E00E94BB2144E00E94B8218E
:10361000A801B9012EE43DE00FE71DE00E94B310C0
:1036200020917709EFE7FDE0058516850E94850C5E
:10363000ACE8BDE05CD102E00083A991B9910895A6
:103640001A930A9308951A930A93FACFE3E6F9E0DE
:1036500001E0048B0FE2058B08E0068BA6CF06E89D
:103660001EE00E947B0B9AD300E007AB00AF05ABD6
:1036700042E089D007EC1CE00C9455228F9A8E9A78
:103680008D9A8C9A899A979A969A959A949A9198E3
:10369000089500FB16F4979801C0979A01FB16F461
:1036A000969801C0969A02FB16F4959801C0959AD7
:1036B00003FB16F4949801C0949A919A0C9486197D
:1036C0000E9488199198979896989598949808953B
:1036D0000E94282204EF11E00E94B619A89549E043
:1036E00052D00EE81CE0C8DF80E090E1AEE8BCE01C
:1036F00005E0402EA89505E010E00E94B61901E90A
:1037000000934E0C082FA0D044E0A7D000910F0CDE
:103710000139F1F42FDF0FE01CE00E940106012BBC
:10372000B9F00091100C10918E0C22E0129FFD0157
:10373000E00DF11D018300918E0C029FFD01E00D53
:10374000F11D82830C9103950C93033018F018C07F
:103750004A9481F683959A9559F60091660900FF7F
:103760000FC0009163091091960C011731F400917C
:1037700064091091950C011719F003E00093C30C34
:10378000E5E00C94392250E020E0F5CE2EE03CE05C
:10379000F801218332832EE43CE02383348323EC3D
:1037A0003CE02583368320E0218726EA39E0278321
:1037B000308720E0248726E03AE02287338720E024
:1037C00027872AEA3CE02587368720E0228B25E3FD
:1037D0003DE0208B318B20E0258B27EC3CE0238BD8
:1037E000348B08950E94282266978E01CFDF4424EF
:1037F0000BC01091950C112331F40E940813BDD217
:10380000078103950783439400918E0C4016D0F4F2
:10381000A89502E0409E6ED0FD010181102F1A95FF
:1038200029F0125031F31A9521F3EDCF0091960C47
:10383000023048F701E00E94ED149FD20085039505
:103840000087E1CF66969CCF24DF0AE613E00150A3
:103850001040E9F700C00000089550E02EE43CE07D
:103860000EE01CE00E949A192BCF29D2B8011A0150
:10387000A0E0B0E04CD210C000E0FB01E80FF91F5F
:103880000083119648E050E08D010E94952143E0AD
:1038900072D2A01BB10B01968215930568F448E023
:1038A00050E08C010E949521F9013DD350814A2FAF
:1038B0007DD211F301E0E1CFE4E00C943A2279D01B
:1038C00005C08BD0149611E01C93039574D0C8F3F7
:1038D000D90108956ED004C006D011E0138303957A
:1038E0006AD0D0F36CC012E0019F04D05296ED91E3
:1038F000FC910895AEE8BCE0A00DB11D0895BA0199
:10390000472B41F4F8010081002301F1AFD001AB56
:1039100003ABE0CF613040E0540741F4F80100818F
:103920000023A1F0A3D002AB04ABC9CFE62FF52F43
:10393000E054F040F09750F4A901980106E919E02D
:10394000060F171F92DF01E000939B0C089521974B
:103950000883A90121E030E08E01D1DF219608958E
:1039600000916809002309F082C000E008950091E9
:10397000680910E048EE53E00C946B2100917E0939
:1039800000FD75C0F2CFE3E6F9E000FB038D00F91E
:10399000038F2AE00EE719E00E9480060C9453067C
:1039A00008D004C0A0DF11E01183039504D0D0F348
:1039B00006C09D01DACF10918E0C0117089502E028
:1039C00000939B0C85CFF5DF05C007D0129611E060
:1039D0001C930395F0DFC8F37BCF12E0019FF00149
:1039E000E257F34FA289B38908958A9322E048D021
:1039F000002319F03BD005A73CD022E006ED1CE0E7
:103A000041D0002321F032D006A72ED034D022E0BE
:103A100034D0002311F024D02ED022E035D019F07C
:103A200025D007A726D023E02FD021F01FD000AB50
:103A30001BD021D024E028D011F012D01CD025E0DA
:103A40001CD0802F25E01CD0202F382F0DEF1CE03C
:103A50000E941D09002311F0F9DD0DD08991089510
:103A600006E00093BA0C089504ABADCF97D101E006
:103A7000089503AB95DF27E027C303EE1CE002C0E7
:103A800009EC1CE00C94000B00EF1CE0FBDF0023B2
:103A9000089584D100E005A707A701AB06A700ABF6
:103AA00002AB0895BA93AA9386DF58F412E0019FFF
:103AB00019D1A289B3898D01199619DF9FD100E030
:103AC00001C001E0BACDFBD0AEE0BBE040E65BDE7A
:103AD0000EE01AE0D1DD20E0F4D044E150E09D0199
:103AE00003E619E0E5D021E0ECD047E050E09D018D
:103AF00007E719E0DDD025E0E4D048E150E09D0182
:103B000005E31DE0D5D022E0DCD020E06D9150E04F
:103B100038E010E0EEE0FAE0E20FF11F062F452F4B
:103B20000E947F21017011F000E801C000E00083D5
:103B3000239553953A9569F7203340F3BBD020E0A5
:103B400000E6E22FF0E0E25FF44F10811F77E22FF2
:103B5000F0E0E25FF54F3081312B308323950A95F9
:103B600081F724E0A8D020E010E630E0EEE0FAE0B3
:103B7000E20FF31F3081032F0F770033307830F4DA
:103B8000B0E0025FA02FB44F0C91302B308323950F
:103B90001A9559F780E090E602E0809FA6ECBDE020
:103BA000A00DB11D10E0EEE0FAE0E80FF11F00817A
:103BB000037011F10A9529F00A9561F00A9599F0C0
:103BC0001BC0008107FF03C00E945D0417C00E9454
:103BD000500414C0008107FF03C00E9427040EC0D8
:103BE0000E941F040BC0008107FF03C00E9448040D
:103BF00005C00E94310402C00E9417040D931C935B
:103C000083959A9549F656D040E020E662D011811E
:103C10005AD03033F80110F4338302C000E003833C
:103C200043952A9599F726E046D040E020E64BD010
:103C300050D0F181E02F348343952A95C1F710E0ED
:103C400000E322E0129F4AD0A081B18115961C9317
:103C500013950A95B9F710E000E332E0212F205DBB
:103C6000139FF001EA5DF14FA081B18115962C936D
:103C700013950A9599F72AE01ED048E050E02EE00F
:103C80003BE00EE719E014D090E082E00E94680467
:103C900022E0929F27D0008F118FD80113969C931A
:103CA000008DF18DE02F948393958A9579F704CE5A
:103CB0000C94452223E00EE01BE00C9470060C945B
:103CC00029228D01FACFF0E0E42FE25FF44F30813A
:103CD000089502E0409F02D000810895F001EA5368
:103CE000F24F08955BD0E00DF11D0895AC010FD0A7
:103CF00008E010E09C01220F331F50D0E20FF31FA9
:103D0000148F158F01960A95A9F7CA01089580E0CE
:103D100090E00895D4DFB8012223A0E0B0E031E0C4
:103D200089F4F5DF28E03DD031F01DD0F801E257ED
:103D3000F34F01E0058F01962A95A9F711963A9560
:103D400089F0EFCFE4DF28E02CD031F00CD026D082
:103D5000EAD001E0048F058F01962A95A9F7119604
:103D60003A9581F7A9CD43E08D0105D0080F191FC1
:103D7000000F111F08950C947521402FFD01028B37
:103D8000138B028108839E01042FE42FF12F4185BC
:103D9000F285E42F4591F491E42F0995EEE8FCE0DB
:103DA0000895FB01EA0FFB1F5081482F01E010E04E
:103DB000E2DF502308959A938A9390E080E602E030
:103DC000909F8CDF2081318110D0C9F78991999122
:103DD00008959A938A9390E082E002E0909F82DFB8
:103DE000208D318D02D0C9F7F1CF8901F9012181F0
:103DF000F281E22F03D093958A950895329625910A
:103E0000F491E22F099410E0E6E9F9E08CD0003358
:103E100010F400890895E05CFF4F5ECF02D001AD41
:103E20000895F0E0E02FE257F34F08958A93802F32
:103E3000202F52D1282F4CD1282FB1D0282F44D158
:103E40000DCE09D011F000AF0CD0089504D011F0C0
:103E500000AF33D10895A2DF07A910ADAECD01E0C8
:103E600003D0E4CF00E0FCCF0093C50C0093C60C58
:103E700008950DE01DE008D007E11DE005D001E246
:103E80001DE002D00BE21DE00C94FA15212F10E08A
:103E900046E04CD0F801EA57F14F2283089525D02F
:103EA0003DD0028103830081018356D0C9F7089574
:103EB0000091C50CD6DF19D031D003810283018176
:103EC0004AD0D1F7089512DF76DF83DF00E0009358
:103ED000C10C0093C20C089507D014D011F401E076
:103EE00000833AD0D1F718C0602F20E030E346E0DD
:103EF0000895FADF07D011F0002309F450832CD085
:103F0000C9F70AC00BD0028106170895EDDF06D06D
:103F1000628301E020D0D9F70C94990B022F10E0B6
:103F200005D0E6E8FEE0E00FF11F089550E024CD53
:103F3000DBDFE22FF0E0EE5DF84F0491002321F08B
:103F4000EDDF01E00283008307D099F7603310F4BE
:103F5000062F0BD0E1CF008323953A950895C5DF56
:103F6000022F03D0F9DFE1F7D7CFD9DF5283508397
:103F70000895C3D01CD0A8950895B2D036DD0EDFC9
:103F800005A5002331F407A5002319F401A9002396
:103F900021F020E004D020E097D06BDFEBCF01E2EE
:103FA0001DE00C94D116B2D002D07ED0E4CF71CDFA
:103FB0000091BA0CE6EEF0E0FBBFF7E00C94E021D4
:103FC000A89501B5086101BD01B5076001BD0E945A
:103FD000CF1945DB0E94BB050E945506002369F1FD
:103FE00072DDE3DA0E947D1949DB72DBFBDB43DD26
:103FF0002CC083D079D009F456C07CD00E94B22066
:10400000A89500E00093C40C03E018C07FD04CD00A
:104010000091C40C47DD002319F004E022DD04C048
:10402000BDDE06A9039506AB0091C30C035029F031
:104030000A9519F00A9519F0089508E012CD0AE0E2
:10404000FDCF41DF05E0FACFB2DF02E0F7CF27DF97
:1040500002E007DF02E05ADF28E833E154D007E04E
:1040600009C044D019F04BD002E0FBDC82CFEEDA7D
:104070001DD009E0F6DC7FCF80CF11DF17D0A895E7
:104080000BE0DCCF90CF3BD0A895DFCF28EE33E01C
:104090003AD00EE0EFCF24D027D069F30FE0E1DC77
:1040A000EACF1ED001D008950C94C7070091C30C2D
:1040B0000A953EDF00E00093C30C21E00DD021E023
:1040C00007D026E06CDF26E00BE21DE00C94FA1628
:1040D00007E11DE00C94A5160DE01DE00C94891677
:1040E0000FE71DE00C94C8110E94C70703D00E947F
:1040F000B620CDCC09E01DE00895F2DF0CC02FDF23
:10410000D7DE24E630E0F6DF0C94A820E9DF07E9EB
:104110001CE00E94050C69DCACCE00E09A9901E03D
:1041200011E00127089500E0999901E011E00127CD
:10413000089500E0989901E011E001270895109199
:1041400063001170012F11E00127089501C0089547
:10415000EEE5F8E040815181F801428353832083EA
:104160003183089511D02283338308950DD0428185
:104170005381241B350B008111812017310710F06A
:1041800001E0089500E00895EEE5F8E02081318136
:10419000F8010895802F912F0E942421082F192FB4
:1041A0000C94862301E010E00C9486230E942222C6
:1041B0004801A22EDA01962F82E0782E24016A2C83
:1041C00011C002E0400E511E611E823031F4F20136
:1041D0006BBE0791F691E02F099502E0400E00E0DA
:1041E000501E601E4A165B06690659F0F2016BBE4E
:1041F0004791569110E04030504019F3823039F722
:10420000ECCF8A957A94D1F6EBE00C943322BA93F2
:10421000AA93D801ED91FC91119700811181012B96
:1042200021F432D0A017B10711F40E94D2202CD073
:10423000ED91FC91119700831183E8EAFFE0A083E0
:10424000B183A991B9910895BA93AA9301C0099530
:104250001BD0012BC1F00081E091A80FF12FA081AC
:10426000B1812D913C91E8EAFFE020833183D801B0
:104270001496ED91FC91D80112960D911C91202F6E
:10428000212B29F7E4CFDDCFE8EAFFE0008111819F
:1042900008950FE30DBF07E00EBFC0E0D3E00E941A
:1042A0004322002311F00E948A220CE018E020E053
:1042B00040E158E060E00E94D6200E945E0C0E941F
:1042C00069210C94CA20202F212B11F00E948723F2
:1042D00008950C94CA20149F102D059F100D049F63
:1042E000002D110D0895000F111F4A95E2F7089552
:1042F000169507954A95E2F70895159507954A95FD
:10430000E2F7089500241124E0E1001F111FEA954F
:1043100042F0001C111C04161506B8F3041A150A05
:10432000F4CFA001009510950895FF27552312F4AE
:10433000F1600FD0112312F4F09507D00E94822172
:10434000F0FD03D0F1FD05C00895119501951040D1
:1043500008955195419550400895000F111F221F57
:10436000331F4A95D2F708953695279517950795E7
:104370004A95D2F70895002411241001E0E2001FAD
:10438000111F221F331FEA9572F0001C111C221C02
:10439000331C041615062606370688F3041A150A78
:1043A000260A370AECCFA001B1010095109520959F
:1043B000309508954791179011FA279037900895F6
:1043C000F9DF041B10E000C020E030E000C0B8F0CE
:1043D00010FC17C047910790E00FF11F041710055C
:1043E00040E02407340758F436F406910024F10124
:1043F000E01BF0090994E00FF11F27903790F101BD
:10440000099411F4D6F7F1CF31960EF0319650E0C1
:1044100060E070E047914B3F48F089F34F3F29F04F
:104420004E3F11F07791679157914791041B150BFF
:10443000260B370B39F318F3E7CFFA92EA92DA92A8
:10444000CA92BA92AA929A928A927A926A925A924C
:104450004A92BA93AA939A938A930895FF84EE841A
:10446000DD84CC84BB84AA84998488847F806E8018
:104470005D804C80BB81AA8199818881F0E0EC0F3E
:10448000FD1FEF01089501E008957B2F0A2ED8014A
:1044900006C0F90161919F016D9341505040642F16
:1044A000652BB9F7A02DB72F0895F80103C021930C
:1044B00041505040342F352BD1F708959A938A9369
:1044C000C80102C00E9478228C010E944324202F40
:1044D000212B59F4EAEAFFE02081318100E020300D
:1044E000300781F3F9010995EFCF899199910895EA
:1044F0000C94D22020E02D9301501040E1F7089554
:104500003BBF26912D93EF5FFF4F3F4F015010406F
:10451000B9F7089548E259E460E0FA01362F3BBF4D
:1045200007911691FA01EE5FFF4F3F4F3BBFA791F6
:10453000B691FA01362FEC5FFF4F3F4F3BBF07901C
:1045400017902690202D2129222921F0F001322DCB
:10455000D7DF01C0CFDF495F5F4F6F4F19E420E025
:10456000463351076207C8F2089504501040672B84
:1045700011F02C5F3F4FFA0109949A938A93F80146
:104580008901349780819181428153814095509572
:1045900054D08017910711F00E94D2208C0189918C
:1045A000999108950E941F22D80169015A01CB01F7
:1045B0000B2B21F0088D198D012BE1F089013DD0E5
:1045C00028010A2F0B2B69F4042D0C5F1F4FEA8979
:1045D000FB890995D801012B09F014960A2F0B2BA2
:1045E00029F1FD0134974082518286010095109592
:1045F000028313838E849F8400E080169006B1F0BE
:10460000442455243D010AC09C0114D08A0D9B1DF1
:1046100001E0400E00E0501E6A0C7B1C4C145D044F
:1046200028F4082F092B81F705D0F2CF8D01EAE19C
:104630000C9430228301F40109940C946B21B2CFC5
:10464000E0E008D007D001D0FACF7A936A9360E017
:1046500070E0089541D0EA9308950E941F22580106
:10466000C9013A016B0144245524012B81F12F3FEC
:104670003F4F41F49A010A2D80DF2801A3010E94D7
:104680008221C80100E0C016D006B1F0A0E0B0E081
:104690008C0101501040A301D0DF450108C0840106
:1046A000F601099511968301119501951040800E30
:1046B000911EA817B90798F34E855F8500E040303A
:1046C000500729F068897989920185014EDFE2E17E
:1046D000AFCF01D0C2CFE0E000D0EA93BCCFECEA8C
:1046E000FFE000811181012B19F000E010E0089536
:1046F00000E013E00083118300E014E0E0E0F3E069
:10470000008311838F0108950C94D220FFCF1D01E7
:10471000202F212B09F464C002501040F801408181
:104720005181443020E0520708F45AC02EEA3FE09D
:10473000D9011296ED91FC916E2F6F2B19F00E1787
:104740001F0738F4D8011296ED93FC93F90124C0A9
:10475000FB0148D019F060177107D0F30080118079
:10476000BF01600D711D06171707D0F160177107A3
:1047700039F48001040F151F008311838F010EC0CF
:1047800031D031F00801040E151E6015710540F19D
:10479000D80112966D937C9302831383F801A28152
:1047A000B3814A2F4B2BE1F040815181B801640F56
:1047B000751F6A177B07A1F4F90120E0208321838C
:1047C000FD0120813181F80140815181420F531F49
:1047D00040835183FD0122813381F8012283338399
:1047E000D101089562817381062E072A08950E94DF
:1047F0002922C80104C00E5F1F4F0E948723EEEAE2
:10480000FFE0A081B1810A2F0B2B69F4A0EBBFE080
:1048100032D011F12BD0F0F4DF011296F9CF26D06F
:10482000C8F4DF01129627D0D1F7EEEAFFE000814D
:10483000F181E02F00811181A0EBBFE002C0DF0118
:1048400012961DD0E017F10739F020813181281729
:104850003907A8F38D0107C00E946F23202F212B59
:1048600051F600E010E0E4E00C943A22008111815E
:1048700008171907089503D00E2F0F2B0895ED91F7
:10488000FC91119708950E942922C80102960817E9
:10489000190758F4843000E0900710F484E090E0A9
:1048A0008C01A5DFD801012B19F400E010E03BC01A
:1048B0000D911C911197F80140815181FA013497B3
:1048C000E817F90738F4F801228133812D933C93DE
:1048D000119714C09801280F391FFD0120833183DF
:1048E000F80162817381F90162837383481B590B5C
:1048F000C6DF40835183F801808391832D913C91E1
:10490000422F432B41F0F90142815381452B19F08D
:104910002E5F3F4F02C020E030E0EEEAFFE0208350
:1049200031830E5F1F4F9FCF24088E070000004E7B
:104930000040073649007D0D4E0DA81AB00D7F0DC1
:10494000AB1AB20DC90CAE1AB40DD60CAE1AB60D18
:10495000E30CAE1AB80DF00CAE1ABA0DFD0CB11A7C
:10496000BC0D0D0DB41ABE0D170DB71AC00D210DDB
:10497000BD1AC20D2B0DC01AC40D970CC31AA60F79
:044980000000C61A53
:004292012B
:00000001FF
