:100000000C947F3A18951895189518951895189589
:100010001895189518951895189518951895189578
:10002000189518950C94FD2C1895189518951895F9
:100030001895189518951895189518951895189558
:100040001895189518951895189518951895189548
:1000500018951895189518950C94BB2B189518950C
:100060001895189518951895189518951895189528
:1000700018951895189518950C941C2B0C94E22A39
:100080000C94002B189518951895189500000000F1
:100090000000000000000000000000000000000060
:1000A0000000000000000000000000000000000050
:1000B000F8050C061D09200951070C062C092F090B
:1000C00064070C063209350977070C0638093B0925
:1000D0008A070C063E0941099D070C064409470999
:1000E000B007C3074A094D096008C30750095309FF
:1000F00073088708560959098009000000000000AC
:1001000000000000000000000000000000000000EF
:1001100000000000000000000000000000000000DF
:1001200000000000000000000000000000000000CF
:10013000000000000000000000008E090000C1C0A7
:1001400081C1400101C3C003800241C201C6C00693
:10015000800741C70005C1C581C4400401CCC00C63
:10016000800D41CD000FC1CF81CE400E000AC1CA23
:1001700081CB400B01C9C009800841C801D8C01813
:10018000801941D9001BC1DB81DA401A001EC1DE93
:1001900081DF401F01DDC01D801C41DC0014C1D483
:1001A00081D5401501D7C017801641D601D2C012A3
:1001B000801341D30011C1D181D0401001F0C03073
:1001C000803141F10033C1F381F240320036C1F693
:1001D00081F7403701F5C035803441F4003CC1FC63
:1001E00081FD403D01FFC03F803E41FE01FAC03A23
:1001F000803B41FB0039C1F981F840380028C1E853
:1002000081E9402901EBC02B802A41EA01EEC02E92
:10021000802F41EF002DC1ED81EC402C01E4C02482
:10022000802541E50027C1E781E640260022C1E2A2
:1002300081E3402301E1C021802041E001A0C060B2
:10024000806141A10063C1A381A240620066C1A692
:1002500081A7406701A5C065806441A4006CC1AC62
:1002600081AD406D01AFC06F806E41AE01AAC06A22
:10027000806B41AB0069C1A981A840680078C1B812
:1002800081B9407901BBC07B807A41BA01BEC07E92
:10029000807F41BF007DC1BD81BC407C01B4C07482
:1002A000807541B50077C1B781B640760072C1B2A2
:1002B00081B3407301B1C071807041B00050C190F2
:1002C000819140510193C053805241920196C05692
:1002D000805741970055C19581944054019CC05C62
:1002E000805D419D005FC19F819E405E005AC19A22
:1002F000819B405B0199C059805841980188C04852
:1003000080494189004BC18B818A404A004EC18E91
:10031000818F404F018DC04D804C418C0044C18481
:10032000818540450187C047804641860182C042A1
:10033000804341830041C181818040400000000032
:1003400000000000000000000000000000000000AD
:10035000000000000000000000000000000000009D
:10036000000000000000000000000000000000008D
:10037000000000000000000000000000000000007D
:10038000000000003F0E4D0E4E0E4D0E000000000E
:10039000000000000000000000000000000000005D
:1003A000000000000000000000000000000000004D
:1003B000000000000000000000000000000000003D
:1003C000000000000000000000000000000000002D
:1003D00000000000F30E4D0E070F4D0E8911CC11D9
:1003E000000000000000000000000000000000000D
:1003F00000000000000000000000000000000000FD
:1004000000000000303C202D101C000D313D212C3F
:10041000111D010C343E242B141E040B353F252ADC
:10042000151F050A363926291619060937382728CF
:100430001718070851134D0E0000000000000000BF
:1004400000000000000000000000000000000000AC
:100450000000000000000000000000006513781399
:10046000000000000000000000000000000000008C
:10047000000000000000000000000000000000007C
:10048000000000000000000000000000000000006C
:10049000000000000000000000000000000000005C
:1004A000000000003E144D0E5514DA3CDA3CDA3CF4
:1004B000DA3CE51BE91B0000000000000000000022
:1004C000000000000000000000000000000000002C
:1004D000000000000000000000001E1C781D921D9E
:1004E000591D9D1D281E93209B20371C90205514BC
:1004F000751D8F1D9A1DAC1D97209F20EA040000DA
:1005000000000000000000000000000000000000EB
:1005100000000000000000000000000000000000DB
:100520000000F1200923D820EE204D0E000000002D
:1005300000000000000000000000000000000000BB
:1005400000000000000000000000000000000000AB
:100550005F23912346235C234D0E88249C24DA3CA0
:10056000DA3CDA3CDA3CDA3CDA3CAC28B028B42895
:10057000B828BC28C028C428C828CC28D0281927C7
:100580009C245827592762276B276C273027D428AB
:10059000D828DC28E028E428E828C428C828CC2863
:1005A000D02875279C24B427B527BE27BF27C82786
:1005B0008C27EC28F028F428F828FC280029C428E7
:1005C000C828CC28D028000000000000000000004F
:1005D000000000000000000000000000000000001B
:1005E00000000000000000000000D1279C24152816
:1005F0001D281E2826282E28E827AC28B028B42835
:10060000B828BC28C028C428C828CC28D028382816
:100610009C248128892891289928A1284F28AC2832
:10062000B028B428B828BC28C028C428C828CC289A
:10063000D0286C290000000000000000000000002D
:1006400000000000000000000000000000000000AA
:10065000000000003A2B932C00000000332C020114
:10066000300000000000000000000000000000005A
:1006700000006F0A012F0873060000171B0000001E
:1006800000000000000000000000000000BEF000BC
:100690000102030405060708090A0B0C0D0E0F10D2
:1006A0001112131415161718191A1B1C1D1E1F20C2
:1006B0002122232425262728292A2B2C2D2E2FFFE3
:1006C000FFFFFFFFFFFFFFFFFFFFFFFFFFFFFFFF3A
:1006D000FFFFFFFFFFFFFFFFFFFFFFFFFFFFFFFF2A
:1006E000FFFFFFFFFFFFFFFFFFFFFFFFFFFFFFFF1A
:1006F000FFFFFFFFFFFFFFFFFFFFFFFFFFFFFFFF0A
:10070000FFFFFFFFFFFFFFFFFFFFFFFFFFFFFFF9FF
:100710005A03030303030303030303030303030352
:1007200003030303030303030302020202020202A0
:100730000202020202020202020202020202020299
:100740000202020202020202020202020202020289
:100750000239413E3E3E3E3C3C3C3CFFFFFFFFFF3A
:10076000FFFFFFFFFFFFFFFFFFFFFF4B6F010204D3
:100770000810204080000000000000000000000081
:100780000000000000000000000000000000000069
:100790000000000000000000000000000000000059
:1007A0000000000000000000000000000000000049
:1007B0000000000000000000000000000000000039
:1007C0000000000000000000000000000000000029
:1007D0000000000000000000000000000000000019
:1007E0000000000000000000000000000099E80187
:1007F00001021000200000000000000000000000C6
:1008000000000000000000000000000000000000E8
:1008100000000000000000000000000000000000D8
:1008200000000000000000000000000000000000C8
:1008300000000000000000000000000000000000B8
:1008400023E20101050000FF00000000000000009D
:100850000000000000000000000000000000000098
:100860000000000000000000000000000000000088
:100870000000000000000000000000000000000078
:100880000000000000000000000000000000000068
:100890000000007B9C0101050100FF00000000003A
:1008A0000000000000000000000000000000000048
:1008B0000000000000000000000000000000000038
:1008C0000000000000000000000000000000000028
:1008D0000000000000000000000000000000000018
:1008E000000000000000FB6C0000000000000000A1
:1008F000400B001400000107160002101F000380C7
:1009000031000440B3000518F50006800F010751BF
:1009100091010851E401095137020A088A020000D6
:1009200000000000000000000000000000000000C7
:1009300000000000000000000000000000000000B7
:10094000000001010101010101010100000000009E
:100950000001010000000000000101000000000093
:10096000000101000000000000010101010101017E
:100970000101000000000000000000000000000075
:100980000000000000000000000000000000000067
:1009900000000101721B171B011E1B01251B012CEE
:1009A0001B01331B013A1B01411B074F1B01481B55
:1009B00001561B015D1B06641B2A791B03791B0171
:1009C000791B016B1BFB00008D2012008D208D20F8
:1009D000361E4B1E981EF71E221F2F1F4F1F5E1F15
:1009E000671F7C1FC91F282049205620762085209C
:1009F000000116271627011925062925014A250178
:100A00007225049A2501BB2501E325040B26012C40
:100A100026015426017C2601A42601A82401C9240C
:100A200001F12404CC2601ED26060727FB00000077
:100A300055270800422747274C2751275527552778
:100A4000552755270000B12708009E27A327A82770
:100A5000AD27B127B127B127B12700001228080020
:100A6000FA27FF2704280928122812280E281228FE
:100A700000007E280800612866286B2870287E28E0
:100A80007E2875287A280000173910000438173995
:100A9000283843386D387238773889389C38BF38F1
:100AA000C138E338E538F338FF381139EE0A9B2DA9
:100AB000BA93AA93D8018D010E94240E00EB10E096
:100AC000FD01018312838D01A991B9910895BA9313
:100AD000AA93D8018D01ECDF08EB10E0FD01018342
:100AE000128320E08D010E9417098D01A991B9910F
:100AF0000895BA93AA93D8018D01DADF00EC10E0D3
:100B0000FD010183128321E08D010E9417098D01EF
:100B1000A991B9910895BA93AA93D8018D01C8DF1C
:100B200008EC10E0FD010183128321E08D010E9499
:100B300017098D01A991B9910895BA93AA93D80183
:100B40008D01B6DF00ED10E0FD010183128321E08D
:100B50008D010E9417098D01A991B9910895BA9349
:100B6000AA93D8018D01A4DF08ED10E0FD010183F7
:100B7000128321E08D010E9417098D01A991B9917D
:100B80000895BA93AA93D8018D0192DF00EE10E088
:100B9000FD010183128321E08D010E9417098D015F
:100BA000A991B9910895BA93AA93D8018D01E9DF6B
:100BB00008EE10E0FD010183128321E08D010E9407
:100BC00017098D01A991B9910895BA93AA93D801F3
:100BD0008D010E94240E00EF10E0FD0101831283BD
:100BE00021E08D010E9417098D01A991B991089505
:100BF0000E947F3BC801D901082F092B51F020E04A
:100C000030E08C010E943F0EA0FB1EF48C010E947C
:100C1000993AE4E00C94903B0E947E3BD8018D0110
:100C20000E941A09005079F00A9571F00A9509F4AA
:100C30006AC00A9509F4A8C00A9509F4D3C00A95B8
:100C400009F4FDC02BC12AC1FD0181819281069664
:100C50008D010E9423090E94A135402E8D01FC01C7
:100C6000259134913197F90109954026442011F0DE
:100C700001E001C000E0002309F410C18D010E94D1
:100C8000290921E00E94EE340E946B09033021F112
:100C9000FD018181928104960E946B09402E8D0195
:100CA000FC01259134913197F9010995401610F016
:100CB00001E001C000E0002379F48D011196ED916F
:100CC000FC9112973496259134913597F901099545
:100CD0000E9468090E94CD358D011196ED91FC911D
:100CE00012973496259134913597F9010995802F03
:100CF0008D010E942609182F0E941D3622E08D01C9
:100D00000E941709CBC0FD018181928106968D0159
:100D10000E9423090E94A135402E8D01FC012591DE
:100D200034913197F90109954026442011F001E0F2
:100D300001C000E0002331F08D010E94290920E06C
:100D40000E94EE340E946509002369F00E94FA3582
:100D50008D010E94260911E00E941D3624E08D01BC
:100D60000E9417099BC00E946209002361F00E9443
:100D7000FA358D010E94260911E00E941D3623E0FC
:100D80008D010E9417098AC00E946509002329F07D
:100D900024E08D010E94170981C0FD0181819281AB
:100DA00006968D010E9423090E94A135402E8D01D7
:100DB000FC01259134913197F90109954026442091
:100DC00011F401E001C000E0002329F025E08D01CD
:100DD0000E94170963C08D010E94290920E00E942A
:100DE000EE345CC0FD018181928106968D010E94E6
:100DF00023090E94A135402E8D01FC0125913491DB
:100E00003197F90109954026442011F401E001C011
:100E100000E0002369F00E9403368D010E9426093C
:100E200010E00E941D3621E08D010E94170936C096
:100E30008D010E94290920E00E94EE342FC0FD019F
:100E40008181928106968D010E9423090E94A1351D
:100E5000402E8D01FC01259134913197F9010995BE
:100E60004026442011F001E001C000E0002331F0F1
:100E70008D010E94290920E00E94EE340E9465093C
:100E8000002361F00E9403368D010E94260910E0C4
:100E90000E941D3621E08D010E941709E5E00C94A7
:100EA0008F3B0E947F3BC801D901082F092B49F0D5
:100EB00020E030E08C019CDEA0FB1EF48C010E943F
:100EC000993AE4E00C94903B0E947F3BC801D90121
:100ED000082F092B49F020E030E08C0189DEA0FBCF
:100EE0001EF48C010E94993AE4E00C94903B0E941D
:100EF0007F3BC801D901082F092B49F020E030E0E1
:100F00008C0176DEA0FB1EF48C010E94993AE4E08D
:100F10000C94903B0E947F3BC801D901082F092BFC
:100F200049F020E030E08C0163DEA0FB1EF48C0170
:100F30000E94993AE4E00C94903B0E947F3BC801E8
:100F4000D901082F092B49F020E030E08C0150DE58
:100F5000A0FB1EF48C010E94993AE4E00C94903BB3
:100F60000E947F3BC801D901082F092B49F020E0DE
:100F700030E08C013DDEA0FB1EF48C010E94993A0A
:100F8000E4E00C94903B0E947E3BD8018D010E94CE
:100F90001A09005031F00A9529F0055009F461C092
:100FA0008CC08BC0FD018181928106968D010E94CB
:100FB00023090E94A135402E8D01FC012591349119
:100FC0003197F90109954026442011F001E001C054
:100FD00000E0002309F471C08D010E94290921E07D
:100FE0000E94EE340E946B09033021F1FD018181E2
:100FF000928104960E946B09402E8D01FC0125917F
:1010000034913197F9010995401610F001E001C0C3
:1010100000E0002379F48D011196ED91FC91129777
:101020003496259134913597F90109950E94680904
:101030000E94CD358D011196ED91FC911297349659
:10104000259134913597F9010995802F8D010E94E2
:101050002609182F0E941D3626E08D010E941709CF
:101060002CC0FD018181928106968D010E94230989
:101070000E94A135402E8D01FC01259134913197BC
:10108000F90109954026442011F401E001C000E077
:10109000002369F00E9403368D010E94260910E0AA
:1010A0000E941D3621E08D010E94170906C08D01A6
:1010B0000E94290920E00E94EE34E5E00C948F3B69
:1010C0000E947F3BC801D901082F092B49F020E07D
:1010D00030E08C0145DFA0FB1EF48C010E94993AA0
:1010E000E4E00C94903B0E947F3BC801D901082F9B
:1010F000092B51F020E030E08C010E943F0EA0FB54
:101100001EF48C010E94993AE4E00C94903B0E94FA
:101110007E3BD8018D010E941A09005049F00A95C2
:1011200041F00A9509F450C00A9509F45CC07CC0EE
:101130007BC0FD018181928106968D010E945C0930
:101140000E94AF35402E8D01FC01259134913197DD
:10115000F90109954026442011F001E001C000E0AA
:10116000002389F10E946B09063021F1FD01818184
:10117000928104960E946B09402E8D01FC012591FD
:1011800034913197F9010995401610F001E001C042
:1011900000E0002379F48D011196ED91FC911297F6
:1011A0003496259134913597F90109950E94680983
:1011B0000E94DB358D010E945F090E944E3722E0BC
:1011C0008D010E94170930C00E946209002361F15D
:1011D0000E9403360E949C370E94FA3523E08D015D
:1011E0000E94170921C0FD018181928106968D011F
:1011F0000E945C090E94AF35402E8D01FC012591B3
:1012000034913197F90109954026442011F401E009
:1012100001C000E0002341F00E9403360E949C3789
:1012200021E08D010E941709E5E00C948F3BF80145
:1012300020830895F80100810895980100E0089541
:10124000980100E00895F80105810895F8010381EF
:1012500008950C5F1F4F0895980100E008959801CC
:1012600000E00895980102E00895980100E00895D3
:10127000980102E00895980101E00895980103E0C3
:101280000895980100E00895980103E008959801F9
:1012900001E00895980101E00895980100E00895A3
:1012A000980101E00895980101E00895980106E091
:1012B0000895980100E00895F80104810895F80167
:1012C000038108950091A90B08950091AA0B089538
:1012D0000093FA0B08950091FA0B089528EF30E07F
:1012E000F80124833583F80120E02083F80120E011
:1012F0002183F80120E02283F80120E02383089570
:101300009A938A93C801082F092B29F020FB1EF419
:101310008C010E94993A8991999108959A938A93A0
:10132000C801082F092B29F020FB1EF48C010E9414
:10133000993A8991999108950E94C2090E94BE0923
:101340000E94C8090E94C409089508EF12E00E9493
:10135000C72C0E94C0090E94C60908950AE81CE033
:101360000E94C72C0E94C0090E94C60908950E94CD
:10137000C2090E94C8090E94F22C0895139A089588
:101380001B9A08951B980895149A08951C9A08951D
:101390001C9808957B2F2A2ED8010FEF1FEF40E0F5
:1013A00050E04217530798F46C91502F652711961F
:1013B000012F10E0E62FF0E0EE0FFF1FE45CFE4F80
:1013C000059014903197002511254395E9CFA22D62
:1013D000B72F0895F80100E010E0408150E0040FBD
:1013E000151F319621503040422F432BB1F70895FD
:1013F0000E947F3BF801C90120E030E0008110E04D
:10140000200F311F31960197082F092BB9F7DF0103
:10141000FD013196022F1C91011749F48901012F1A
:1014200010E01081011719F401E010E002C000E0A3
:1014300010E0E4E00C94903BF80140E00081400FA4
:10144000319621503040022F032BC1F70081401705
:1014500019F401E010E0089500E010E00895A89567
:101460000895202F2C3060F4022F10E048E050E067
:101470000E94A13AF801E25FF84F068117810895B2
:1014800000E008950091910708950BE008950093FE
:10149000AB0B08950E947F3B0E94F30AB0E0A1E0ED
:1014A0000A2F015039F00A9539F10A95A1F10A95F0
:1014B00081F133C00E94450AB017E0F42B2F0BE7EF
:1014C00019E00E94F30DC801082F092B89F04B2F5A
:1014D00043959C010BE719E00E944D0D002311F08C
:1014E000A2E01BC00E94420A0430B9F4A3E015C078
:1014F000A3E013C0A4E011C00E94420A033019F413
:10150000B395A1E00AC00E94420A043031F4A3E07E
:1015100004C001E00BC000E009C00E94230B0AE0F8
:1015200010E00E94842C0E942F0ABACFE4E00C94B1
:10153000903B0E94700D08950E94950D08950E94A1
:10154000C10D089500E00E94470A0E945D0C00232F
:1015500099F0EFDF002351F0F2DF002311F001E0FA
:10156000089504E00E94470A00E0089504E00E9404
:10157000470A90DF00E0089504E00E94470A8ADFEE
:1015800000E008950E94803BC801A22F2A2F2395D6
:101590008C010E94C10BE3E00C94913B8A93802F55
:1015A0000E94450A801730F4082F03950E94310AE3
:1015B00010E002C000E010E0899108950E94803B95
:1015C000C801A22F0A2FEADF98014A2F43958C0108
:1015D0000E944D0D10E0E3E00C94913B0CE817E005
:1015E0000E94BF3908950BE719E0EAE8F7E00083AD
:1015F000118300E00E94150E44E650E020E030E048
:101600000EE017E00E94AB3BEEE0F7E000E110E0F7
:1016100004831583EEE0F7E004E610E00683178309
:10162000EEE0F7E009E910E000871187EEE0F7E06F
:1016300009EA10E002831383EEE0F7E000E00083A4
:1016400000E0018308950E94180E005079F00A9579
:1016500071F00A95B1F00A9589F10A9509F443C031
:101660000A9509F459C00A9509F473C008950E94B7
:10167000120E28EC30E00E94D03902E00E94150ED4
:1016800008950E94000E002361F00E94120E20E1D6
:1016900037E20E94D0390E940C0E03E00E94150E22
:1016A00008950E94120E0E94EA39002331F004E0EE
:1016B0000E941B0E00E00E94150E08950E94090E64
:1016C000002321F004E00E94150E08950E94120EDE
:1016D0000E94EA39002331F004E00E941B0E00E072
:1016E0000E94150E089540E024E630E00EE017E079
:1016F00049D1012B51F00E94120E28EC30E00E94DB
:10170000D03905E00E94150E089504E00E941B0EDA
:1017100000E00E94150E08950E94000E002361F063
:101720000E94120E20E137E20E94D0390E940C0E76
:1017300006E00E94150E08950E94120E0E94EA39DA
:101740000023F1F004E00E941B0E00E00E94150E41
:1017500008950E94090E002339F003E00E941B0E39
:1017600000E00E94150E08950E94120E0E94EA39B0
:10177000002331F004E00E941B0E00E00E94150ED1
:1017800008950E94753BD1503801822E0CE08016DE
:1017900018F000E010E08DC0082D10E048E050E0A7
:1017A0000E94A13AF801E25FF84F04811581012BF4
:1017B000B1F1082D10E048E050E00E94A13AF80194
:1017C000E25FF84F00851185012B49F1082D10E0EB
:1017D00048E050E00E94A13AF801E25FF84F04812E
:1017E00015816801082D10E048E050E00E94A13A00
:1017F000F801E25FF84F008511855801A5019601B7
:101800008E010E94552BA5019E018E010E94C710DA
:10181000280103E0401600E0500650F403C000E049
:1018200010E047C004E00E94470A00E010E041C019
:101830000EEF400E0FEF501E082D10E048E050E074
:101840000E94A13AF801E25FF84F06811781401625
:10185000510631F004E00E94470A00E010E029C080
:10186000FE01E40DF51D808190E0FE01E40DF51D03
:10187000118100E0802B912B92018E010E94CA09F8
:10188000D8018A179B0781F4082D10E0000F111F63
:10189000F801EE58F84F80839183A2019E018301E5
:1018A0000E949B3B820105C004E00E94470A00E0C1
:1018B00010E0DF5FEEE00C94863B0E947F3B93DEFE
:1018C00020E00EE017E05DDF012B11F400E057C0CF
:1018D000B0E0A1E000E00E941E0E0A2F015059F076
:1018E0000A9509F10A9581F10A95D1F10A95E9F174
:1018F0000A95C9F13CC0BC30A0F42B2FEAE8F7E010
:10190000008111813EDFC801082F092B41F00E94A0
:10191000210E002311F0A2E02AC0A4E028C0A5E017
:1019200026C0A6E024C04B2F9C01EAE8F7E0008126
:101930001181B3D0002311F0A3E019C00E94420A24
:101940000430A9F4A5E013C00E94420A033011F448
:10195000A4E00DC00E94420A043049F4A5E007C08B
:10196000B395A1E004C001E00AC000E008C06BDE4E
:101970000AE010E00E94842C0E942F0AAECFE4E01F
:101980000C94903B0E94793BD1502801C901642EF0
:101990000CE0601618F000E010E07BC0AC01920192
:1019A0008E010E949B3B9C0182010E94CA09D801C2
:1019B0000A2FFE01E80FF91F00838D01012F10E0AF
:1019C000FE01E80FF91F0183062D10E048E050E00A
:1019D0000E94A13AF801E25FF84FA287B387AC01F9
:1019E0004E5F5F4F9E01EAE8F7E0008111810E949F
:1019F00044104801062D10E048E050E00E94A13A52
:101A0000F801E25FF84F00851185012B69F5EEE0E2
:101A1000F7E022813381062D10E048E050E00E947B
:101A2000A13AF801E25FF84F24833583EEE0F7E056
:101A300002811381080D191D02831383062D10E006
:101A400048E050E00E94A13AF801E25FF84F868337
:101A50009783062D10E048E050E00E94A13AF8017B
:101A6000E25FF84F80869186A401EAE8F7E02081E2
:101A70003181BA01062D10E048E050E00E94A13A01
:101A8000F801E25FF84F04811581AB010E94682BD9
:101A90008401DF5FEAE00C948A3B0E947E3BD80120
:101AA000C901442E0E94180E002399F4442D9C0174
:101AB0008D0168DF012B41F001E00E941B0E01E067
:101AC0000E94150E01E009C004E00E941B0E00E018
:101AD00004C002E00E941B0E00E0E5E00C948F3B86
:101AE000BD01E1E0F0E0EB3000E0F007D8F48F0159
:101AF000000F111FD801AE58B84F2D913C9111978E
:101B00008F0148E050E00E94A13AD801A85EB84F8A
:101B10000D911C9111972017310711F000E003C0BF
:101B20003196E1CF01E0DB010895BA93AA9366975D
:101B3000E0E0F0E0EB3000E0F007B0F48F0148E0C7
:101B400050E00E94A13AD801A05EB84F2D913C917F
:101B50001197DE018F01000F111FA00FB11F2D93F0
:101B60003C9311973196E6CF26E130E08E010E943A
:101B7000CA09EEE0F7E0008311836696A991B99156
:101B80000895BA93AA936697E0E0F0E0EB3000E0A6
:101B9000F007B0F48F0148E050E00E94A13AD8016C
:101BA000A05EB84F2D913C911197DE018F01000F7F
:101BB000111FA00FB11F2D933C9311973196E6CFC3
:101BC00026E130E08E010E94CA09EEE0F7E02081B4
:101BD00031812017310711F401E001C000E0669661
:101BE000A991B99108950E94803BC801A22F2A2F84
:101BF0008C010E94FA2BE3E00C94913BE39A089548
:101C0000E19B02C000E0089501E008950093DD0724
:101C100008950091DD07089500E00E94060E0E94DD
:101C2000FE0D08950CE817E00895009390070895BD
:101C300000919007089500939107089500939207EB
:101C4000089500919207089524E833E0F801218374
:101C50003283F80120E020830895AD01D8018D0181
:101C6000F3DF08E813E0FD0101831283FD0100E0CA
:101C70000383FD0100E004838D01DA0108959A9346
:101C80008A93C801082F092B29F020FB1EF48C0130
:101C90000E94993A89919991089508959A938A9307
:101CA000C801082F092B29F020FB1EF48C010E948B
:101CB000993A899199910895009161000460009387
:101CC000610008950091620004600093620008952D
:101CD000009162000B7F0093620008950091610003
:101CE000006100936100089500916200006100931B
:101CF00062000895009162000F7E009362000895D3
:101D000000916100026000936100089500916200FB
:101D10000D7F0093620008950091620002600093BD
:101D2000620008950000089500C000C000000895FA
:101D30000E94680E0E947A0E0E948C0E0E945C0E19
:101D40000E946E0E0E94800E08950E947E3BC80184
:101D5000422EA0E0A415A0F4B0E0FC01EA0FFB1FA6
:101D60000081002319F00E94740E02C00E947A0EB6
:101D70000E94620E0E94920E0E94680EA395EACF06
:101D80000E948C0E0E94940E0E94860EE5E00C9438
:101D90008F3BBA93AA93D8018D010E942D0E04EDBA
:101DA00013E0FD01018312838D01A991B99108957A
:101DB0000E947F3BD801C9018D01EBDF08ED13E0E4
:101DC000FD01018312838D010B5F1F4F0E94BF39FC
:101DD000FD018187928720E08D010E9417098D0106
:101DE000E4E00C94903B0E947F3BC801D901082F8E
:101DF000092B51F020E030E08C010E944E0EA0FB38
:101E00001EF48C010E94993AE4E00C94903B0E94ED
:101E10007F3BC801D901082F092B49F020E030E0B1
:101E20008C01E1DFA0FB1EF48C010E94993AE4E0F2
:101E30000C94903B0E947F3BD801922F832F8D0101
:101E40000E941A09005029F00A9561F00A9521F1C3
:101E500048C0FD0100E0038721E08D010E941709C1
:101E600000E040C0992321F0FD0103850160038754
:101E7000882321F0FD01038502600387FD01218590
:101E800032858D010B5F1F4F0E94D03922E08D01FA
:101E90000E94170900E026C08D010B5F1F4F0E94B2
:101EA000EA39002331F020E08D010E94170900E09B
:101EB00019C0992321F0FD01038501600387882360
:101EC00021F0FD01038502600387FD0103850330D6
:101ED00031F420E08D010E94170901E003C000E009
:101EE00001C000E0E4E00C94903B202F30E0E0E003
:101EF000F0E0E83000E0F0074CF4022F10E04E2F45
:101F00000E94B53A017030273196F3CF332311F494
:101F100001E0089500E00895980150E0E0E0F0E06D
:101F2000EC3000E0F00744F44E2F89010E94B03AF3
:101F3000017050273196F4CF552311F401E0089534
:101F400000E00895502F60E070E000E1509F00E055
:101F500000220FE01022B00108E0509F00E70022AD
:101F600000E0102260297129052F017014E0019F03
:101F700060297129052F007FB8DF10E8019F6029D3
:101F80007129052F0E78B1DF18E0019F60297129B2
:101F9000052F0D76AADF12E0019F60297129052F18
:101FA0000B75A3DF10E0602B712B8B0108950801E6
:101FB00060E0800100701F70AFDF102D17FB10E094
:101FC00010F9011711F061E001C060E0660F660FC3
:101FD000660F8001007718709FDF102D13FB10E053
:101FE00010F9011711F001E001C000E0000F000F2F
:101FF000602B8001047616708FDF102D11FB10E02E
:1020000010F9011711F001E001C000E0000F602B92
:1020100080010475157080DF102D1170011711F00B
:1020200001E001C000E0602B062F0895B8012223D3
:1020300011F48B010895209392072A9501E010E096
:10204000422F0E94AB3A602771278B010895B80197
:1020500020E044E08B010E94B03A007F202F062F41
:102060000695069506950E70202B062F02FB00E0C4
:1020700000F9202B022F08951801810198DF202FED
:102080008101D4DFE4DF08950E94743B38015901D7
:102090006A012224332444245524EE24C0FA36F461
:1020A0000FEFC00E0FEFD01EEE24E3948824992486
:1020B0008C149D0408F04BC0F501E40DF51D008162
:1020C00041DF20E030E0C801D90101E0400E00E02E
:1020D000501EF501E40DF51D008134DFA80160E01C
:1020E00070E0ECE08A019B014E2F0E94073B802BA1
:1020F000912BA22BB32B01E0400E00E0501E8C016F
:10210000F301E20DF31D008301E0200E00E0301E1C
:10211000892F9A2FAB2FB0E08C01F301E20DF31D54
:10212000008301E0200E00E0301E892F9A2FAB2F94
:10213000B0E08C01F301E20DF31D008301E0200EFD
:1021400000E0301E02E0800E00E0901EB1CFEE20D5
:10215000D1F0F501E40DF51D0081F4DEC801082F72
:10216000F301E20DF31D008301E0200E00E0301EBC
:10217000892F90E0082FF301E20DF31D008301E0A9
:10218000200E00E0301E8101EFE00C94853B0E94A0
:10219000733B2197580149017A016624772444242E
:1021A000552400E0088343E050E087010E94B83ADC
:1021B0004130504019F400E010E085C043E050E0A9
:1021C00087010E94B83A4230504031F40EEFE00EE1
:1021D0000FEFF01E01E00883CC24DD24CE14DF04D1
:1021E00008F050C0F401E40DF51D008110E020E07E
:1021F00030E0C801D90101E0400E00E0501EF401BA
:10220000E40DF51D008110E020E030E0322F212F99
:10221000102F00E0802B912BA22BB32B01E0400E5E
:1022200000E0501EF401E40DF51D208130E000E0D7
:1022300010E0802B912BA22BB32B01E0400E00E08D
:10224000501E8C010F7F1F7017DFF501E60DF71D83
:10225000008301E0600E00E0701E4CE08C019D01E7
:102260000E940E3B0F7F1F7007DFF501E60DF71D83
:10227000008301E0600E00E0701E03E0C00E00E08D
:10228000D01EACCF08810023E9F0F401E40DF51D68
:10229000008110E0C80101E0400E00E0501EF40192
:1022A000E40DF51D108100E0802B912B8C010F7F38
:1022B0001F70E2DEF501E60DF71D008301E0600E00
:1022C00000E0701E83012196E0E10C94843B0E94A3
:1022D0007F3BD801C9018D010E942D0E0CED13E04A
:1022E000FD01018312838D01075F1F4F0E94BF39DB
:1022F000FD0185839683FD0100E00087FD0100E07C
:10230000078320E08D010E9417098D01E4E00C9401
:10231000903B0E947F3BC801D901082F092B51F047
:1023200020E030E08C010E944E0EA0FB1EF48C01D8
:102330000E94993AE4E00C94903BBA93AA93D80196
:102340001596ED91FC9116970995002311F001E087
:1023500001C000E0A991B99108950E947F3BD80186
:10236000822F8D01FD0121813281F9013296259163
:1023700034913397F9010995FD010781081741F45C
:10238000FD0100E00783FD0100E0008701E001C0DE
:1023900000E0E4E00C94903BBA93AA93D8018D013D
:1023A0000E941A09005089F00A95C1F00A9541F17E
:1023B0000A9509F44AC00A9509F46CC00A9509F413
:1023C0008EC0025009F4B0C0B7C0FD010085FD0108
:1023D000078321E08D010E941709AEC08D01ADDF9A
:1023E000002369F08D010E949F1298018D01075F03
:1023F0001F4F0E94D03922E08D010E9417099CC016
:102400008D019BDF0023C1F08D01075F1F4F0E94EC
:10241000EA390023C9F08D010E94A31298018D01B1
:10242000075F1F4F0E94D039FD0102E0008723E0C3
:102430008D010E94170980C0FD010085FD01078301
:1024400020E08D010E94170977C08D0176DF0023FF
:10245000C1F08D01075F1F4F0E94EA390023C9F0C8
:102460008D010E94A71298018D01075F1F4F0E94E6
:10247000D039FD0103E0008724E08D010E94170997
:102480005BC0FD010085FD01078320E08D010E94F6
:10249000170952C08D0151DF0023C1F08D01075F84
:1024A0001F4F0E94EA390023C9F08D010E94AB1230
:1024B00098018D01075F1F4F0E94D039FD0104E094
:1024C000008725E08D010E94170936C0FD010085B7
:1024D000FD01078320E08D010E9417092DC08D01A9
:1024E0002CDF0023E1F08D01075F1F4F0E94EA39C6
:1024F000002311F18D010E94AF1298018D01075F39
:102500001F4F0E94D039FD0105E00087FD010085C5
:10251000FD01078327E08D010E9417090DC020E00F
:102520008D010E94170908C08D0107DF002321F4E7
:1025300020E08D010E941709A991B9910895980191
:1025400004E610E0089598010CED15E00895980157
:1025500008EB1BE00895980108E813E1089598013D
:1025600002E310E00895F8010081089500916100F0
:102570000160009361000895009162000E7F009356
:102580006200089500916100006200936100089567
:10259000009162000F7D009362000895169A0895DD
:1025A0001E980895179A08951F9808959A938A93EC
:1025B000C801E3EDF7E0808391830E94BC120E9482
:1025C000C8120E94D0120E94D4120E94B6120E9419
:1025D000C2120E94CE120E94D2120E94980E8991BD
:1025E000999108958A9380E0803350F5082F10E088
:1025F00046E050E00E94A13A9801E3EDF7E0008147
:102600001181020F131F0E94B312002361F0E82F03
:10261000F0E0EC5FFB4F049110E0F801ED56F84F4D
:1026200001E000830BC0E82FF0E0EC5FFB4F04916A
:1026300010E0F801ED56F84F00E000838395D4CF09
:1026400020E403E917E00E94A50E89910895BA934A
:10265000AA93D8018D010E942D0E04E314E0FD0120
:10266000018312838D010B5F1F4F0E94BF398D01C3
:10267000A991B9910895BA93AA93D8018D01E7DF82
:102680000CE514E0FD010183128320E08D010E941E
:10269000151421E08D010E9417098D01A991B991AE
:1026A00008950E947F3BC801D901082F092B51F0E2
:1026B00020E030E08C010E944E0EA0FB1EF48C0145
:1026C0000E94993AE4E00C94903B0E947F3BC80141
:1026D000D901082F092B49F020E030E08C01E1DF1F
:1026E000A0FB1EF48C010E94993AE4E00C94903B0C
:1026F0000E947F3BC8018C010E941A09005051F0D2
:102700000A9549F00A9539F10A95F9F10A9509F403
:102710005EC088C087C00E9479310023B9F00E9452
:102720008931002371F00E948131D8018C010E940F
:102730001B149D010E94D03923E08C010E941709CF
:1027400071C022E08C010E9417096CC020E08C014E
:102750000E94170967C08C010E9418140130A1F46F
:1027600020E08C010E94151401E00E9492310E9429
:102770008131D8018C010E941B149D010E94D03927
:1027800023E08C010E9417094DC08C010E9418148F
:10279000013071F420E08C010E9415140E948131F7
:1027A000D8018C010E941B149D010E94D0393AC0AF
:1027B0008C010E941B140E94EA39002399F105E064
:1027C0000E94470A24E08C010E9417092BC08C014B
:1027D0000E941814015019F00A95B1F023C020E0AE
:1027E0008C010E9415140CE00E941E140E9481317D
:1027F000D8018C010E941B149D010E94D03923E056
:102800008C010E9417090EC020E08C010E94151453
:1028100000E00E9492310CE00E941E1422E08C0124
:102820000E941709E4E00C94903BF801248308957A
:10283000F801048108950B5F1F4F08950093FB0A70
:1028400008958A9380E086E086E086E085E084E66D
:1028500089E900E00E941E140E94FC37FDCFBA9364
:10286000AA93D8018D010E942D0E04EA14E0FD0107
:10287000018312838D01A991B99108950E947F3B34
:10288000C801D901082F092B51F020E030E08C015C
:102890000E944E0EA0FB1EF48C010E94993AE4E0C7
:1028A0000C94903BF801258308959A938A93C8016C
:1028B0008C010E941A09002311F401E001C000E01C
:1028C0008991999108950E947D3B2801C901DA01FF
:1028D000AD019C018201F20161817281FB0136969A
:1028E000659174913797FB010995D801AD019C0161
:1028F0008201F20161817281FB013C9665917491C4
:102900003D97FB010995E6E00C948E3B0E947A3BD3
:10291000D801722E632E842ECB01AC01362D306887
:10292000272D8D01FD0161817281FB013A96659130
:1029300074913B97FB0109952801FC01E40DF51DFD
:10294000808201E0400E00E0501E8201E9E00C941C
:102950008B3B0E94793B28010A012A843B848C85A9
:102960009D8550E06624A0E0B0E0A015B105F0F42C
:10297000490194012F5F3F4FFB01E80DF91D0081D4
:10298000002331F001E010E0462D0E94AB3A502BBD
:1029900007E0601641F4F101E80FF91F508301963A
:1029A00050E0662401C063941196DFCF662029F0C1
:1029B000F101E80FF91F508301968C01EEE00C94B1
:1029C0008A3B0E94733B280159014A01CB018201D5
:1029D000F20121813281F9013E96259134913F9790
:1029E000F90109953801F501E60DF71D3197F080E1
:1029F000F501E60DF71DE080F501E60DF71DD1802C
:102A0000CC24F501E60DF71D028110E0C02AD12A81
:102A1000F501E60DF71DB381A0E0F501E60DF71D08
:102A2000048110E0A02BB12B0A2F0B2B21F0A13D2C
:102A300007E0B00740F0B40143E03E2D2F2D8201A6
:102A400065DFC80144C0F201028D138D96012A0F83
:102A50003B1F0217130740F4B40142E03E2D2F2D17
:102A6000820154DFC80133C0A4013E2D2F2D820105
:102A7000F20161817281FB013A96659174913B97F5
:102A8000FB010995C8010A2F0770002359F043E0A4
:102A90008D010E94B03A0395F401E80FF91F0083FD
:102AA000019609C043E08D010E94B03AF401E80F9D
:102AB000F91F008301969A938A939A928A92F2015F
:102AC00062897389AD019601820143DFC8018C01DF
:102AD000E0E10C94843B0E94733B280159014A01B8
:102AE000CB018201F20121813281F9013E962591CB
:102AF00034913F97F90109953801F501E60DF71D6D
:102B00003197F080F501E60DF71DE080F501E60D47
:102B1000F71DD180CC24F501E60DF71D028110E0F0
:102B2000C02AD12AF501E60DF71DB381A0E0F50119
:102B3000E60DF71D048110E0A02BB12B0A2F0B2B03
:102B400021F0A13D07E0B00740F0B40143E03E2D85
:102B50002F2D8201DBDEC80144C0F201048D158DEA
:102B600096012A0F3B1F0217130740F4B40142E0FD
:102B70003E2D2F2D8201CADEC80133C0A4013E2D97
:102B80002F2D8201F20161817281FB013A966591DC
:102B900074913B97FB010995C8010A2F0770002328
:102BA00059F043E08D010E94B03A0395F401E80F1B
:102BB000F91F0083019609C043E08D010E94B03ADD
:102BC000F401E80FF91F008301969A938A939A9271
:102BD0008A92F20164897589AD0196018201B9DE9C
:102BE000C8018C01E0E10C94843B0E94733B2801F6
:102BF00069014A01CB018201F20121813281F9018F
:102C00003E96259134913F97F90109955801F601B7
:102C1000EA0DFB1D3197F080F601EA0DFB1DE08007
:102C2000F601EA0DFB1DB181A0E0F601EA0DFB1DE6
:102C3000028110E0A02BB12BF601EA0DFB1D738081
:102C40006624F601EA0DFB1D048110E0602A712A5A
:102C5000062D072929F00EE7601600E0700640F007
:102C6000B40143E03E2D2F2D820150DEC80152C039
:102C7000F201068D178D9D01260D371D02171307D2
:102C800040F4B40142E03E2D2F2D82013FDEC80109
:102C900041C0A4013E2D2F2D8201F201618172817C
:102CA000FB013A96659174913B97FB010995C80128
:102CB000062D000FF401E80FF91F0083019600E0D4
:102CC00010E00615170530F5F201468957899D0178
:102CD000220F331F420F531FFA0120813181232F0E
:102CE00030E0F401E80FF91F20830196F2014689D4
:102CF00057899D01220F331F420F531FFA01208174
:102D00003181F401E80FF91F2083019611960F5FBE
:102D10001F4FD7CF8C01E0E10C94843B0E94733BA2
:102D2000280169014A01CB018201F201218132812E
:102D3000F9013E96259134913F97F9010995580183
:102D4000F601EA0DFB1D3197F080F601EA0DFB1D3F
:102D5000E080F601EA0DFB1DB181A0E0F601EA0D6D
:102D6000FB1D028110E0A02BB12BF601EA0DFB1D2B
:102D700073806624F601EA0DFB1D048110E0602AD1
:102D8000712A062D072929F00EE7601600E070066B
:102D900040F0B40143E03E2D2F2D8201B7DDC80184
:102DA00052C0F20100A111A19D01260D371D02178D
:102DB000130740F4B40142E03E2D2F2D8201A6DD21
:102DC000C80141C0A4013E2D2F2D8201F201618175
:102DD0007281FB013A96659174913B97FB010995CD
:102DE000C801062D000FF401E80FF91F00830196BA
:102DF00000E010E00615170530F5F201408D518D09
:102E00009D01220F331F420F531FFA012081318190
:102E1000232F30E0F401E80FF91F20830196F2011F
:102E2000408D518D9D01220F331F420F531FFA0118
:102E300020813181F401E80FF91F2083019611965A
:102E40000F5F1F4FD7CF8C01E0E10C94843B0E94B1
:102E5000733B580129016A01CB018501F5012181EC
:102E60003281F9013E96259134913F97F9010995F8
:102E70003801F201E60DF71D3197F080F201E60D01
:102E8000F71DE080F201E60DF71D91808824F20124
:102E9000E60DF71D028110E0802A912AF501028DCE
:102EA000138D8016910640F0B60142E03E2D2F2D85
:102EB00085012CDDC8012EC0F201E60DF71DB3819E
:102EC000A0E0F201E60DF71D048110E0A02BB12B6C
:102ED000A0300FEFB00751F4940101E00E946B3174
:102EE000AC01920186010E949B3B14C00A2F0B2B60
:102EF00051F4940100E00E946B31AC019201860113
:102F00000E949B3B07C0B60143E03E2D2F2D85015B
:102F1000FDDCC8018C01E0E10C94843B0E94753B10
:102F20002801C9015A014B018201F201218132813C
:102F3000F9013E96259134913F97F9010995D80101
:102F4000FC01EA0FFB1F3197D080FC01EA0FFB1F49
:102F5000C080FC01EA0FFB1F71806624FC01EA0FB0
:102F6000FB1F028110E0602A712AF201068D178D85
:102F70006016710640F0B50142E03C2D2D2D820116
:102F8000C5DC48011CC0FC01EA0FFB1F538140E077
:102F9000FC01EA0FFB1F048110E0402B512BF201D2
:102FA000268937898301000F111F200F311FF90176
:102FB00040835183A4019C0185010E949B3B8401B5
:102FC000EEE00C94863B0E94733B280139016A01B4
:102FD000CB018201F20121813281F9013E962591D6
:102FE00034913F97F90109954801F301E80DF91D66
:102FF0003197F080F301E80DF91DE080F301E80D51
:10300000F91DB180AA24F301E80DF91D028110E039
:10301000A02AB12AF301E80DF91DB381A0E0F30164
:10302000E80DF91D048110E0A02BB12B0A2F0B2B0A
:1030300021F0A13B07E0B00740F0B60143E03E2D90
:103040002F2D820163DCC80134C0F201028D138D83
:1030500095012A0F3B1F0217130740F4B60142E007
:103060003E2D2F2D820152DCC80123C0A5019D01F8
:103070008301080D191D0A5F1F4F0E943231A601FE
:103080003E2D2F2D8201F20161817281FB013A9662
:10309000659174913B97FB010995C80144E050E0AC
:1030A0009301280F391F8601080F191F0E949B3BAF
:1030B00004968C01E0E10C94843B0E94733B480130
:1030C00029016A013B018401F40121813281F90166
:1030D0003E96259134913F97F9010995C801F20177
:1030E000E80FF91F3197F080F201E80FF91FE08037
:1030F000F201E80FF91FB181A0E0F201E80FF91F1A
:10310000028110E0A02BB12BF201E80FF91FB38070
:10311000AA24F201E80FF91F048110E0A02AB12AC5
:103120000A2D0B2929F00CE7A01600E0B00640F0AC
:10313000B60143E03E2D2F2D8401E8DB38014FC05E
:10314000F401068D178D9D012A0D3B1D02171307F3
:1031500040F4B60142E03E2D2F2D8401D7DB38012B
:103160003EC020E030E02A153B05E0F4F201E80F14
:10317000F91F568140E0F201E80FF91F078110E0C6
:10318000402B512BF401668977898D01000F111FA7
:10319000600F711FFB0140835183119602962F5FD0
:1031A0003F4FE1CFA6013E2D2F2D8401F401618117
:1031B0007281FB013A96659174913B97FB010995E9
:1031C000380144E050E09201260D371D8601060DBE
:1031D000171D0E949B3B04E0600E00E0701E8301FF
:1031E000E0E10C94843B08010FEF1FEF0895080104
:1031F00000E010E008950E94773B28014901DA01C0
:10320000CB018201F20121813281F9013E962591A3
:1032100034913F97F90109953801F401E60DF71D46
:103220003197B080F401E60DF71DA080AD013A2D75
:103230002B2D8201F20161817281FB013A96659129
:1032400074913B97FB010995C801FD01E80FF91F37
:1032500003E000830196FD01E80FF91F00E20083FF
:103260000196FD01E80FF91F07E000830196FD01BB
:10327000E80FF91F02E3008301968C01ECE00C9447
:10328000883B0E94733B38014901DA01CB0183017D
:10329000F30121813281F9013E96259134913F97C6
:1032A000F90109952801F401E40DF51D3197B0806D
:1032B000F401E40DF51DA080F401E40DF51DE2809C
:1032C000FF248C0106501040E016F10641F0BD01CC
:1032D00042E03A2D2B2D830119DBC8012AC1AD0133
:1032E0003A2D2B2D8301F30161817281FB013A9606
:1032F000659174913B97FB010995C801F401E40DB8
:10330000F51D0381005049F00A9579F10A9509F4F9
:103310009BC00A9509F4DEC005C1FD01E80FF91F45
:1033200000E000830196FD01E80FF91F04E000832F
:103330000196F401E40DF51D0381FD01E80FF91F6D
:1033400000830196FD01E80FF91F02E0008301965A
:10335000FD01E80FF91F00E000830196FD01E80F71
:10336000F91F02E000830196E4C0F401E40DF51DAD
:103370000481C02E0E94450A0C1540F4BD0142E0B4
:103380003A2D2B2D8301C2DAC801D3C0CC20B1F570
:103390002C2D8D01040D151D0B5F1F4F0E94C20ABD
:1033A0002091040CFD01E40DF51D25832091030CF3
:1033B000FD01E40DF51D2683FD01E40DF51D20E35F
:1033C0002783FD01E80FF91F20E020830196202FBD
:1033D000FD01E80FF91F20830196F401E40DF51DAE
:1033E0002381FD01E80FF91F20830196FD01E80FFD
:1033F000F91FC0820196800F911F9BC02C2D8D015B
:10340000040D151D0B5F1F4F0E94C20A9801FD019C
:10341000E80FF91F00E000830196022FFD01E80F7D
:10342000F91F00830196F401E40DF51D0381FD01F0
:10343000E80FF91F00830196FD01E80FF91FC08214
:103440000196820F931F75C0F401E40DF51D0481F0
:10345000C02E0E94450A0C1540F4BD0142E03A2DF1
:103460002B2D830153DAC80164C00C2D0E94CE0AB3
:103470009801F401E40DF51D028110E002501040A6
:103480000217130741F0BD0143E03A2D2B2D8301B4
:103490003DDAC8014EC02C2D8401040D151D0B5FB3
:1034A0001F4F0E94DE0A012B69F00E949C0A0DE06A
:1034B0000E941E14BD0145E03A2D2B2D830126DA12
:1034C000C80137C0BD0147E03A2D2B2D83011EDA1C
:1034D000C8012FC00E94420A033081F4AD013A2D89
:1034E0002B2D8301F30161817281FB013A96659175
:1034F00074913B97FB010995C8011BC00E94420AC9
:10350000013041F4BD0146E03A2D2B2D8301FED957
:10351000C8010FC0BD0141E03A2D2B2D8301F6D922
:10352000C80107C0BD0141E03A2D2B2D8301EED922
:10353000C8018C01E0E10C94843B0E94773BD801E8
:1035400049012A01CB018D01FD0121813281F9015F
:103550003E96259134913F97F90109953801F40180
:10356000E60DF71D3197B080F401E60DF71DA08040
:103570000E94420A033081F4A2013A2D2B2D8D01C5
:10358000FD0161817281FB013A96659174913B97CF
:10359000FB010995C80113C00E94420A013041F4A1
:1035A000B20146E03A2D2B2D8D01B0D9C80107C0DC
:1035B000B20141E03A2D2B2D8D01A8D9C8018C0113
:1035C000ECE00C94883B0E94743BD80129013A013D
:1035D0005B018D01FD0121813281F9013E9625912A
:1035E00034913F97F90109954801F201E80DF91D61
:1035F0003197C080F201E80DF91DE080C501DC2C97
:10360000DD0CDD08FD01058110E0C016D10629F0B2
:10361000CC2019F000E010E070C00E2D102F110F1B
:10362000110BE2E9F0E0FBBFF9E00C94363BBC0182
:10363000A30192018D01C5D9C8015BC0BC01A301E2
:1036400092018D0148DAC80154C0BC01A301920166
:103650008D01CBDAC8014DC0BC01A30192018D01DF
:103660005DDBC80146C0BC01A30192018D01EFDB07
:10367000C8013FC0BC01A30192018D014FDCC8010C
:1036800038C0BC01A30192018D01ADDDC80131C07C
:10369000BC01A30192018D0196DCC8012AC0BC01C6
:1036A000A30192018D0149DFC80123C0BC01A30120
:1036B00092018D0102DDC8011CC0BC01A301920171
:1036C0008D0199DDC80115C0BC01A30192018D01D6
:1036D0008EDDC8010EC0BC01A30192018D01D1DDB8
:1036E000C80107C0B30141E03E2D2C2D8D010ED93C
:1036F000C801FD01848795878C01EFE00C94853B20
:10370000B80101E010E008950E94773BD80129013B
:103710003A018D01FD0121813281F9013E96259109
:1037200034913F97F9010995C801F201E80FF91F9B
:1037300031979080F201E80FF91F80805301FD015D
:103740000681091591F4FD010781081571F402E065
:10375000801641F4A5019201280F391F2E5F3F4FBB
:103760008D01CEDF01E010E02DC08D01FD01218132
:103770003281F9017096259134917197F90109957B
:1037800098018C01020F131F0E5F1F4FA016B10688
:1037900031F487FA16F401E003C000E001C000E054
:1037A000002371F0F201E80FF91F21812C302CF475
:1037B000022F102F110F110B05C00EE010E002C0F8
:1037C00001E010E0ECE00C94883B980101E010E08F
:1037D0000895980102E010E008950E947D3BC80121
:1037E000D9010A2F0B2B11F401E001C000E00023E6
:1037F00079F00CEF402E04E0502EDC011F96FC0106
:10380000A587B6878C01015F1F4F0E942F1406C049
:10381000FC0143845484FC01A587B6870AED14E0BB
:10382000FC0103871487F201059114913197FD0182
:10383000018312838C01E6E00C948E3B0E947F3B57
:10384000C801D901082F092B79F00A2F0B2B39F069
:1038500020E030E08C01015F1F4F0E943E14A0FB6E
:103860001EF48C010E94993AE4E00C94903B0F50B6
:103870001040E4CF0E94733B229728833983D801FC
:103880002A013B018D889E888F89988DED8CFE8C56
:10389000CF8CD8A0A9A0BAA0088119810D931C9340
:1038A0001197FD0142825382648275820A89FD016B
:1038B00000870B89FD0106830C89FD010783FD014B
:1038C00005851685F80186869786FD01058516858E
:1038D000F801808B918B298D3A8DFD010585168528
:1038E000F801228B338B2B8D3C8DFD0105851685D0
:1038F000F801248B358BFD0105851685F801E68AD4
:10390000F78AFD0105851685F801C08ED18EFD016F
:1039100005851685F801A28EB38E2BA13CA1FD0171
:1039200005851685F801248F358F2DA13EA1FD0157
:1039300005851685F801268F378F2FA138A5FD0143
:1039400005851685F80120A331A3FD01428153812D
:103950006481758100E412E42FE030E00E94113BA5
:1039600040E250E060E070E00E94E33A0801190193
:1039700048EE53E060E070E0800191010E94113B4D
:103980000F5F1F4FFD0101871287FD010585168519
:10399000F801428D538D20E030E0FD01058516854C
:1039A000F801028913890E94AB3BFD01058516854C
:1039B000F801448D558D20E030E0FD010585168528
:1039C000F801048915890E94AB3BFD010585168528
:1039D000F801468D578D440F551F20E030E0FD0162
:1039E00005851685F801068917890E94AB3BFD0104
:1039F00005851685F80140A151A1440F551F20E00F
:103A000030E0FD0105851685F801008D118D0E94BD
:103A1000AB3B9A938A939A928A92FD0107810A930B
:103A2000FD013681FD012085FD01428153816481C4
:103A300075810D911C9111970E947A292296E7E2D7
:103A40000C94843BBA93AA93D8010D911C911197C1
:103A50000E94AF29A991B9910895BA93AA93D80168
:103A60000D911C9111970E94BE29A991B9910895B9
:103A7000BA93AA93D8010D911C9111970E94CF2956
:103A8000A991B9910895BA93AA93D8010D911C9167
:103A900011970E94FD29A991B9910895BA93AA930B
:103AA000D8010D911C9111970E94182AA991B991E2
:103AB00008950E947D3B2801D901CA019C018D0116
:103AC0000E94CA099801022FFD01E80FF91F008327
:103AD00001968901012F10E0FD01E80FF91F008315
:103AE00001968C01E6E00C948E3B0F501040E1CF24
:103AF0001D010801E881F981208331838A01012FAA
:103B000010E00283042F03838B01012F10E0048354
:103B1000062F058306E010E0D101229608950F508C
:103B20001040E6CFB801FA012083FA01318302E0A8
:103B300010E008950F501040F5CF0E947D3BD80152
:103B40002901CA01AC0192010D911C9111970E94AB
:103B50002C2AE6E00C948E3B0F501040EECFBA9327
:103B6000AA93D8010D911C9111970E94A620A991AA
:103B7000B9910895BA93AA93D8010D911C91119708
:103B80000E94A320A991B99108950E947D3BD8017C
:103B90002901CA01AC0192010D911C9111970E945B
:103BA000342AE6E00C948E3B0E947F3BD801C90189
:103BB0000E94A920FD0125853685F90122853385DE
:103BC000021B130B0817190710F001E001C000E0F9
:103BD000E4E00C94903BBA93AA93D8010E94A920E8
:103BE000FD0125853685F90102871387A991B991D1
:103BF00008950E94793B4801D901CA01843000E050
:103C0000900710F400E021C0FD01E80FF91F319783
:103C100050804424FD01E80FF91F3297008110E025
:103C2000402A512A9C01225030408D010E94CA092D
:103C300038019C01225030408D010E94CA090415B0
:103C4000150511F401E001C000E0EAE00C948A3BA4
:103C50000E947F3BD801FD01058516850E941A0947
:103C6000E6ECF0E0FBBFF9E00C94363B8D01B3DFEE
:103C70008D01E8DEFD0105851685F80100E0048769
:103C800000E005878D01E9DE23E0FD01058516854D
:103C90000E94170942C28D016DDF0023E1F140E06F
:103CA00051E0FD0105851685F80104851585401B49
:103CB000510BFD0105851685F80126853785FD0127
:103CC00005851685F80104851585200F311F8D01A6
:103CD0005CDFC801813000E090079CF0FD010585A4
:103CE0001685F80104851585080F191F04871587A7
:103CF0008D0171DF24E0FD01058516850E941709FD
:103D00000AC08F3F0FEF900731F422E0FD010585D7
:103D100016850E94170928E93AE38D0145DF002343
:103D200031F022E0FD01058516850E941709F5C1D5
:103D30008D0120DF0023B1F140E051E0FD01058558
:103D40001685F80104851585401B510BFD0105857D
:103D50001685F80126853785FD0105851685F8014C
:103D600004851585200F311F8D010FDFC8018130BB
:103D700000E090076CF0FD0105851685F8010485CB
:103D80001585080F191F048715878D0124DF0AC0C8
:103D90008F3F0FEF900731F422E0FD010585168576
:103DA0000E941709FD01218532858D01FDDE00236A
:103DB000E9F0FD0105851685F80144855585FD016D
:103DC00005851685F801268537858D0112DF0023CC
:103DD00039F025E0FD01058516850E9417099DC172
:103DE00022E0FD01058516850E94170996C1FD0197
:103DF00005851685F80164857585FD01058516859F
:103E0000F80140895189FD0105851685F80126854F
:103E10003785FD01058516850E94E31A012B49F0BF
:103E20000E94AE2026E0FD01058516850E94170937
:103E300074C10E94B42022E0FD01058516850E9410
:103E400017096BC18D01C7DE8D01FCDD8D0110DE10
:103E500027E0FD01058516850E9417095EC125E052
:103E600030E08D01A1DE0023C9F0FD010585168536
:103E7000F80144855585FD0105851685F8012089E1
:103E80003189FD01058516850E9463148D01FBDDD6
:103E900028E0FD01058516850E9417093EC18D01A8
:103EA0005EDE002351F08D01F9DD0E94B42022E096
:103EB000FD01058516850E9417092FC18D01D8DDEA
:103EC00020E0FD01058516850E94170926C18D0198
:103ED00082DE8D01B7DDFD0105851685F80100E064
:103EE000048700E005878D01B8DD2BE0FD01058525
:103EF00016850E94170911C18D013CDE0023E1F1F6
:103F000040E051E0FD0105851685F8010485158521
:103F1000401B510BFD0105851685F8012685378567
:103F2000FD0105851685F80104851585200F311FD3
:103F30008D012BDEC801813000E090079CF08D01DF
:103F40004ADEFD0105851685F80104851585080FF3
:103F5000191F048715872CE0FD01058516850E9431
:103F600017090AC08F3F0FEF900731F421E1FD01DF
:103F7000058516850E94170928EE33E08D0114DEB1
:103F8000002331F021E1FD01058516850E94170906
:103F9000C4C08D01EFDD0023B1F140E051E0FD012F
:103FA00005851685F80104851585401B510BFD011B
:103FB00005851685F80126853785FD010585168559
:103FC000F80104851585200F311F8D01DEDDC80144
:103FD000813000E090076CF08D01FDDDFD0105856D
:103FE0001685F80104851585080F191F04871587A4
:103FF0000AC08F3F0FEF900731F421E1FD010585E5
:1040000016850E941709FD01218532858D01CCDDC1
:104010000023E9F0FD0105851685F80144855585E5
:10402000FD0105851685F801268537858D01E1DDC1
:10403000002339F02DE0FD01058516850E94170942
:104040006CC021E1FD01058516850E94170965C038
:10405000FD0105851685F80144855585FD01058519
:104060001685F80126853785FD01058516850E9490
:10407000841B012B39F021E1FD01058516850E9485
:1040800017094BC021E1FD01058516850E9417091E
:1040900044C08D01A0DD8D01D5DC0E94AE202FE053
:1040A000FD01058516850E94170937C025E030E01F
:1040B0008D017ADD002389F1FD0105851685F80162
:1040C00044855585FD0105851685F80120893189CE
:1040D000FD01058516850E9463148D01D4DC20E165
:1040E000FD01058516850E94170917C08D0137DD72
:1040F000002399F08D01D2DC0E94B4202AE0FD015A
:10410000058516850E94170908C08D01B1DC20E0E5
:10411000FD01058516850E941709E4E00C94903B8B
:104120000F50104095CD980101E010E008950F5018
:1041300010400C949320980102E010E008950F5075
:1041400010400C949B20F80102A50895F80103A5E6
:104150000895EEEDF7E0008111810895009162006D
:104160000F7B009362000895009162000064009349
:10417000620008950E947F3BD801822F8D01055F68
:104180001F4F0E942D0E02E215E0FD0101871287EC
:1041900008E215E0FD01048715878C9320E08D016E
:1041A000055F1F4F0E9417098D01E4E00C94903BBE
:1041B0000E947F3BC801D901082F092B61F020E044
:1041C00030E08C01055F1F4F0E944E0EA0FB1EF4D5
:1041D0008C010E94993AE4E00C94903B0B50104003
:1041E000E7CF1D01D801F9010081FD01008BF90124
:1041F00001811281FD01018B128BF9010381148170
:10420000FD01038B148BF90105811681FD010583E6
:104210001683F90107811085FD01058B168BF901C5
:1042200000891189FD01038F148FF901028513851F
:10423000FD01078B108FF90145855685F90107852A
:1042400010E0000F111F400F511FFD01418F528FD1
:10425000F9010785085F0787F90160897189F9010C
:10426000028910E048E150E00E94A13A600F711FFE
:10427000FD01638F748FF9010289085F028BF901D8
:10428000038914890F5F1F4FFD0107831087FD010C
:1042900000E0058FD10108950E947D3BD801FD010A
:1042A000038914890E5F1F4FC80100E0083078F4BD
:1042B000FD01238D348D10E0200F311FF901208185
:1042C00010E0FC01E00FF11F20830395EFCF28E001
:1042D00030E08C010E94EA092801FD01038914895C
:1042E000065F1F4FC801042DFC0100830196820167
:1042F000012F10E0FC010083FD0103891489F801FE
:1043000001E80083FD0100890E94492F0AE613E0BD
:1043100001501040E9F700C000004DE050E0FD0101
:1043200023893489FD01018912890E94652C0E942C
:104330006E2FFD0101891289F8010181013849F4CC
:10434000FD0101891289F80104850E3711F401E09D
:1043500001C000E0E6E00C948E3B0E94793BD8015E
:10436000992420E0283020F5FD01038D148D30E0E4
:10437000020F131FF80100850F3FC1F0FD010589F1
:104380001689FD01438D548D30E0420F531FFA0111
:10439000408550E0040F151FF8010081002331F023
:1043A00001E010E0422F0E94AB3A902A2395DACF29
:1043B000882420E0283020F5FD01038D148D30E0A5
:1043C000020F131FF80100890F3FC1F0FD0105899D
:1043D0001689FD01438D548D30E0420F531FFA01C1
:1043E000408950E0040F151FF8010081002331F0CF
:1043F00001E010E0422F0E94AB3A802A2395DACFE9
:104400005524FD010381002329F0FD0100E0038311
:10441000689450F8FD010481002329F0FD0100E0BB
:104420000483689451F8FD010181002329F0FD0106
:1044300000E00183689452F8FD010281002329F015
:10444000FD0100E00283689453F8FD01038914899B
:10445000F80102E40083FD01038914890E5F1F4FF8
:10446000C801442420E02830A8F4FD01018D128DFC
:10447000422F50E0440F551F040F151FF801018112
:10448000002331F001E010E0422F0E94AB3A402AB5
:104490002395E9CFFC0140820196442420E0283096
:1044A000A8F4FD01018D128D422F50E0440F551FDD
:1044B000040F151FF8010081002331F001E010E026
:1044C000422F0E94AB3A402A2395E9CFFC0140825B
:1044D0000196FC0190820196FC0180820196FC010C
:1044E0005082019625E030E0FD01038914890E5FBA
:1044F0001F4F0E94EA093801062DFC010083019636
:104500008301012F10E0FC0100830196FC010EE7FE
:1045100000830196FD0100890E94492F0AE613E0FD
:1045200001501040E9F700C000004AE050E0FD01F2
:1045300023893489FD01018912890E94652C0E941A
:104540006E2FFD0101891289F8010181045209F4DD
:1045500046C00E5109F045C025E030E0FD0101895B
:1045600012890E5F1F4F0E94F80901301040CCF1F4
:10457000FD0101891289F80101850E3791F5FD01D0
:1045800000E0058F20E08D010E942723FD010189B5
:104590001289F8010281402E20E02830F0F401E079
:1045A00010E0422F0E94AB3A142D1023112351F03A
:1045B000FD010789108D30E0020F131FF80101E0A3
:1045C000008309C0FD010789108D30E0020F131F21
:1045D000F80100E000832395E0CF01E017C000E080
:1045E00015C0FD01058D0A3030F4FD01058D0395E0
:1045F000058F00E00BC0FD0105811681F80102E086
:10460000008321E08D010E94272300E0EAE00C9462
:104610008A3B0E94803BC8018C01055F1F4F0E94AE
:104620001A09005019F00A9559F00DC08C0134DEBA
:10463000A02F21E08C01055F1F4F0E94170903C0C6
:104640008C018BDEA02F0A2FE3E00C94913BAD018F
:10465000F801A781B0852C93DA0108950E947F3B71
:10466000D801822F8D01055F1F4F0E942D0E00E59E
:1046700015E0FD010187128706E515E0FD010487BD
:1046800015878C938D01E4E00C94903B0E947F3B56
:10469000C801D901082F092B61F020E030E08C011E
:1046A000055F1F4F0E944E0EA0FB1EF48C010E945E
:1046B000993AE4E00C94903B0B501040E7CFBD01D9
:1046C000D801F9010081FD01008BF90101811281FE
:1046D000FD01018B128BF90103811481FD01038B14
:1046E000148BF90105811681FD0105831683F901FB
:1046F00047815085F901018510E0400F511FFD01F0
:10470000458B568BF9010185085E0187F901038904
:104710001489FD0107831087FD0100E0078BDB0191
:1047200008950E947F3BD8015396ED91FC915497D8
:1047300002E40083FD0100890E94492F0AE613E08C
:1047400001501040E9F700C0000049E050E0FD01D1
:1047500023893489FD01018912890E94652C0E94F8
:104760006E2F5196ED91FC9152970181045209F4FC
:1047700040C00E51F1F527E030E0FD0101891289BA
:104780000F5F1F4F0E941C0A0130104094F1FD0181
:1047900000E0078B20E08D010E942723FD01858921
:1047A000968960E0663018F5FD010189128970E094
:1047B000060F171FF801328120E02830B0F420FBEB
:1047C00096F001E010E0422F0E94AB3A132F102325
:1047D000112329F0FC0101E00083019604C0FC01D3
:1047E00000E0008301962395E8CF6395DBCF01E0DD
:1047F00015C0FD0107890A3030F4FD0107890395D2
:10480000078B00E00BC01596ED91FC91169701E027
:10481000008321E08D010E94272300E0E4E00C9456
:10482000903BF80123830895BA93AA93D8018D0190
:104830000E942D0E0AE515E0FD01018312838D0112
:104840000A5F1F4F0E94BF3925E28D010E941709A0
:1048500025E28D010E9411248D01A991B99108953D
:10486000BA93AA93D8018D01DFDF0EE715E0FD01B1
:104870000183128325E28D010E94170925E28D0133
:104880000E9411248D01A991B9910895BA93AA9318
:10489000D8018D01C9DF02EA15E0FD010183128311
:1048A00025E28D010E94170925E28D010E94112445
:1048B0008D01A991B9910895BA93AA93D8018D0158
:1048C000B3DF0AEE15E0FD010183128328E18D01BB
:1048D0000E94170928E18D010E9411248D01A991E0
:1048E000B9910895BA93AA93D8018D019DDF0EE086
:1048F00016E0FD010183128325E28D010E94170954
:1049000025E28D010E9411248D01A991B99108958C
:104910000E947F3BC801D901082F092B51F020E0EC
:1049200030E08C010E944E0EA0FB1EF48C010E9410
:10493000993AE4E00C94903BBA93AA93D8018D0184
:104940000E941A09E0EFF0E0FBBFF9E00C94363B5F
:104950008D011196ED91FC911297709625913491ED
:104960007197F901099598018D010A5F1F4F0E9407
:10497000D0398D011196ED91FC91129734962591C5
:1049800034913597F901099529E18D010E941709A4
:104990004DC28D010A5F1F4F0E94EA39002301F1C9
:1049A0008D011196ED91FC9112977296259134919B
:1049B0007397F901099598018D010A5F1F4F0E94B5
:1049C000D0398D011196ED91FC9112973C9625916D
:1049D00034913D97F90109952AE18D010E9417094B
:1049E00025C28D010A5F1F4F0E94EA39002301F1A1
:1049F0008D011196ED91FC9112977096259134914D
:104A00007197F901099598018D010A5F1F4F0E9466
:104A1000D0398D011196ED91FC9112973496259124
:104A200034913597F901099529E18D010E94170903
:104A3000FDC18D011196ED91FC911297369625914D
:104A400034913797F901099522E08D010E941709E9
:104A5000EDC18D011196ED91FC91129774962591FF
:104A600034917597F901099598018D010A5F1F4FDF
:104A70000E94D0398D011196ED91FC9112973896D4
:104A8000259134913997F901099528E08D010E940B
:104A90001709CCC18D010A5F1F4F0E94EA3900231C
:104AA00001F18D011196ED91FC9112977696259169
:104AB00034917797F901099598018D010A5F1F4F8D
:104AC0000E94D0398D011196ED91FC9112973C9680
:104AD000259134913D97F901099529E08D010E94B6
:104AE0001709A4C18D010A5F1F4F0E94EA390023F4
:104AF00001F18D011196ED91FC911297749625911B
:104B000034917597F901099598018D010A5F1F4F3E
:104B10000E94D0398D011196ED91FC911297389633
:104B2000259134913997F901099528E08D010E946A
:104B300017097CC18D011196ED91FC911297789621
:104B4000259134917997F901099598018D010A5FB2
:104B50001F4F0E94D0398D011196ED91FC91129753
:104B60003A96259134913B97F90109952EE08D01F4
:104B70000E9417095BC18D010A5F1F4F0E94EA392D
:104B8000002301F18D011196ED91FC9112977A9617
:104B9000259134917B97F901099598018D010A5F60
:104BA0001F4F0E94D0398D011196ED91FC91129703
:104BB0003C96259134913D97F90109952FE08D019F
:104BC0000E94170933C18D010A5F1F4F0E94EA3905
:104BD000002301F18D011196ED91FC9112977896C9
:104BE000259134917997F901099598018D010A5F12
:104BF0001F4F0E94D0398D011196ED91FC911297B3
:104C00003A96259134913B97F90109952EE08D0153
:104C10000E9417090BC18D011196ED91FC9112971D
:104C20007C96259134917D97F901099598018D0124
:104C30000A5F1F4F0E94D0398D011196ED91FC91B2
:104C400012973A96259134913B97F901099524E101
:104C50008D010E941709EAC08D010A5F1F4F0E9453
:104C6000EA39002301F18D011196ED91FC91129723
:104C70007E96259134917F97F901099598018D01D0
:104C80000A5F1F4F0E94D0398D011196ED91FC9162
:104C900012973C96259134913D97F901099525E1AC
:104CA0008D010E941709C2C08D010A5F1F4F0E942B
:104CB000EA39002301F18D011196ED91FC911297D3
:104CC0007C96259134917D97F901099598018D0184
:104CD0000A5F1F4F0E94D0398D011196ED91FC9112
:104CE00012973A96259134913B97F901099526E15F
:104CF0008D010E9417099AC08D010A5F1F4F0E9403
:104D0000EA39002301F18D011196ED91FC91129782
:104D1000B09625913491B197F901099598018D01CB
:104D20000A5F1F4F0E94D0398D011196ED91FC91C1
:104D300012973C96259134913D97F901099527E109
:104D40008D010E94170972C08D010A5F1F4F0E94DA
:104D5000EA39002301F18D011196ED91FC91129732
:104D60007C96259134917D97F901099598018D01E3
:104D70000A5F1F4F0E94D0398D011196ED91FC9171
:104D800012973A96259134913B97F901099524E1C0
:104D90008D010E9417094AC08D011196ED91FC9179
:104DA0001297B29625913491B397F901099598011C
:104DB0008D010A5F1F4F0E94D0398D011196ED9130
:104DC000FC9112973A96259134913B97F9010995F8
:104DD0002FE18D010E94170929C08D010A5F1F4F25
:104DE0000E94EA39002311F18D011196ED91FC9199
:104DF00012973C96259134913D97F90109958D01C3
:104E00000E94A928202F8D010E9417090FC08D0133
:104E10001196ED91FC9112973C96259134913D9716
:104E2000F901099520E08D010E941709A991B99116
:104E300008950E947F3BC801D901082F092B69F012
:104E400025E28C010E94170920E030E08C0160DD32
:104E5000A0FB1EF48C010E94993AE4E00C94903B74
:104E60000E94803BC801A22F8C010E941A09202FAA
:104E70008C010E9411240A2FEEE2F0E0FBBFFAE061
:104E80000C94363B25E28C010E9417090EC021E0EC
:104E90008C010E94170909C027E08C010E941709A4
:104EA00004C027E08C010E941709E3E00C94913BB9
:104EB00008959A938A93C80101E00E94B3368991BC
:104EC000999108959A938A93C80102E00E94B3369B
:104ED00089919991089508959A938A93C80102E05F
:104EE0000E94DD368991999108950E947F3BC80107
:104EF000D901082F092B69F025E28C010E941709BE
:104F000020E030E08C0104DDA0FB1EF48C010E9447
:104F1000993AE4E00C94903B0E94803BC801A22F98
:104F20008C010E941A09202F8C010E9411240A2F43
:104F3000E4E4F0E0FBBFFAE00C94363B25E28C01A0
:104F40000E9417090EC021E08C010E94170909C0B8
:104F500025E28C010E94170904C02DE08C010E94FB
:104F60001709E3E00C94913B08959A938A93C80142
:104F700001E00E94B33689919991089508959A931A
:104F80008A93C80103E00E94B336899199910895EC
:104F90009A938A93C80103E00E94DD368991999122
:104FA00008950E947F3BC801D901082F092B69F0A1
:104FB00025E28C010E94170920E030E08C01A8DC7A
:104FC000A0FB1EF48C010E94993AE4E00C94903B03
:104FD0000E94803BC801A22F8C010E941A09202F39
:104FE0008C010E9411240A2FEAE5F0E0FBBFFAE0F1
:104FF0000C94363B28E18C010E94170913C028E16C
:105000008C010E9417090EC027E08C010E9417092D
:1050100009C02DE08C010E94170904C023E18C0116
:105020000E941709E3E00C94913B9A938A93C8017C
:105030000E94042989919991089508959A938A93D9
:10504000C8010E9404298991999108959A938A939D
:10505000C8010E9404298991999108959A938A938D
:10506000C8010E940A290E94F2128991999108951B
:105070000E947F3BC801D901082F092B69F025E266
:105080008C010E94170920E030E08C0141DCA0FB7C
:105090001EF48C010E94993AE4E00C94903B0E942B
:1050A000803BC801A22F8C010E941A09202F8C017D
:1050B0000E9411240A2FE0E7F0E0FBBFFAE00C9415
:1050C000363B25E28C010E94170918C025E28C01AD
:1050D0000E94170913C027E08C010E9417090EC017
:1050E0002DE08C010E94170909C023E18C010E9468
:1050F000170904C02EE18C010E941709E3E00C940B
:10510000913B9A938A93C8010E94B709899199911A
:1051100008959A938A93C8010E94B7098991999139
:1051200008959A938A93C8010E94A509899199913B
:1051300008959A938A93C8010E94AE098991999122
:1051400008959A938A93C8010E94B7098991999109
:105150000895F80103810895980100ED17E008957E
:10516000980100ED17E00895980108EE13E0089506
:10517000980108EE13E00895980104EF11E00895F6
:10518000980104EF11E00895980106E910E00895F0
:10519000980106E910E00895980102EC11E00895E5
:1051A000980102E310E00895980100ED17E00895DA
:1051B000980100ED17E00895980100E213E00895CA
:1051C00098010CE211E0089598010CE211E00895B5
:1051D00098010CE211E00895980100ED17E00895A0
:1051E000980100ED17E00895980100E213E008959A
:1051F00098010CE211E0089598010CE211E0089585
:1052000098010CE211E00895009162000F7700937D
:1052100062000895009162000068009362000895A2
:105220000E94793BD80149013A012B018A859B856F
:105230002C843D840E841F84688979892B893C895C
:1052400002E316E0FD0105A716A7FD018082918209
:10525000FD0162827382FD0144825582FD018683D5
:105260009783FD0120863186FD0102861386FD01AC
:10527000648775870A89FD010687FD012787308BC2
:105280000D89FD01018BFD0104851585012B01F1BF
:10529000FD01568501E010E0452F0E94AB3A402FFA
:1052A000FD0104851585F8010081042B0083FD01B3
:1052B0000189502F01E010E0452F0E94AB3A402FAA
:1052C0004095FD0107851089F801008104230083C2
:1052D0008D01E6E10C948A3B9A938A93C801082FCA
:1052E000092B29F020FB1EF48C010E94993A899128
:1052F000999108950E947B3B2801CA01DB01722E1F
:10530000632E8C019D0140E150E060E070E00E945E
:10531000E33AA801B90100E010E820E730E00E947C
:10532000113B980121503040422FF201028113813C
:10533000F80140838901012F10E0402FF201008124
:105340001181F80140834091230C48734660F201BB
:1053500000851185F8014083EDE00C948C3BF80149
:1053600020E0208F20E0218FF80120E022A7F80123
:1053700020E023A7F80120E024A708953B2F4A2F1F
:10538000F801A481B5812C9120682C93F801A681A5
:10539000B7812C9120692C93A42FB32F08953B2F14
:1053A0004A2FF801A681B7812C912F762C93A42F38
:1053B000B32F08953B2F6A2FF801218901E010E0F7
:1053C000422F0E94AB3AA785B0891C91102B1C93E9
:1053D000A62FB32F08953B2F6A2FF801218901E0F2
:1053E00010E0422F0E94AB3A0095A785B0891C912E
:1053F00010231C93A62FB32F08955B2F0A2ED801DC
:10540000FD0104851585012B11F08D01D3DF149664
:10541000ED91FC9115970081006600831696ED9141
:10542000FC911797008108620083A02DB52F089585
:105430005B2F0A2ED8011696ED91FC9117970081EB
:1054400007790083FD0104851585012B11F08D017D
:10545000C2DFA02DB52F0895F801228B338B448B2A
:10546000558B01E010E008950E947B3BD801C901F3
:105470002A01FD0100E002A7FD0104A5002319F0A7
:105480000FEF1FEF3AC0FD01008D118D04151505BA
:1054900018F00FEF1FEF31C0FD01008D118D012BB2
:1054A00011F10E94782D00E010E0FD01208D318D7A
:1054B0000217130758F4FD01E00FF11F228DFC01C4
:1054C000E00FF11F20830F5F1F4FEFCFFD01608CB6
:1054D000718CFD0100E0008F00E0018F0E94762DAD
:1054E000062D10E00AC0FD01008D118D012B19F46D
:1054F00000E010E002C000E010E0E8E00C948C3B1B
:10550000AD01F80124893589232B99F4F801A6818E
:10551000B7812C912F7D2C93F801A481B5812C911A
:1055200020642C93F801A681B7812C9120642C93E0
:1055300015C0F801A289B3899D012F5F3F4FF80183
:10554000228B338B2C91F801A285B3852C93F80123
:105550002489358921503040248B358BDA01089518
:105560003B2F4A2FF801A681B7812C912F7B2C93DA
:10557000F80121E023A7A42FB32F08950E947F3BB9
:10558000F801808D918D409738F0F80121E024A733
:10559000F80121E022A713C0F801208D318DC90147
:1055A0000196F801808F918FF801A285B3854C9107
:1055B000F801E20FF31F428FF80121E022A7E4E097
:1055C0000C94903BFA93EA937A936A935A934A9392
:1055D0003A932A931A930A936FB77BB70091E10726
:1055E0001091E2078DDF7BBF6FBF0991199129915F
:1055F00039914991599169917991E991F991189568
:10560000FA93EA936A935A934A933A932A931A9392
:105610000A935FB76BB70091E1071091E207A0DF33
:105620006BBF5FBF099119912991399149915991A6
:105630006991E991F9911895FA93EA930A926A931C
:105640005A934A933A932A931A930A935FB76BB784
:105650000091E1071091E20791DF6BBF5FBF0991F5
:105660001991299139914991599169910990E9913B
:10567000F99118959A938A93C801082F092B29F05C
:1056800020FB1EF48C010E94993A8991999108950A
:105690009801A895E19B02C0A895FCCFF8943FBB68
:1056A0002EBBE09A78940DB30895792F082EF80157
:1056B000C901042F052B41F08C01EADF019600831C
:1056C000319641505040F5CF01E0802D972F08953D
:1056D0000E947D3BC8012901DA018C010E94302D16
:1056E00082010E942B2D8D010E94442D00E010E0CC
:1056F0000E943A2DE6E00C948E3B0E947F3B0E9474
:105700003F2DC8010E94492D8017910740F50E9446
:10571000352D1FBB0EBB0E94352D0F5F1F4F0E9402
:10572000302DE09A8DB30E94262DD8010E943F2D86
:10573000A00FB11F0C91801759F00E94262DD8019F
:105740000E943F2DA00FB11F0C910DBBE29AE19A70
:105750000E943F2D0F5F1F4F0E943A2D09C00E94EB
:10576000242D00E010E01FBB0EBB01E00E94060EDE
:10577000E4E00C94903B9A938A93FA93EA933A92DA
:105780002A921A920A927A936A935A934A933A9374
:105790002A931A930A938FB79BB7AFDF9BBF8FBF34
:1057A0000991199129913991499159916991799169
:1057B0000990199029903990E991F99189919991DD
:1057C00018959A938A930801190180E090E0821558
:1057D000930560F4FA01362FE80FF91F3BBF0691DD
:1057E000F001E80FF91F00830196F1CF01E08991E4
:1057F000999108950E947E3BD801422E042D0E946B
:105800004E2DC801042D0E94652DA801622F02961D
:105810009C018D01D6DF042D0E944E2DFD01E00F6D
:10582000F11F808190E0042D0E944E2DFD01E00FBC
:10583000F11F118100E0802B912B042D0E944E2D31
:1058400098018D010E94CA098017910721F4042D47
:105850000E944E2D05C004E00E94470A00E010E0BF
:10586000E5E00C948F3B9A938A93C801082F092B8B
:1058700029F020FB1EF48C010E94993A899199919C
:10588000089503E10DB907B3066007BB08B30660CE
:1058900008BB08956E9A08956E9808959A938A9316
:1058A000902F9FB980E0779908C00E942F0A843614
:1058B00010F48395F8CF0FB105C004E70A95F1F70E
:1058C00000C00FB18991999108950E947B3B3801E6
:1058D0002901DA01A13400E0B00710F000E011C0A6
:1058E00080E090E08A179B0758F4F201E80FF91F57
:1058F0000081D4DFF301E80FF91F00830196F2CF96
:1059000001E0E8E00C948C3B9801890101501040C3
:10591000232B41F025ED36E021503040E9F700C05F
:105920000000F2CF08959A938A93C801082F092B9B
:1059300029F020FB1EF48C010E94993A89919991DB
:1059400008950CEC1CE120E030E046E00E940E3BA4
:105950000150104020403040B80163BD5BE055BDB0
:1059600047B7542F506857BF0895EBDF0E94832D2F
:105970000E94892D0E94B4200E948F2D0E94912D9B
:105980000E94932D0E94952D0E94762D08950E94CD
:105990007F3BC801AC0160E070E0440F551F661FFB
:1059A000771F00E010E820E730E00E94113B015033
:1059B0001040D8018D01000F111F1093810000933A
:1059C0008000B0938700A0938600B0938500A093D9
:1059D000840002EE00938B0009E100938A00E4E06A
:1059E0000C94903B00918B000D7100938B00009103
:1059F0008A00067E00938A0008959A938A93FA9308
:105A0000EA933A922A921A920A927A936A935A9352
:105A10004A933A932A931A930A938FB79BB70E949B
:105A20007A2D9BBF8FBF0991199129913991499185
:105A30005991699179910990199029903990E9913A
:105A4000F991899199911895E3980895E5EDF7E01A
:105A5000008111810895E5EDF7E000831183089539
:105A6000E7EDF7E0008311830895E7EDF7E00081AB
:105A700011810895E9EDF7E0008311830895E9EDC0
:105A8000F7E0008111810895EBEDF7E000831183C9
:105A90000895EBEDF7E0008111810895E02FF0E02B
:105AA000EE0FFF1FEE0FFF1FED50F74F049110E0B8
:105AB0000895E02FF0E0EE0FFF1FEE0FFF1FEC50F8
:105AC000F74F05911491319708950E947F3B802FE5
:105AD000AEE5B6E090E0082F0E94592DA8018D0197
