:100000000C94F13A18951895189518951895189517
:100010001895189518951895189518951895189578
:10002000189518950C94A52D189518951895189550
:100030001895189518951895189518951895189558
:100040001895189518951895189518951895189548
:1000500018951895189518950C948A2C189518953C
:100060001895189518951895189518951895189528
:1000700018951895189518950C94EB2B0C94B12B9A
:100080000C94CF2B18951895189518950000000022
:100090000000000000000000000000000000000060
:1000A0000000000000000000000000000000000050
:1000B000DF05F305600863083807F3056F08720869
:1000C0004B07F305750878085E07F3057B087E0883
:1000D0007107F305810884088407F30587088A08F7
:1000E0009707AA078D0890084708AA07930896085B
:1000F000B708000000000000000000000000000041
:1001000000000000000000000000000000000000EF
:1001100000000000000000000000000000000000DF
:1001200000000000000000000000000000000000CF
:100130000000C5080000C1C081C1400101C3C00367
:10014000800241C201C6C006800741C70005C1C583
:1001500081C4400401CCC00C800D41CD000FC1CF43
:1001600081CE400E000AC1CA81CB400B01C9C00933
:10017000800841C801D8C018801941D9001BC1DBD3
:1001800081DA401A001EC1DE81DF401F01DDC01D83
:10019000801C41DC0014C1D481D5401501D7C017A3
:1001A000801641D601D2C012801341D30011C1D1B3
:1001B00081D0401001F0C030803141F10033C1F3F3
:1001C00081F240320036C1F681F7403701F5C03583
:1001D000803441F4003CC1FC81FD403D01FFC03F43
:1001E000803E41FE01FAC03A803B41FB0039C1F933
:1001F00081F840380028C1E881E9402901EBC02B93
:10020000802A41EA01EEC02E802F41EF002DC1ED82
:1002100081EC402C01E4C024802541E50027C1E7A2
:1002200081E640260022C1E281E3402301E1C021B2
:10023000802041E001A0C060806141A10063C1A3B2
:1002400081A240620066C1A681A7406701A5C06582
:10025000806441A4006CC1AC81AD406D01AFC06F42
:10026000806E41AE01AAC06A806B41AB0069C1A932
:1002700081A840680078C1B881B9407901BBC07BD2
:10028000807A41BA01BEC07E807F41BF007DC1BD82
:1002900081BC407C01B4C074807541B50077C1B7A2
:1002A00081B640760072C1B281B3407301B1C071B2
:1002B000807041B00050C190819140510193C05372
:1002C000805241920196C056805741970055C19582
:1002D00081944054019CC05C805D419D005FC19F42
:1002E000819E405E005AC19A819B405B0199C05932
:1002F000805841980188C04880494189004BC18B92
:10030000818A404A004EC18E818F404F018DC04D81
:10031000804C418C0044C184818540450187C047A1
:10032000804641860182C042804341830041C181B1
:10033000818040400000000000000000000000003C
:1003400000000000000000000000000000000000AD
:10035000000000000000000000000000000000009D
:10036000000000000000000000000000000000008D
:1003700000000000000000004D0A950A0000000087
:10038000F90D070E080E070E000000000000000027
:10039000000000000000000000000000000000005D
:1003A000000000000000000000000000000000004D
:1003B000000000000000000000000000000000003D
:1003C000000000000000000000000000000000002D
:1003D0005A0ECF0E070EE30E070E5D0F8D11DC11C6
:1003E000751379137D13811387129A12751379137C
:1003F0008D138113000000000000000000000000C9
:1004000000000000000000000000000000000000EC
:100410000000000000000000AA13303C202D101C3A
:10042000000D313D212C111D010C343E242B141ED6
:10043000040B353F252A151F050A363926291619BA
:10044000060937382728171807086C14070E00000C
:10045000000000000000000000000000000000009C
:10046000000000000000000000000000000000008C
:1004700000008C149F140000000000000000000029
:10048000000000000000000000000000000000006C
:10049000000000000000000000000000000000005C
:1004A000000000000000000000000000000000004C
:1004B000000000000000000000005715070E6E1538
:1004C0004C3D4C3D4C3D4C3D081D0C1D00000000BA
:1004D000000000000000000000000000000000001C
:1004E000000000000000000000000000000000000C
:1004F000411D891EA31E6A1EAE1E391FA421AC21F8
:100500005A1DA1216E15861EA01EAB1EBD1EA82160
:10051000B021000500000000000000000000000005
:1005200000000000000000000000000000000000CB
:10053000000000000000000002220A24E921FF213F
:10054000070E000000000000000000000000000096
:10055000000000000000000000000000000000009B
:100560000000000000003E246A2430245525752533
:100570004C3D4C3D4C3D4C3D4C3D4C3D87298B29E1
:100580008F29932997299B299F29F227752531289F
:1005900032283B28442845280928A329A729AB2924
:1005A000AF29B329B7299F294E2875258D288E2874
:1005B00097289828A1286528BB29BF29C329C729BE
:1005C000CB29CF299F290000000000000000000077
:1005D000000000000000000000000000000000001B
:1005E00000000000000000000000AA287525EE2889
:1005F000F628F728FF280729C12887298B298F2962
:10060000932997299B299F29132975255C296429FA
:100610006C2974297C292A2987298B298F299329D8
:1006200097299B299F293B2A000000000000000019
:1006300000000000000000000000000000000000BA
:100640000000000000000000092C3B2D000000000D
:10065000DB2C020130000000000000000000000060
:100660000000000000006BCF012F08730600001788
:100670001B0000000000000000000000000000005F
:1006800000400B000102030405060708090A0B0CD1
:100690000D0E0F101112131415161718191A1B1C12
:1006A0001D1E1F202122232425262728292A2B2C02
:1006B0002D2E2FFFFFFFFFFFFFFFFFFFFFFFFFFFBD
:1006C000FFFFFFFFFFFFFFFFFFFFFFFFFFFFFFFF3A
:1006D000FFFFFFFFFFFFFFFFFFFFFFFFFFFFFFFF2A
:1006E000FFFFFFFFFFFFFFFFFFFFFFFFFFFFFFFF1A
:1006F000FFFFFFFFFFFFFFFFFFFFFFFFFFFFFFFF0A
:10070000FFFFFFC29E03030303030303030303036B
:1007100003030303030303030303030303020202AC
:1007200002020202020202020202020202020202A9
:100730000202020202020202020202020202020299
:10074000020202020246F73E3E3E3E3C3C3C3CFF7B
:10075000FFFFFFFFFFFFFFFFFFFFFFFFFFFFFF4B5D
:100760006F0102040810204080000000000000001B
:100770000000000000000000000000000000000079
:100780000000000000000000000000000000000069
:100790000000000000000000000000000000000059
:1007A0000000000000000000000000000000000049
:1007B0000000000000000000000000000000000039
:1007C0000000000000000000000000000000000029
:1007D0000000000000000000000000000000000019
:1007E00000C66901010210002000000000000000A6
:1007F00000000000000000000000000000000000F9
:1008000000000000000000000000000000000000E8
:1008100000000000000000000000000000000000D8
:1008200000000000000000000000000000000000C8
:100830000000000000000101050000FF00000000B2
:1008400000000000000000000000000000000000A8
:100850000000000000000000000000000000000098
:100860000000000000000000000000000000000088
:100870000000000000000000000000000000000078
:100880000000000000000000000101050100FF0061
:100890000000000000000000000000000000000058
:1008A0000000000000000000000000000000000048
:1008B0000000000000000000000000000000000038
:1008C0000000000000000000000000000000000028
:1008D0000000000000000000000000000000000018
:1008E00000000000000000140000010716000210C4
:1008F0001F00038031000440B3000518F500068096
:100900000F01075191010851E401095137020A080A
:100910008A0200000000000000000000000000004B
:1009200000000000000000000000000000000000C7
:1009300000000000000001010101010101010100AE
:1009400000000000000101000000000000010100A3
:100950000000000000010100000000000001010192
:100960000101010101010000000000000000000081
:100970000000000000000000000000000000000077
:10098000000000000000343A0101951C3A1C0141AE
:100990001C01481C014F1C01561C015D1C01641CFC
:1009A00007721C016B1C01791C01801C06871C2A24
:1009B0009C1C039C1C019C1C018E1CFB00009E21A6
:1009C00012009E219E21471F5C1FA91F0820332073
:1009D000402060206F2078208D20DA2039215A2194
:1009E0006721872196210001EF27EF2701F22506D5
:1009F0000226012326014B2604732601942601BCFE
:100A00002604E426010527012D27015527017D270E
:100A100001812501A22501CA2504A52701C62706B3
:100A2000E027FB0000002E2808001B28202825288E
:100A30002A282E282E282E282E2800008A28080052
:100A400077287C28812886288A288A288A288A2844
:100A50000000EB280800D328D828DD28E228EB285E
:100A6000EB28E728EB280000592908003C294129F8
:100A700046294B29592959295029552900007739E8
:100A800010005F38773982389F38CB38D038D53866
:100A9000E738FA381C391E393F3941394F395B394B
:100AA0006F39432EBA93AA93D8018D010E94DE0DAF
:100AB00000EB10E0FD01018312838D01A991B99132
:100AC0000895BA93AA93D8018D01ECDF08EB10E0EA
:100AD000FD010183128320E08D010E945A088D01DF
:100AE000A991B9910895BA93AA93D8018D01DADF3B
:100AF00000EC10E0FD010183128321E08D010E94D2
:100B00005A088D01A991B9910895BA93AA93D80171
:100B10008D01C8DF08EC10E0FD010183128321E0A4
:100B20008D010E945A088D01A991B9910895BA9337
:100B3000AA93D8018D01B6DF00ED10E0FD0101831D
:100B4000128321E08D010E945A088D01A991B9916B
:100B50000895BA93AA93D8018D01A4DF08ED10E09F
:100B6000FD010183128321E08D010E945A088D014D
:100B7000A991B9910895BA93AA93D8018D0192DFF2
:100B800000EE10E0FD010183128321E08D010E943F
:100B90005A088D01A991B9910895BA93AA93D801E1
:100BA0008D01E9DF08EE10E0FD010183128321E0F1
:100BB0008D010E945A088D01A991B99108950E9452
:100BC000F13BC801D901082F092B51F020E030E09A
:100BD0008C010E94F90DA0FB1EF48C010E940B3BBE
:100BE000E4E00C94023C0E94F03BD8018D010E948D
:100BF0005D08005079F00A9571F00A9509F46AC011
:100C00000A9509F4A8C00A9509F4D3C00A9509F415
:100C1000FDC02BC12AC1FD018181928106968D0103
:100C20000E9466080E943336402E8D01FC012591FA
:100C300034913197F90109954026442011F001E0E3
:100C400001C000E0002309F410C18D010E946C086E
:100C500021E00E94A4350E94A208033021F1FD0189
:100C60008181928104960E94A208402E8D01FC0190
:100C7000259134913197F9010995401610F001E062
:100C800001C000E0002379F48D011196ED91FC91F3
:100C900012973496259134913597F90109950E9460
:100CA0009F080E9459368D011196ED91FC91129783
:100CB0003496259134913597F9010995802F8D014E
:100CC0000E946908182F0E948A3622E08D010E9436
:100CD0005A08CBC0FD018181928106968D010E9448
:100CE00066080E943336402E8D01FC012591349117
:100CF0003197F90109954026442011F001E001C027
:100D000000E0002331F08D010E946C0820E00E9479
:100D1000A4350E949C08002369F00E9467368D016B
:100D20000E94690811E00E948A3624E08D010E9429
:100D30005A089BC00E949908002361F00E94673600
:100D40008D010E94690811E00E948A3623E08D011E
:100D50000E945A088AC00E949C08002329F024E0BF
:100D60008D010E945A0881C0FD0181819281069601
:100D70008D010E9466080E943336402E8D01FC01D1
:100D8000259134913197F90109954026442011F4B9
:100D900001E001C000E0002329F025E08D010E9460
:100DA0005A0863C08D010E946C0820E00E94A4359F
:100DB0005CC0FD018181928106968D010E946608CA
:100DC0000E943336402E8D01FC01259134913197DC
:100DD000F90109954026442011F401E001C000E02A
:100DE000002369F00E9470368D010E94690810E0AE
:100DF0000E948A3621E08D010E945A0836C08D017A
:100E00000E946C0820E00E94A4352FC0FD01818162
:100E1000928106968D010E9466080E943336402E0C
:100E20008D01FC01259134913197F90109954026F6
:100E3000442011F001E001C000E0002331F08D01F9
:100E40000E946C0820E00E94A4350E949C080023A8
:100E500061F00E9470368D010E94690810E00E94C6
:100E60008A3621E08D010E945A08E5E00C94013C8D
:100E70000E94F13BC801D901082F092B49F020E05D
:100E800030E08C019CDEA0FB1EF48C010E940B3B29
:100E9000E4E00C94023C0E94F13BC801D901082F08
:100EA000092B49F020E030E08C0189DEA0FB1EF424
:100EB0008C010E940B3BE4E00C94023C0E94F13B4D
:100EC000C801D901082F092B49F020E030E08C013E
:100ED00076DEA0FB1EF48C010E940B3BE4E00C9438
:100EE000023C0E94F13BC801D901082F092B49F0AF
:100EF00020E030E08C0163DEA0FB1EF48C010E9438
:100F00000B3BE4E00C94023C0E94F13BC801D90188
:100F1000082F092B49F020E030E08C0150DEA0FBC7
:100F20001EF48C010E940B3BE4E00C94023C0E94F6
:100F3000F13BC801D901082F092B49F020E030E02E
:100F40008C013DDEA0FB1EF48C010E940B3BE4E013
:100F50000C94023C0E94F03BD8018D010E945D0878
:100F6000005031F00A9529F0055009F461C08CC099
:100F70008BC0FD018181928106968D010E946608D9
:100F80000E943336402E8D01FC012591349131971A
:100F9000F90109954026442011F001E001C000E06C
:100FA000002309F471C08D010E946C0821E00E94A9
:100FB000A4350E94A208033021F1FD0181819281B4
:100FC00004960E94A208402E8D01FC0125913491C7
:100FD0003197F9010995401610F001E001C000E0D9
:100FE000002379F48D011196ED91FC9112973496BE
:100FF000259134913597F90109950E949F080E9427
:1010000059368D011196ED91FC91129734962591E8
:1010100034913597F9010995802F8D010E94690857
:10102000182F0E948A3626E08D010E945A082CC093
:10103000FD018181928106968D010E9466080E94C1
:101040003336402E8D01FC01259134913197F90101
:1010500009954026442011F401E001C000E000237E
:1010600069F00E9470368D010E94690810E00E94AC
:101070008A3621E08D010E945A0806C08D010E9427
:101080006C0820E00E94A435E5E00C94013C0E942D
:10109000F13BC801D901082F092B49F020E030E0CD
:1010A0008C0145DFA0FB1EF48C010E940B3BE4E0A9
:1010B0000C94023CF80120830895F8010081089502
:1010C000980100E00895980100E00895F801058175
:1010D0000895F801038108950C5F1F4F089598014A
:1010E00000E00895980100E00895980102E0089555
:1010F000980100E00895980102E00895980101E048
:101100000895980103E00895980100E0089598017A
:1011100003E00895980101E00895980101E0089521
:10112000980100E00895980101E00895980101E018
:1011300008950091E80A08950091E90A089500933E
:10114000490B08950091490B089520EF30E0F80114
:1011500024833583F80120E02083F80120E02183F7
:10116000F80120E02283F80120E0238308959A9378
:101170008A93C801082F092B29F020FB1EF48C014B
:101180000E940B3B8991999108959A938A93C80183
:10119000082F092B29F020FB1EF48C010E940B3B29
:1011A0008991999108950E94F9080E94F5080E947A
:1011B000FF080E94FB08089508EF12E00E946F2DBF
:1011C0000E94F7080E94FD0808950AE81CE00E94AA
:1011D0006F2D0E94F7080E94FD0808950E94F908EB
:1011E0000E94FF080E949A2D0895139A08951B9A51
:1011F00008951B980895149A08951C9A08951C98B0
:1012000008957B2F2A2ED8010FEF1FEF40E050E00A
:101210004217530798F46C91502F65271196012FB0
:1012200010E0E62FF0E0EE0FFF1FEC5CFE4F0590A4
:1012300014903197002511254395E9CFA22DB72FA2
:101240000895F80100E010E0408150E0040F151F00
:10125000319621503040422F432BB1F708950E9420
:10126000F13BF801C90120E030E0008110E0200FDF
:10127000311F31960197082F092BB9F7DF01FD01C6
:101280003196022F1C91011749F48901012F10E0BA
:101290001081011719F401E010E002C000E010E035
:1012A000E4E00C94023CF80140E00081400F3196EC
:1012B00021503040022F032BC1F70081401719F451
:1012C00001E010E0089500E010E00895A895089569
:1012D000F80104810895F801022F10E048E050E081
:1012E0000E94133BE00FF11F0385148508950093BE
:1012F000EA0A08950E94F13B03E11AE00E946D0A98
:10130000B0E0A1E00A2F015039F00A9511F10A95D9
:1013100099F10A9579F132C0BB30C8F44B2F27E21E
:1013200038E003E11AE00E94B20DC8014B2F9C0186
:1013300007E218E070D0012B11F0A2E01FC003E11A
:101340001AE00E9468090430C9F4A3E017C0A4E0C1
:1013500015C003E11AE00E946809033019F4B3953F
:10136000A1E00CC003E11AE00E946809043031F4E6
:10137000A3E004C001E00DC000E00BC003E11AE0EF
:101380000E94950A0AE010E00E942C2D0E94660936
:10139000B9CFE4E00C94023C03E11AE00E942F0D67
:1013A000089503E11AE00E94580D089503E11AE040
:1013B0000E94820D089500E00E94770903E11AE07F
:1013C0000E94F40B002399F0E7DF002351F0EEDFD9
:1013D000002311F001E0089504E00E94770900E085
:1013E000089504E00E94770985DF00E0089504E095
:1013F0000E9477097FDF00E008950E94F23BC80158
:10140000A22F4A2F43959C0103E11AE00E94550B3D
:10141000E3E00C94033C0E94F03BD801C901442E48
:10142000642D6395AC019D0103E11AE00E94050D56
:1014300010E0E5E00C94013C8A93802F282F23953F
:1014400003E11AE00E946B0910E089910895F80108
:1014500023830895BA93AA93D8018D010E94E70DC2
:1014600008E713E0FD01018312838D010D571F4F23
:101470000E94193A07E218E0FD01EF57FF4F008381
:10148000118320E08D010E945A0820E08D010E9406
:10149000270A8D01A991B99108950E94F13BD801C5
:1014A000C9010A2F0B2BB1F008E713E0FD010183FE
:1014B000128322E030E08D010D571F4F0E94343A15
:1014C00020E030E08D010E94080E80FB1EF48D01AB
:1014D0000E940B3BE4E00C94023CBA93AA93D8011F
:1014E00044E650E020E030E08D010B5F1F4F0E948A
:1014F0001D3CFD0100E110E001871287FD0104E6BB
:1015000010E003871487FD0109E910E005871687BD
:10151000FD0109EA10E007831087FD0100E0058363
:1015200000E00683A991B99108959A938A93C8011E
:101530008C010E945D08005081F00A9579F00A95AF
:10154000C9F00A95C9F10A9509F44FC00A9509F442
:101550006BC00A9509F48AC0A5C0A4C08C010E9482
:10156000D50D28EC30E00E94423A22E08C010E9426
:101570005A0898C00E94C00D002371F08C010E948F
:10158000D50D20E137E20E94423A0E94CC0D23E0C3
:101590008C010E945A0886C08C010E94D50D0E94C1
:1015A0005C3A002341F024E08C010E94D20D20E03F
:1015B0008C010E945A0876C00E94C90D002329F0B0
:1015C00024E08C010E945A086DC08C010E94D50D48
:1015D0000E945C3A002341F024E08C010E94D20D6D
:1015E00020E08C010E945A085DC060E044E650E0B3
:1015F0009C012B5F3F4F8C017CD1012B61F08C0152
:101600000E94D50D28EC30E00E94423A25E08C0182
:101610000E945A0847C024E08C010E94D20D20E0AD
:101620008C010E945A083EC00E94C00D002371F038
:101630008C010E94D50D20E137E20E94423A0E94BF
:10164000CC0D26E08C010E945A082CC08C010E940F
:10165000D50D0E945C3A002329F124E08C010E9400
:10166000D20D20E08C010E945A081CC00E94C90DB6
:10167000002349F023E08C010E94D20D20E08C0170
:101680000E945A080FC08C010E94D50D0E945C3A3E
:10169000002341F024E08C010E94D20D20E08C0157
:1016A0000E945A088991999108950E94E53BD15072
:1016B00028014901A42E0CE0A01618F000E010E06B
:1016C0008FC00A2D10E048E050E00E94133BF20169
:1016D000E00FF11F01851285012BB1F10A2D10E0F9
:1016E00048E050E00E94133BF201E00FF11F058536
:1016F0001685012B49F10A2D10E048E050E00E94C8
:10170000133BF201E00FF11F0185128578010A2DCC
:1017100010E048E050E00E94133BF201E00FF11F9F
:10172000058516856801A60197018E010E94242C6B
:10173000A6019E018E010E94BD10380103E06016D3
:1017400000E0700650F403C000E010E049C004E07F
:101750000E94770900E010E043C00EEF600E0FEF2B
:10176000701E0A2D10E048E050E00E94133BF20189
:10177000E00FF11F038514856016710631F004E057
:101780000E94770900E010E02BC0FE01E60DF71D76
:10179000808190E0FE01E60DF71D118100E0802BB5
:1017A000912B93018E010E940109D8018A179B0792
:1017B00091F40A2D10E0000F111FF201E00FF11F4C
:1017C000E759FF4F80839183A3019E0184010E940A
:1017D0000D3C830105C004E00E94770900E010E0A1
:1017E000DF5FE0E10C94F63B0E94EF3BC80103E1B0
:1017F0001AE073DE40E09C012B5F3F4F8C0155DF08
:10180000012B11F400E072C055244424439400E0FD
:101810000E94D80D042D015079F00A9561F10A95C6
:1018200009F440C00A9509F44FC00A9509F452C062
:101830000A9509F44DC050C00CE05016C8F4452D6F
:10184000FC01EF57FF4F208131818C012EDFD80141
:101850000A2F0B2B51F00E94DB0D002319F002E040
:10186000402E3AC004E0402E37C005E0402E34C080
:1018700006E0402E31C0652DAD01FC01EF57FF4F52
:10188000208131818C01C1D0002319F003E0402E6A
:1018900023C003E11AE00E9468090430E9F405E07E
:1018A000402E1AC003E11AE00E946809033019F4BF
:1018B00004E0402E11C003E11AE00E9468090430E0
:1018C00059F405E0402E08C053944424439404C0C6
:1018D00001E00CC000E00AC003E11AE026DE0AE0E5
:1018E00010E00E942C2D0E94660994CFE6E00C9433
:1018F000003C0E94E93BD150D8013901CA01862E33
:101900000CE0801618F000E010E07BC0AC01930101
:101910008E010E940D3C9C0183010E940109280157
:10192000042DFE01E80FF91F00838201012F10E052
:10193000FE01E80FF91F0183082D10E048E050E098
:101940000E94133BFD01E00FF11F4786508AAC0156
:101950004E5F5F4F9E01FD01EF57FF4F00811181E8
:101960000E943A105801082D10E048E050E00E9413
:10197000133BFD01E00FF11F05851685012B59F57D
:10198000FD0127813085082D10E048E050E00E94DD
:10199000133BFD01E00FF11F21873287FD01078115
:1019A00010850A0D1B1D07831087082D10E048E0E5
:1019B00050E00E94133BFD01E00FF11F83879487E5
:1019C000082D10E048E050E00E94133BFD01E00FBD
:1019D000F11FA586B686A501FD01EF57FF4F2081B7
:1019E0003181BA01082D10E048E050E00E94133B1D
:1019F000FD01E00FF11F01851285AB010E94372C1C
:101A00008501DF5FECE00C94FA3B0E94EE3BC801DD
:101A10002901DA01662E8C010E945D080023B9F4C9
:101A2000662DAD0192018C0164DF012B51F021E0A4
:101A30008C010E94D20D21E08C010E945A0801E025
:101A40000BC024E08C010E94D20D00E005C022E012
:101A50008C010E94D20D00E0E7E00C94FF3B1D01D9
:101A60009801E1E0F0E0EB3000E0F007F0F48F01E6
:101A7000000F111FD901A00FB11FA759BF4F6D91C2
:101A80007C9111978F0148E050E00E94133BD901EF
:101A9000A00FB11F1F960D911C91509760177107F1
:101AA00011F000E003C03196DECF01E0D1010895CE
:101AB0000E94F13B6697D80180E090E08B3000E017
:101AC0009007A0F48C0148E050E00E94133BFD0118
:101AD000E00FF11F2789308DFE018C01000F111FCF
:101AE000E00FF11F208331830196E8CF26E130E03B
:101AF0008E010E940109FD01058316836696E4E0CC
:101B00000C94023C0E94F13B6697D80180E090E083
:101B10008B3000E09007A0F48C0148E050E00E9478
:101B2000133BFD01E00FF11F2789308DFE018C0171
:101B3000000F111FE00FF11F208331830196E8CFC2
:101B400026E130E08E010E940109FD0125813681E8
:101B50002017310711F401E001C000E06696E4E0CF
:101B60000C94023C0E94F03BD801C901442E242D64
:101B70008C010E94C52CE5E00C94013CE39A089589
:101B8000E19B02C000E0089501E0089500938906FA
:101B9000089500918906089500E00E94C60D0E94F4
:101BA000BE0D0895F801248308950D571F4F089521
:101BB00000938006089500918006089520E833E0A0
:101BC000F80121833283F80120E020830895AD01DC
:101BD000D8018D01F3DF04E813E0FD0101831283D6
:101BE000FD0100E00383FD0100E004838D01DA01C3
:101BF00008959A938A93C801082F092B29F020FB96
:101C00001EF48C010E940B3B8991999108950895CF
:101C10009A938A93C801082F092B29F020FB1EF400
:101C20008C010E940B3B899199910895009161006C
:101C300002600093610008950091610000610093CB
:101C400061000895009161000460009361000895AF
:101C500000916200026000936200089500916200AA
:101C60000F7E009362000895009162000B7F009345
:101C7000620008959A938A93C8010E94340E0E94CC
:101C80002E0E0E94280E0E94220E0E941C0E0E9400
:101C9000160E899199910895BA93AA93D80100EDEF
:101CA00013E00D931C9311978D01E4DF8D01A99131
:101CB000B99108959A938A93C801082F092B29F0A6
:101CC00020FB1EF48C010E940B3B89919991089591
:101CD0000E94EE3BD801C901642E44244614A0F4AE
:101CE0005524FC01E40DF51D0081002319F00E942C
:101CF000930E02C00E942E0E0E948D0E0E949F0E17
:101D00000E94340E4394EACF0E94280E0E94A10E36
:101D10000E94990EE7E00C94FF3B00916200046082
:101D200000936200089500916200006100936200D8
:101D30000895009162000D7F0093620008950000F5
:101D4000089500C000C000000895BA93AA93D80176
:101D50008D010E94E70D02ED13E0FD010183128366
:101D60008D01A991B99108950E94F13BD801C90153
:101D70008D01EBDF06ED13E0FD01018312838D0180
:101D80000B5F1F4F0E94193AFD018387948720E063
:101D90008D010E945A088D01E4E00C94023C0E94DF
:101DA000F13BC801D901082F092B51F020E030E0A8
:101DB0008C010E94080EA0FB1EF48C010E940B3BBC
:101DC000E4E00C94023C0E94F13BD801C9010A2FC7
:101DD0000B2BA9F006ED13E0FD010183128322E035
:101DE00030E08D010B5F1F4F0E94343A20E030E05D
:101DF0008D01D5DF80FB1EF48D010E940B3BE4E0DA
:101E00000C94023C0E94F13BD801922F832F8D014C
:101E10000E945D08005029F00A9561F00A9521F1B1
:101E200048C0FD0100E0058721E08D010E945A08AD
:101E300000E040C0992321F0FD0105850160058780
:101E4000882321F0FD01058502600587FD012385BA
:101E500034858D010B5F1F4F0E94423A22E08D01B5
:101E60000E945A0800E026C08D010B5F1F4F0E94A0
:101E70005C3A002331F020E08D010E945A0800E016
:101E800019C0992321F0FD0105850160058788238C
:101E900021F0FD01058502600587FD010585033000
:101EA00031F420E08D010E945A0801E003C000E0F7
:101EB00001C000E0E4E00C94023C9A938A93C801CC
:101EC000082F092B29F020FB1EF48C010E940B3BEC
:101ED000899199910895202F30E0E0E0F0E0E8301A
:101EE00000E0F0074CF4022F10E04E2F0E94273B39
:101EF000017030273196F3CF332311F401E00895B8
:101F000000E00895980150E0E0E0F0E0EC3000E0FF
:101F1000F00744F44E2F89010E94223B01705027A4
:101F20003196F4CF552311F401E0089500E00895AF
:101F3000502F60E070E000E1509F00E000220FE0D1
:101F40001022B00108E0509F00E7002200E01022BC
:101F500060297129052F017014E0019F6029712902
:101F6000052F007FB8DF10E8019F60297129052F38
:101F70000E78B1DF18E0019F60297129052F0D76D9
:101F8000AADF12E0019F60297129052F0B75A3DFDD
:101F900010E0602B712B8B010895080160E0800137
:101FA00000701F70AFDF102D17FB10E010F9011744
:101FB00011F061E001C060E0660F660F660F8001FE
:101FC000007718709FDF102D13FB10E010F9011738
:101FD00011F001E001C000E0000F000F602B800154
:101FE000047616708FDF102D11FB10E010F9011729
:101FF00011F001E001C000E0000F602B80010475CA
:10200000157080DF102D1170011711F001E001C073
:1020100000E0602B062F0895B801222311F48B01F4
:102020000895209380062A9501E010E0422F0E9437
:102030001D3B602771278B010895B80120E044E023
:102040008B010E94223B007F202F062F06950695CC
:1020500006950E70202B062F02FB00E000F9202BC6
:10206000022F08951801810198DF202F8101D4DF0C
:10207000E4DF08950E94E63B380159016A012224F9
:10208000332444245524EE24C0FA36F40FEFC00E56
:102090000FEFD01EEE24E394882499248C149D0421
:1020A00008F04BC0F501E40DF51D008141DF20E093
:1020B00030E0C801D90101E0400E00E0501EF501FA
:1020C000E40DF51D008134DFA80160E070E0ECE074
:1020D0008A019B014E2F0E94793B802B912BA22BD2
:1020E000B32B01E0400E00E0501E8C01F301E20D25
:1020F000F31D008301E0200E00E0301E892F9A2F8F
:10210000AB2FB0E08C01F301E20DF31D008301E081
:10211000200E00E0301E892F9A2FAB2FB0E08C01EB
:10212000F301E20DF31D008301E0200E00E0301EFC
:1021300002E0800E00E0901EB1CFEE20D1F0F5015C
:10214000E40DF51D0081F4DEC801082FF301E20D56
:10215000F31D008301E0200E00E0301E892F90E087
:10216000082FF301E20DF31D008301E0200E00E0D3
:10217000301E8101EFE00C94F73B0E94E53B219774
:10218000580149017A01662477244424552400E04B
:10219000088343E050E087010E942A3B41305040D1
:1021A00019F400E010E085C043E050E087010E9490
:1021B0002A3B4230504031F40EEFE00E0FEFF01E9C
:1021C00001E00883CC24DD24CE14DF0408F050C0E5
:1021D000F401E40DF51D008110E020E030E0C801BD
:1021E000D90101E0400E00E0501EF401E40DF51DA0
:1021F000008110E020E030E0322F212F102F00E08E
:10220000802B912BA22BB32B01E0400E00E0501E3F
:10221000F401E40DF51D208130E000E010E0802B9A
:10222000912BA22BB32B01E0400E00E0501E8C013D
:102230000F7F1F7017DFF501E60DF71D008301E02A
:10224000600E00E0701E4CE08C019D010E94803BFE
:102250000F7F1F7007DFF501E60DF71D008301E01A
:10226000600E00E0701E03E0C00E00E0D01EACCF98
:1022700008810023E9F0F401E40DF51D008110E070
:10228000C80101E0400E00E0501EF401E40DF51D10
:10229000108100E0802B912B8C010F7F1F70E2DEFC
:1022A000F501E60DF71D008301E0600E00E0701EF1
:1022B00083012196E0E10C94F63BBA93AA93D801EE
:1022C0008D010E94E70D0CED13E0FD0101831283E7
:1022D0008D01075F1F4F0E94193A8D01A991B99195
:1022E00008950E94F13BD801C9018D01E6DF08EE97
:1022F00013E0FD0101831283FD0185839683FD01B7
:1023000000E00087FD0100E0078320E08D010E94CE
:102310005A088D01E4E00C94023C0E94F13BD80184
:10232000C9010A2F0B2BB1F00CED13E0FD01018365
:10233000128322E030E08D01075F1F4F0E94343A84
:1023400020E030E08D010E94080E80FB1EF48D011C
:102350000E940B3BE4E00C94023CBA93AA93D80190
:102360001596ED91FC9116970995002311F001E067
:1023700001C000E0A991B99108950E94F13BD801F4
:10238000822F8D01FD0121813281F9013296259143
:1023900034913397F9010995FD010781081741F43C
:1023A000FD0100E00783FD0100E0008701E001C0BE
:1023B00000E0E4E00C94023CBA93AA93D8018D01AA
:1023C0000E945D08005059F00A9571F00A9531F1AC
:1023D0000A9509F44CC0035009F472C095C021E07D
:1023E0008D010E945A0890C08D01B7DF0023A9F02B
:1023F0008D011196ED91FC911297349625913491AF
:102400003597F901099598018D01075F1F4F0E94CB
:10241000423A22E08D010E945A0876C08D019DDF6C
:10242000002301F18D01075F1F4F0E945C3A0023DA
:10243000E9F08D011196ED91FC9112973696259158
:1024400034913797F901099598018D01075F1F4F66
:102450000E94423AFD0102E0078323E08D010E94C1
:102460005A0852C020E08D010E945A084DC08D01CB
:1024700074DF002301F18D01075F1F4F0E945C3A5A
:102480000023E9F08D011196ED91FC9112973A9697
:10249000259134913B97F901099598018D01075FCA
:1024A0001F4F0E94423AFD0103E0078326E08D01A1
:1024B0000E945A0829C020E08D010E945A0824C0B9
:1024C0008D014BDF0023E1F08D01075F1F4F0E945C
:1024D0005C3A0023C9F08D011196ED91FC911297A1
:1024E0003A96259134913B97F901099598018D0110
:1024F000075F1F4F0E94423AFD0106E0078304C0B8
:1025000020E08D010E945A08A991B99108950E9476
:10251000F13BC801D901082F092B49F020E030E038
:102520008C01FBDEA0FB1EF48C010E940B3BE4E05F
:102530000C94023CBA93AA93D8018D010E945D08C5
:10254000005089F00A95C1F00A9541F10A9509F405
:102550004AC00A9509F474C00A9509F496C002505D
:1025600009F4B8C0BFC0FD010085FD01078321E06B
:102570008D010E945A08B6C08D01EFDE002369F07C
:102580008D010E94851398018D01075F1F4F0E94E6
:10259000423A22E08D010E945A08A4C08D01DDDE7E
:1025A0000023C1F08D01075F1F4F0E945C3A00239A
:1025B000C9F08D010E94891398018D01075F1F4F9B
:1025C0000E94423AFD0102E0008723E08D010E9453
:1025D0005A0888C0FD010085FD01078320E08D01B8
:1025E0000E945A087FC08D01B8DE002301F18D01E1
:1025F000075F1F4F0E945C3A002309F18D0111967D
:10260000ED91FC9112973896259134913997F90103
:10261000099598018D01075F1F4F0E94423AFD0105
:1026200003E0008724E08D010E945A085BC0FD0191
:102630000085FD01078320E08D010E945A0852C0E9
:102640008D018BDE0023C1F08D01075F1F4F0E94BB
:102650005C3A0023C9F08D010E94911398018D010D
:10266000075F1F4F0E94423AFD0104E0008725E00A
:102670008D010E945A0836C0FD010085FD010783C7
:1026800020E08D010E945A082DC08D0166DE0023D6
:10269000E1F08D01075F1F4F0E945C3A002311F1AA
:1026A0008D010E94951398018D01075F1F4F0E94B5
:1026B000423AFD0105E00087FD010085FD01078329
:1026C00027E08D010E945A080DC020E08D010E9474
:1026D0005A0808C08D0141DE002321F420E08D015D
:1026E0000E945A08A991B9910895980104E610E052
:1026F000089598010CED15E00895980108EB1BE092
:102700000895980102E310E00895980104E610E0AE
:10271000089598010CED15E00895980108EB1BE071
:102720000895980108E813E10895980102E310E084
:1027300008959A938A93C80108E114E0FC01EC5BC8
:10274000FF4F008311838C010E944C0E8C018991F4
:10275000999108950E94F13BC801D901082F092BD6
:1027600089F008E114E0FC01EC5BFF4F008311836A
:1027700022E030E08C010E945A0EA0FB1EF48C0176
:102780000E940B3BE4E00C94023C0E94F13BC80128
:10279000D901FC01EE5BFF4FA083B1830E94281496
:1027A0000E9434140E943C140E9440140E9422147F
:1027B0000E942E140E943A140E943E148C010E9422
:1027C0003A0EE4E00C94023C0E94F23BC801A0E007
:1027D000A03358F5FC01EE5BFF4F208131810A2FB9
:1027E00010E046E050E00E94133B200F311F8901AA
:1027F0000E941F14002361F0EA2FF0E0E65EFB4F19
:10280000049110E0FC01E00FF11F01E002830BC016
:10281000EA2FF0E0E65EFB4F049110E0FC01E00FD0
:10282000F11F00E00283A395D3CF40E49C012E5F0B
:102830003F4F8C010E94680EE3E00C94033CF801CA
:102840000081089500916100016000936100089586
:10285000009162000E7F0093620008950091610074
:102860000062009361000895009162000F7D009363
:1028700062000895169A08951E980895179A08956B
:102880001F980895BA93AA93D8018D010E94E70D6D
:102890000AE414E0FD01018312838D010B5F1F4FD9
:1028A0000E94193A8D01A991B9910895BA93AA93FA
:1028B000D8018D01E7DF02E714E0FD0101831283F7
:1028C00020E08D010E94D20D21E08D010E945A0866
:1028D0008D01A991B99108950E94F13BD801C901D8
:1028E0000A2F0B2BB1F00AE414E0FD0101831283DF
:1028F00022E030E08D010B5F1F4F0E94343A20E050
:1029000030E08D010E94080E80FB1EF48D010E94B4
:102910000B3BE4E00C94023C0E94F13BC801D9015E
:10292000082F092B49F020E030E08C01D5DFA0FB17
:102930001EF48C010E940B3BE4E00C94023C0E94CC
:10294000F13BC8018C010E945D08005051F00A95CE
:1029500049F00A9539F10A95F9F10A9509F45EC032
:1029600088C087C00E9448320023B9F00E945832C4
:10297000002371F00E945032D8018C010E943C1556
:102980009D010E94423A23E08C010E945A0871C0C6
:1029900022E08C010E945A086CC020E08C010E9449
:1029A0005A0867C08C010E9468090130A1F420E038
:1029B0008C010E94D20D01E00E9461320E945032CF
:1029C000D8018C010E943C159D010E94423A23E0EF
:1029D0008C010E945A084DC08C010E946809013088
:1029E00071F420E08C010E94D20D0E945032D80177
:1029F0008C010E943C159D010E94423A3AC08C0114
:102A00000E943C150E945C3A002399F105E00E9467
:102A1000770924E08C010E945A082BC08C010E9487
:102A20006809015019F00A95B1F023C020E08C012B
:102A30000E94D20D0CE00E943F150E945032D80136
:102A40008C010E943C159D010E94423A23E08C01BA
:102A50000E945A080EC020E08C010E94D20D00E0B6
:102A60000E9461320CE00E943F1522E08C010E941E
:102A70005A08E4E00C94023C0B5F1F4F089500934A
:102A8000A709089500E00E943F150E945738FDCF26
:102A9000BA93AA93D8018D010E94E70D0AEB14E0C6
:102AA000FD01018312838D01A991B99108950E94BE
:102AB000F13BC801D901082F092B51F020E030E08B
:102AC0008C010E94080EA0FB1EF48C010E940B3B9F
:102AD000E4E00C94023CF801258308959A938A93CC
:102AE000C8018C010E945D08002311F401E001C0BF
:102AF00000E08991999108950E94EF3B2801C90156
:102B0000DA01AD019C018201F20161817281FB0158
:102B10003696659174913797FB010995D801AD01FF
:102B20009C018201F20161817281FB013C966591F9
:102B300074913D97FB010995E6E00C94003C0E94DE
:102B4000EC3BD801722E632E842ECB01AC01362DC6
:102B50003068272D8D01FD0161817281FB013A965C
:102B6000659174913B97FB0109952801FC01E40DE7
:102B7000F51D808201E0400E00E0501E8201E9E078
:102B80000C94FD3B0E94EB3B28010A012A843B8404
:102B90008C859D8550E06624A0E0B0E0A015B105CD
:102BA000F0F4490194012F5F3F4FFB01E80DF91D3F
:102BB0000081002331F001E010E0462D0E941D3B12
:102BC000502B07E0601641F4F101E80FF91F508324
:102BD000019650E0662401C063941196DFCF662011
:102BE00029F0F101E80FF91F508301968C01EEE006
:102BF0000C94FC3B0E94E53B280159014A01CB01A2
:102C00008201F20121813281F9013E9625913491B0
:102C10003F97F90109953801F501E60DF71D319748
:102C2000F080F501E60DF71DE080F501E60DF71DDA
:102C3000D180CC24F501E60DF71D028110E0C02AF9
:102C4000D12AF501E60DF71DB381A0E0F501E60DEF
:102C5000F71D048110E0A02BB12B0A2F0B2B21F0C4
:102C6000A13D07E0B00740F0B40143E03E2D2F2D19
:102C7000820165DFC80144C0F201028D138D960107
:102C80002A0F3B1F0217130740F4B40142E03E2D08
:102C90002F2D820154DFC80133C0A4013E2D2F2DFA
:102CA0008201F20161817281FB013A966591749112
:102CB0003B97FB010995C8010A2F0770002359F0C3
:102CC00043E08D010E94223B0395F401E80FF91FB8
:102CD0000083019609C043E08D010E94223BF4016C
:102CE000E80FF91F008301969A938A939A928A9229
:102CF000F20162897389AD019601820143DFC80147
:102D00008C01E0E10C94F63B0E94E53B280159015F
:102D10004A01CB018201F20121813281F9013E9603
:102D2000259134913F97F90109953801F501E60D98
:102D3000F71D3197F080F501E60DF71DE080F501F4
:102D4000E60DF71DD180CC24F501E60DF71D0281BB
:102D500010E0C02AD12AF501E60DF71DB381A0E0ED
:102D6000F501E60DF71D048110E0A02BB12B0A2F11
:102D70000B2B21F0A13D07E0B00740F0B40143E088
:102D80003E2D2F2D8201DBDEC80144C0F201048DEF
:102D9000158D96012A0F3B1F0217130740F4B4014B
:102DA00042E03E2D2F2D8201CADEC80133C0A401AE
:102DB0003E2D2F2D8201F20161817281FB013A9635
:102DC000659174913B97FB010995C8010A2F077023
:102DD000002359F043E08D010E94223B0395F4014A
:102DE000E80FF91F0083019609C043E08D010E949E
:102DF000223BF401E80FF91F008301969A938A930E
:102E00009A928A92F20164897589AD0196018201D4
:102E1000B9DEC8018C01E0E10C94F63B0E94E53B71
:102E2000280169014A01CB018201F201218132812D
:102E3000F9013E96259134913F97F9010995580182
:102E4000F601EA0DFB1D3197F080F601EA0DFB1D3E
:102E5000E080F601EA0DFB1DB181A0E0F601EA0D6C
:102E6000FB1D028110E0A02BB12BF601EA0DFB1D2A
:102E700073806624F601EA0DFB1D048110E0602AD0
:102E8000712A062D072929F00EE7601600E070066A
:102E900040F0B40143E03E2D2F2D820150DEC801E9
:102EA00052C0F201068D178D9D01260D371D0217A8
:102EB000130740F4B40142E03E2D2F2D82013FDE86
:102EC000C80141C0A4013E2D2F2D8201F201618174
:102ED0007281FB013A96659174913B97FB010995CC
:102EE000C801062D000FF401E80FF91F00830196B9
:102EF00000E010E00615170530F5F2014689578904
:102F00009D01220F331F420F531FFA01208131818F
:102F1000232F30E0F401E80FF91F20830196F2011E
:102F2000468957899D01220F331F420F531FFA0113
:102F300020813181F401E80FF91F20830196119659
:102F40000F5F1F4FD7CF8C01E0E10C94F63B0E943E
:102F5000E53B280169014A01CB018201F20121818F
:102F60003281F9013E96259134913F97F9010995F7
:102F70005801F601EA0DFB1D3197F080F601EA0DCC
:102F8000FB1DE080F601EA0DFB1DB181A0E0F6011A
:102F9000EA0DFB1D028110E0A02BB12BF601EA0D1A
:102FA000FB1D73806624F601EA0DFB1D048110E011
:102FB000602A712A062D072929F00EE7601600E025
:102FC000700640F0B40143E03E2D2F2D8201B7DDA5
:102FD000C80152C0F20100A111A19D01260D371DAB
:102FE0000217130740F4B40142E03E2D2F2D820159
:102FF000A6DDC80141C0A4013E2D2F2D8201F201A2
:1030000061817281FB013A96659174913B97FB0156
:103010000995C801062D000FF401E80FF91F008380
:10302000019600E010E00615170530F5F201408D1D
:10303000518D9D01220F331F420F531FFA01208132
:103040003181232F30E0F401E80FF91F208301962E
:10305000F201408D518D9D01220F331F420F531FEE
:10306000FA0120813181F401E80FF91F20830196D4
:1030700011960F5F1F4FD7CF8C01E0E10C94F63B08
:103080000E94E53B580129016A01CB018501F50148
:1030900021813281F9013E96259134913F97F901C2
:1030A00009953801F201E60DF71D3197F080F20124
:1030B000E60DF71DE080F201E60DF71D91808824F2
:1030C000F201E60DF71D028110E0802A912AF50138
:1030D000028D138D8016910640F0B60142E03E2D20
:1030E0002F2D85012CDDC8012EC0F201E60DF71D44
:1030F000B381A0E0F201E60DF71D048110E0A02BE2
:10310000B12BA0300FEFB00751F4940101E00E9401
:103110003A32AC01920186010E940D3C14C00A2F84
:103120000B2B51F4940100E00E943A32AC01920161
:1031300086010E940D3C07C0B60143E03E2D2F2DB5
:103140008501FDDCC8018C01E0E10C94F63B0E9496
:10315000E73B2801C9015A014B018201F20121819B
:103160003281F9013E96259134913F97F9010995F5
:10317000D801FC01EA0FFB1F3197D080FC01EA0F58
:10318000FB1FC080FC01EA0FFB1F71806624FC015D
:10319000EA0FFB1F028110E0602A712AF201068DFE
:1031A000178D6016710640F0B50142E03C2D2D2DC3
:1031B0008201C5DC48011CC0FC01EA0FFB1F5381E2
:1031C00040E0FC01EA0FFB1F048110E0402B512B73
:1031D000F201268937898301000F111F200F311F4B
:1031E000F90140835183A4019C0185010E940D3C9B
:1031F0008401EEE00C94F83B0E94E53B2801390184
:103200006A01CB018201F20121813281F9013E96EE
:10321000259134913F97F90109954801F301E80D93
:10322000F91D3197F080F301E80DF91DE080F301FD
:10323000E80DF91DB180AA24F301E80DF91D028102
:1032400010E0A02AB12AF301E80DF91DB381A0E036
:10325000F301E80DF91D048110E0A02BB12B0A2F1A
:103260000B2B21F0A13B07E0B00740F0B60143E093
:103270003E2D2F2D820163DCC80134C0F201028D86
:10328000138D95012A0F3B1F0217130740F4B60157
:1032900042E03E2D2F2D820152DCC80123C0A50142
:1032A0009D018301080D191D0A5F1F4F0E94013205
:1032B000A6013E2D2F2D8201F20161817281FB0159
:1032C0003A96659174913B97FB010995C80144E0DA
:1032D00050E09301280F391F8601080F191F0E9423
:1032E0000D3C04968C01E0E10C94F63B0E94E53B1A
:1032F000480129016A013B018401F40121813281E5
:10330000F9013E96259134913F97F9010995C8013D
:10331000F201E80FF91F3197F080F201E80FF91F71
:10332000E080F201E80FF91FB181A0E0F201E80F9F
:10333000F91F028110E0A02BB12BF201E80FF91F59
:10334000B380AA24F201E80FF91F048110E0A02A3B
:10335000B12A0A2D0B2929F00CE7A01600E0B006CF
:1033600040F0B60143E03E2D2F2D8401E8DB38010B
:103370004FC0F401068D178D9D012A0D3B1D0217CC
:10338000130740F4B60142E03E2D2F2D8401D7DB18
:1033900038013EC020E030E02A153B05E0F4F201A0
:1033A000E80FF91F568140E0F201E80FF91F07818D
:1033B00010E0402B512BF401668977898D01000FB5
:1033C000111F600F711FFB014083518311960296FC
:1033D0002F5F3F4FE1CFA6013E2D2F2D8401F40139
:1033E00061817281FB013A96659174913B97FB0173
:1033F0000995380144E050E09201260D371D860101
:10340000060D171D0E940D3C04E0600E00E0701ECA
:103410008301E0E10C94F63B08010FEF1FEF0895E4
:10342000080100E010E008950E94E93B28014901ED
:10343000DA01CB018201F20121813281F9013E964C
:10344000259134913F97F90109953801F401E60D72
:10345000F71D3197B080F401E60DF71DA080AD0196
:103460003A2D2B2D8201F20161817281FB013A9686
:10347000659174913B97FB010995C801FD01E80F27
:10348000F91F03E000830196FD01E80FF91F00E238
:1034900000830196FD01E80FF91F07E00083019604
:1034A000FD01E80FF91F02E3008301968C01ECE0B7
:1034B0000C94FA3B0E94E53B38014901DA01CB014B
:1034C0008301F30121813281F9013E9625913491E6
:1034D0003F97F90109952801F401E40DF51D319795
:1034E000B080F401E40DF51DA080F401E40DF51D9C
:1034F000E280FF248C0106501040E016F10641F0F6
:10350000BD0142E03A2D2B2D830119DBC80130C1EA
:10351000AD013A2D2B2D8301F30161817281FB01F5
:103520003A96659174913B97FB010995C801F401A6
:10353000E40DF51D0381005049F00A9579F10A95D3
:1035400009F49AC00A9509F4E0C00BC1FD01E80F27
:10355000F91F00E000830196FD01E80FF91F04E068
:1035600000830196F401E40DF51D0381FD01E80FD0
:10357000F91F00830196FD01E80FF91F02E00083A7
:103580000196FD01E80FF91F00E000830196FD019F
:10359000E80FF91F02E000830196EAC0F401E40D90
:1035A000F51D0481C02E0CE0C01640F0BD0142E0C4
:1035B0003A2D2B2D8301C3DAC801DAC0CC20B1F536
:1035C0002C2D8D01040D151D0B5F1F4F0E94FD0951
:1035D00020919B0BFD01E40DF51D258320919A0B95
:1035E000FD01E40DF51D2683FD01E40DF51D20E32D
:1035F0002783FD01E80FF91F20E020830196202F8B
:10360000FD01E80FF91F20830196F401E40DF51D7B
:103610002381FD01E80FF91F20830196FD01E80FCA
:10362000F91FC0820196800F911FA2C02C2D8D0121
:10363000040D151D0B5F1F4F0E94FD099801FD0130
:10364000E80FF91F00E000830196022FFD01E80F4B
:10365000F91F00830196F401E40DF51D0381FD01BE
:10366000E80FF91F00830196FD01E80FF91FC082E2
:103670000196820F931F7CC0F401E40DF51D0481B7
:10368000C02E0CE0C01640F0BD0142E03A2D2B2DBB
:10369000830155DAC8016CC00C2D0E941C0A9801E8
:1036A000F401E40DF51D028110E0025010400217F4
:1036B000130741F0BD0143E03A2D2B2D83013FDA82
:1036C000C80156C00C2D0E941C0A98014C2D840183
:1036D000040D151D0B5F1F4F0E940B0A012B69F093
:1036E0000E94D1090DE00E943F15BD0145E03A2D31
:1036F0002B2D830124DAC8013BC0BD0147E03A2DE0
:103700002B2D83011CDAC80133C003E11AE00E94AB
:103710006809033081F4AD013A2D2B2D8301F301AB
:1037200061817281FB013A96659174913B97FB012F
:103730000995C8011DC003E11AE00E946809013023
:1037400041F4BD0146E03A2D2B2D8301F8D9C80183
:103750000FC0BD0141E03A2D2B2D8301F0D9C801E6
:1037600007C0BD0141E03A2D2B2D8301E8D9C801E6
:103770008C01E0E10C94F63B0E94E93BD801490141
:103780002A01CB018D01FD0121813281F9013E9693
:10379000259134913F97F90109953801F401E60D1F
:1037A000F71D3197B080F401E60DF71DA08003E10D
:1037B0001AE00E946809033081F4A2013A2D2B2DF2
:1037C0008D01FD0161817281FB013A9665917491D1
:1037D0003B97FB010995C80115C003E11AE00E945F
:1037E0006809013041F4B20146E03A2D2B2D8D01DC
:1037F000A6D9C80107C0B20141E03A2D2B2D8D0199
:103800009ED9C8018C01ECE00C94FA3B0E94E63B87
:10381000D80129013A015B018D01FD01218132812D
:10382000F9013E96259134913F97F9010995480198
:10383000F201E80DF91D3197C080F201E80DF91D84
:10384000E080C501DC2CDD0CDD08FD01058110E008
:10385000C016D10629F0CC2019F000E010E070C0AD
:103860000E2D102F110F110BE8E8F0E0FBBFF9E06F
:103870000C94A83BBC01A30192018D01BBD9C801E6
:103880005BC0BC01A30192018D013EDAC80154C0A6
:10389000BC01A30192018D01C1DAC8014DC0BC0178
:1038A000A30192018D0153DBC80146C0BC01A301F5
:1038B00092018D01E5DBC8013FC0BC01A30192016B
:1038C0008D0145DCC80138C0BC01A30192018D0106
:1038D000A3DDC80131C0BC01A30192018D018CDCC4
:1038E000C8012AC0BC01A30192018D0145DFC801B6
:1038F00023C0BC01A30192018D01F8DCC8011CC0EA
:10390000BC01A30192018D018FDDC80115C0BC016E
:10391000A30192018D0184DDC8010EC0BC01A30189
:1039200092018D01C7DDC80107C0B30141E03E2D02
:103930002C2D8D0104D9C801FD01848795878C0148
:10394000EFE00C94F73BB80101E010E008950E940D
:10395000E93BD80129013A018D01FD012181328124
:10396000F9013E96259134913F97F9010995C801D7
:10397000F201E80FF91F31979080F201E80FF91F6B
:1039800080805301FD010681091591F4FD01078135
:10399000081571F402E0801641F4A5019201280F88
:1039A000391F2E5F3F4F8D01CEDF01E010E02DC0AB
:1039B0008D01FD0121813281F901709625913491AB
:1039C0007197F901099598018C01020F131F0E5F81
:1039D0001F4FA016B10631F487FA16F401E003C0B8
:1039E00000E001C000E0002371F0F201E80FF91FD0
:1039F00021812C302CF4022F102F110F110B05C038
:103A00000EE010E002C001E010E0ECE00C94FA3BA4
:103A1000980101E010E00895980102E010E0089597
:103A20000E94EF3BC801D9010A2F0B2B11F401E0D2
:103A300001C000E0002379F002E1402E05E0502EA5
:103A4000DC011F96FC01A587B6878C01015F1F4F23
:103A50000E94481506C0FC0143845484FC01A587DC
:103A6000B68700EF14E0FC0103871487F20105918B
:103A700014913197FD01018312838C01E6E00C94CF
:103A8000003C0E94F13BC801D901082F092B79F0B5
:103A90000A2F0B2B39F020E030E08C01015F1F4F23
:103AA0000E945715A0FB1EF48C010E940B3BE4E022
:103AB0000C94023C0F501040E4CF0E94E53B22974B
:103AC00028833983D8012A013B018D889E888F89FC
:103AD000988DED8CFE8CCF8CD8A0A9A0BAA00881BF
:103AE00019810D931C931197FD01428253826482C8
:103AF00075820A89FD0100870B89FD0106830C8907
:103B0000FD010783FD0105851685F80186869786E8
:103B1000FD0105851685F801808B918B298D3A8DE5
:103B2000FD0105851685F801228B338B2B8D3C8D8D
:103B3000FD0105851685F801248B358BFD01058572
:103B40001685F801E68AF78AFD0105851685F801D4
:103B5000C08ED18EFD0105851685F801A28EB38E2B
:103B60002BA13CA1FD0105851685F801248F358F19
:103B70002DA13EA1FD0105851685F801268F378F01
:103B80002FA138A5FD0105851685F80120A331A3D5
:103B9000FD01428153816481758100E412E42FE0CC
:103BA00030E00E94833B40E250E060E070E00E9421
:103BB000553B0801190148EE53E060E070E08001D8
:103BC00091010E94833B0F5F1F4FFD010187128708
:103BD000FD0105851685F801428D538D20E030E00A
:103BE000FD0105851685F801028913890E941D3C97
:103BF000FD0105851685F801448D558D20E030E0E6
:103C0000FD0105851685F801048915890E941D3C72
:103C1000FD0105851685F80140A151A1440F551FEE
:103C200020E030E0FD0105851685F801008D118D3D
:103C30000E941D3C9A938A939A928A92FD01078171
:103C40000A93FD013681FD012085FD0142815381EA
:103C5000648175810D911C9111970E94492A2296C9
:103C6000E7E20C94F63BBA93AA93D8010D911C910C
:103C700011970E947E2AA991B9910895BA93AA93A7
:103C8000D8010D911C9111970E948D2AA991B9918B
:103C90000895BA93AA93D8010D911C9111970E948F
:103CA0009E2AA991B9910895BA93AA93D8010D912A
:103CB0001C9111970E94CC2AA991B9910895BA93A9
:103CC000AA93D8010D911C9111970E94E72AA991FE
:103CD000B99108950E94EF3B2801D901CA019C01C6
:103CE0008D010E9401099801022FFD01E80FF91FC3
:103CF000008301968901012F10E0FD01E80FF91FF3
:103D0000008301968C01E6E00C94003C0F501040BB
:103D1000E1CF1D010801E881F981208331838A0107
:103D2000012F10E00283042F03838B01012F10E089
:103D30000483062F058306E010E0D1012296089542
:103D40000F501040E6CFB801FA012083FA01318309
:103D500002E010E008950F501040F5CF0E94EF3BB5
:103D6000D8012901CA01AC0192010D911C91119752
:103D70000E94FB2AE6E00C94003C0F501040EECF6E
:103D8000BA93AA93D8010D911C9111970E94B72163
:103D9000A991B9910895BA93AA93D8010D911C9154
:103DA00011970E94B421A991B99108950E94EF3B07
:103DB000D8012901CA01AC0192010D911C91119702
:103DC0000E94032BE6E00C94003C0E94F13BD801DA
:103DD000C9010E94BA21FD0125853685F901228598
:103DE0003385021B130B0817190710F001E001C0FF
:103DF00000E0E4E00C94023CBA93AA93D8010E943C
:103E0000BA21FD0125853685F90102871387A9911D
:103E1000B99108950E94EB3B4801D901CA01843051
:103E200000E0900710F400E021C0FD01E80FF91F49
:103E3000319750804424FD01E80FF91F329700812B
:103E400010E0402A512A9C01225030408D010E94EE
:103E5000010938019C01225030408D010E94010966
:103E60000415150511F401E001C000E0EAE00C942E
:103E7000FC3B0E94F13BD801FD01058516850E949F
:103E80005D08ECEBF0E0FBBFF9E00C94A83B8D0182
:103E9000B3DF8D01E8DEFD0105851685F80100E040
:103EA000048700E005878D01E9DE23E0FD0105853B
:103EB00016850E945A0842C28D016DDF0023E1F190
:103EC00040E051E0FD0105851685F8010485158562
:103ED000401B510BFD0105851685F80126853785A8
:103EE000FD0105851685F80104851585200F311F14
:103EF0008D015CDFC801813000E090079CF0FD017E
:103F000005851685F80104851585080F191F048796
:103F100015878D0171DF24E0FD01058516850E945E
:103F20005A080AC08F3F0FEF900731F422E0FD01DD
:103F3000058516850E945A0828E93AE38D0145DF78
:103F4000002331F022E0FD01058516850E945A0804
:103F5000F5C18D0120DF0023B1F140E051E0FD010A
:103F600005851685F80104851585401B510BFD015B
:103F700005851685F80126853785FD010585168599
:103F8000F80104851585200F311F8D010FDFC80151
:103F9000813000E090076CF0FD0105851685F80181
:103FA00004851585080F191F048715878D0124DFE7
:103FB0000AC08F3F0FEF900731F422E0FD01058525
:103FC00016850E945A08FD01218532858D01FDDE8E
:103FD0000023E9F0FD0105851685F8014485558526
:103FE000FD0105851685F801268537858D0112DFCF
:103FF000002339F025E0FD01058516850E945A0849
:104000009DC122E0FD01058516850E945A0896C1D2
:10401000FD0105851685F80164857585FD01058519
:104020001685F80140895189FD0105851685F8013D
:1040300026853785FD01058516850E94061C012B06
:1040400049F00E94BF2126E0FD01058516850E94EA
:104050005A0874C10E94C52122E0FD01058516851C
:104060000E945A086BC18D01C7DE8D01FCDD8D01F8
:1040700010DE27E0FD01058516850E945A085EC105
:1040800025E030E08D01A1DE0023C9F0FD010585AA
:104090001685F80144855585FD0105851685F801CD
:1040A00020893189FD01058516850E947C158D01C9
:1040B000FBDD28E0FD01058516850E945A083EC1FA
:1040C0008D015EDE002351F08D01F9DD0E94C521D6
:1040D00022E0FD01058516850E945A082FC18D0139
:1040E000D8DD20E0FD01058516850E945A0826C10D
:1040F0008D0182DE8D01B7DDFD0105851685F80194
:1041000000E0048700E005878D01B8DD2BE0FD01AC
:10411000058516850E945A0811C18D013CDE0023D9
:10412000E1F140E051E0FD0105851685F8010485C7
:104130001585401B510BFD0105851685F801268567
:104140003785FD0105851685F80104851585200F45
:10415000311F8D012BDEC801813000E090079CF0FB
:104160008D014ADEFD0105851685F801048515855A
:10417000080F191F048715872CE0FD01058516859A
:104180000E945A080AC08F3F0FEF900731F421E1D7
:10419000FD01058516850E945A0828EE33E08D0141
:1041A00014DE002331F021E1FD01058516850E9412
:1041B0005A08C4C08D01EFDD0023B1F140E051E0A9
:1041C000FD0105851685F80104851585401B510BF9
:1041D000FD0105851685F80126853785FD010585D4
:1041E0001685F80104851585200F311F8D01DEDD50
:1041F000C801813000E090076CF08D01FDDDFD010C
:1042000005851685F80104851585080F191F048793
:1042100015870AC08F3F0FEF900731F421E1FD01B0
:10422000058516850E945A08FD01218532858D017C
:10423000CCDD0023E9F0FD0105851685F8014485F4
:104240005585FD0105851685F801268537858D0183
:10425000E1DD002339F02DE0FD01058516850E9482
:104260005A086CC021E1FD01058516850E945A0897
:1042700065C0FD0105851685F80144855585FD015C
:1042800005851685F80126853785FD010585168586
:104290000E94A71C012B39F021E1FD01058516853F
:1042A0000E945A084BC021E1FD01058516850E9438
:1042B0005A0844C08D01A0DD8D01D5DC0E94BF21CC
:1042C0002FE0FD01058516850E945A0837C025E0BC
:1042D00030E08D017ADD002389F1FD010585168529
:1042E000F80144855585FD0105851685F80120896D
:1042F0003189FD01058516850E947C158D01D4DC70
:1043000020E1FD01058516850E945A0817C08D0120
:1043100037DD002399F08D01D2DC0E94C5212AE00F
:10432000FD01058516850E945A0808C08D01B1DC83
:1043300020E0FD01058516850E945A08E4E00C94F2
:10434000023C0F50104095CD980101E010E0089517
:104350000F5010400C94A421980102E010E0089541
:104360000F5010400C94AC21F80102A50895F801FB
:1043700003A50895EAE8F6E000811181089500910F
:1043800062000F7B00936200089500916200006458
:104390000093620008950E94F13BD801822F8D01A5
:1043A000075F1F4F0E94E70D08E315E0FD0107833B
:1043B00010870EE315E0FD01028713878C9320E040
:1043C0008D01075F1F4F0E945A088D01E4E00C9495
:1043D000023C0E94F13BC801D901082F092B61F072
:1043E00020E030E08C01075F1F4F0E94080EA0FB09
:1043F0001EF48C010E940B3BE4E00C94023C09503B
:104400001040E7CF1D01D801F9010081FD010687A9
:10441000F90101811281FD010787108BF9010381E8
:104420001481FD01018B128BF90105811681FD01BB
:1044300005831683F90107811085FD01038B148B19
:10444000F90100891189FD01018F128FF90102859F
:104450001385FD01058B168BF90145855685F901FC
:10446000078510E0000F111F400F511FFD01478B02
:10447000508FF9010785085F0787F9016089718905
:10448000F901028910E048E150E00E94133B600FFF
:10449000711FFD01618F728FF9010289085F028B24
:1044A000FD0100E0038FD10108950E94EF3BD80188
:1044B000FD01018912890E5F1F4FC80100E008301D
:1044C00078F4FD01218D328D10E0200F311FF901AC
:1044D000208110E0FC01E00FF11F20830395EFCF56
:1044E00028E030E08C010E9421092801FD010189AA
:1044F0001289065F1F4FC801042DFC01008301963D
:104500008201012F10E0FC010083FD010189128965
:10451000F80101E80083FD0106850E9420300AE6CB
:1045200013E001501040E9F700C000004DE050E0FA
:10453000FD0121893289FD01078510890E940D2D19
:104540000E944530FD0107851089F801018101387D
:1045500049F4FD0107851089F80104850E3711F42F
:1045600001E001C000E0E6E00C94003C0E94EB3B5F
:10457000D801992420E0283020F5FD01018D128D0D
:1045800030E0020F131FF80100850F3FC1F0FD015D
:1045900003891489FD01418D528D30E0420F531F74
:1045A000FA01408550E0040F151FF8010081002337
:1045B00031F001E010E0422F0E941D3B902A23952C
:1045C000DACF882420E0283020F5FD01018D128DFE
:1045D00030E0020F131FF80100890F3FC1F0FD0109
:1045E00003891489FD01418D528D30E0420F531F24
:1045F000FA01408950E0040F151FF80100810023E3
:1046000031F001E010E0422F0E941D3B802A2395EB
:10461000DACF5524FD010381002329F0FD0100E0DC
:104620000383689450F8FD010481002329F0FD0103
:1046300000E00483689451F8FD010181002329F012
:10464000FD0100E00183689452F8FD01028100231E
:1046500029F0FD0100E00283689453F8FD0101890F
:104660001289F80102E40083FD01018912890E5FBD
:104670001F4FC801442420E02830A8F4FD01078919
:10468000108D422F50E0440F551F040F151FF801E5
:104690000181002331F001E010E0422F0E941D3B18
:1046A000402A2395E9CFFC0140820196442420E072
:1046B0002830A8F4FD010789108D422F50E0440FE7
:1046C000551F040F151FF8010081002331F001E090
:1046D00010E0422F0E941D3B402A2395E9CFFC01A8
:1046E00040820196FC0190820196FC018082019635
:1046F000FC015082019625E030E0FD01018912891C
:104700000E5F1F4F0E9421093801062DFC01008316
:1047100001968301012F10E0FC0100830196FC014A
:104720000EE700830196FD0106850E9420300AE60F
:1047300013E001501040E9F700C000004AE050E0EB
:10474000FD0121893289FD01078510890E940D2D07
:104750000E944530FD0107851089F801018104524E
:1047600009F442C00E5109F041C025E030E0FD01DE
:10477000078510890E5F1F4F0E942F0901301040DE
:10478000ACF1FD0107851089F80101850E3771F53F
:10479000FD0100E0038FFD0107851089F80102810A
:1047A000402E20E02830F0F401E010E0422F0E947B
:1047B0001D3B142D1023112351F0FD01058916898D
:1047C00030E0020F131FF80101E0008309C0FD0172
:1047D0000589168930E0020F131FF80100E00083FD
:1047E0002395E0CF01E013C000E011C0FD01038D6F
:1047F0000A3030F4FD01038D0395038F00E007C0FC
:10480000FD0105811681F80102E0008300E0EAE085
:104810000C94FC3B0E94F23BC8018C01075F1F4FC8
:104820000E945D08005019F00A9559F00DC08C01E6
:104830003CDEA02F21E08C01075F1F4F0E945A0829
:1048400003C08C0193DEA02F0A2FE3E00C94033CFD
:1048500046E655E0F80147835087F8012083089524
:104860009A938A93C801082F092B29F020FB1EF484
:104870008C010E940B3B899199910895BD01D8014B
:10488000F9010081FD010187F90101811281FD011A
:1048900002871387F90103811481FD0104871587BD
:1048A000F90105811681FD0105831683F901478110
:1048B0005085F901018510E0400F511FFD01468729
:1048C0005787F9010185085E0187FD0100E0008B33
:1048D000DB0108950E94F13BD8011C96ED91FC91FB
:1048E0001D9702E40083FD0101850E9420300AE645
:1048F00013E001501040E9F700C0000049E050E02B
:10490000FD0124853585FD01028513850E940D2D4D
:104910000E9445301A96ED91FC911B97018104523B
:10492000E1F10E51D1F527E030E0FD01028513855C
:104930000F5F1F4F0E9453090130104074F1FD01B9
:1049400000E0008BFD018685978560E0663018F5F4
:10495000FD010285138570E0060F171FF8013281F3
:1049600020E02830B0F420FB96F001E010E0422F68
:104970000E941D3B132F1023112329F0FC0101E09D
:104980000083019604C0FC0100E00083019623959A
:10499000E8CF6395DBCF01E011C0FD0100890A304B
:1049A00030F4FD0100890395008B00E007C01596E7
:1049B000ED91FC91169701E0008300E0E4E00C9497
:1049C000023CBA93AA93D8018D010E94E70D0CE630
:1049D00015E0FD01018312838D010A5F1F4F0E94C4
:1049E000193A25E28D010E945A0825E28D010E94A4
:1049F000270A8D01A991B9910895BA93AA93D80174
:104A00008D01DFDF0AE815E0FD010183128325E255
:104A10008D010E945A0825E28D010E94270A8D010E
:104A2000A991B9910895BA93AA93D8018D01C9DFCC
:104A300008EA15E0FD010183128325E28D010E9441
:104A40005A0825E28D010E94270A8D01A991B9918A
:104A50000895BA93AA93D8018D01B3DF0AEE15E049
:104A6000FD010183128328E18D010E945A0828E18B
:104A70008D010E94270A8D01A991B9910895BA93D9
:104A8000AA93D8018D019DDF08E016E0FD010183A6
:104A9000128325E28D010E945A0825E28D010E94B1
:104AA000270A8D01A991B99108950E94F13BD8017F
:104AB000C9010A2F0B2BB1F00CE615E0FD010183B3
:104AC000128322E030E08D010A5F1F4F0E94343ACA
:104AD00020E030E08D010E94080E80FB1EF48D0165
:104AE0000E940B3BE4E00C94023CBA93AA93D801D9
:104AF0008D010E945D08E6EEF0E0FBBFF9E00C944A
:104B0000A83B8D011196ED91FC911297709625911D
:104B100034917197F901099598018D010A5F1F4F32
:104B20000E94423A8D011196ED91FC9112973496B4
:104B3000259134913597F901099529E18D010E945C
:104B40005A084DC28D010A5F1F4F0E945C3A002334
:104B500001F18D011196ED91FC91129772962591BC
:104B600034917397F901099598018D010A5F1F4FE0
:104B70000E94423A8D011196ED91FC9112973C965C
:104B8000259134913D97F90109952AE18D010E9403
:104B90005A0825C28D010A5F1F4F0E945C3A00230C
:104BA00001F18D011196ED91FC911297709625916E
:104BB00034917197F901099598018D010A5F1F4F92
:104BC0000E94423A8D011196ED91FC911297349614
:104BD000259134913597F901099529E18D010E94BC
:104BE0005A08FDC18D011196ED91FC9112973696F0
:104BF000259134913797F901099522E08D010E94A2
:104C00005A08EDC18D011196ED91FC9112977496A1
:104C1000259134917597F901099598018D010A5FE5
:104C20001F4F0E94423A8D011196ED91FC9112970F
:104C30003896259134913997F901099528E08D012D
:104C40000E945A08CCC18D010A5F1F4F0E945C3A36
:104C5000002301F18D011196ED91FC91129776964A
:104C6000259134917797F901099598018D010A5F93
:104C70001F4F0E94423A8D011196ED91FC911297BF
:104C80003C96259134913D97F901099529E08D01D4
:104C90000E945A08A4C18D010A5F1F4F0E945C3A0E
:104CA000002301F18D011196ED91FC9112977496FC
:104CB000259134917597F901099598018D010A5F45
:104CC0001F4F0E94423A8D011196ED91FC9112976F
:104CD0003896259134913997F901099528E08D018D
:104CE0000E945A087CC18D011196ED91FC9112979A
:104CF0007896259134917997F901099598018D015C
:104D00000A5F1F4F0E94423A8D011196ED91FC916E
:104D100012973A96259134913B97F90109952EE027
:104D20008D010E945A085BC18D010A5F1F4F0E94CE
:104D30005C3A002301F18D011196ED91FC911297DF
:104D40007A96259134917B97F901099598018D0107
:104D50000A5F1F4F0E94423A8D011196ED91FC911E
:104D600012973C96259134913D97F90109952FE0D2
:104D70008D010E945A0833C18D010A5F1F4F0E94A6
:104D80005C3A002301F18D011196ED91FC9112978F
:104D90007896259134917997F901099598018D01BB
:104DA0000A5F1F4F0E94423A8D011196ED91FC91CE
:104DB00012973A96259134913B97F90109952EE087
:104DC0008D010E945A080BC18D011196ED91FC9145
:104DD00012977896259134917997F9010995980160
:104DE0008D010A5F1F4F0E94423A8D011196ED918D
:104DF000FC9112973A96259134913B97F9010995C8
:104E000024E18D010E945A08EAC08D010A5F1F4FFC
:104E10000E945C3A002301F18D011196ED91FC9105
:104E200012977A96259134917B97F901099598010B
:104E30008D010A5F1F4F0E94423A8D011196ED913C
:104E4000FC9112973C96259134913D97F901099573
:104E500025E18D010E945A08C2C08D010A5F1F4FD3
:104E60000E945C3A002301F18D011196ED91FC91B5
:104E700012977896259134917997F90109959801BF
:104E80008D010A5F1F4F0E94423A8D011196ED91EC
:104E9000FC9112973A96259134913B97F901099527
:104EA00026E18D010E945A089AC08D010A5F1F4FAA
:104EB0000E945C3A002301F18D011196ED91FC9165
:104EC00012977696259134917797F9010995980173
:104ED0008D010A5F1F4F0E94423A8D011196ED919C
:104EE000FC9112973C96259134913D97F9010995D3
:104EF00027E18D010E945A0872C08D010A5F1F4F81
:104F00000E945C3A002301F18D011196ED91FC9114
:104F100012977896259134917997F901099598011E
:104F20008D010A5F1F4F0E94423A8D011196ED914B
:104F3000FC9112973A96259134913B97F901099586
:104F400024E18D010E945A084AC08D011196ED910D
:104F5000FC9112977C96259134917D97F9010995E2
:104F600098018D010A5F1F4F0E94423A8D011196F0
:104F7000ED91FC9112973A96259134913B97F90166
:104F800009952FE18D010E945A0829C08D010A5F01
:104F90001F4F0E945C3A002311F18D011196ED9193
:104FA000FC9112973C96259134913D97F901099512
:104FB0008D010E948429202F8D010E945A080FC064
:104FC0008D011196ED91FC9112973C9625913491AB
:104FD0003D97F901099520E08D010E945A08A99199
:104FE000B99108950E94F13BC801D901082F092BFE
:104FF00069F025E28C010E945A0820E030E08C0123
:1050000054DDA0FB1EF48C010E940B3BE4E00C94E9
:10501000023C0E94F23BC801A22F8C010E945D0855
:10502000202F8C010E94270A0A2FE4E2F0E0FBBF48
:10503000FAE00C94A83B25E28C010E945A080EC0AD
:1050400021E08C010E945A0809C027E08C010E94CF
:105050005A0804C027E08C010E945A08E3E00C942F
:10506000033C08959A938A93C80101E00E941F3778
:105070008991999108959A938A93C80102E00E94B8
:105080001F3789919991089508959A938A93C80139
:1050900002E00E944B378991999108950E94F13B5B
:1050A000C801D901082F092B69F025E28C010E9463
:1050B0005A0820E030E08C01F8DCA0FB1EF48C01E3
:1050C0000E940B3BE4E00C94023C0E94F23BC801BE
:1050D000A22F8C010E945D08202F8C010E94270ABC
:1050E0000A2FEAE3F0E0FBBFFAE00C94A83B25E2CC
:1050F0008C010E945A080EC021E08C010E945A08BF
:1051000009C025E28C010E945A0804C02DE08C01E0
:105110000E945A08E3E00C94033C08959A938A9302
:10512000C80101E00E941F3789919991089508955F
:105130009A938A93C80103E00E941F37899199913D
:1051400008959A938A93C80103E00E944B3789918E
:10515000999108950E94F13BC801D901082F092BAC
:1051600069F025E28C010E945A0820E030E08C01B1
:105170009CDCA0FB1EF48C010E940B3BE4E00C9431
:10518000023C0E94F23BC801A22F8C010E945D08E4
:10519000202F8C010E94270A0A2FE0E5F0E0FBBFD8
:1051A000FAE00C94A83B28E18C010E945A0813C035
:1051B00028E18C010E945A080EC027E08C010E9451
:1051C0005A0809C02DE08C010E945A0804C023E14E
:1051D0008C010E945A08E3E00C94033C9A938A9352
:1051E000C8010E94D32989919991089508959A93AD
:1051F0008A93C8010E94D3298991999108959A931D
:105200008A93C8010E94D3298991999108959A930C
:105210008A93C8010E94D9290BE41BE00E94E41381
:105220008991999108950E94F13BC801D901082FF5
:10523000092B69F025E28C010E945A0820E030E039
:105240008C0133DCA0FB1EF48C010E940B3BE4E0DC
:105250000C94023C0E94F23BC801A22F8C010E94D8
:105260005D08202F8C010E94270A0A2FE6E6F0E055
:10527000FBBFFAE00C94A83B25E28C010E945A087F
:1052800018C025E28C010E945A0813C027E08C0147
:105290000E945A080EC02DE08C010E945A0809C0D5
:1052A00023E18C010E945A0804C02EE18C010E9467
:1052B0005A08E3E00C94033C9A938A93C8010E9435
:1052C000EE088991999108959A938A93C8010E9452
:1052D000EE088991999108959A938A93C8010E9442
:1052E000DC088991999108959A938A93C8010E9444
:1052F000E5088991999108959A938A93C8010E942B
:10530000EE08899199910895F80103810895980113
:1053100000ED17E00895980100ED17E00895980159
:1053200008EE13E00895980108EE13E0089598013F
:1053300004EF11E00895980104EF11E00895980139
:1053400002E310E00895980100ED17E00895980138
:1053500000ED17E00895980108EE13E00895980114
:1053600008EE13E00895980104EF11E00895980104
:1053700004EF11E00895980100ED17E008959801F9
:1053800000ED17E00895980108EE13E008959801E4
:1053900008EE13E00895980104EF11E008959801D4
:1053A00004EF11E00895009162000F77009362000E
:1053B00008950091620000680093620008950E94C1
:1053C000EB3BD80149013A012B018A859B852C844E
:1053D0003D840E841F84688979892B893C8906E283
:1053E00016E0FD0105A716A7FD0180829182FD014F
:1053F00062827382FD0144825582FD018683978318
:10540000FD0120863186FD0102861386FD01648739
:1054100075870A89FD010687FD012787308B0D8975
:10542000FD01018BFD0104851585012B01F1FD01B5
:10543000568501E010E0452F0E941D3B402FFD01E5
:1054400004851585F8010081042B0083FD01018985
:10545000502F01E010E0452F0E941D3B402F40954A
:10546000FD0107851089F8010081042300838D0167
:10547000E6E10C94FC3B9A938A93C801082F092B10
:1054800029F020FB1EF48C010E940B3B899199911D
:1054900008950E94ED3B2801CA01DB01722E632EA4
:1054A0008C019D0140E150E060E070E00E94553BBE
:1054B000A801B90100E010E820E730E00E94833B3A
:1054C000980121503040422FF20102811381F801EE
:1054D00040838901012F10E0402FF20100811181EA
:1054E000F80140834091BA0B48734660F201008591
:1054F0001185F8014083EDE00C94FE3BF80120E0BB
:10550000208F20E0218FF80120E022A7F80120E081
:1055100023A7F80120E024A708953B2F4A2FF80184
:10552000A481B5812C9120682C93F801A681B781C4
:105530002C9120692C93A42FB32F08953B2F4A2F31
:10554000F801A681B7812C912F762C93A42FB32F2D
:1055500008953B2F6A2FF801218901E010E0422FC6
:105560000E941D3BA785B0891C91102B1C93A62F70
:10557000B32F08953B2F6A2FF801218901E010E035
:10558000422F0E941D3B0095A785B0891C911023D6
:105590001C93A62FB32F08955B2F0A2ED801FD016F
:1055A00004851585012B11F08D01D3DF1496ED9143
:1055B000FC9115970081006600831696ED91FC9191
:1055C0001797008108620083A02DB52F08955B2FE7
:1055D0000A2ED8011696ED91FC9117970081077954
:1055E0000083FD0104851585012B11F08D01C2DFBB
:1055F000A02DB52F0895F801228B338B448B558B4A
:1056000001E010E008950E94ED3BD801C9012A0194
:10561000FD0100E002A7FD0104A5002319F00FEF32
:105620001FEF3AC0FD01008D118D0415150518F00E
:105630000FEF1FEF31C0FD01008D118D012B11F116
:105640000E94202E00E010E0FD01208D318D021718
:10565000130758F4FD01E00FF11F228DFC01E00F4C
:10566000F11F20830F5F1F4FEFCFFD01608C718C06
:10567000FD0100E0008F00E0018F0E941E2E062D2C
:1056800010E00AC0FD01008D118D012B19F400E01E
:1056900010E002C000E010E0E8E00C94FE3BAD0139
:1056A000F80124893589232B99F4F801A681B78163
:1056B0002C912F7D2C93F801A481B5812C9120642D
:1056C0002C93F801A681B7812C9120642C9315C0EE
:1056D000F801A289B3899D012F5F3F4FF801228B0A
:1056E000338B2C91F801A285B3852C93F801248982
:1056F000358921503040248B358BDA0108953B2FBA
:105700004A2FF801A681B7812C912F7B2C93F801A9
:1057100021E023A7A42FB32F08950E94F13BF801A5
:10572000808D918D409738F0F80121E024A7F80191
:1057300021E022A713C0F801208D318DC901019607
:10574000F801808F918FF801A285B3854C91F80103
:10575000E20FF31F428FF80121E022A7E4E00C944E
:10576000023CFA93EA937A936A935A934A933A9350
:105770002A931A930A936FB77BB700918D06109105
:105780008E068DDF7BBF6FBF0991199129913991E9
:105790004991599169917991E991F9911895FA9303
:1057A000EA936A935A934A933A932A931A930A93E1
:1057B0005FB76BB700918D0610918E06A0DF6BBFAF
:1057C0005FBF099119912991399149915991699135
:1057D000E991F9911895FA93EA930A926A935A9388
:1057E0004A933A932A931A930A935FB76BB700913F
:1057F0008D0610918E0691DF6BBF5FBF09911991E5
:10580000299139914991599169910990E991F991B9
:1058100018959A938A93C801082F092B29F020FB29
:105820001EF48C010E940B3B899199910895980177
:10583000A895E19B02C0A895FCCFF8943FBB2EBB76
:10584000E09A78940DB30895792F082EF801C901D4
:10585000042F052B41F08C01EADF0196008331967D
:1058600041505040F5CF01E0802D972F08950E94C0
:10587000EF3BC8012901DA018C010E94D82D820179
:105880000E94D32D8D010E94EC2D00E010E00E94BB
:10589000E22DE6E00C94003C0E94F13B0E94E72DD3
:1058A000C8010E94F12D8017910740F50E94DD2D5F
:1058B0001FBB0EBB0E94DD2D0F5F1F4F0E94D82D16
:1058C000E09A8DB30E94CE2DD8010E94E72DA00F43
:1058D000B11F0C91801759F00E94CE2DD8010E9463
:1058E000E72DA00FB11F0C910DBBE29AE19A0E9427
:1058F000E72D0F5F1F4F0E94E22D09C00E94CC2DA3
:1059000000E010E01FBB0EBB01E00E94C60DE4E00A
:105910000C94023C9A938A93FA93EA933A922A92CD
:105920001A920A927A936A935A934A933A932A93D1
:105930001A930A938FB79BB7AFDF9BBF8FBF0991B5
:1059400019912991399149915991699179910990C8
:10595000199029903990E991F99189919991189527
:105960001C01090180E090E08015910560F4FA01C6
:10597000362FE80FF91F3BBF2691F801E80FF91FFA
:1059800020830196F1CFC10108950E94F03BD80118
:10599000422E042D0E94F62DC801042D0E940D2ECA
:1059A000A801622F9C018D01DBDF042D0E94F62DE2
:1059B000E5E00C94013C9A938A93C801082F092BC7
:1059C00029F020FB1EF48C010E940B3B89919991D8
:1059D000089503E10DB907B3066007BB08B306607D
:1059E00008BB08956E9A08956E9808959A938A93C5
:1059F000902F9FB980E0779908C00E94660984368D
:105A000010F48395F8CF0FB105C004E70A95F1F7BC
:105A100000C00FB18991999108950E94ED3B380122
:105A20002901DA01A13400E0B00710F000E011C054
:105A300080E090E08A179B0758F4F201E80FF91F05
:105A40000081D4DFF301E80FF91F00830196F2CF44
:105A500001E0E8E00C94FE3B980189010150104000
:105A6000232B41F025ED36E021503040E9F700C00E
:105A70000000F2CF08959A938A93C801082F092B4A
:105A800029F020FB1EF48C010E940B3B8991999117
:105A900008950CEC1CE120E030E046E00E94803BE1
:105AA0000150104020403040B80163BD5BE055BD5F
:105AB00047B7542F506857BF0895EBDF0E942B2E35
:105AC0000E94312E0E94C5210E94372E0E94392E3D
:105AD0000E943B2E0E943D2E0E941E2E08950E9481
