:100000000C941C3B189518951895189518951895EB
:100010001895189518951895189518951895189578
:10002000189518950C94F82D1895189518951895FD
:100030001895189518951895189518951895189558
:100040001895189518951895189518951895189548
:1000500018951895189518950C940B2D18951895BA
:100060001895189518951895189518951895189528
:1000700018951895189518950C947F2C0C94452C70
:100080000C94632C1895189518951895000000008D
:100090000000000000000000000000000000000060
:1000A0000000000000000000000000000000000050
:1000B000F5050906760879084E07090685088808B7
:1000C000610709068B088E087407090691089408D1
:1000D0008707090697089A089A0709069D08A00845
:1000E000AD07C007A308A6085D08C007A908AC08AB
:1000F000CA0800000000000000000000000000002E
:1001000000000000000000000000000000000000EF
:100110000000D808000000000000000000000000FF
:1001200000000000000000000000000000000000CF
:1001300000000000000000000000000000000000BF
:1001400000000000000000000000000000000000AF
:1001500000000000E6080000C1C081C1400101C3E9
:10016000C003800241C201C6C006800741C7000526
:10017000C1C581C4400401CCC00C800D41CD000F2D
:10018000C1CF81CE400E000AC1CA81CB400B01C94C
:10019000C009800841C801D8C018801941D9001B86
:1001A000C1DB81DA401A001EC1DE81DF401F01DDA4
:1001B000C01D801C41DC0014C1D481D5401501D77D
:1001C000C017801641D601D2C012801341D300114E
:1001D000C1D181D0401001F0C030803141F10033F5
:1001E000C1F381F240320036C1F681F7403701F5A4
:1001F000C035803441F4003CC1FC81FD403D01FF2D
:10020000C03F803E41FE01FAC03A803B41FB0039CD
:10021000C1F981F840380028C1E881E9402901EBA3
:10022000C02B802A41EA01EEC02E802F41EF002D25
:10023000C1ED81EC402C01E4C024802541E500277C
:10024000C1E781E640260022C1E281E3402301E1CB
:10025000C021802041E001A0C060806141A1006315
:10026000C1A381A240620066C1A681A7406701A523
:10027000C065806441A4006CC1AC81AD406D01AF2C
:10028000C06F806E41AE01AAC06A806B41AB00694D
:10029000C1A981A840680078C1B881B9407901BB83
:1002A000C07B807A41BA01BEC07E807F41BF007DA5
:1002B000C1BD81BC407C01B4C074807541B500777C
:1002C000C1B781B640760072C1B281B3407301B14B
:1002D000C071807041B00050C19081914051019334
:1002E000C053805241920196C056805741970055A5
:1002F000C19581944054019CC05C805D419D005F2C
:10030000C19F819E405E005AC19A819B405B0199CA
:10031000C059805841980188C04880494189004BA4
:10032000C18B818A404A004EC18E818F404F018D22
:10033000C04D804C418C0044C1848185404501877B
:10034000C047804641860182C042804341830041CC
:10035000C1818180404000000000000000000000DA
:10036000000000000000000000000000000000008D
:1003700000000000000087090000000002013000BA
:10038000000000000000000000000000000000006D
:100390006BCF012F0873060000171B000000000040
:1003A0000000000000000000000000400B000102FF
:1003B000030405060708090A0B0C0D0E0F10111295
:1003C000131415161718191A1B1C1D1E1F20212285
:1003D000232425262728292A2B2C2D2E2FFFFFFF0B
:1003E000FFFFFFFFFFFFFFFFFFFFFFFFFFFFFFFF1D
:1003F000FFFFFFFFFFFFFFFFFFFFFFFFFFFFFFFF0D
:10040000FFFFFFFFFFFFFFFFFFFFFFFFFFFFFFFFFC
:10041000FFFFFFFFFFFFFFFFFFFFFFFFFFFFFFFFEC
:10042000FFFFFFFFFFFFFFFFFFFFFFFFFFC29E0376
:10043000030303030303030303030303030303038C
:100440000303030303030302020202020202020285
:10045000020202020202020202020202020202027C
:100460000202020202020202020202020202024628
:10047000F73E3E3E3E3C3C3C3CFFFFFFFFFFFFFFA4
:10048000FFFFFFFFFFFFFFFFFF4B6F01020408109C
:10049000204080000000000000000000000000007C
:1004A000000000000000000000000000000000004C
:1004B000000000000000000000000000000000003C
:1004C000000000000000000000000000000000002C
:1004D000000000000000000000000000000000001C
:1004E000000000000000000000000000000000000C
:1004F00000000000000000000000000000000000FC
:100500000000000000000000000000C669010102B8
:1005100010002000000000000000000000000000AB
:1005200000000000000000000000000000000000CB
:1005300000000000000000000000000000000000BB
:1005400000000000000000000000000000000000AB
:10055000000000000000000000000000000000009B
:100560000101050000FF0000000000000000000085
:10057000000000000000000000000000000000007B
:10058000000000000000000000000000000000006B
:10059000000000000000000000000000000000005B
:1005A000000000000000000000000000000000004B
:1005B0000000000101050100FF0000000000000034
:1005C000000000000000000000000000000000002B
:1005D000000000000000000000000000000000001B
:1005E000000000000000000000000000000000000B
:1005F00000000000000000000000000000000000FB
:1006000000000000000000000000000000000000EA
:10061000001400000107160002101F0003803100C3
:100620000440B3000518F50006800F010751910141
:100630000851E401095137020A088A02000000004B
:1006400000000000000000000000000000000000AA
:10065000000000000000000000000000B90A010BCB
:1006600000000000640E720E730E720E0000000097
:10067000000000000000000000000000000000007A
:10068000000000000000000000000000000000006A
:10069000000000000000000000000000000000005A
:1006A000000000000000000000000000000000004A
:1006B00000000000C50E3A0F720E4E0F720EC80FEA
:1006C000F8114712E013E413E813EC13F2120513C8
:1006D000E013E413F813EC13000000000000000026
:1006E000000000000000000000000000000000000A
:1006F0000000000000000000000000001514303C65
:10070000202D101C000D313D212C111D010C343EFB
:10071000242B141E040B353F252A151F050A3639D4
:100720002629161906093738272817180708000040
:1007300000000000000000000000000000000000B9
:1007400000000000000000000000000000000000A9
:100750000000D714720EF7140A1500000000000004
:100760000000000000000000000000000000000089
:100770000000000000000000000000000000000079
:100780000000000000000000000000000000000069
:100790000000000000000000000000000000C41580
:1007A000720EDB15773D773D773D773D7A1D7E1DD7
:1007B0000000000000000000000000000000000039
:1007C0000000000000000000000000000000000029
:1007D00000000000B61DFE1E181FDF1E231FAE1FE7
:1007E00019222122CF1D1622DB15FB1E151F201FEB
:1007F000321F1D222522E407000000000000000037
:1008000000000000000000000000000000000000E8
:100810000000000000000000000000005E227422C2
:10082000720E9022982477228D22720E0000000012
:1008300000000000000000000000000000000000B8
:1008400000000000000000000000000000000000A8
:10085000C924D7240325B324EE250E26773D773D02
:10086000773D773D773D773D202A242A282A2C2A78
:10087000302A342A382A8B280E26CA28CB28D42896
:10088000DD28DE28A2283C2A402A442A482A4C2A6D
:10089000502A382AE7280E262629272930293129E7
:1008A0003A29FE28542A582A5C2A602A642A682A8F
:1008B000382A0000000000000000000000000000D6
:1008C0000000000000000000000000000000000028
:1008D00000000000000043290E2687298F29902957
:1008E0009829A0295A29202A242A282A2C2A302A61
:1008F000342A382AAC290E26F529FD29052A0D2A85
:10090000152AC329202A242A282A2C2A302A342AC4
:10091000382AD12A0000000000000000000000007A
:1009200000000000000000000000000000000000C7
:10093000000000009D2C8E2D00000000312D0000D5
:1009400000000000000000000000000000000000A7
:100950000000000000000000000000000000000097
:10096000000001010101010101010100000000007E
:100970000001010000000000000101000000000073
:10098000000101000000000000010101010101015E
:100990000101000000000000000000000000000055
:1009A0000000000000000000000000000000000047
:1009B00000005F3A0101071DAC1C01B31C01BA1C09
:1009C00001C11C01C81C01CF1C01D61C07E41C017D
:1009D000DD1C01EB1C01F21C06F91C2A0E1D030E86
:1009E0001D010E1D01001DFB000013221200132229
:1009F0001322BC1FD11F1E207D20A820B520D5208A
:100A0000E420ED2002214F21AE21CF21DC21FC2169
:100A10000B22000188288828018B26069B2601BC12
:100A20002601E426040C27012D27015527047D27E4
:100A3000019E2701C62701EE27011628011A26016B
:100A40003B26016326043E28015F28067928FB0027
:100A50000000C7280800B428B928BE28C328C72822
:100A6000C728C728C72800002329080010291529EE
:100A70001A291F292329232923292329000084290E
:100A800008006C29712976297B29842984298029E9
:100A900084290000F2290800D529DA29DF29E42970
:100AA000F229F229E929EE290000A23910008A383A
:100AB000A239AD38CA38F638FB3800391239253931
:100AC000473949396A396C397A3986399A396E2EFB
:100AD000BA93AA93D8018D010E94490E00EB10E051
:100AE000FD01018312838D01A991B9910895BA93F3
:100AF000AA93D8018D01ECDF08EB10E0FD01018322
:100B0000128320E08D010E9470088D01A991B99196
:100B10000895BA93AA93D8018D01DADF00EC10E0B2
:100B2000FD010183128321E08D010E9470088D0177
:100B3000A991B9910895BA93AA93D8018D01C8DFFC
:100B400008EC10E0FD010183128321E08D010E9479
:100B500070088D01A991B9910895BA93AA93D8010B
:100B60008D01B6DF00ED10E0FD010183128321E06D
:100B70008D010E9470088D01A991B9910895BA93D1
:100B8000AA93D8018D01A4DF08ED10E0FD010183D7
:100B9000128321E08D010E9470088D01A991B99105
:100BA0000895BA93AA93D8018D0192DF00EE10E068
:100BB000FD010183128321E08D010E9470088D01E7
:100BC000A991B9910895BA93AA93D8018D01E9DF4B
:100BD00008EE10E0FD010183128321E08D010E94E7
:100BE00070088D01A991B99108950E941C3CC8011B
:100BF000D901082F092B51F020E030E08C010E9430
:100C0000640EA0FB1EF48C010E94363BE4E00C94C1
:100C10002D3C0E941B3CD8018D010E94730800509E
:100C200079F00A9571F00A9509F46AC00A9509F4F9
:100C3000A8C00A9509F4D3C00A9509F4FDC02BC1D8
:100C40002AC1FD018181928106968D010E947C0856
:100C50000E945E36402E8D01FC0125913491319722
:100C6000F90109954026442011F001E001C000E09F
:100C7000002309F410C18D010E94820821E00E9426
:100C8000CF350E94B808033021F1FD0181819281A6
:100C900004960E94B808402E8D01FC0125913491E4
:100CA0003197F9010995401610F001E001C000E00C
:100CB000002379F48D011196ED91FC9112973496F1
:100CC000259134913597F90109950E94B5080E9444
:100CD00084368D011196ED91FC91129734962591F1
:100CE00034913597F9010995802F8D010E947F0875
:100CF000182F0E94B53622E08D010E947008CBC0EB
:100D0000FD018181928106968D010E947C080E94DE
:100D10005E36402E8D01FC01259134913197F90109
:100D200009954026442011F001E001C000E00023B5
:100D300031F08D010E94820820E00E94CF350E9490
:100D4000B208002369F00E9492368D010E947F084C
:100D500011E00E94B53624E08D010E9470089BC00E
:100D60000E94AF08002361F00E9492368D010E941C
:100D70007F0811E00E94B53623E08D010E947008C3
:100D80008AC00E94B208002329F024E08D010E944D
:100D9000700881C0FD018181928106968D010E94BB
:100DA0007C080E945E36402E8D01FC012591349115
:100DB0003197F90109954026442011F401E001C062
:100DC00000E0002329F025E08D010E94700863C037
:100DD0008D010E94820820E00E94CF355CC0FD0199
:100DE0008181928106968D010E947C080E945E3668
:100DF000402E8D01FC01259134913197F90109951F
:100E00004026442011F401E001C000E0002369F015
:100E10000E949B368D010E947F0810E00E94B5362B
:100E200021E08D010E94700836C08D010E94820869
:100E300020E00E94CF352FC0FD018181928106966E
:100E40008D010E947C080E945E36402E8D01FC01BF
:100E5000259134913197F90109954026442011F0EC
:100E600001E001C000E0002331F08D010E94820802
:100E700020E00E94CF350E94B208002361F00E945A
:100E80009B368D010E947F0810E00E94B53621E05C
:100E90008D010E947008E5E00C942C3C0E941C3CE3
:100EA000C801D901082F092B49F020E030E08C015E
:100EB0009CDEA0FB1EF48C010E94363BE4E00C9407
:100EC0002D3C0E941C3CC801D901082F092B49F078
:100ED00020E030E08C0189DEA0FB1EF48C010E9432
:100EE000363BE4E00C942D3C0E941C3CC801D90127
:100EF000082F092B49F020E030E08C0176DEA0FBC2
:100F00001EF48C010E94363BE4E00C942D3C0E94C0
:100F10001C3CC801D901082F092B49F020E030E022
:100F20008C0163DEA0FB1EF48C010E94363BE4E0E2
:100F30000C942D3C0E941C3CC801D901082F092BA0
:100F400049F020E030E08C0150DEA0FB1EF48C0163
:100F50000E94363BE4E00C942D3C0E941C3CC801EE
:100F6000D901082F092B49F020E030E08C013DDE4B
:100F7000A0FB1EF48C010E94363BE4E00C942D3C57
:100F80000E941B3CD8018D010E947308005031F073
:100F90000A9529F0055009F461C08CC08BC0FD0191
:100FA0008181928106968D010E947C080E945E36A6
:100FB000402E8D01FC01259134913197F90109955D
:100FC0004026442011F001E001C000E0002309F4B4
:100FD00071C08D010E94820821E00E94CF350E94DD
:100FE000B808033021F1FD018181928104960E94AD
:100FF000B808402E8D01FC01259134913197F901FB
:101000000995401610F001E001C000E0002379F4DA
:101010008D011196ED91FC911297349625913491A2
:101020003597F90109950E94B5080E9484368D0113
:101030001196ED91FC911297349625913491359744
:10104000F9010995802F8D010E947F08182F0E94B9
:10105000B53626E08D010E9470082CC0FD0181810B
:10106000928106968D010E947C080E945E36402E79
:101070008D01FC01259134913197F90109954026A4
:10108000442011F401E001C000E0002369F00E9457
:101090009B368D010E947F0810E00E94B53621E04A
:1010A0008D010E94700806C08D010E94820820E018
:1010B0000E94CF35E5E00C942C3C0E941C3CC801FA
:1010C000D901082F092B49F020E030E08C0145DFE1
:1010D000A0FB1EF48C010E94363BE4E00C942D3CF6
:1010E000F80120830895F80100810895980100E037
:1010F0000895980100E00895F80105810895F80128
:10110000038108950C5F1F4F0895980100E0089532
:10111000980100E00895980102E00895980100E028
:101120000895980102E00895980101E0089598015A
:1011300003E00895980100E00895980103E0089500
:10114000980101E00895980101E00895980100E0F8
:101150000895980101E00895980101E00895009133
:10116000BF0B08950091C00B08950093200C0895C3
:101170000091200C089520EF30E0F801248335839E
:10118000F80120E02083F80120E02283F80120E02C
:10119000238308959A938A93C801082F092B29F075
:1011A00020FB1EF48C010E94363B89919991089591
:1011B0009A938A93C801082F092B29F020FB1EF46B
:1011C0008C010E94363B8991999108959A938A9354
:1011D000C801082F092B29F020FB1EF48C010E9466
:1011E000363B8991999108950E941A090E94160927
:1011F0000E9420090E941C09089508EF12E00E9435
:10120000C22D0E9418090E941E0908950AE81CE0D8
:101210000E94C22D0E9418090E941E0908950E9472
:101220001A090E9420090E94ED2D0895139A08952D
:101230001B9A08951B980895149A08951C9A08956E
:101240001C9808957B2F2A2ED8010FEF1FEF40E046
:1012500050E04217530798F46C91502F6527119670
:10126000012F10E0E62FF0E0EE0FFF1FEA5AFE4FCD
:10127000059014903197002511254395E9CFA22DB3
:10128000B72F0895F80100E010E0408150E0040F0E
:10129000151F319621503040422F432BB1F708954E
:1012A0000E941C3CF801C90120E030E0008110E000
:1012B000200F311F31960197082F092BB9F7DF0155
:1012C000FD013196022F1C91011749F48901012F6C
:1012D00010E01081011719F401E010E002C000E0F5
:1012E00010E0E4E00C942D3CF80140E00081400F58
:1012F000319621503040022F032BC1F70081401757
:1013000019F401E010E0089500E010E008959A93C8
:101310008A93C801082F092B29F020FB1EF48C01A9
:101320000E94363B8991999108955B2F2A2F10E0F6
:10133000000F111F000F111FA4E6B6E0ED91FD9103
:101340003C911297E00FF11F31963BBF0691319708
:10135000A22FB52F08955B2F2A2F10E0000F111F29
:10136000000F111FA4E6B6E0ED91FD913C9112979C
:10137000E00FF11F32963BBF079116913397A22FD2
:10138000B52F08950E941B3C0AEE1AE00E94D90A6C
:10139000442481E0082F015049F00A95F1F10A95A3
:1013A00009F44EC00A9509F449C04CC00BE0401640
:1013B00090F5042DD0DFE1E6F6E0408151816281B5
:1013C000400F511FDA01962F40E0042DAEDF401789
:1013D00070F450E0FD01392FE40FF51F3BBF06917B
:1013E00050E0FA01E250F74F00834395EECF042D11
:1013F0009CDF442D202F30E00EEF18E07BD0012B36
:1014000011F082E01FC00AEE1AE00E948D0A04303B
:10141000C9F483E017C084E015C00AEE1AE00E9408
:101420008D0A033019F4439481E00CC00AEE1AE0EF
:101430000E948D0A043031F483E004C001E00DC045
:1014400000E00BC00AEE1AE00E94010B0AE010E077
:101450000E947F2D0E948B0A9DCFE5E00C942C3CCE
:101460000AEE1AE00E94A60D08950AEE1AE00E9404
:10147000F90D08950CE713E020E0E1E6F6E00083C3
:101480001183228300E116E020E0E4E6F6E0008329
:101490001183228300E00E94900A0AEE1AE00E9463
:1014A0006B0C002399F0DCDF002351F0DEDF00231A
:1014B00011F001E0089504E00E94900A00E0089510
:1014C00004E00E94900A5EDF00E0089504E00E94BC
:1014D000900A58DF00E008950E941D3CC801A22F29
:1014E0004A2F43959C010AEE1AE00E94C10BE3E0EB
:1014F0000C942E3C0E941B3CD801C901442E642D43
:101500006395AC019D010AEE1AE00E947C0D10E08B
:10151000E5E00C942C3CA8950895F8010481089509
:101520000093C10B0895F80123830895BA93AA93F9
:10153000D8018D010E94520E0CE516E0FD010183D9
:1015400012838D010D571F4F0E94443A0EEF18E091
:10155000FD01EF57FF4F0083118320E08D010E94B2
:10156000700820E08D010E94930A8D01A991B99124
:1015700008950E941C3CD801C9010A2F0B2BB1F021
:101580000CE516E0FD010183128322E030E08D01BD
:101590000D571F4F0E945F3A20E030E08D010E94FE
:1015A000730E80FB1EF48D010E94363BE4E00C9428
:1015B0002D3CBA93AA93D80144E650E020E030E0F5
:1015C0008D010B5F1F4F0E94483CFD0100E110E0C0
:1015D00001871287FD0104E610E003871487FD01EF
:1015E00009E910E005871687FD0109EA10E0078385
:1015F0001087FD0100E0058300E00683A991B99101
:1016000008959A938A93C8018C010E947308005030
:1016100081F00A9579F00A95C9F00A95C9F10A9501
:1016200009F44FC00A9509F46BC00A9509F48AC001
:10163000A5C0A4C08C010E94400E28EC30E00E949E
:101640006D3A22E08C010E94700898C00E942B0E17
:10165000002371F08C010E94400E20E137E20E94CD
:101660006D3A0E94370E23E08C010E94700886C0FC
:101670008C010E94400E0E94873A002341F024E032
:101680008C010E943D0E20E08C010E94700876C003
:101690000E94340E002329F024E08C010E9470087F
:1016A0006DC08C010E94400E0E94873A002341F0D9
:1016B00024E08C010E943D0E20E08C010E94700805
:1016C0005DC060E044E650E09C012B5F3F4F8C0121
:1016D00087D1012B61F08C010E94400E28EC30E094
:1016E0000E946D3A25E08C010E94700847C024E0FA
:1016F0008C010E943D0E20E08C010E9470083EC0CB
:101700000E942B0E002371F08C010E94400E20E1FC
:1017100037E20E946D3A0E94370E26E08C010E944B
:1017200070082CC08C010E94400E0E94873A002352
:1017300029F124E08C010E943D0E20E08C010E94E2
:1017400070081CC00E94340E002349F023E08C0175
:101750000E943D0E20E08C010E9470080FC08C0199
:101760000E94400E0E94873A002341F024E08C0141
:101770000E943D0E20E08C010E9470088991999191
:1017800008950E94103CD15038015901C42E0CE03C
:10179000C01618F000E010E09AC00C2D10E048E0F0
:1017A00050E00E943E3BF301E00FF11F01851285DE
:1017B000012B41F10C2D10E048E050E00E943E3B2F
:1017C000F301E00FF11F05851685012BD9F00C2DD3
:1017D00010E048E050E00E943E3BF301E00FF11FB3
:1017E00001851285D8010C2D10E048E050E00E94E0
:1017F0003E3BF301E00FF11F05851685780180E07F
:1018000090E003C000E010E062C08E159F0558F420
:101810008D010E94AB2C102FFE01E80FF91F1083E1
:1018200011960196F2CFA7019E018E010E94281108
:10183000480103E0801600E0900630F404E00E94C6
:10184000900A00E010E043C00EEF800E0FEF901EF4
:101850000C2D10E048E050E00E943E3BF301E00F09
:10186000F11F038514858016910631F004E00E9473
:10187000900A00E010E02BC0FE01E80DF91D808108
:1018800090E0FE01E80DF91D118100E0802B912B05
:1018900094018E010E94220928018415950591F476
:1018A0000C2D10E0000F111FF301E00FF11FE7599D
:1018B000FF4F80839183A4019E0185010E94383CE3
:1018C000840105C004E00E94900A00E010E0DF5FA0
:1018D000E0E10C94213C0E941A3CC8010AEE1AE097
:1018E00068DE40E09C012B5F3F4F8C014ADF012BFB
:1018F00011F400E072C055244424439400E00E9497
:10190000430E042D015079F00A9561F10A9509F40E
:1019100040C00A9509F44FC00A9509F452C00A95CF
:1019200009F44DC050C00CE05016C8F4452DFC0120
:10193000EF57FF4F208131818C0123DFD8010A2F1F
:101940000B2B51F00E94460E002319F002E0402EAE
:101950003AC004E0402E37C005E0402E34C006E017
:10196000402E31C0652DAD01FC01EF57FF4F2081A6
:1019700031818C01C1D0002319F003E0402E23C037
:101980000AEE1AE00E948D0A0430E9F405E0402EC8
:101990001AC00AEE1AE00E948D0A033019F404E01E
:1019A000402E11C00AEE1AE00E948D0A043059F44C
:1019B00005E0402E08C053944424439404C001E041
:1019C0000CC000E00AC00AEE1AE01BDE0AE010E0DC
:1019D0000E947F2D0E948B0A94CFE6E00C942B3C52
:1019E0000E94143CD150D8013901CA01862E0CE066
:1019F000801618F000E010E07BC0AC0193018E016E
:101A00000E94383C9C0183010E9422092801042D78
:101A1000FE01E80FF91F00838201012F10E0FE0193
:101A2000E80FF91F0183082D10E048E050E00E9404
:101A30003E3BFD01E00FF11F4786508AAC014E5F2F
:101A40005F4F9E01FD01EF57FF4F008111810E9402
:101A5000A5105801082D10E048E050E00E943E3BE0
:101A6000FD01E00FF11F05851685012B59F5FD01DC
:101A700027813085082D10E048E050E00E943E3B71
:101A8000FD01E00FF11F21873287FD0107811085DD
:101A90000A0D1B1D07831087082D10E048E050E059
:101AA0000E943E3BFD01E00FF11F83879487082DC4
:101AB00010E048E050E00E943E3BFD01E00FF11FC6
:101AC000A586B686A501FD01EF57FF4F2081318124
:101AD000BA01082D10E048E050E00E943E3BFD01B5
:101AE000E00FF11F01851285AB010E94B82C850122
:101AF000DF5FECE00C94253C0E94193CC8012901F1
:101B0000DA01662E8C010E9473080023B9F4662D59
:101B1000AD0192018C0164DF012B51F021E08C01B9
:101B20000E943D0E21E08C010E94700801E00BC074
:101B300024E08C010E943D0E00E005C022E08C01F3
:101B40000E943D0E00E0E7E00C942A3C1D01980144
:101B5000E1E0F0E0EB3000E0F007F0F48F01000F7F
:101B6000111FD901A00FB11FA759BF4F6D917C91D3
:101B700011978F0148E050E00E943E3BD901A00F31
:101B8000B11F1F960D911C9150976017710711F0AE
:101B900000E003C03196DECF01E0D10108950E943C
:101BA0001C3C6697D80180E090E08B3000E0900705
:101BB000A0F48C0148E050E00E943E3BFD01E00FA4
:101BC000F11F2789308DFE018C01000F111FE00FDE
:101BD000F11F208331830196E8CF26E130E08E01AA
:101BE0000E942209FD01058316836696E4E00C94A9
:101BF0002D3C0E941C3C6697D80180E090E08B3021
:101C000000E09007A0F48C0148E050E00E943E3BC9
:101C1000FD01E00FF11F2789308DFE018C01000FBF
:101C2000111FE00FF11F208331830196E8CF26E1D9
:101C300030E08E010E942209FD01258136812017A6
:101C4000310711F401E001C000E06696E4E00C9475
:101C50002D3CE39A0895E19B02C000E0089501E065
:101C6000089500937006089500917006089500E0AD
:101C70000E94310E0E94290E0895F80124830895D0
:101C80000D571F4F0895009367060895009167064A
:101C9000089524E636E0F80121833283F80120E03C
:101CA00020830895AD01D8018D01F3DF08E616E029
:101CB000FD0101831283FD0100E00383FD0100E0CB
:101CC00004838D01DA0108959A938A93C801082F3D
:101CD000092B29F020FB1EF48C010E94363B8991D0
:101CE0009991089508959A938A93C801082F092B12
:101CF00029F020FB1EF48C010E94363B89919991BA
:101D000008950091610002600093610008950091C0
:101D1000610000610093610008950091610004601A
:101D200000936100089500916200026000936200D8
:101D30000895009162000F7E009362000895009163
:101D400062000B7F0093620008959A938A93C80102
:101D50000E949F0E0E94990E0E94930E0E948D0E6B
:101D60000E94870E0E94810E899199910895BA93DD
:101D7000AA93D80104EB16E00D931C9311978D01E3
:101D8000E4DF8D01A991B99108959A938A93C801CE
:101D9000082F092B29F020FB1EF48C010E94363BF2
:101DA0008991999108950E94193CD801C901642E26
:101DB00044244614A0F45524FC01E40DF51D0081D3
:101DC000002319F00E94FE0E02C00E94990E0E948C
:101DD000F80E0E940A0F0E949F0E4394EACF0E94C1
:101DE000930E0E940C0F0E94040FE7E00C942A3C13
:101DF0000091620004600093620008950091620007
:101E00000061009362000895009162000D7F0093CD
:101E1000620008950000089500C000C00000089509
:101E2000BA93AA93D8018D010E94520E06EB16E0D8
:101E3000FD01018312838D01A991B99108950E943A
:101E40001C3CD801C9018D01EBDF0AEB16E0FD0156
:101E5000018312838D010B5F1F4F0E94443AFD01E5
:101E60008387948720E08D010E9470088D01E4E053
:101E70000C942D3C0E941C3CC801D901082F092B51
:101E800051F020E030E08C010E94730EA0FB1EF4A4
:101E90008C010E94363BE4E00C942D3C0E941C3CDB
:101EA000D801C9010A2F0B2BA9F00AEB16E0FD019E
:101EB0000183128322E030E08D010B5F1F4F0E94EF
:101EC0005F3A20E030E08D01D5DF80FB1EF48D010C
:101ED0000E94363BE4E00C942D3C0E941C3CD8014F
:101EE000922F832F8D010E947308005029F00A95CC
:101EF00061F00A9521F148C0FD0100E0058721E06D
:101F00008D010E94700800E040C0992321F0FD017E
:101F1000058501600587882321F0FD0105850260A4
:101F20000587FD01238534858D010B5F1F4F0E94BE
:101F30006D3A22E08D010E94700800E026C08D01FC
:101F40000B5F1F4F0E94873A002331F020E08D0184
:101F50000E94700800E019C0992321F0FD01058559
:101F600001600587882321F0FD0105850260058752
:101F7000FD010585033031F420E08D010E947008D9
:101F800001E003C000E001C000E0E4E00C942D3C5F
:101F90009A938A93C801082F092B29F020FB1EF47D
:101FA0008C010E94363B899199910895202F30E051
:101FB000E0E0F0E0E83000E0F0074CF4022F10E041
:101FC0004E2F0E94523B017030273196F3CF3323BE
:101FD00011F401E0089500E00895980150E0E0E078
:101FE000F0E0EC3000E0F00744F44E2F89010E944D
:101FF0004D3B017050273196F4CF552311F401E089
:10200000089500E00895502F60E070E000E1509FD7
:1020100000E000220FE01022B00108E0509F00E72E
:10202000002200E0102260297129052F017014E0C0
:10203000019F60297129052F007FB8DF10E8019FFB
:1020400060297129052F0E78B1DF18E0019F602902
:102050007129052F0D76AADF12E0019F60297129F1
:10206000052F0B75A3DF10E0602B712B8B010895FA
:10207000080160E0800100701F70AFDF102D17FBBA
:1020800010E010F9011711F061E001C060E0660F87
:10209000660F660F8001007718709FDF102D13FB0D
:1020A00010E010F9011711F001E001C000E0000F8D
:1020B000000F602B8001047616708FDF102D11FB4E
:1020C00010E010F9011711F001E001C000E0000F6D
:1020D000602B80010475157080DF102D11700117C1
:1020E00011F001E001C000E0602B062F0895B80157
:1020F000222311F48B010895209367062A9501E0AD
:1021000010E0422F0E94483B602771278B01089501
:10211000B80120E044E08B010E944D3B007F202F5E
:10212000062F0695069506950E70202B062F02FBAE
:1021300000E000F9202B022F08951801810198DF9B
:10214000202F8101D4DFE4DF08950E94113C380183
:1021500059016A012224332444245524EE24C0FA70
:1021600036F40FEFC00E0FEFD01EEE24E394882458
:1021700099248C149D0408F04BC0F501E40DF51D65
:10218000008141DF20E030E0C801D90101E0400ECC
:1021900000E0501EF501E40DF51D008134DFA801BB
:1021A00060E070E0ECE08A019B014E2F0E94A43BAE
:1021B000802B912BA22BB32B01E0400E00E0501E90
:1021C0008C01F301E20DF31D008301E0200E00E01D
:1021D000301E892F9A2FAB2FB0E08C01F301E20D56
:1021E000F31D008301E0200E00E0301E892F9A2F9E
:1021F000AB2FB0E08C01F301E20DF31D008301E091
:10220000200E00E0301E02E0800E00E0901EB1CFF4
:10221000EE20D1F0F501E40DF51D0081F4DEC801DA
:10222000082FF301E20DF31D008301E0200E00E012
:10223000301E892F90E0082FF301E20DF31D00837B
:1022400001E0200E00E0301E8101EFE00C94223C02
:102250000E94103C2197580149017A016624772495
:102260004424552400E0088343E050E087010E94A5
:10227000553B4130504019F400E010E085C043E088
:1022800050E087010E94553B4230504031F40EEF40
:10229000E00E0FEFF01E01E00883CC24DD24CE1405
:1022A000DF0408F050C0F401E40DF51D008110E0DA
:1022B00020E030E0C801D90101E0400E00E0501EEE
:1022C000F401E40DF51D008110E020E030E0322F34
:1022D000212F102F00E0802B912BA22BB32B01E09C
:1022E000400E00E0501EF401E40DF51D208130E0A9
:1022F00000E010E0802B912BA22BB32B01E0400ECD
:1023000000E0501E8C010F7F1F7017DFF501E60DF6
:10231000F71D008301E0600E00E0701E4CE08C01B0
:102320009D010E94AB3B0F7F1F7007DFF501E60D9B
:10233000F71D008301E0600E00E0701E03E0C00E98
:1023400000E0D01EACCF08810023E9F0F401E40DD9
:10235000F51D008110E0C80101E0400E00E0501EB4
:10236000F401E40DF51D108100E0802B912B8C0110
:102370000F7F1F70E2DEF501E60DF71D008301E01F
:10238000600E00E0701E83012196E0E10C94213C78
:10239000BA93AA93D8018D010E94520E00EC16E068
:1023A000FD01018312838D01075F1F4F0E94443A94
:1023B0008D01A991B99108950E941C3CD801C901D1
:1023C0008D01E6DF0CEC16E0FD0101831283FD01B7
:1023D00085839683FD0100E00087FD0100E007830F
:1023E00020E08D010E9470088D01E4E00C942D3CEA
:1023F0000E941C3CD801C9010A2F0B2BB1F000EC44
:1024000016E0FD010183128322E030E08D01075FB9
:102410001F4F0E945F3A20E030E08D010E94730E52
:1024200080FB1EF48D010E94363BE4E00C942D3CB1
:10243000BA93AA93D8011596ED91FC911697099538
:10244000002311F001E001C000E0A991B9910895C5
:102450000E941C3CD801822F8D01FD012181328117
:10246000F9013296259134913397F9010995FD01CF
:102470000781081741F4FD0100E00783FD0100E03A
:10248000008701E001C000E0E4E00C942D3CBA9329
:10249000AA93D8018D010E947308005059F00A9543
:1024A00071F00A9531F10A9509F44CC0035009F412
:1024B00072C095C021E08D010E94700890C08D010E
:1024C000B7DF0023A9F08D011196ED91FC911297D1
:1024D0003496259134913597F901099598018D012C
:1024E000075F1F4F0E946D3A22E08D010E94700825
:1024F00076C08D019DDF002301F18D01075F1F4F25
:102500000E94873A0023E9F08D011196ED91FC912C
:1025100012973696259134913797F90109959801CC
:102520008D01075F1F4F0E946D3AFD0102E0078396
:1025300023E08D010E94700852C020E08D010E94AE
:1025400070084DC08D0174DF002301F18D01075F1C
:102550001F4F0E94873A0023E9F08D011196ED91FB
:10256000FC9112973A96259134913B97F901099580
:1025700098018D01075F1F4F0E946D3AFD0103E036
:10258000078326E08D010E94700829C020E08D019C
:102590000E94700824C08D014BDF0023E1F08D0103
:1025A000075F1F4F0E94873A0023C9F08D011196E3
:1025B000ED91FC9112973A96259134913B97F90150
:1025C000099598018D01075F1F4F0E946D3AFD012B
:1025D00006E0078304C020E08D010E947008A991E5
:1025E000B99108950E941C3CC801D901082F092BFC
:1025F00049F020E030E08C01FBDEA0FB1EF48C01F2
:102600000E94363BE4E00C942D3CBA93AA93D80187
:102610008D010E947308005089F00A95C1F00A9557
:1026200041F10A9509F44AC00A9509F474C00A9563
:1026300009F496C0025009F4B8C0BFC0FD0100857E
:10264000FD01078321E08D010E947008B6C08D0155
:10265000EFDE002369F08D010E94F01398018D01D7
:10266000075F1F4F0E946D3A22E08D010E947008A3
:10267000A4C08D01DDDE0023C1F08D01075F1F4F77
:102680000E94873A0023C9F08D010E94F41398013B
:102690008D01075F1F4F0E946D3AFD0102E0008728
:1026A00023E08D010E94700888C0FD010085FD01B6
:1026B000078320E08D010E9470087FC08D01B8DE85
:1026C000002301F18D01075F1F4F0E94873A00230D
:1026D00009F18D011196ED91FC9112973896259193
:1026E00034913997F901099598018D01075F1F4FC2
:1026F0000E946D3AFD0103E0008724E08D010E94F5
:1027000070085BC0FD010085FD01078320E08D019D
:102710000E94700852C08D018BDE0023C1F08D0134
:10272000075F1F4F0E94873A0023C9F08D010E9466
:10273000FC1398018D01075F1F4F0E946D3AFD0148
:1027400004E0008725E08D010E94700836C0FD017D
:102750000085FD01078320E08D010E9470082DC0D7
:102760008D0166DE0023E1F08D01075F1F4F0E949F
:10277000873A002311F18D010E94001498018D0108
:10278000075F1F4F0E946D3AFD0105E00087FD01C4
:102790000085FD01078327E08D010E9470080DC0B0
:1027A00020E08D010E94700808C08D0141DE0023E9
:1027B00021F420E08D010E947008A991B99108953B
:1027C000980104E610E0089598010CED15E00895D5
:1027D000980108EB1BE00895980102E310E00895CA
:1027E000980104E610E0089598010CED15E00895B5
:1027F000980108EB1BE00895980108E813E108959B
:10280000980102E310E008959A938A93C8010CEFAF
:1028100016E0FC01EC5BFF4F008311838C010E94EA
:10282000B70E8C018991999108950E941C3CC801B2
:10283000D901082F092B89F00CEF16E0FC01EC5BA5
:10284000FF4F0083118322E030E08C010E94C50E0F
:10285000A0FB1EF48C010E94363BE4E00C942D3C5E
:102860000E941C3CC801D901FC01EE5BFF4FA08314
:10287000B1830E9493140E949F140E94A7140E9487
:10288000AB140E948D140E9499140E94A5140E94FA
:10289000A9148C010E94A50EE4E00C942D3C0E942A
:1028A0001D3CC801A0E0A03358F5FC01EE5BFF4FD2
:1028B000208131810A2F10E046E050E00E943E3B2B
:1028C000200F311F89010E948A14002361F0EA2F32
:1028D000F0E0E250F94F049110E0FC01E00FF11F2D
:1028E00001E002830BC0EA2FF0E0E250F94F0491BF
:1028F00010E0FC01E00FF11F00E00283A395D3CFAD
:1029000040E49C012E5F3F4F8C010E94D30EE3E018
:102910000C942E3CF8010081089500916100016043
:10292000009361000895009162000E7F00936200A1
:102930000895009161000062009361000895009184
:1029400062000F7D009362000895169A08951E9804
:102950000895179A08951F980895BA93AA93D801D5
:102960008D010E94520E02E517E0FD0101831283E2
:102970008D010B5F1F4F0E94443A8D01A991B991BF
:102980000895BA93AA93D8018D01E7DF06E517E011
:10299000FD010183128320E08D010E943D0E21E0A4
:1029A0008D010E9470088D01A991B99108950E942E
:1029B0001C3CD801C9010A2F0B2BB1F002E517E02E
:1029C000FD010183128322E030E08D010B5F1F4F78
:1029D0000E945F3A20E030E08D010E94730E80FB80
:1029E0001EF48D010E94363BE4E00C942D3C0E94C5
:1029F0001C3CC801D901082F092B49F020E030E028
:102A00008C01D5DFA0FB1EF48C010E94363BE4E074
:102A10000C942D3C9A938A93C8018C010E947308F0
:102A2000005051F00A9549F00A9531F10A95E9F103
:102A30000A9509F45BC084C083C00E9470320023F1
:102A4000B1F00E948032002369F00E947832980130
:102A50008C010B5F1F4F0E946D3A23E08C010E9496
:102A600070086EC022E08C010E94700869C020E0EE
:102A70008C010E94700864C08C010E948D0A013094
:102A800099F420E08C010E943D0E01E00E94893201
:102A90000E94783298018C010B5F1F4F0E946D3AA3
:102AA00023E08C010E9470084BC08C010E948D0AAB
:102AB000013069F420E08C010E943D0E0E947832C2
:102AC00098018C010B5F1F4F0E946D3A39C08C0139
:102AD0000B5F1F4F0E94873A002391F105E00E948F
:102AE000900A24E08C010E9470082AC08C010E9488
:102AF0008D0A015019F00A95A9F022C020E08C013E
:102B00000E943D0E0CE00E94A3150E9478329801AD
:102B10008C010B5F1F4F0E946D3A23E08C010E94D5
:102B200070080EC020E08C010E943D0E00E00E9463
:102B300089320CE00E94A31522E08C010E947008EB
:102B400089919991089500937E0A08958A9380E06F
:102B500084E086E081E084E689E981E588E000E0C0
:102B60000E94A3150E948238FDCFBA93AA93D80180
:102B70008D010E94520E0EE917E0FD0101831283C0
:102B80008D01A991B99108950E941C3CC801D901F9
:102B9000082F092B51F020E030E08C010E94730EC9
:102BA000A0FB1EF48C010E94363BE4E00C942D3C0B
:102BB000F801258308959A938A93C8018C010E9495
:102BC0007308002311F401E001C000E0899199919C
:102BD00008950E941A3C2801C901DA01AD019C0147
:102BE0008201F20161817281FB01369665917491D7
:102BF0003797FB010995D801AD019C018201F201D3
:102C000061817281FB013C96659174913D97FB0156
:102C10000995E6E00C942B3C0E94173CD801722EDB
:102C2000632E842ECB01AC01362D3068272D8D010B
:102C3000FD0161817281FB013A96659174913B9728
:102C4000FB0109952801FC01E40DF51D808201E0DE
:102C5000400E00E0501E8201E9E00C94283C0E94E6
:102C6000163C28010A012A843B848C859D8550E00E
:102C70006624A0E0B0E0A015B105F0F4490194018C
:102C80002F5F3F4FFB01E80DF91D0081002331F05C
:102C900001E010E0462D0E94483B502B07E06016F3
:102CA00041F4F101E80FF91F5083019650E06624CA
:102CB00001C063941196DFCF662029F0F101E80F7F
:102CC000F91F508301968C01EEE00C94273C0E9482
:102CD000103C280159014A01CB018201F2012181F6
:102CE0003281F9013E96259134913F97F90109957A
:102CF0003801F501E60DF71D3197F080F501E60D7D
:102D0000F71DE080F501E60DF71DD180CC24F5011B
:102D1000E60DF71D028110E0C02AD12AF501E60D6B
:102D2000F71DB381A0E0F501E60DF71D048110E069
:102D3000A02BB12B0A2F0B2B21F0A13D07E0B007F0
:102D400040F0B40143E03E2D2F2D820165DFC80124
:102D500044C0F201028D138D96012A0F3B1F02170A
:102D6000130740F4B40142E03E2D2F2D820154DFC1
:102D7000C80133C0A4013E2D2F2D8201F2016181D3
:102D80007281FB013A96659174913B97FB0109951D
:102D9000C8010A2F0770002359F043E08D010E94FB
:102DA0004D3B0395F401E80FF91F0083019609C01C
:102DB00043E08D010E944D3BF401E80FF91F0083B1
:102DC00001969A938A939A928A92F2016289738900
:102DD000AD019601820143DFC8018C01E0E10C9452
:102DE000213C0E94103C280159014A01CB0182017B
:102DF000F20121813281F9013E96259134913F976C
:102E0000F90109953801F501E60DF71D3197F080BC
:102E1000F501E60DF71DE080F501E60DF71DD18007
:102E2000CC24F501E60DF71D028110E0C02AD12A5D
:102E3000F501E60DF71DB381A0E0F501E60DF71DE4
:102E4000048110E0A02BB12B0A2F0B2B21F0A13D08
:102E500007E0B00740F0B40143E03E2D2F2D820182
:102E6000DBDEC80144C0F201048D158D96012A0FE6
:102E70003B1F0217130740F4B40142E03E2D2F2DF3
:102E80008201CADEC80133C0A4013E2D2F2D82016C
:102E9000F20161817281FB013A96659174913B97D1
:102EA000FB010995C8010A2F0770002359F043E080
:102EB0008D010E944D3B0395F401E80FF91F00833B
:102EC000019609C043E08D010E944D3BF401E80FDB
:102ED000F91F008301969A938A939A928A92F2013B
:102EE00064897589AD0196018201B9DEC8018C0142
:102EF000E0E10C94213C0E94103C280169013A0158
:102F0000CB018201F20121813281F9013E962591A6
:102F100034913F97F90109955801F601EA0DFB1D1F
:102F20003197F080F601EA0DFB1DE080F601EA0D15
:102F3000FB1DB181A0E0F601EA0DFB1D028110E04E
:102F4000A02BB12BF601EA0DFB1D93808824F6011E
:102F5000EA0DFB1D048110E0802A912A082D092921
:102F600029F00EE7801600E0900640F0B30143E040
:102F70003E2D2F2D820150DEC8016EC0F201068D5C
:102F8000178D9D01280D391D0217130740F4B30159
:102F900042E03E2D2F2D82013FDEC8015DC0A3011E
:102FA0003E2D2F2D8201F20161817281FB013A9643
:102FB000659174913B97FB010995C801082D000F9D
:102FC000F301E80FF91F0083019600E010E00815F7
:102FD000190508F041C020E0F20166897789AD014A
:102FE000440F551F640F751FFB0140815181452F10
:102FF00050E0242FF20166897789AD01440F551FF7
:10300000640F751FFB0140815181242FF2016689F5
:103010007789AD01440F551F640F751FFB01408177
:103020005181452F50E0F301E80FF91F40830196CD
:10303000F20166897789AD01440F551F640F751F32
:10304000FB0140815181F301E80FF91F4083019694
:1030500011960F5F1F4FBBCF8C01E0E10C94213C18
:103060000E94103C280169014A01CB018201F20152
:1030700021813281F9013E96259134913F97F901E2
:1030800009955801F601EA0DFB1D3197F080F60114
:10309000EA0DFB1DE080F601EA0DFB1DB181A0E009
:1030A000F601EA0DFB1D028110E0A02BB12BF60109
:1030B000EA0DFB1D73806624F601EA0DFB1D0481F9
:1030C00010E0602A712A062D072929F00EE7601604
:1030D00000E0700640F0B40143E03E2D2F2D820148
:1030E0009BDDC80152C0F20100A111A19D01260D76
:1030F000371D0217130740F4B40142E03E2D2F2D77
:1031000082018ADDC80141C0A4013E2D2F2D82011C
:10311000F20161817281FB013A96659174913B974E
:10312000FB010995C801062D000FF401E80FF91FF6
:103130000083019600E010E00615170530F5F20156
:10314000408D518D9D01220F331F420F531FFA01F5
:1031500020813181232F30E0F401E80FF91F208313
:103160000196F201408D518D9D01220F331F420FB8
:10317000531FFA0120813181F401E80FF91F2083E8
:10318000019611960F5F1F4FD7CF8C01E0E10C9491
:10319000213C0E94103C580129016A01CB018501A4
:1031A000F50121813281F9013E96259134913F97B5
:1031B000F90109953801F201E60DF71D3197F0800C
:1031C000F201E60DF71DE080F201E60DF71D91809A
:1031D0008824F201E60DF71D028110E0802A912A71
:1031E000F501028D138D8016910640F0B60142E084
:1031F0003E2D2F2D850110DDC8012EC0F201E60DF8
:10320000F71DB381A0E0F201E60DF71D048110E087
:10321000A02BB12BA0300FEFB00751F4940101E0C7
:103220000E946232AC01920186010E94383C14C0B7
:103230000A2F0B2B51F4940100E00E946232AC0182
:10324000920186010E94383C07C0B60143E03E2D42
:103250002F2D8501E1DCC8018C01E0E10C94213CBB
:103260000E94123C2801C9015A014B018201F2015E
:1032700021813281F9013E96259134913F97F901E0
:103280000995D801FC01EA0FFB1F3197D080FC01A2
:10329000EA0FFB1FC080FC01EA0FFB1F7180662450
:1032A000FC01EA0FFB1F028110E0602A712AF20183
:1032B000068D178D6016710640F0B50142E03C2D79
:1032C0002D2D8201A9DC48011CC0FC01EA0FFB1F67
:1032D000538140E0FC01EA0FFB1F048110E0402B0A
:1032E000512BF201268937898301000F111F200F0E
:1032F000311FF90140835183A4019C0185010E9483
:10330000383C8401EEE00C94233C0E94103C2801E0
:1033100039016A01CB018201F20121813281F90177
:103320003E96259134913F97F90109954801F301A3
:10333000E80DF91D3197F080F301E80DF91DE080EB
:10334000F301E80DF91DB180AA24F301E80DF91D80
:10335000028110E0A02AB12AF301E80DF91DB38122
:10336000A0E0F301E80DF91D048110E0A02BB12BC2
:103370000A2F0B2B21F0A13B07E0B00740F0B6016C
:1033800043E03E2D2F2D820147DCC80134C0F201FD
:10339000028D138D95012A0F3B1F0217130740F46E
:1033A000B60142E03E2D2F2D820136DCC80123C03C
:1033B000A5019D018301080D191D0A5F1F4F0E9481
:1033C0002932A6013E2D2F2D8201F20161817281E9
:1033D000FB013A96659174913B97FB010995C801F1
:1033E00044E050E09301280F391F8601080F191F90
:1033F0000E94383C04968C01E0E10C94213C0E9430
:10340000103C480129016A013B018401F40121813A
:103410003281F9013E96259134913F97F901099542
:10342000C801F201E80FF91F3197F080F201E80FAF
:10343000F91FE080F201E80FF91FB181A0E0F2016D
:10344000E80FF91F028110E0A02BB12BF201E80F69
:10345000F91FB380AA24F201E80FF91F048110E0DC
:10346000A02AB12A0A2D0B2929F00CE7A01600E0AA
:10347000B00640F0B60143E03E2D2F2D8401CCDB99
:1034800038014FC0F401068D178D9D012A0D3B1D9B
:103490000217130740F4B60142E03E2D2F2D8401A0
:1034A000BBDB38013EC020E030E02A153B05E0F4EC
:1034B000F201E80FF91F568140E0F201E80FF91F11
:1034C000078110E0402B512BF401668977898D012B
:1034D000000F111F600F711FFB0140835183119674
:1034E00002962F5F3F4FE1CFA6013E2D2F2D840185
:1034F000F40161817281FB013A96659174913B9769
:10350000FB010995380144E050E09201260D371D7A
:103510008601060D171D0E94383C04E0600E00E095
:10352000701E8301E0E10C94213C08010FEF1FEFB6
:103530000895080100E010E008950E94143C28015D
:103540004901DA01CB018201F20121813281F901C5
:103550003E96259134913F97F90109953801F40180
:10356000E60DF71D3197B080F401E60DF71DA08040
:10357000AD013A2D2B2D8201F20161817281FB0197
:103580003A96659174913B97FB010995C801FD013D
:10359000E80FF91F03E000830196FD01E80FF91F12
:1035A00000E200830196FD01E80FF91F07E00083A8
:1035B0000196FD01E80FF91F02E3008301968C01DB
:1035C000ECE00C94253C0E94103C38014901DA01E2
:1035D000CB018301F30121813281F9013E962591CE
:1035E00034913F97F90109952801F401E40DF51D87
:1035F0003197C080F401E40DF51DB080F401E40DB5
:10360000F51DE280FF248C0106501040E016F10603
:1036100041F0BD0142E03B2D2C2D8301FDDAC801B4
:1036200014C1AD013B2D2C2D8301F3016181728109
:10363000FB013A96659174913B97FB010995C8018E
:10364000F401E40DF51D0381005049F00A9579F16C
:103650000A9509F49AC00A9509F4E4C0EFC0FD0187
:10366000E80FF91F00E000830196FD01E80FF91F44
:1036700004E000830196F401E40DF51D0381FD01D2
:10368000E80FF91F00830196FD01E80FF91F02E022
:1036900000830196FD01E80FF91F00E00083019609
:1036A000FD01E80FF91F02E000830196CEC0F4018E
:1036B000E40DF51D0481A02E0CE0A01640F0BD0124
:1036C00042E03B2D2C2D8301A7DAC801BEC0AA2001
:1036D000B1F52A2D8D01040D151D0B5F1F4F0E94A2
:1036E0006C0A2091720CFD01E40DF51D25832091DB
:1036F000710CFD01E40DF51D2683FD01E40DF51DA2
:1037000020E32783FD01E80FF91F20E020830196C5
:10371000202FFD01E80FF91F20830196F401E40D2D
:10372000F51D2381FD01E80FF91F20830196FD019E
:10373000E80FF91FA0820196800F911F86C02A2DE5
:103740008D01040D151D0B5F1F4F0E946C0A98011F
:10375000FD01E80FF91F00E000830196022FFD0133
:10376000E80FF91F00830196F401E40DF51D0381B4
:10377000FD01E80FF91F00830196FD01E80FF91F15
:10378000A0820196820F931F60C0F401E40DF51D25
:103790000481A02E0CE0A01640F0BD0142E03B2DBC
:1037A0002C2D830139DAC80150C00A2D0E949509D9
:1037B000202FF401E40DF51D028110E002501040AD
:1037C00030E00217130741F0BD0143E03B2D2C2DE3
:1037D000830122DAC80139C00A2D0E9495094A2DB9
:1037E000202F30E08401040D151D0B5F1F4F0E9438
:1037F0007A0A012B79F00AEE1AE00E94CF0D0DE053
:103800000E94A315BD0145E03B2D2C2D830104DA58
:10381000C8011BC0BD0147E03B2D2C2D8301FCD905
:10382000C80113C00E94821D002379F4BD0146E047
:103830003B2D2C2D8301F0D9C80107C0BD0141E00B
:103840003B2D2C2D8301E8D9C8018C01E0E10C94BB
:10385000213C0E94133CD80149012A01CB018D0172
:10386000FD0121813281F9013E96259134913F97E6
:10387000F90109953801F401E60DF71D3197B08083
:10388000F401E60DF71DA0800AEE1AE00E948D0AF1
:10389000C02E0AEE1AE00E948D0A033081F4A201C4
:1038A0003A2D2B2D8D01FD0161817281FB013A962C
:1038B000659174913B97FB010995C80115C00AEE0B
:1038C0001AE00E948D0A013041F4B20146E03A2D1F
:1038D0002B2D8D01A1D9C80107C0B20141E03A2DBD
:1038E0002B2D8D0199D9C8018C01EDE00C94243C5D
:1038F0000E94113CD80129013A015B018D01FD01B3
:1039000021813281F9013E96259134913F97F90149
:1039100009954801F201E80DF91D3197C080F201C7
:10392000E80DF91DE080C501DC2CDD0CDD08FD0192
:10393000058110E0C016D10629F0CC2019F000E076
:1039400010E070C00E2D102F110F110BE4EBF0E002
:10395000FBBFF9E00C94D33BBC01A30192018D01A4
:10396000B6D9C8015BC0BC01A30192018D0139DA4F
:10397000C80154C0BC01A30192018D01BCDAC80189
:103980004DC0BC01A30192018D016ADBC80146C094
:10399000BC01A30192018D01FCDBC8013FC0BC0149
:1039A000A30192018D015CDCC80138C0BC01A301F8
:1039B00092018D01BADDC80131C0BC01A3019201A1
:1039C0008D01A3DCC8012AC0BC01A30192018D01B5
:1039D00040DFC80123C0BC01A30192018D010FDDAE
:1039E000C8011CC0BC01A30192018D01A6DDC80164
:1039F00015C0BC01A30192018D019BDDC8010EC061
:103A0000BC01A30192018D01DEDDC80107C0B30135
:103A100041E03E2D2C2D8D01FFD8C801FD0184878A
:103A200095878C01EFE00C94223CB80101E010E096
:103A300008950E94143CD80129013A018D01FD012D
:103A400021813281F9013E96259134913F97F90108
:103A50000995C801F201E80FF91F31979080F20132
:103A6000E80FF91F80805301FD010681091591F4CB
:103A7000FD010781081571F402E0801641F4A501EB
:103A80009201280F391F2E5F3F4F8D01CEDF01E0DD
:103A900010E02DC08D01FD0121813281F901709668
:103AA000259134917197F901099598018C01020FC4
:103AB000131F0E5F1F4FA016B10631F487FA16F4DC
:103AC00001E003C000E001C000E0002371F0F2015A
:103AD000E80FF91F21812C302CF4022F102F110F29
:103AE000110B05C00EE010E002C001E010E0ECE0B8
:103AF0000C94253C980101E010E00895980102E043
:103B000010E008950091600608950E941A3CC801D3
:103B1000D9010A2F0B2B11F401E001C000E00023B2
:103B200079F006EF402E07E0502EDC011F96FC01D5
:103B3000A587B6878C01015F1F4F0E94B51506C08F
:103B4000FC0143845484FC01A587B68704ED17E08B
:103B5000FC0103871487F201059114913197FD014F
:103B6000018312838C01E6E00C942B3C0E941C3CE8
:103B7000C801D901082F092B79F00A2F0B2B39F036
:103B800020E030E08C01015F1F4F0E94C415A0FBB4
:103B90001EF48C010E94363BE4E00C942D3C0F5047
:103BA0001040E4CF0E94103C229728833983D8012B
:103BB0002A013B018D889E888F89988DED8CFE8C23
:103BC000CF8CD8A0A9A0BAA0088119810D931C930D
:103BD0001197FD0142825382648275820A89FD0138
:103BE00000870B89FD0106830C89FD010783FD0118
:103BF00005851685F80186869786FD01058516855B
:103C0000F801808B918B298D3A8DFD0105851685F4
:103C1000F801228B338B2B8D3C8DFD01058516859C
:103C2000F801248B358BFD0105851685F801E68AA0
:103C3000F78AFD0105851685F801C08ED18EFD013C
:103C400005851685F801A28EB38E2BA13CA1FD013E
:103C500005851685F801248F358F2DA13EA1FD0124
:103C600005851685F801268F378F2FA138A5FD0110
:103C700005851685F80120A331A3FD0142815381FA
:103C80006481758100E412E42FE030E00E94AE3BD5
:103C900040E250E060E070E00E94803B08011901C2
:103CA00048EE53E060E070E0800191010E94AE3B7D
:103CB0000F5F1F4FFD0101871287FD0105851685E6
:103CC000F801428D538D20E030E0FD010585168519
:103CD000F801028913890E94483CFD01058516857B
:103CE000F801448D558D20E030E0FD0105851685F5
:103CF000F801048915890E94483CFD010585168557
:103D0000F80140A151A1440F551F20E030E0FD0112
:103D100005851685F801008D118D0E94483C9A9307
:103D20008A939A928A92FD0107810A93FD01368156
:103D3000FD012085FD0142815381648175810D91D2
:103D40001C9111970E94DF2A2296E7E20C94213CF5
:103D5000BA93AA93D8010D911C9111970E94142B2C
:103D6000A991B9910895BA93AA93D8010D911C9184
:103D700011970E94232BA991B9910895BA93AA9300
:103D8000D8010D911C9111970E94342BA991B991E2
:103D90000895BA93AA93D8010D911C9111970E948E
:103DA000602BA991B9910895BA93AA93D8010D9166
:103DB0001C9111970E947B2BA991B99108950E94A3
:103DC0001A3C2801D901CA019C018D010E942209D7
:103DD0009801022FFD01E80FF91F00830196890168
:103DE000012F10E0FD01E80FF91F008301968C01FF
:103DF000E6E00C942B3C0F501040E1CF1D01080170
:103E0000E881F981208331838A01012F10E0028348
:103E1000042F03838B01012F10E00483062F0583F9
:103E200006E010E0D101229608950F501040E6CF31
:103E3000B801FA012083FA01318302E010E008950D
:103E40000F501040F5CF0E941A3CD8012901CA0139
:103E5000AC0192010D911C9111970E948F2BE6E00D
:103E60000C942B3C0F501040EECFBA93AA93D8017C
:103E70000D911C9111970E942C22A991B99108953E
:103E8000BA93AA93D8010D911C9111970E942922EF
:103E9000A991B99108950E941A3CD8012901CA013B
:103EA000AC0192010D911C9111970E94972BE6E0B5
:103EB0000C942B3C0E941C3CD801C9010E942F226B
:103EC000FD0125853685F90122853385021B130BFB
:103ED0000817190710F001E001C000E0E4E00C94BD
:103EE0002D3CBA93AA93D8010E942F22FD0125856B
:103EF0003685F90102871387A991B99108950E9427
:103F0000163C4801D901CA01843000E0900710F442
:103F100000E021C0FD01E80FF91F319750804424D3
:103F2000FD01E80FF91F3297008110E0402A512A65
:103F30009C01225030408D010E94220938019C01D1
:103F4000225030408D010E9422090415150511F4FC
:103F500001E001C000E0EAE00C94273C0E941C3C18
:103F6000D801FD01058516850E947308E8EEF0E092
:103F7000FBBFF9E00C94D33B8D01B3DF8D01E8DE8C
:103F8000FD0105851685F80100E0048700E005873E
:103F90008D01E9DE23E0FD01058516850E9470088C
:103FA00042C28D016DDF0023E1F140E051E0FD01EF
:103FB00005851685F80104851585401B510BFD010B
:103FC00005851685F80126853785FD010585168549
:103FD000F80104851585200F311F8D015CDFC801B4
:103FE000813000E090079CF0FD0105851685F80101
:103FF00004851585080F191F048715878D0171DF4A
:1040000024E0FD01058516850E9470080AC08F3FD7
:104010000FEF900731F422E0FD01058516850E941F
:10402000700828E93AE38D0145DF002331F022E0F2
:10403000FD01058516850E947008F5C18D0120DF00
:104040000023B1F140E051E0FD0105851685F8013E
:1040500004851585401B510BFD0105851685F8016A
:1040600026853785FD0105851685F80104851585AA
:10407000200F311F8D010FDFC801813000E0900754
:104080006CF0FD0105851685F80104851585080F7E
:10409000191F048715878D0124DF0AC08F3F0FEF9A
:1040A000900731F422E0FD01058516850E94700815
:1040B000FD01218532858D01FDDE0023E9F0FD0142
:1040C00005851685F80144855585FD01058516850C
:1040D000F801268537858D0112DF002339F025E0B0
:1040E000FD01058516850E9470089DC122E0FD0135
:1040F000058516850E94700896C1FD010585168507
:10410000F80164857585FD0105851685F8014089EE
:104110005189FD0105851685F80126853785FD0144
:10412000058516850E94781C012B49F00E943422D7
:1041300026E0FD01058516850E94700874C10E9465
:104140003A2222E0FD01058516850E9470086BC1A8
:104150008D01C7DE8D01FCDD8D0110DE27E0FD0144
:10416000058516850E9470085EC125E030E08D014E
:10417000A1DE0023C9F0FD0105851685F8014485FF
:104180005585FD0105851685F80120893189FD01D8
:10419000058516850E94E9158D01FBDD28E0FD01EE
:1041A000058516850E9470083EC18D015EDE0023E4
:1041B00051F08D01F9DD0E943A2222E0FD010585D2
:1041C00016850E9470082FC18D01D8DD20E0FD0109
:1041D000058516850E94700826C18D0182DE8D013D
:1041E000B7DDFD0105851685F80100E0048700E0D4
:1041F00005878D01B8DD2BE0FD01058516850E9440
:10420000700811C18D013CDE0023E1F140E051E076
:10421000FD0105851685F80104851585401B510BA8
:10422000FD0105851685F80126853785FD01058583
:104230001685F80104851585200F311F8D012BDEB1
:10424000C801813000E090079CF08D014ADEFD013D
:1042500005851685F80104851585080F191F048743
:1042600015872CE0FD01058516850E9470080AC09F
:104270008F3F0FEF900731F421E1FD010585168591
:104280000E94700828EE33E08D0114DE002331F027
:1042900021E1FD01058516850E947008C4C08D01CD
:1042A000EFDD0023B1F140E051E0FD010585168509
:1042B000F80104851585401B510BFD010585168508
:1042C000F80126853785FD0105851685F8010485E9
:1042D0001585200F311F8D01DEDDC801813000E022
:1042E00090076CF08D01FDDDFD0105851685F80157
:1042F00004851585080F191F048715870AC08F3F8D
:104300000FEF900731F421E1FD01058516850E942C
:104310007008FD01218532858D01CCDD0023E9F097
:10432000FD0105851685F80144855585FD01058546
:104330001685F801268537858D01E1DD002339F0EA
:104340002DE0FD01058516850E9470086CC021E1F5
:10435000FD01058516850E94700865C0FD01058573
:104360001685F80144855585FD0105851685F801FA
:1043700026853785FD01058516850E94191D012BAF
:1043800039F021E1FD01058516850E9470084BC0BA
:1043900021E1FD01058516850E94700844C08D014C
:1043A000A0DD8D01D5DC0E9434222FE0FD010585C2
:1043B00016850E94700837C025E030E08D017ADD57
:1043C000002389F1FD0105851685F8014485558591
:1043D000FD0105851685F80120893189FD010585D6
:1043E00016850E94E9158D01D4DC20E1FD010585CB
:1043F00016850E94700817C08D0137DD002399F0E3
:104400008D01D2DC0E943A222AE0FD010585168545
:104410000E94700808C08D01B1DC20E0FD01058517
:1044200016850E947008E4E00C942D3C0F5010405B
:1044300095CD980101E010E008950F5010400C94C4
:104440001922980102E010E008950F5010400C94DA
:104450002122F80102A50895F80103A50895E1E7D6
:10446000F6E0008111810895009162000F7B0093B6
:104470006200089500916200006400936200089554
:104480000E941C3CD801822F8D01075F1F4F0E94A4
:10449000520E02E218E0FD010783108708E218E0DF
:1044A000FD01028713878C9320E08D01075F1F4F6A
:1044B0000E9470088D01E4E00C942D3C0E941C3C8D
:1044C000C801D901082F092B61F020E030E08C01F0
:1044D0000C5F1F4F0E94730EA0FB1EF48C010E9404
:1044E000363BE4E00C942D3C04501040E7CF0E9492
:1044F0001C3CC801D901082F092B61F020E030E0F5
:104500008C01075F1F4F0E94730EA0FB1EF48C01ED
:104510000E94363BE4E00C942D3C09501040E7CF5C
:104520001D01D801F9010081FD010687F901018112
:104530001281FD010787108BF90103811481FD01B0
:10454000018B128BF90105811681FD01058316830C
:10455000F90107811085FD01038B148BF901008996
:104560001189FD01018F128FF90102851385FD016B
:10457000058B168BF90145855685F901078510E0F5
:10458000000F111F400F511FFD01478B508FF90184
:104590000785085F0787F90160897189F901028938
:1045A00010E048E150E00E943E3B600F711FFD01AA
:1045B000618F728FF9010289085F028BFD0100E0B3
:1045C000038FD10108950E941A3CD801FD01018991
:1045D00012890E5F1F4FC80100E0083078F4FD011A
:1045E000218D328D10E0200F311FF901208110E064
:1045F000FC01E00FF11F20830395EFCF28E030E0AE
:104600008C010E9442092801FD0101891289065F7F
:104610001F4FC801042DFC01008301968201012F68
:1046200010E0FC010083FD0101891289F80101E815
:104630000083FD0106850E944B300AE613E001501D
:104640001040E9F700C000004DE050E0FD01218975
:104650003289FD01078510890E94602D0E9470300B
:10466000FD0107851089F8010181013849F4FD0138
:1046700007851089F80104850E3711F401E001C0A7
:1046800000E0E6E00C942B3C0E94163CD8019924F3
:1046900020E0283020F5FD01018D128D30E0020F61
:1046A000131FF80100850F3FC1F0FD010389148934
:1046B000FD01418D528D30E0420F531FFA014085BC
:1046C00050E0040F151FF8010081002331F001E0D4
:1046D00010E0422F0E94483B902A2395DACF88248D
:1046E00020E0283020F5FD01018D128D30E0020F11
:1046F000131FF80100890F3FC1F0FD0103891489E0
:10470000FD01418D528D30E0420F531FFA01408967
:1047100050E0040F151FF8010081002331F001E083
:1047200010E0422F0E94483B802A2395DACF55247F
:10473000FD010381002329F0FD0100E0038368945B
:1047400050F8FD010481002329F0FD0100E00483FD
:10475000689451F8FD010181002329F0FD0100E07A
:104760000183689452F8FD010281002329F0FD01C4
:1047700000E00283689453F8FD0101891289F80171
:1047800002E40083FD01018912890E5F1F4FC801F9
:10479000442420E02830A8F4FD010789108D422F21
:1047A00050E0440F551F040F151FF801018100232D
:1047B00031F001E010E0422F0E94483B402A23954F
:1047C000E9CFFC0140820196442420E02830A8F47F
:1047D000FD010789108D422F50E0440F551F040F33
:1047E000151FF8010081002331F001E010E0422F95
:1047F0000E94483B402A2395E9CFFC014082019664
:10480000FC0190820196FC0180820196FC0150829D
:10481000019625E030E0FD01018912890E5F1F4FEE
:104820000E9442093801062DFC0100830196830194
:10483000012F10E0FC0100830196FC010EE70083CC
:104840000196FD0106850E944B300AE613E00150F7
:104850001040E9F700C000004AE050E0FD01218966
:104860003289FD01078510890E94602D0E947030F9
:10487000FD0107851089F8010181045209F442C045
:104880000E5109F041C025E030E0FD010785108997
:104890000E5F1F4F0E94500901301040ACF1FD0126
:1048A00007851089F80101850E3771F5FD0100E0DB
:1048B000038FFD0107851089F8010281402E20E059
:1048C0002830F0F401E010E0422F0E94483B142D04
:1048D0001023112351F0FD010589168930E0020FE4
:1048E000131FF80101E0008309C0FD010589168945
:1048F00030E0020F131FF80100E000832395E0CFA2
:1049000001E013C000E011C0FD01038D0A3040F04A
:10491000FD0105811681F80102E0008300E005C079
:10492000FD01038D0395038F00E0EAE00C94273C22
:104930009A938A93C8018C01075F1F4F0E947308E6
:10494000005019F00A9551F00BC08C013CDE21E0BB
:104950008C01075F1F4F0E94700802C08C0194DE1B
:104960008991999108959A938A93C801082F092BE8
:1049700029F020FB1EF48C010E94363B899199910D
:10498000089542E558E0F80147835087F8012083F5
:1049900008959A938A93C801082F092B29F020FBC8
:1049A0001EF48C010E94363B899199910895BD01B6
:1049B000D801F9010081FD010187F901018112810E
:1049C000FD0102871387F90103811481FD0104872A
:1049D0001587F90105811681FD0105831683F9010B
:1049E00047815085F901018510E0400F511FFD01FD
:1049F00046875787F9010185085E0187FD0100E0C0
:104A0000008BDB0108950E941C3CD8011C96ED919F
:104A1000FC911D9702E40083FD0101850E944B304B
:104A20000AE613E001501040E9F700C0000049E039
:104A300050E0FD0124853585FD01028513850E9426
:104A4000602D0E9470301A96ED91FC911B970181A8
:104A50000452E1F10E51D1F526E030E0FD0102856E
:104A600013850E5F1F4F0E9474090130104074F1CE
:104A7000FD0100E0008BFD018685978560E06630D2
:104A800018F5FD010285138570E0060F171FF80168
:104A9000328120E02830B0F420FB96F001E010E0F5
:104AA000422F0E94483B132F1023112329F0FC01B1
:104AB00001E00083019604C0FC0100E00083019640
:104AC0002395E8CF6395DBCF01E011C0FD0100899C
:104AD0000A3040F01596ED91FC91169701E00083A5
:104AE00000E005C0FD0100890395008B00E0E4E0D3
:104AF0000C942D3CBA93AA93D8018D010E94520EBA
:104B000008E518E0FD01018312838D010A5F1F4F44
:104B10000E94443A25E28D010E94700825E28D0131
:104B20000E94930A8D01A991B9910895BA93AA930D
:104B3000D8018D01DFDF06E718E0FD010183128354
:104B400025E28D010E94700825E28D010E94930AE2
:104B50008D01A991B9910895BA93AA93D8018D01B5
:104B6000C9DF04E918E0FD010183128325E28D010C
:104B70000E94700825E28D010E94930A8D01A9917F
:104B8000B9910895BA93AA93D8018D01B3DF06EDC8
:104B900018E0FD010183128328E18D010E94700855
:104BA00028E18D010E94930A8D01A991B991089580
:104BB000BA93AA93D8018D019DDF04EF18E0FD019F
:104BC0000183128325E28D010E94700825E28D0188
:104BD0000E94930A8D01A991B99108950E941C3CED
:104BE000D801C9010A2F0B2BB1F008E518E0FD012F
:104BF0000183128322E030E08D010A5F1F4F0E9483
:104C00005F3A20E030E08D010E94730E80FB1EF4BD
:104C10008D010E94363BE4E00C942D3CBA93AA939C
:104C2000D8018D010E947308E2E1F0E0FBBFFAE0D9
:104C30000C94D33B8D011196ED91FC9112977096D7
:104C4000259134917197F901099598018D010A5FB9
:104C50001F4F0E946D3A8D011196ED91FC911297B4
:104C60003496259134913597F901099529E18D0103
:104C70000E9470084DC28D010A5F1F4F0E94873A43
:104C8000002301F18D011196ED91FC91129772961E
:104C9000259134917397F901099598018D010A5F67
:104CA0001F4F0E946D3A8D011196ED91FC91129764
:104CB0003C96259134913D97F90109952AE18D01A2
:104CC0000E94700825C28D010A5F1F4F0E94873A1B
:104CD000002301F18D011196ED91FC9112977096D0
:104CE000259134917197F901099598018D010A5F19
:104CF0001F4F0E946D3A8D011196ED91FC91129714
:104D00003496259134913597F901099529E18D0162
:104D10000E947008FDC18D011196ED91FC911297D2
:104D20003696259134913797F901099522E08D0146
:104D30000E947008EDC18D011196ED91FC911297C2
:104D40007496259134917597F901099598018D0113
:104D50000A5F1F4F0E946D3A8D011196ED91FC91F3
:104D600012973896259134913997F901099528E0E1
:104D70008D010E947008CCC18D010A5F1F4F0E94F7
:104D8000873A002301F18D011196ED91FC91129764
:104D90007696259134917797F901099598018D01BF
:104DA0000A5F1F4F0E946D3A8D011196ED91FC91A3
:104DB00012973C96259134913D97F901099529E088
:104DC0008D010E947008A4C18D010A5F1F4F0E94CF
:104DD000873A002301F18D011196ED91FC91129714
:104DE0007496259134917597F901099598018D0173
:104DF0000A5F1F4F0E946D3A8D011196ED91FC9153
:104E000012973896259134913997F901099528E040
:104E10008D010E9470087CC18D011196ED91FC916D
:104E200012977896259134917997F901099598010F
:104E30008D010A5F1F4F0E946D3A8D011196ED9111
:104E4000FC9112973A96259134913B97F901099577
:104E50002EE08D010E9470085BC18D010A5F1F4F1B
:104E60000E94873A002301F18D011196ED91FC918A
:104E700012977A96259134917B97F90109959801BB
:104E80008D010A5F1F4F0E946D3A8D011196ED91C1
:104E9000FC9112973C96259134913D97F901099523
:104EA0002FE08D010E94700833C18D010A5F1F4FF2
:104EB0000E94873A002301F18D011196ED91FC913A
:104EC00012977896259134917997F901099598016F
:104ED0008D010A5F1F4F0E946D3A8D011196ED9171
:104EE000FC9112973A96259134913B97F9010995D7
:104EF0002EE08D010E9470080BC18D011196ED917D
:104F0000FC9112977896259134917997F90109953A
:104F100098018D010A5F1F4F0E946D3A8D01119615
:104F2000ED91FC9112973A96259134913B97F901B6
:104F3000099524E18D010E947008EAC08D010A5F85
:104F40001F4F0E94873A002301F18D011196ED91C8
:104F5000FC9112977A96259134917B97F9010995E6
:104F600098018D010A5F1F4F0E946D3A8D011196C5
:104F7000ED91FC9112973C96259134913D97F90162
:104F8000099525E18D010E947008C2C08D010A5F5C
:104F90001F4F0E94873A002301F18D011196ED9178
:104FA000FC9112977896259134917997F90109959A
:104FB00098018D010A5F1F4F0E946D3A8D01119675
:104FC000ED91FC9112973A96259134913B97F90116
:104FD000099526E18D010E9470089AC08D010A5F33
:104FE0001F4F0E94873A002301F18D011196ED9128
:104FF000FC9112977696259134917797F90109954E
:1050000098018D010A5F1F4F0E946D3A8D01119624
:10501000ED91FC9112973C96259134913D97F901C1
:10502000099527E18D010E94700872C08D010A5F09
:105030001F4F0E94873A002301F18D011196ED91D7
:10504000FC9112977896259134917997F9010995F9
:1050500098018D010A5F1F4F0E946D3A8D011196D4
:10506000ED91FC9112973A96259134913B97F90175
:10507000099524E18D010E9470084AC08D011196A6
:10508000ED91FC9112977C96259134917D97F901D1
:10509000099598018D010A5F1F4F0E946D3A8D019D
:1050A0001196ED91FC9112973A96259134913B9788
:1050B000F90109952FE18D010E94700829C08D0129
:1050C0000A5F1F4F0E94873A002311F18D0111964C
:1050D000ED91FC9112973C96259134913D97F90101
:1050E00009958D010E941D2A202F8D010E947008B4
:1050F0000FC08D011196ED91FC9112973C96259170
:1051000034913D97F901099520E08D010E947008C6
:10511000A991B99108950E941C3CC801D901082F9A
:10512000092B69F025E28C010E94700820E030E034
:105130008C0154DDA0FB1EF48C010E94363BE4E0A0
:105140000C942D3C0E941D3CC801A22F8C010E9492
:105150007308202F8C010E94930A0A2FE0E5F0E0EB
:10516000FBBFFAE00C94D33B25E28C010E9470084F
:105170000EC021E08C010E94700809C027E08C015C
:105180000E94700804C027E08C010E947008E3E0D0
:105190000C942E3C08959A938A93C80101E00E94D2
:1051A0004A378991999108959A938A93C80102E0A8
:1051B0000E944A3789919991089508959A938A9304
:1051C000C80102E00E9476378991999108950E9462
:1051D0001C3CC801D901082F092B69F025E28C017C
:1051E0000E94700820E030E08C01F8DCA0FB1EF487
:1051F0008C010E94363BE4E00C942D3C0E941D3C47
:10520000C801A22F8C010E947308202F8C010E94DC
:10521000930A0A2FE6E6F0E0FBBFFAE00C94D33BDA
:1052200025E28C010E9470080EC021E08C010E94D2
:10523000700809C025E28C010E94700804C02DE0AE
:105240008C010E947008E3E00C942E3C08959A9320
:105250008A93C80101E00E944A3789919991089583
:1052600008959A938A93C80103E00E944A3789916E
:10527000999108959A938A93C80103E00E94763722
:105280008991999108950E941C3CC801D901082F69
:10529000092B69F025E28C010E94700820E030E0C3
:1052A0008C019CDCA0FB1EF48C010E94363BE4E0E8
:1052B0000C942D3C0E941D3CC801A22F8C010E9421
:1052C0007308202F8C010E94930A0A2FECE7F0E06C
:1052D000FBBFFAE00C94D33B28E18C010E947008DC
:1052E00013C028E18C010E9470080EC027E08C01D9
:1052F0000E94700809C02DE08C010E94700804C053
:1053000023E18C010E947008E3E00C942E3C9A93F8
:105310008A93C8010E946C2A8991999108950895F1
:105320009A938A93C8010E946C2A89919991089551
:105330009A938A93C8010E946C2A89919991089541
:105340009A938A93C8010E94722A02E21CE00E948A
:105350004F148991999108950E941C3CC801D9016C
:10536000082F092B69F025E28C010E94700820E0CB
:1053700030E08C0133DCA0FB1EF48C010E94363B34
:10538000E4E00C942D3C0E941D3CC801A22F8C012E
:105390000E947308202F8C010E94930A0A2FE2E9D1
:1053A000F0E0FBBFFAE00C94D33B25E28C010E94B5
:1053B000700818C025E28C010E94700813C027E015
:1053C0008C010E9470080EC02DE08C010E947008B4
:1053D00009C023E18C010E94700804C02EE18C01F9
:1053E0000E947008E3E00C942E3C9A938A93C801C3
:1053F0000E940F098991999108959A938A93C801FF
:105400000E940F098991999108959A938A93C801EE
:105410000E94FD088991999108959A938A93C801F1
:105420000E9406098991999108959A938A93C801D7
:105430000E940F09899199910895F80103810895B7
:10544000980100ED17E00895980100ED17E0089528
:10545000980108EE13E00895980108EE13E008950E
:10546000980104EF11E00895980104EF11E0089508
:10547000980102E310E00895980100ED17E0089507
:10548000980100ED17E00895980108EE13E00895E3
:10549000980108EE13E00895980104EF11E00895D3
:1054A000980104EF11E00895980100ED17E00895C8
:1054B000980100ED17E00895980108EE13E00895B3
:1054C000980108EE13E00895980104EF11E00895A3
:1054D000980104EF11E00895009162000F770093A6
:1054E00062000895009162000068009362000895D0
:1054F0000E94163CD80149013A012B018A859B85FF
:105500002C843D840E841F84688979892B893C8989
:1055100002E119E0FD0105A716A7FD018082918235
:10552000FD0162827382FD0144825582FD01868302
:105530009783FD0120863186FD0102861386FD01D9
:10554000648775870A89FD010687FD012787308BEF
:105550000D89FD01018BFD0104851585012BE9F005
:10556000FD01468501E010E00E94483B402FFD010F
:1055700004851585F8010081042B0083FD01418914
:1055800001E010E00E94483B402F4095FD01078557
:105590001089F8010081042300838D01E6E10C9459
:1055A000273C9A938A93C801082F092B29F020FBE6
:1055B0001EF48C010E94363B8991999108950E94B6
:1055C000183C2801CA01DB01722E632E8C019D015B
:1055D00040E150E060E070E00E94803BA801B9012A
:1055E00000E010E820E730E00E94AE3B9801215037
:1055F0003040422FF20102811381F801408389017A
:10560000012F10E0402FF20100811181F801408349
:105610004091910C48734660F20100851185F801B4
:105620004083EDE00C94293CF80120E0208F20E03D
:10563000218FF80120E022A7F80120E023A7F8013C
:1056400020E024A708953B2F4A2FF801A481B581BB
:105650002C9120682C93F801A681B7812C912069A8
:105660002C93A42FB32F08953B2F4A2FF801A68126
:10567000B7812C912F762C93A42FB32F08953B2F15
:105680006A2FF801418901E010E00E94483BA7859C
:10569000B0891C91102B1C93A62FB32F08953B2F7C
:1056A0006A2FF801418901E010E00E94483B009513
:1056B000A785B0891C9110231C93A62FB32F0895A2
:1056C0005B2F0A2ED801FD0104851585012B11F0F1
:1056D0008D01D5DF1496ED91FC9115970081006640
:1056E00000831696ED91FC91179700810862008364
:1056F000A02DB52F08955B2F0A2ED8011696ED9197
:10570000FC911797008107790083FD0104851585B9
:10571000012B11F08D01C3DFA02DB52F0895F801E5
:10572000228B338B448B558B01E010E008950E944F
:10573000183CD801C9012A01FD0100E002A7FD01C2
:1057400004A5002319F00FEF1FEF3AC0FD01008DF3
:10575000118D0415150518F00FEF1FEF31C0FD0175
:10576000008D118D012B11F10E944B2E00E010E0F5
:10577000FD01208D318D0217130758F4FD01E00F54
:10578000F11F228DFC01E00FF11F20830F5F1F4FDF
:10579000EFCFFD01608C718CFD0100E0008F00E017
:1057A000018F0E94492E062D10E00AC0FD01008DD8
:1057B000118D012B19F400E010E002C000E010E0B0
:1057C000E8E00C94293CAD01F80124893589232BAC
:1057D00099F4F801A681B7812C912F7D2C93F801C3
:1057E000A481B5812C9120642C93F801A681B78106
:1057F0002C9120642C9315C0F801A289B3899D01D6
:105800002F5F3F4FF801228B338B2C91F801A2853B
:10581000B3852C93F8012489358921503040248B9D
:10582000358BDA0108953B2F4A2FF801A681B78105
:105830002C912F7B2C93F80121E023A7A42FB32FC9
:1058400008950E941C3CF801808D918D409738F09E
:10585000F80121E024A7F80121E022A713C0F801F4
:10586000208D318DC9010196F801808F918FF8014B
:10587000A285B3854C91F801E20FF31F428FF80126
:1058800021E022A7E4E00C942D3CFA93EA937A936A
:105890006A935A934A933A932A931A930A936FB747
:1058A0007BB700917406109175068DDF7BBF6FBFCB
:1058B0000991199129913991499159916991799158
:1058C000E991F9911895FA93EA936A935A934A9356
:1058D0003A932A931A930A935FB76BB700917406B1
:1058E00010917506A0DF6BBF5FBF099119912991D7
:1058F0003991499159916991E991F9911895FA93E2
:10590000EA930A926A935A934A933A932A931A9380
:105910000A935FB76BB7009174061091750691DF1B
:105920006BBF5FBF099119912991399149915991A3
:1059300069910990E991F99118959A938A93C80110
:10594000082F092B29F020FB1EF48C010E94363B06
:105950008991999108959801A895E19B02C0A89515
:10596000FCCFF8943FBB2EBBE09A78940DB308951A
:105970000E941A3CC8012901DA018C010E942B2ED9
:1059800082010E94262E8D010E943F2E00E010E031
:105990000E94352EE6E00C942B3C0E941C3C0E9499
:1059A0003A2EC8010E94442E8017910740F50E94AC
:1059B000302E1FBB0EBB0E94302E0F5F1F4F0E9468
:1059C0002B2EE09A8DB30E94212ED8010E943A2EF0
:1059D000A00FB11F0C91801759F00E94212ED80101
:1059E0000E943A2EA00FB11F0C910DBBE29AE19AD2
:1059F0000E943A2E0F5F1F4F0E94352E09C00E9451
:105A00001F2E00E010E01FBB0EBB01E00E94310E14
:105A1000E4E00C942D3C9A938A93FA93EA933A9299
:105A20002A921A920A927A936A935A934A933A93D1
:105A30002A931A930A938FB79BB7AFDF9BBF8FBF91
:105A400009911991299139914991599169917991C6
:105A50000990199029903990E991F991899199913A
:105A600018959A938A93C801082F092B29F020FBD7
:105A70001EF48C010E94363B89919991089503E1AF
:105A80000DB907B3066007BB6E9A08956E9A089524
:105A90006E9808959A938A93902F06E40A95F1F7E9
:105AA0009FB980E0779908C00E948B0A843610F471
:105AB0008395F8CF0FB101C00FB1899199910895E5
:105AC0000E94183C38012901DA01A13400E0B00736
:105AD00010F000E011C080E090E08A179B0758F4B6
